{
    "contractName": "APIConsumer",
    "abi": [
        {
            "inputs": [],
            "stateMutability": "nonpayable",
            "type": "constructor"
        },
        {
            "anonymous": false,
            "inputs": [
                {
                    "indexed": true,
                    "internalType": "bytes32",
                    "name": "id",
                    "type": "bytes32"
                }
            ],
            "name": "ChainlinkCancelled",
            "type": "event"
        },
        {
            "anonymous": false,
            "inputs": [
                {
                    "indexed": true,
                    "internalType": "bytes32",
                    "name": "id",
                    "type": "bytes32"
                }
            ],
            "name": "ChainlinkFulfilled",
            "type": "event"
        },
        {
            "anonymous": false,
            "inputs": [
                {
                    "indexed": true,
                    "internalType": "bytes32",
                    "name": "id",
                    "type": "bytes32"
                }
            ],
            "name": "ChainlinkRequested",
            "type": "event"
        },
        {
            "inputs": [
                {
                    "internalType": "bytes32",
                    "name": "_requestId",
                    "type": "bytes32"
                },
                {
                    "internalType": "string",
                    "name": "_cid",
                    "type": "string"
                }
            ],
            "name": "fulfill",
            "outputs": [],
            "stateMutability": "nonpayable",
            "type": "function"
        },
        {
            "inputs": [
                {
                    "internalType": "string",
                    "name": "_cid",
                    "type": "string"
                }
            ],
            "name": "requestData",
            "outputs": [
                {
                    "internalType": "bytes32",
                    "name": "requestId",
                    "type": "bytes32"
                }
            ],
            "stateMutability": "nonpayable",
            "type": "function"
        }
    ],
    "bytecode": "6080604052600160045534801561001557600080fd5b506100276001600160e01b0361008216565b600780546001600160a01b031916732f90a6d021db21e1b2a077c5a37b3c7e75d15b7e1790557f323966613961613133626631343638373838623763633461353030613435623860085567016345785d8a0000600955610130565b61010c73c89bd4e1632d3a43cb03aaad5262cbe4038bc5716001600160a01b03166338cc48316040518163ffffffff1660e01b815260040160206040518083038186803b1580156100d257600080fd5b505afa1580156100e6573d6000803e3d6000fd5b505050506040513d60208110156100fc57600080fd5b50516001600160e01b0361010e16565b565b600280546001600160a01b0319166001600160a01b0392909216919091179055565b610c198061013f6000396000f3fe608060405234801561001057600080fd5b50600436106100365760003560e01c80632215ec2c1461003b57806337441996146100f3575b600080fd5b6100e16004803603602081101561005157600080fd5b81019060208101813564010000000081111561006c57600080fd5b82018360208201111561007e57600080fd5b803590602001918460018302840111640100000000831117156100a057600080fd5b91908080601f0160208091040260200160405190810160405280939291908181526020018383808284376000920191909152509295506101a2945050505050565b60408051918252519081900360200190f35b6101a06004803603604081101561010957600080fd5b8135919081019060408101602082013564010000000081111561012b57600080fd5b82018360208201111561013d57600080fd5b8035906020019184600183028401116401000000008311171561015f57600080fd5b91908080601f016020809104026020016040519081016040528093929190818152602001838380828437600092019190915250929550610327945050505050565b005b60006101ac610aae565b6008546101c19030631ba20ccb60e11b6103da565b90506102ad6040518060400160405280600381526020016219d95d60ea1b815250846040516020018080602001806020018381038352601d8152602001807f687474703a2f2f697066732e696f2f6170692f76302f6c733f6172673d000000815250602001838103825284818151815260200191508051906020019080838360005b8381101561025b578181015183820152602001610243565b50505050905090810190601f1680156102885780820380516001836020036101000a031916815260200191505b509350505050604051602081830303815290604052836104059092919063ffffffff16565b610305604051806040016040528060048152602001630e0c2e8d60e31b8152506040518060400160405280600f81526020016e09ec4d4cac6e8e6b660ba5c90c2e6d608b1b815250836104059092919063ffffffff16565b600754600954610320916001600160a01b0316908390610434565b9392505050565b60008281526005602052604090205482906001600160a01b0316331461037e5760405162461bcd60e51b8152600401808060200182810382526028815260200180610bbc6028913960400191505060405180910390fd5b60008181526005602052604080822080546001600160a01b03191690555182917f7cc135e0cebb02c3480ae5d74d377283180a2601f8f644edf7987b009316c63a91a281516103d4906006906020850190610ae3565b50505050565b6103e2610aae565b6103ea610aae565b6103fc8186868663ffffffff61060b16565b95945050505050565b608083015161041a908363ffffffff61064816565b608083015161042f908263ffffffff61064816565b505050565b6004546040805130606090811b60208084019190915260348084018690528451808503909101815260549093018452825192810192909220908601939093526000838152600590915281812080546001600160a01b0319166001600160a01b038816179055905182917fb5e6e01e79f91267dc17b4e6314d5d4d03593d2ceee0fbb452b750bd70ea5af991a26002546001600160a01b0316634000aea085846104dc87610665565b6040518463ffffffff1660e01b815260040180846001600160a01b03166001600160a01b0316815260200183815260200180602001828103825283818151815260200191508051906020019080838360005b8381101561054657818101518382015260200161052e565b50505050905090810190601f1680156105735780820380516001836020036101000a031916815260200191505b50945050505050602060405180830381600087803b15801561059457600080fd5b505af11580156105a8573d6000803e3d6000fd5b505050506040513d60208110156105be57600080fd5b50516105fb5760405162461bcd60e51b8152600401808060200182810382526023815260200180610b996023913960400191505060405180910390fd5b6004805460010190559392505050565b610613610aae565b610623856080015161010061078e565b50509183526001600160a01b031660208301526001600160e01b031916604082015290565b61065582600383516107ce565b61042f828263ffffffff6108d816565b8051602080830151604080850151606086810151608088015151935160006024820181815260448301829052606483018a90526001600160a01b03881660848401526001600160e01b0319861660a484015260c48301849052600160e48401819052610100610104850190815288516101248601528851969b6320214ca360e11b9b949a8b9a91999098909796939591949361014401918501908083838e5b8381101561071c578181015183820152602001610704565b50505050905090810190601f1680156107495780820380516001836020036101000a031916815260200191505b5060408051601f198184030181529190526020810180516001600160e01b03166001600160e01b0319909d169c909c17909b5250989950505050505050505050919050565b610796610b61565b60208206156107ab5760208206602003820191505b506020808301829052604080518085526000815283019091019052815b92915050565b601781116107f5576107ef8360e0600585901b16831763ffffffff6108f216565b5061042f565b60ff811161082b57610818836018611fe0600586901b161763ffffffff6108f216565b506107ef8382600163ffffffff61090a16565b61ffff81116108625761084f836019611fe0600586901b161763ffffffff6108f216565b506107ef8382600263ffffffff61090a16565b63ffffffff811161089b5761088883601a611fe0600586901b161763ffffffff6108f216565b506107ef8382600463ffffffff61090a16565b67ffffffffffffffff811161042f576108c583601b611fe0600586901b161763ffffffff6108f216565b506103d48382600863ffffffff61090a16565b6108e0610b61565b6103208384600001515184855161092b565b6108fa610b61565b61032083846000015151846109d7565b610912610b61565b610923848560000151518585610a22565b949350505050565b610933610b61565b825182111561094157600080fd5b8460200151828501111561096b5761096b856109638760200151878601610a80565b600202610a97565b60008086518051876020830101935080888701111561098a5787860182525b505050602084015b602084106109b15780518252601f199093019260209182019101610992565b51815160001960208690036101000a019081169019919091161790525083949350505050565b6109df610b61565b836020015183106109fb576109fb848560200151600202610a97565b835180516020858301018481535080851415610a18576001810182525b5093949350505050565b610a2a610b61565b84602001518483011115610a4757610a4785858401600202610a97565b60006001836101000a039050855183868201018583198251161781525080518487011115610a755783860181525b509495945050505050565b600081831115610a915750816107c8565b50919050565b8151610aa3838361078e565b506103d483826108d8565b6040805160a081018252600080825260208201819052918101829052606081019190915260808101610ade610b61565b905290565b828054600181600116156101000203166002900490600052602060002090601f016020900481019282601f10610b2457805160ff1916838001178555610b51565b82800160010185558215610b51579182015b82811115610b51578251825591602001919060010190610b36565b50610b5d929150610b7b565b5090565b604051806040016040528060608152602001600081525090565b610b9591905b80821115610b5d5760008155600101610b81565b9056fe756e61626c6520746f207472616e73666572416e6443616c6c20746f206f7261636c65536f75726365206d75737420626520746865206f7261636c65206f66207468652072657175657374a26469706673582212204660a805d928da1466d9918bef1904414e12f3ad72c6ebe01618142aed8fed0364736f6c63430006000033",
    "sourcePath": "e:/cryptodev/sozu/contracts/APIConsumer.sol",
    "compiler": {
        "name": "solc",
        "version": "0.6.0+commit.26b70077"
    },
    "functionHashes": {
        "fulfill(bytes32,string)": "37441996",
        "requestData(string)": "2215ec2c"
    },
    "gasEstimates": {
        "creation": {
            "codeDepositCost": "619400",
            "executionCost": "infinite",
            "totalCost": "infinite"
        },
        "external": {
            "fulfill(bytes32,string)": "infinite",
            "requestData(string)": "infinite"
        }
    }
}