{
    "contractName": "Job",
    "abi": [
        {
            "inputs": [
                {
                    "internalType": "string[]",
                    "name": "_taskCids",
                    "type": "string[]"
                },
                {
                    "internalType": "string",
                    "name": "_jobType",
                    "type": "string"
                },
                {
                    "internalType": "string",
                    "name": "_jobName",
                    "type": "string"
                },
                {
                    "internalType": "string",
                    "name": "_jobDesc",
                    "type": "string"
                },
                {
                    "internalType": "uint256",
                    "name": "_maxBatchSize",
                    "type": "uint256"
                }
            ],
            "stateMutability": "payable",
            "type": "constructor"
        },
        {
            "anonymous": false,
            "inputs": [
                {
                    "indexed": true,
                    "internalType": "address",
                    "name": "previousOwner",
                    "type": "address"
                },
                {
                    "indexed": true,
                    "internalType": "address",
                    "name": "newOwner",
                    "type": "address"
                }
            ],
            "name": "OwnershipTransferred",
            "type": "event"
        },
        {
            "inputs": [],
            "name": "getBountyPool",
            "outputs": [
                {
                    "internalType": "uint256",
                    "name": "totalPool",
                    "type": "uint256"
                }
            ],
            "stateMutability": "view",
            "type": "function"
        },
        {
            "inputs": [],
            "name": "getTaskBounty",
            "outputs": [
                {
                    "internalType": "uint256",
                    "name": "taskBounty",
                    "type": "uint256"
                }
            ],
            "stateMutability": "view",
            "type": "function"
        },
        {
            "inputs": [],
            "name": "getTaskCount",
            "outputs": [
                {
                    "internalType": "uint256",
                    "name": "taskCount",
                    "type": "uint256"
                }
            ],
            "stateMutability": "view",
            "type": "function"
        },
        {
            "inputs": [
                {
                    "internalType": "string",
                    "name": "_cid",
                    "type": "string"
                }
            ],
            "name": "isTask",
            "outputs": [
                {
                    "internalType": "bool",
                    "name": "isIndeed",
                    "type": "bool"
                }
            ],
            "stateMutability": "view",
            "type": "function"
        },
        {
            "inputs": [],
            "name": "owner",
            "outputs": [
                {
                    "internalType": "address",
                    "name": "",
                    "type": "address"
                }
            ],
            "stateMutability": "view",
            "type": "function"
        },
        {
            "inputs": [],
            "name": "renounceOwnership",
            "outputs": [],
            "stateMutability": "nonpayable",
            "type": "function"
        },
        {
            "inputs": [
                {
                    "internalType": "string[]",
                    "name": "_taskCids",
                    "type": "string[]"
                }
            ],
            "name": "reserveTasks",
            "outputs": [
                {
                    "internalType": "string[]",
                    "name": "reservedTasks",
                    "type": "string[]"
                }
            ],
            "stateMutability": "nonpayable",
            "type": "function"
        },
        {
            "inputs": [
                {
                    "internalType": "address",
                    "name": "newOwner",
                    "type": "address"
                }
            ],
            "name": "transferOwnership",
            "outputs": [],
            "stateMutability": "nonpayable",
            "type": "function"
        }
    ],
    "bytecode": "608060405260405162000e6738038062000e678339810160408190526200002691620003df565b600080546001600160a01b031916339081178255604051909182917f8be0079c531659141344cd1fd0a4f28419497f9722a3daafe3b4186f6b6457e0908290a35083516200007c906003906020870190620002c7565b50825162000092906004906020860190620002c7565b508151620000a8906005906020850190620002c7565b5060068190553460075560005b85518110156200010e57620000f8868281518110620000e457634e487b7160e01b600052603260045260246000fd5b60200260200101516200011a60201b60201c565b50806200010581620005c9565b915050620000b5565b50505050505062000607565b600080546001600160a01b031633146200017a5760405162461bcd60e51b815260206004820181905260248201527f4f776e61626c653a2063616c6c6572206973206e6f7420746865206f776e6572604482015260640160405180910390fd5b62000185826200028e565b6200028957816001836040516200019d919062000508565b90815260200160405180910390206000019080519060200190620001c3929190620002c7565b506000600183604051620001d8919062000508565b908152602001604051809103902060010160146101000a81548160ff0219169083151502179055506001808360405162000213919062000508565b908152604051602091819003820190206001908101805460ff60a81b1916600160a81b9415159490940293909317909255600280549283018155600052835162000283927f405787fa12a823e0f2b7631cc41b3ba8828b3321ca811111fa75cd3aa3bb5ace0191850190620002c7565b50506002545b919050565b6000600182604051620002a2919062000508565b9081526040519081900360200190206001015460ff600160a81b909104169050919050565b828054620002d5906200058c565b90600052602060002090601f016020900481019282620002f9576000855562000344565b82601f106200031457805160ff191683800117855562000344565b8280016001018555821562000344579182015b828111156200034457825182559160200191906001019062000327565b506200035292915062000356565b5090565b5b8082111562000352576000815560010162000357565b600082601f8301126200037e578081fd5b81516001600160401b038111156200039a576200039a620005f1565b620003af601f8201601f191660200162000526565b818152846020838601011115620003c4578283fd5b620003d782602083016020870162000559565b949350505050565b600080600080600060a08688031215620003f7578081fd5b85516001600160401b03808211156200040e578283fd5b818801915088601f83011262000422578283fd5b8151602082821115620004395762000439620005f1565b62000449818360051b0162000526565b82815281810190858301875b8581101562000482576200046f8f8684518b01016200036d565b8452928401929084019060010162000455565b5050918b01519199509093505050808211156200049d578283fd5b620004ab89838a016200036d565b95506040880151915080821115620004c1578283fd5b620004cf89838a016200036d565b94506060880151915080821115620004e5578283fd5b50620004f4888289016200036d565b925050608086015190509295509295909350565b600082516200051c81846020870162000559565b9190910192915050565b604051601f8201601f191681016001600160401b0381118282101715620005515762000551620005f1565b604052919050565b60005b83811015620005765781810151838201526020016200055c565b8381111562000586576000848401525b50505050565b600181811c90821680620005a157607f821691505b60208210811415620005c357634e487b7160e01b600052602260045260246000fd5b50919050565b6000600019821415620005ea57634e487b7160e01b81526011600452602481fd5b5060010190565b634e487b7160e01b600052604160045260246000fd5b61085080620006176000396000f3fe608060405234801561001057600080fd5b50600436106100885760003560e01c8063c17a340e1161005b578063c17a340e146100fe578063e28d69df14610110578063f2fde38b14610118578063f61e45b71461012b57610088565b8063715018a61461008d57806387b3b7e0146100975780638da5cb5b146100c0578063b8b1a850146100db575b600080fd5b610095610133565b005b6100aa6100a53660046105ec565b6101dc565b6040516100b791906106e3565b60405180910390f35b6000546040516001600160a01b0390911681526020016100b7565b6100ee6100e936600461068c565b6103eb565b60405190151581526020016100b7565b6002545b6040519081526020016100b7565b600754610102565b6100956101263660046105be565b610422565b61010261053c565b6000546001600160a01b031633146101925760405162461bcd60e51b815260206004820181905260248201527f4f776e61626c653a2063616c6c6572206973206e6f7420746865206f776e657260448201526064015b60405180910390fd5b600080546040516001600160a01b03909116907f8be0079c531659141344cd1fd0a4f28419497f9722a3daafe3b4186f6b6457e0908390a3600080546001600160a01b0319169055565b606081516000106102415760405162461bcd60e51b815260206004820152602960248201527f526573657276652061206e756d626572206f66207461736b732067726561746560448201526839103a3430b710181760b91b6064820152608401610189565b6000825167ffffffffffffffff81111561026b57634e487b7160e01b600052604160045260246000fd5b60405190808252806020026020018201604052801561029e57816020015b60608152602001906001900390816102895790505b50905060005b83518110156103e45760006001600160a01b031660018583815181106102da57634e487b7160e01b600052603260045260246000fd5b60200260200101516040516102ef91906106c7565b908152604051908190036020019020600101546001600160a01b031614156103d25733600185838151811061033457634e487b7160e01b600052603260045260246000fd5b602002602001015160405161034991906106c7565b908152602001604051809103902060010160006101000a8154816001600160a01b0302191690836001600160a01b0316021790555083818151811061039e57634e487b7160e01b600052603260045260246000fd5b60200260200101518382815181106103c657634e487b7160e01b600052603260045260246000fd5b60200260200101819052505b806103dc816107dd565b9150506102a4565b5092915050565b60006001826040516103fd91906106c7565b9081526040519081900360200190206001015460ff600160a81b909104169050919050565b6000546001600160a01b0316331461047c5760405162461bcd60e51b815260206004820181905260248201527f4f776e61626c653a2063616c6c6572206973206e6f7420746865206f776e65726044820152606401610189565b6001600160a01b0381166104e15760405162461bcd60e51b815260206004820152602660248201527f4f776e61626c653a206e6577206f776e657220697320746865207a65726f206160448201526564647265737360d01b6064820152608401610189565b600080546040516001600160a01b03808516939216917f8be0079c531659141344cd1fd0a4f28419497f9722a3daafe3b4186f6b6457e091a3600080546001600160a01b0319166001600160a01b0392909216919091179055565b60025460075460009161054e9161078d565b905090565b600082601f830112610563578081fd5b813567ffffffffffffffff81111561057d5761057d610804565b610590601f8201601f191660200161075c565b8181528460208386010111156105a4578283fd5b816020850160208301379081016020019190915292915050565b6000602082840312156105cf578081fd5b81356001600160a01b03811681146105e5578182fd5b9392505050565b600060208083850312156105fe578182fd5b823567ffffffffffffffff80821115610615578384fd5b818501915085601f830112610628578384fd5b81358181111561063a5761063a610804565b610648848260051b0161075c565b8181528481019250838501865b8381101561067e5761066c8a888435890101610553565b85529386019390860190600101610655565b509098975050505050505050565b60006020828403121561069d578081fd5b813567ffffffffffffffff8111156106b3578182fd5b6106bf84828501610553565b949350505050565b600082516106d98184602087016107ad565b9190910192915050565b6000602080830181845280855180835260408601915060408160051b8701019250838701855b8281101561074f57878503603f1901845281518051808752610730818989018a85016107ad565b601f01601f191695909501860194509285019290850190600101610709565b5092979650505050505050565b604051601f8201601f1916810167ffffffffffffffff8111828210171561078557610785610804565b604052919050565b6000826107a857634e487b7160e01b81526012600452602481fd5b500490565b60005b838110156107c85781810151838201526020016107b0565b838111156107d7576000848401525b50505050565b60006000198214156107fd57634e487b7160e01b81526011600452602481fd5b5060010190565b634e487b7160e01b600052604160045260246000fdfea2646970667358221220c6c49cdf309ec0c35bc4619b23bfa769459b1f3b8bf815246a5fe524963172e464736f6c63430008030033",
    "sourcePath": "e:/cryptodev/sozu/contracts/Job.sol",
    "compiler": {
        "name": "solc",
        "version": "0.8.3+commit.8d00100c"
    },
    "functionHashes": {
        "getBountyPool()": "e28d69df",
        "getTaskBounty()": "f61e45b7",
        "getTaskCount()": "c17a340e",
        "isTask(string)": "b8b1a850",
        "owner()": "8da5cb5b",
        "renounceOwnership()": "715018a6",
        "reserveTasks(string[])": "87b3b7e0",
        "transferOwnership(address)": "f2fde38b"
    },
    "gasEstimates": {
        "creation": {
            "codeDepositCost": "425600",
            "executionCost": "infinite",
            "totalCost": "infinite"
        },
        "external": {
            "getBountyPool()": "1014",
            "getTaskBounty()": "1944",
            "getTaskCount()": "981",
            "isTask(string)": "infinite",
            "owner()": "1046",
            "renounceOwnership()": "24166",
            "reserveTasks(string[])": "infinite",
            "transferOwnership(address)": "24409"
        },
        "internal": {
            "getRandomNumbers()": "infinite",
            "newTask(string memory)": "infinite"
        }
    }
}