{
    "contractName": "Job",
    "abi": [
        {
            "inputs": [
                {
                    "internalType": "address",
                    "name": "_employer",
                    "type": "address"
                },
                {
                    "internalType": "string",
                    "name": "_topLevelCid",
                    "type": "string"
                },
                {
                    "internalType": "string",
                    "name": "_jobType",
                    "type": "string"
                },
                {
                    "internalType": "string",
                    "name": "_jobName",
                    "type": "string"
                },
                {
                    "internalType": "string",
                    "name": "_jobDesc",
                    "type": "string"
                },
                {
                    "internalType": "uint256",
                    "name": "_batchSize",
                    "type": "uint256"
                },
                {
                    "internalType": "uint256",
                    "name": "_numTasks",
                    "type": "uint256"
                },
                {
                    "internalType": "uint8",
                    "name": "_reviewPct",
                    "type": "uint8"
                }
            ],
            "stateMutability": "payable",
            "type": "constructor"
        },
        {
            "anonymous": false,
            "inputs": [
                {
                    "indexed": true,
                    "internalType": "address",
                    "name": "previousOwner",
                    "type": "address"
                },
                {
                    "indexed": true,
                    "internalType": "address",
                    "name": "newOwner",
                    "type": "address"
                }
            ],
            "name": "OwnershipTransferred",
            "type": "event"
        },
        {
            "anonymous": false,
            "inputs": [
                {
                    "indexed": false,
                    "internalType": "bytes32",
                    "name": "requestId",
                    "type": "bytes32"
                },
                {
                    "indexed": false,
                    "internalType": "uint256",
                    "name": "randomNumber",
                    "type": "uint256"
                }
            ],
            "name": "RandomNumber",
            "type": "event"
        },
        {
            "inputs": [
                {
                    "internalType": "uint256",
                    "name": "_batchIndex",
                    "type": "uint256"
                }
            ],
            "name": "acceptAnswers",
            "outputs": [],
            "stateMutability": "nonpayable",
            "type": "function"
        },
        {
            "inputs": [],
            "name": "batchSize",
            "outputs": [
                {
                    "internalType": "uint256",
                    "name": "",
                    "type": "uint256"
                }
            ],
            "stateMutability": "view",
            "type": "function"
        },
        {
            "inputs": [
                {
                    "internalType": "uint256",
                    "name": "_batchIndex",
                    "type": "uint256"
                },
                {
                    "internalType": "bytes32",
                    "name": "_root",
                    "type": "bytes32"
                },
                {
                    "internalType": "bytes32",
                    "name": "_answersHash",
                    "type": "bytes32"
                }
            ],
            "name": "commitAnswers",
            "outputs": [],
            "stateMutability": "nonpayable",
            "type": "function"
        },
        {
            "inputs": [],
            "name": "currentBountyPool",
            "outputs": [
                {
                    "internalType": "uint256",
                    "name": "",
                    "type": "uint256"
                }
            ],
            "stateMutability": "view",
            "type": "function"
        },
        {
            "inputs": [],
            "name": "employer",
            "outputs": [
                {
                    "internalType": "address",
                    "name": "",
                    "type": "address"
                }
            ],
            "stateMutability": "view",
            "type": "function"
        },
        {
            "inputs": [
                {
                    "internalType": "uint256",
                    "name": "_batchIndex",
                    "type": "uint256"
                },
                {
                    "internalType": "string",
                    "name": "_cid",
                    "type": "string"
                }
            ],
            "name": "finalizeSubmission",
            "outputs": [],
            "stateMutability": "nonpayable",
            "type": "function"
        },
        {
            "inputs": [
                {
                    "internalType": "address",
                    "name": "_userAddress",
                    "type": "address"
                }
            ],
            "name": "getBatch",
            "outputs": [
                {
                    "components": [
                        {
                            "internalType": "bool",
                            "name": "isBatch",
                            "type": "bool"
                        },
                        {
                            "internalType": "bool",
                            "name": "answersSubmitted",
                            "type": "bool"
                        },
                        {
                            "internalType": "bool",
                            "name": "answersAccepted",
                            "type": "bool"
                        },
                        {
                            "internalType": "bool",
                            "name": "answersRejected",
                            "type": "bool"
                        },
                        {
                            "internalType": "bytes32",
                            "name": "committedRoot",
                            "type": "bytes32"
                        },
                        {
                            "internalType": "bytes32",
                            "name": "committedAnswersHash",
                            "type": "bytes32"
                        },
                        {
                            "internalType": "uint256[]",
                            "name": "reviewIndexes",
                            "type": "uint256[]"
                        },
                        {
                            "internalType": "uint256",
                            "name": "index",
                            "type": "uint256"
                        },
                        {
                            "internalType": "string",
                            "name": "answersCID",
                            "type": "string"
                        }
                    ],
                    "internalType": "struct Job.Batch",
                    "name": "",
                    "type": "tuple"
                }
            ],
            "stateMutability": "view",
            "type": "function"
        },
        {
            "inputs": [],
            "name": "getJobData",
            "outputs": [
                {
                    "internalType": "address",
                    "name": "employer",
                    "type": "address"
                },
                {
                    "internalType": "string",
                    "name": "topLevelCid",
                    "type": "string"
                },
                {
                    "internalType": "string",
                    "name": "jobType",
                    "type": "string"
                },
                {
                    "internalType": "string",
                    "name": "jobName",
                    "type": "string"
                },
                {
                    "internalType": "string",
                    "name": "jobDesc",
                    "type": "string"
                },
                {
                    "internalType": "uint256",
                    "name": "batchSize",
                    "type": "uint256"
                },
                {
                    "internalType": "uint256",
                    "name": "numTasks",
                    "type": "uint256"
                },
                {
                    "internalType": "uint256",
                    "name": "numBatches",
                    "type": "uint256"
                },
                {
                    "internalType": "uint256",
                    "name": "lastBatchSize",
                    "type": "uint256"
                },
                {
                    "internalType": "uint256",
                    "name": "totalBountyPool",
                    "type": "uint256"
                },
                {
                    "internalType": "uint256",
                    "name": "currentBountyPool",
                    "type": "uint256"
                },
                {
                    "internalType": "uint8",
                    "name": "reviewPct",
                    "type": "uint8"
                }
            ],
            "stateMutability": "view",
            "type": "function"
        },
        {
            "inputs": [
                {
                    "internalType": "uint256",
                    "name": "_numTasks",
                    "type": "uint256"
                },
                {
                    "internalType": "uint256",
                    "name": "_batchSize",
                    "type": "uint256"
                }
            ],
            "name": "getNumBatches",
            "outputs": [
                {
                    "internalType": "uint256",
                    "name": "",
                    "type": "uint256"
                }
            ],
            "stateMutability": "pure",
            "type": "function"
        },
        {
            "inputs": [
                {
                    "internalType": "uint256",
                    "name": "userProvidedSeed",
                    "type": "uint256"
                }
            ],
            "name": "getRandomNumber",
            "outputs": [
                {
                    "internalType": "bytes32",
                    "name": "requestId",
                    "type": "bytes32"
                }
            ],
            "stateMutability": "nonpayable",
            "type": "function"
        },
        {
            "inputs": [],
            "name": "getTaskBounty",
            "outputs": [
                {
                    "internalType": "uint256",
                    "name": "taskBounty",
                    "type": "uint256"
                }
            ],
            "stateMutability": "view",
            "type": "function"
        },
        {
            "inputs": [],
            "name": "getTaskIndexesForAddress",
            "outputs": [
                {
                    "internalType": "uint256",
                    "name": "minIndex",
                    "type": "uint256"
                },
                {
                    "internalType": "uint256",
                    "name": "maxIndex",
                    "type": "uint256"
                }
            ],
            "stateMutability": "view",
            "type": "function"
        },
        {
            "inputs": [
                {
                    "internalType": "uint256",
                    "name": "_batchIdx",
                    "type": "uint256"
                }
            ],
            "name": "getTaskIndexesForBatch",
            "outputs": [
                {
                    "internalType": "uint256",
                    "name": "minIndex",
                    "type": "uint256"
                },
                {
                    "internalType": "uint256",
                    "name": "maxIndex",
                    "type": "uint256"
                }
            ],
            "stateMutability": "view",
            "type": "function"
        },
        {
            "inputs": [],
            "name": "getTotalBountyPool",
            "outputs": [
                {
                    "internalType": "uint256",
                    "name": "totalPool",
                    "type": "uint256"
                }
            ],
            "stateMutability": "view",
            "type": "function"
        },
        {
            "inputs": [
                {
                    "internalType": "address",
                    "name": "_userAddress",
                    "type": "address"
                }
            ],
            "name": "isBatch",
            "outputs": [
                {
                    "internalType": "bool",
                    "name": "isIndeed",
                    "type": "bool"
                }
            ],
            "stateMutability": "view",
            "type": "function"
        },
        {
            "inputs": [],
            "name": "jobDesc",
            "outputs": [
                {
                    "internalType": "string",
                    "name": "",
                    "type": "string"
                }
            ],
            "stateMutability": "view",
            "type": "function"
        },
        {
            "inputs": [],
            "name": "jobName",
            "outputs": [
                {
                    "internalType": "string",
                    "name": "",
                    "type": "string"
                }
            ],
            "stateMutability": "view",
            "type": "function"
        },
        {
            "inputs": [],
            "name": "jobType",
            "outputs": [
                {
                    "internalType": "string",
                    "name": "",
                    "type": "string"
                }
            ],
            "stateMutability": "view",
            "type": "function"
        },
        {
            "inputs": [],
            "name": "lastBatchSize",
            "outputs": [
                {
                    "internalType": "uint256",
                    "name": "",
                    "type": "uint256"
                }
            ],
            "stateMutability": "view",
            "type": "function"
        },
        {
            "inputs": [],
            "name": "numBatches",
            "outputs": [
                {
                    "internalType": "uint256",
                    "name": "",
                    "type": "uint256"
                }
            ],
            "stateMutability": "view",
            "type": "function"
        },
        {
            "inputs": [],
            "name": "numTasks",
            "outputs": [
                {
                    "internalType": "uint256",
                    "name": "",
                    "type": "uint256"
                }
            ],
            "stateMutability": "view",
            "type": "function"
        },
        {
            "inputs": [],
            "name": "owner",
            "outputs": [
                {
                    "internalType": "address",
                    "name": "",
                    "type": "address"
                }
            ],
            "stateMutability": "view",
            "type": "function"
        },
        {
            "inputs": [
                {
                    "internalType": "uint256",
                    "name": "_batchIndex",
                    "type": "uint256"
                },
                {
                    "internalType": "bytes32[]",
                    "name": "_proof",
                    "type": "bytes32[]"
                },
                {
                    "internalType": "bytes32",
                    "name": "_leaf",
                    "type": "bytes32"
                },
                {
                    "internalType": "bytes32",
                    "name": "_answersHash",
                    "type": "bytes32"
                }
            ],
            "name": "proveAnswers",
            "outputs": [],
            "stateMutability": "nonpayable",
            "type": "function"
        },
        {
            "inputs": [],
            "name": "randomResult",
            "outputs": [
                {
                    "internalType": "uint256",
                    "name": "",
                    "type": "uint256"
                }
            ],
            "stateMutability": "view",
            "type": "function"
        },
        {
            "inputs": [
                {
                    "internalType": "bytes32",
                    "name": "requestId",
                    "type": "bytes32"
                },
                {
                    "internalType": "uint256",
                    "name": "randomness",
                    "type": "uint256"
                }
            ],
            "name": "rawFulfillRandomness",
            "outputs": [],
            "stateMutability": "nonpayable",
            "type": "function"
        },
        {
            "inputs": [
                {
                    "internalType": "uint256",
                    "name": "_batchIndex",
                    "type": "uint256"
                }
            ],
            "name": "rejectAnswers",
            "outputs": [],
            "stateMutability": "nonpayable",
            "type": "function"
        },
        {
            "inputs": [],
            "name": "renounceOwnership",
            "outputs": [],
            "stateMutability": "nonpayable",
            "type": "function"
        },
        {
            "inputs": [],
            "name": "reserveBatch",
            "outputs": [
                {
                    "internalType": "uint256",
                    "name": "",
                    "type": "uint256"
                }
            ],
            "stateMutability": "nonpayable",
            "type": "function"
        },
        {
            "inputs": [],
            "name": "reviewPct",
            "outputs": [
                {
                    "internalType": "uint8",
                    "name": "",
                    "type": "uint8"
                }
            ],
            "stateMutability": "view",
            "type": "function"
        },
        {
            "inputs": [],
            "name": "topLevelCid",
            "outputs": [
                {
                    "internalType": "string",
                    "name": "",
                    "type": "string"
                }
            ],
            "stateMutability": "view",
            "type": "function"
        },
        {
            "inputs": [],
            "name": "totalBountyPool",
            "outputs": [
                {
                    "internalType": "uint256",
                    "name": "",
                    "type": "uint256"
                }
            ],
            "stateMutability": "view",
            "type": "function"
        },
        {
            "inputs": [
                {
                    "internalType": "address",
                    "name": "newOwner",
                    "type": "address"
                }
            ],
            "name": "transferOwnership",
            "outputs": [],
            "stateMutability": "nonpayable",
            "type": "function"
        },
        {
            "inputs": [],
            "name": "viewBatch",
            "outputs": [
                {
                    "components": [
                        {
                            "internalType": "bool",
                            "name": "isBatch",
                            "type": "bool"
                        },
                        {
                            "internalType": "bool",
                            "name": "answersSubmitted",
                            "type": "bool"
                        },
                        {
                            "internalType": "bool",
                            "name": "answersAccepted",
                            "type": "bool"
                        },
                        {
                            "internalType": "bool",
                            "name": "answersRejected",
                            "type": "bool"
                        },
                        {
                            "internalType": "bytes32",
                            "name": "committedRoot",
                            "type": "bytes32"
                        },
                        {
                            "internalType": "bytes32",
                            "name": "committedAnswersHash",
                            "type": "bytes32"
                        },
                        {
                            "internalType": "uint256[]",
                            "name": "reviewIndexes",
                            "type": "uint256[]"
                        },
                        {
                            "internalType": "uint256",
                            "name": "index",
                            "type": "uint256"
                        },
                        {
                            "internalType": "string",
                            "name": "answersCID",
                            "type": "string"
                        }
                    ],
                    "internalType": "struct Job.Batch",
                    "name": "",
                    "type": "tuple"
                }
            ],
            "stateMutability": "view",
            "type": "function"
        }
    ],
    "bytecode": "60c060405260405162002a3f38038062002a3f833981016040819052620000269162000527565b73dd3782915140c8f3b190b5d67eac6dc5760c46e973a36085f69e2889c224210f603d836748e7dc00886000620000656001600160e01b03620001e516565b600080546001600160a01b0319166001600160a01b0383169081178255604051929350917f8be0079c531659141344cd1fd0a4f28419497f9722a3daafe3b4186f6b6457e0908290a350606091821b6001600160601b031990811660a052911b166080527f6c3699283bda56ad74f6b855546325b68d482e983852a7a82979cc4807b641f460025567016345785d8a0000600355600580546001600160a01b0319166001600160a01b038a161790558651620001299060069060208a0190620003da565b5085516200013f906007906020890190620003da565b50845162000155906008906020880190620003da565b5083516200016b906009906020870190620003da565b50600a839055600b8290556011805460ff191660ff8316179055620001918284620001ea565b600c81905550620001ca600b54620001b9600a54600c546200025b60201b620016211760201c565b620002ab60201b6200123b1760201c565b600d55505034600e819055600f5550620006f7945050505050565b335b90565b6000620002038383620002ab60201b6200123b1760201c565b62000227576200021f8383620002f560201b620012841760201c565b905062000255565b6200021f6001620002448585620002f560201b620012841760201c565b6200033f60201b620012c61760201c565b92915050565b6000826200026c5750600062000255565b828202828482816200027a57fe5b0414620002a45760405162461bcd60e51b81526004016200029b9062000683565b60405180910390fd5b9392505050565b6000620002a483836040518060400160405280601881526020017f536166654d6174683a206d6f64756c6f206279207a65726f00000000000000008152506200036760201b60201c565b6000620002a483836040518060400160405280601a81526020017f536166654d6174683a206469766973696f6e206279207a65726f0000000000008152506200039f60201b60201c565b600082820183811015620002a45760405162461bcd60e51b81526004016200029b906200064c565b600081836200038b5760405162461bcd60e51b81526004016200029b919062000617565b508284816200039657fe5b06949350505050565b60008183620003c35760405162461bcd60e51b81526004016200029b919062000617565b506000838581620003d057fe5b0495945050505050565b828054600181600116156101000203166002900490600052602060002090601f016020900481019282601f106200041d57805160ff19168380011785556200044d565b828001600101855582156200044d579182015b828111156200044d57825182559160200191906001019062000430565b506200045b9291506200045f565b5090565b620001e791905b808211156200045b576000815560010162000466565b80516001600160a01b03811681146200025557600080fd5b600082601f830112620004a5578081fd5b81516001600160401b0380821115620004bc578283fd5b604051601f8301601f191681016020018281118282101715620004dd578485fd5b604052828152925082848301602001861015620004f957600080fd5b6200050c836020830160208801620006c4565b50505092915050565b805160ff811681146200025557600080fd5b600080600080600080600080610100898b03121562000544578384fd5b620005508a8a6200047c565b60208a01519098506001600160401b03808211156200056d578586fd5b6200057b8c838d0162000494565b985060408b015191508082111562000591578586fd5b6200059f8c838d0162000494565b975060608b0151915080821115620005b5578586fd5b620005c38c838d0162000494565b965060808b0151915080821115620005d9578586fd5b50620005e88b828c0162000494565b94505060a0890151925060c08901519150620006088a60e08b0162000515565b90509295985092959890939650565b600060208252825180602084015262000638816040850160208701620006c4565b601f01601f19169190910160400192915050565b6020808252601b908201527f536166654d6174683a206164646974696f6e206f766572666c6f770000000000604082015260600190565b60208082526021908201527f536166654d6174683a206d756c7469706c69636174696f6e206f766572666c6f6040820152607760f81b606082015260800190565b60005b83811015620006e1578181015183820152602001620006c7565b83811115620006f1576000848401525b50505050565b60805160601c60a05160601c6123146200072b60003980610c5d5280611509525080610f2652806114da52506123146000f3fe608060405234801561001057600080fd5b50600436106101fb5760003560e01c80638bceb34d1161011a578063b6d80271116100ad578063c86026ce1161007c578063c86026ce146103d8578063d2bf5dc6146103e0578063f2fde38b146103e8578063f4daaba1146103fb578063f61e45b714610403576101fb565b8063b6d80271146103ad578063b8d80f9a146103b5578063ba264542146103bd578063bda09cd4146103d0576101fb565b8063a2885fba116100e9578063a2885fba1461036a578063ae200e7914610372578063ae96cf8a1461037a578063b37217a41461039a576101fb565b80638bceb34d146103275780638da5cb5b1461032f57806394985ddd146103445780639bd1471714610357576101fb565b806342619f661161019257806377e0f4501161016157806377e0f450146102e15780637d4981b2146102f45780638080be771461030a5780638a527ade1461031f576101fb565b806342619f661461029e5780634f446347146102a657806355cdd9e1146102b9578063715018a6146102d9576101fb565b80630e877987116101ce5780630e8779871461024e57806336242fec146102615780633935d9b2146102815780634257649214610296576101fb565b8063028ba98314610200578063042fb274146102155780630560610a1461023357806308a6a0721461023b575b600080fd5b61021361020e3660046119ab565b61040b565b005b61021d61057f565b60405161022a9190611c96565b60405180910390f35b61021d610585565b61021d610249366004611b04565b61058b565b61021361025c3660046119ab565b6105c6565b61027461026f366004611943565b610718565b60405161022a9190612220565b6102896108b2565b60405161022a91906122d0565b6102746108bb565b61021d6108d2565b6102136102b4366004611a64565b6108d8565b6102c161097d565b60405161022a9c9b9a99989796959493929190611bc3565b610213610999565b6102136102ef3660046119db565b610a18565b6102fc610b70565b60405161022a929190611ba1565b610312610ba9565b60405161022a9190611cf2565b61021d610c37565b61021d610c3d565b610337610c43565b60405161022a9190611baf565b61021361035236600461198a565b610c52565b610213610365366004611a8f565b610ca8565b61021d610e8c565b610337610e92565b61038d610388366004611943565b610ea1565b60405161022a9190611c8b565b61021d6103a83660046119ab565b610f1f565b610312610fed565b610312611048565b6102fc6103cb3660046119ab565b6110a3565b61021d6110da565b61021d6110e0565b61031261110f565b6102136103f6366004611943565b61116a565b61021d611220565b61021d611226565b6005546001600160a01b0316331461043e5760405162461bcd60e51b815260040161043590611ddf565b60405180910390fd5b6104686013828154811061044e57fe5b6000918252602090912001546001600160a01b0316610ea1565b6104845760405162461bcd60e51b81526004016104359061214e565b336001600160a01b03166013828154811061049b57fe5b6000918252602090912001546001600160a01b0316146104cd5760405162461bcd60e51b8152600401610435906120e0565b60126000601383815481106104de57fe5b60009182526020808320909101546001600160a01b0316835282019290925260400190205460ff61010090910416151560011461052d5760405162461bcd60e51b81526004016104359061209c565b6001601260006013848154811061054057fe5b60009182526020808320909101546001600160a01b0316835282019290925260400190208054911515620100000262ff00001990921691909117905550565b600d5481565b600f5481565b6000610597838361123b565b6105ac576105a58383611284565b90506105c0565b6105a560016105bb8585611284565b6112c6565b92915050565b6005546001600160a01b031633146105f05760405162461bcd60e51b815260040161043590611ddf565b6106006013828154811061044e57fe5b61061c5760405162461bcd60e51b81526004016104359061214e565b601260006013838154811061062d57fe5b60009182526020808320909101546001600160a01b0316835282019290925260400190205460ff61010090910416151560011461067c5760405162461bcd60e51b81526004016104359061209c565b6001601260006013848154811061068f57fe5b60009182526020808320909101546001600160a01b031683528201929092526040018120805492151563010000000263ff0000001990931692909217909155601380546012918391859081106106e157fe5b6000918252602080832091909101546001600160a01b031683528201929092526040019020805460ff191691151591909117905550565b610720611842565b61072982610ea1565b6107455760405162461bcd60e51b815260040161043590611f00565b6001600160a01b038216600090815260126020908152604091829020825161012081018452815460ff808216151583526101008204811615158386015262010000820481161515838701526301000000909104161515606082015260018201546080820152600282015460a08201526003820180548551818602810186019096528086529194929360c0860193929083018282801561080357602002820191906000526020600020905b8154815260200190600101908083116107ef575b5050509183525050600482015460208083019190915260058301805460408051601f600260001961010060018716150201909416939093049283018590048502810185018252828152940193928301828280156108a15780601f10610876576101008083540402835291602001916108a1565b820191906000526020600020905b81548152906001019060200180831161088457829003601f168201915b50505050508152505090505b919050565b60115460ff1681565b6108c3611842565b6108cc33610718565b90505b90565b60045481565b6108e133610ea1565b6108fd5760405162461bcd60e51b815260040161043590612185565b336001600160a01b03166013848154811061091457fe5b6000918252602090912001546001600160a01b0316146109465760405162461bcd60e51b8152600401610435906120e0565b336000908152601260205260409020805461ff001916905560405162461bcd60e51b815260040161043590611d8c565b5050505050565b6000606080808084808080808080909192939495969798999a9b565b6109a1611363565b6000546001600160a01b039081169116146109ce5760405162461bcd60e51b815260040161043590612067565b600080546040516001600160a01b03909116907f8be0079c531659141344cd1fd0a4f28419497f9722a3daafe3b4186f6b6457e0908390a3600080546001600160a01b0319169055565b610a286013868154811061044e57fe5b610a445760405162461bcd60e51b81526004016104359061214e565b336001600160a01b031660138681548110610a5b57fe5b6000918252602090912001546001600160a01b031614610a8d5760405162461bcd60e51b8152600401610435906120e0565b6012600060138781548110610a9e57fe5b60009182526020808320909101546001600160a01b0316835282019290925260400190205460ff610100909104161515600114610aed5760405162461bcd60e51b81526004016104359061209c565b610b3b84848080602002602001604051908101604052809392919081815260200183836020028082843760009201829052503381526012602052604090206001015492508691506113679050565b610b575760405162461bcd60e51b815260040161043590611ff8565b3360009081526012602052604090206002015550505050565b600080610b7c33610ea1565b610b8557600080fd5b33600090815260126020526040902060040154610ba1906110a3565b915091509091565b6007805460408051602060026001851615610100026000190190941693909304601f81018490048402820184019092528181529291830182828015610c2f5780601f10610c0457610100808354040283529160200191610c2f565b820191906000526020600020905b815481529060010190602001808311610c1257829003601f168201915b505050505081565b600c5481565b600e5490565b6000546001600160a01b031690565b336001600160a01b037f00000000000000000000000000000000000000000000000000000000000000001614610c9a5760405162461bcd60e51b815260040161043590612117565b610ca48282611404565b5050565b610cb86013848154811061044e57fe5b610cd45760405162461bcd60e51b81526004016104359061214e565b336001600160a01b031660138481548110610ceb57fe5b6000918252602090912001546001600160a01b031614610d1d5760405162461bcd60e51b8152600401610435906120e0565b6012600060138581548110610d2e57fe5b60009182526020808320909101546001600160a01b0316835282019290925260400190205460ff610100909104161515600114610d7d5760405162461bcd60e51b81526004016104359061209c565b6012600060138581548110610d8e57fe5b60009182526020808320909101546001600160a01b0316835282019290925260400190205460ff62010000909104161515600114610dde5760405162461bcd60e51b815260040161043590611d49565b6012600060138581548110610def57fe5b60009182526020808320909101546001600160a01b0316835282810193909352604091820190206002015490519091610e2c918591859101611cc3565b6040516020818303038152906040528051906020012014610e5f5760405162461bcd60e51b815260040161043590611f45565b336000908152601260205260409020610e7c9060050183836118bb565b50610e873384611447565b505050565b600e5481565b6005546001600160a01b031681565b601354600090610eb3575060006108ad565b6001600160a01b038216600081815260126020526040902060040154601380549091908110610ede57fe5b6000918252602090912001546001600160a01b03161480156105c05750506001600160a01b031660009081526012602052604090205460ff16151560011490565b60006003547f00000000000000000000000000000000000000000000000000000000000000006001600160a01b03166370a08231306040518263ffffffff1660e01b8152600401610f709190611baf565b60206040518083038186803b158015610f8857600080fd5b505afa158015610f9c573d6000803e3d6000fd5b505050506040513d601f19601f82011682018060405250810190610fc091906119c3565b1015610fde5760405162461bcd60e51b815260040161043590611fad565b6105c0600254600354846114d6565b6006805460408051602060026001851615610100026000190190941693909304601f81018490048402820184019092528181529291830182828015610c2f5780601f10610c0457610100808354040283529160200191610c2f565b6008805460408051602060026001851615610100026000190190941693909304601f81018490048402820184019092528181529291830182828015610c2f5780601f10610c0457610100808354040283529160200191610c2f565b60008060006110b484600a54611621565b905060006110ce6110c783600a546112c6565b600161165b565b91935090915050915091565b600b5481565b600c54601354600091116111065760405162461bcd60e51b8152600401610435906121d1565b6108cc3361169d565b6009805460408051602060026001851615610100026000190190941693909304601f81018490048402820184019092528181529291830182828015610c2f5780601f10610c0457610100808354040283529160200191610c2f565b611172611363565b6000546001600160a01b0390811691161461119f5760405162461bcd60e51b815260040161043590612067565b6001600160a01b0381166111c55760405162461bcd60e51b815260040161043590611e83565b600080546040516001600160a01b03808516939216917f8be0079c531659141344cd1fd0a4f28419497f9722a3daafe3b4186f6b6457e091a3600080546001600160a01b0319166001600160a01b0392909216919091179055565b600a5481565b6000600b54600e548161123557fe5b04905090565b600061127d83836040518060400160405280601881526020017f536166654d6174683a206d6f64756c6f206279207a65726f000000000000000081525061173e565b9392505050565b600061127d83836040518060400160405280601a81526020017f536166654d6174683a206469766973696f6e206279207a65726f000000000000815250611772565b60008282018381101561127d5760405162461bcd60e51b815260040161043590611ec9565b8281101561135a5761133b6113008786611621565b6105bb6304945edc60105460405160200161131c929190611ba1565b6040516020818303038152906040528051906020012060001c8761123b565b82828151811061134757fe5b60209081029190910101526001016112eb565b50949350505050565b3390565b600081815b85518110156113f957600086828151811061138357fe5b602002602001015190508083116113c45782816040516020016113a7929190611ba1565b6040516020818303038152906040528051906020012092506113f0565b80836040516020016113d7929190611ba1565b6040516020818303038152906040528051906020012092505b5060010161136c565b509092149392505050565b60048190556040517f9d38f22e8c10d1de01c2823629d2669959a33e490fa61e65a0dfacd4f427dfa29061143b9084908490611ba1565b60405180910390a15050565b6000611456600c54600161165b565b8214156114665750600d5461146b565b50600a545b600061147e611478611226565b83611621565b9050804710156114a05760405162461bcd60e51b815260040161043590611d05565b6040516001600160a01b0385169082156108fc029083906000818181858888f19350505050158015610976573d6000803e3d6000fd5b60007f00000000000000000000000000000000000000000000000000000000000000006001600160a01b0316634000aea07f000000000000000000000000000000000000000000000000000000000000000085878660405160200161153c929190611ba1565b6040516020818303038152906040526040518463ffffffff1660e01b815260040161156993929190611c64565b602060405180830381600087803b15801561158357600080fd5b505af1158015611597573d6000803e3d6000fd5b505050506040513d601f19601f820116820180604052508101906115bb919061196a565b506000848152600160205260408120546115da908690859030906117a9565b6000868152600160208190526040909120549192506115ff919063ffffffff6112c616565b60008681526001602052604090205561161885826117e3565b95945050505050565b600082611630575060006105c0565b8282028284828161163d57fe5b041461127d5760405162461bcd60e51b815260040161043590612026565b600061127d83836040518060400160405280601e81526020017f536166654d6174683a207375627472616374696f6e206f766572666c6f770000815250611816565b60006116a882610ea1565b156116c55760405162461bcd60e51b815260040161043590611e31565b5060138054600180820183557f66de8ffda797e3de9c05e8fc57b3bf0ec28a930d40b0d285d93c06501cf6a09090910180546001600160a01b0319166001600160a01b0394909416938417905581546000938452601260205260409093206000199384016004820155805460ff19169091179055540190565b6000818361175f5760405162461bcd60e51b81526004016104359190611cf2565b5082848161176957fe5b06949350505050565b600081836117935760405162461bcd60e51b81526004016104359190611cf2565b50600083858161179f57fe5b0495945050505050565b6000848484846040516020016117c29493929190611c9f565b60408051601f19818403018152919052805160209091012095945050505050565b600082826040516020016117f8929190611ba1565b60405160208183030381529060405280519060200120905092915050565b6000818484111561183a5760405162461bcd60e51b81526004016104359190611cf2565b505050900390565b604080516101208101825260008082526020820181905291810182905260608082018390526080820183905260a0820183905260c0820181905260e082019290925261010081019190915290565b828111156118ab578251825591602001919060010190611890565b506118b7929150611929565b5090565b828054600181600116156101000203166002900490600052602060002090601f016020900481019282601f106118fc5782800160ff198235161785556118ab565b828001600101855582156118ab579182015b828111156118ab57823582559160200191906001019061190e565b6108cf91905b808211156118b7576000815560010161192f565b600060208284031215611954578081fd5b81356001600160a01b038116811461127d578182fd5b60006020828403121561197b578081fd5b8151801515811461127d578182fd5b6000806040838503121561199c578081fd5b50508035926020909101359150565b6000602082840312156119bc578081fd5b5035919050565b6000602082840312156119d4578081fd5b5051919050565b6000806000806000608086880312156119f2578081fd5b85359450602086013567ffffffffffffffff80821115611a10578283fd5b81880189601f820112611a21578384fd5b8035925081831115611a31578384fd5b8960208085028301011115611a44578384fd5b969960209097019850909660408101359660609091013595509350505050565b600080600060608486031215611a78578283fd5b505081359360208301359350604090920135919050565b600080600060408486031215611aa3578283fd5b83359250602084013567ffffffffffffffff80821115611ac1578384fd5b81860187601f820112611ad2578485fd5b8035925081831115611ae2578485fd5b876020848301011115611af3578485fd5b949760209095019650909450505050565b6000806040838503121561199c578182fd5b6000815180845260208085019450808401835b83811015611b4557815187529582019590820190600101611b29565b509495945050505050565b15159052565b60008151808452815b81811015611b7b57602081850181015186830182015201611b5f565b81811115611b8c5782602083870101525b50601f01601f19169290920160200192915050565b918252602082015260400190565b6001600160a01b0391909116815260200190565b6001600160a01b038d16815261018060208201819052600090611be88382018f611b56565b8381036040850152611bfa818f611b56565b9150508281036060840152611c0f818d611b56565b8381036080850152611c21818d611b56565b60a085019b909b5250505060c081019690965260e086019490945261010085019290925261012084015261014083015260ff166101609091015295945050505050565b600060018060a01b0385168252836020830152606060408301526116186060830184611b56565b901515815260200190565b90815260200190565b93845260208401929092526001600160a01b03166040830152606082015260800190565b60006020825282602083015282846040840137818301604090810191909152601f909201601f19160101919050565b60006020825261127d6020830184611b56565b60208082526024908201527f436f6e747261637420646f6573206e6f74206861766520656e6f7567682066756040820152633732399760e11b606082015260800190565b60208082526023908201527f426174636820686173206e6f742068616420616e73776572732061636365707460408201526232b21760e91b606082015260800190565b60208082526033908201527f416e7377657273206861766520616c7265616479206265656e207375626d69746040820152723a32b2103337b9103a3434b9903130ba31b41760691b606082015260800190565b60208082526032908201527f4f6e6c7920746865206f776e6572206f662074686973206a6f622063616e206360408201527130b636103a3434b990333ab731ba34b7b71760711b606082015260800190565b60208082526032908201527f596f7572206164647265737320697320616c7265616479206c696e6b65642074604082015271379030b71030b1ba34bb32903130ba31b41760711b606082015260800190565b60208082526026908201527f4f776e61626c653a206e6577206f776e657220697320746865207a65726f206160408201526564647265737360d01b606082015260800190565b6020808252601b908201527f536166654d6174683a206164646974696f6e206f766572666c6f770000000000604082015260600190565b60208082526025908201527f4120626174636820646f6573206e6f7420657869737420666f722074686973206040820152643ab9b2b91760d91b606082015260800190565b60208082526042908201527f42617463682066696e616c697a656420616e73776572206861736820646f657360408201527f206e6f74206d6174636820636f6d6d697474656420616e737765727320686173606082015261341760f11b608082015260a00190565b6020808252602b908201527f4e6f7420656e6f756768204c494e4b202d2066696c6c20636f6e74726163742060408201526a1dda5d1a0819985d58d95d60aa1b606082015260800190565b60208082526014908201527326b2b935b63290383937b7b3103330b4b632b21760611b604082015260600190565b60208082526021908201527f536166654d6174683a206d756c7469706c69636174696f6e206f766572666c6f6040820152607760f81b606082015260800190565b6020808252818101527f4f776e61626c653a2063616c6c6572206973206e6f7420746865206f776e6572604082015260600190565b60208082526024908201527f426174636820686173206e6f742068616420616e7377657273207375626d69746040820152633a32b21760e11b606082015260800190565b6020808252601f908201527f426174636820646f6573206e6f742062656c6f6e6720746f2073656e64657200604082015260600190565b6020808252601f908201527f4f6e6c7920565246436f6f7264696e61746f722063616e2066756c66696c6c00604082015260600190565b6020808252601a908201527f426174636820696e64657820646f6573206e6f74206578697374000000000000604082015260600190565b6020808252602c908201527f54686973206163636f756e7420646f6573206e6f74206861766520612062617460408201526b31b4103932b9b2b93b32b21760a11b606082015260800190565b6020808252602f908201527f416c6c20746865206261746368657320666f722074686973204a6f622068617660408201526e32903132b2b71031b630b4b6b2b21760891b606082015260800190565b600060208252612234602083018451611b50565b60208301516122466040840182611b50565b5060408301516122596060840182611b50565b50606083015161226c6080840182611b50565b50608083015160a083015260a083015160c083015260c08301516101208060e085015261229d610140850183611b16565b60e086015161010086810191909152860151858203601f19018387015292506122c68184611b56565b9695505050505050565b60ff9190911681526020019056fea26469706673582212207d880b9af84f4fb0315113ebb7ef0267c19d026c46f3ca0830c8dfccdb555d1064736f6c63430006060033",
    "sourcePath": "e:/cryptodev/sozu/contracts/Job.sol",
    "compiler": {
        "name": "solc",
        "version": "0.6.6+commit.6c089d02"
    },
    "functionHashes": {
        "acceptAnswers(uint256)": "028ba983",
        "batchSize()": "f4daaba1",
        "commitAnswers(uint256,bytes32,bytes32)": "4f446347",
        "currentBountyPool()": "0560610a",
        "employer()": "ae200e79",
        "finalizeSubmission(uint256,string)": "9bd14717",
        "getBatch(address)": "36242fec",
        "getJobData()": "55cdd9e1",
        "getNumBatches(uint256,uint256)": "08a6a072",
        "getRandomNumber(uint256)": "b37217a4",
        "getTaskBounty()": "f61e45b7",
        "getTaskIndexesForAddress()": "7d4981b2",
        "getTaskIndexesForBatch(uint256)": "ba264542",
        "getTotalBountyPool()": "8bceb34d",
        "isBatch(address)": "ae96cf8a",
        "jobDesc()": "d2bf5dc6",
        "jobName()": "b8d80f9a",
        "jobType()": "8080be77",
        "lastBatchSize()": "042fb274",
        "numBatches()": "8a527ade",
        "numTasks()": "bda09cd4",
        "owner()": "8da5cb5b",
        "proveAnswers(uint256,bytes32[],bytes32,bytes32)": "77e0f450",
        "randomResult()": "42619f66",
        "rawFulfillRandomness(bytes32,uint256)": "94985ddd",
        "rejectAnswers(uint256)": "0e877987",
        "renounceOwnership()": "715018a6",
        "reserveBatch()": "c86026ce",
        "reviewPct()": "3935d9b2",
        "topLevelCid()": "b6d80271",
        "totalBountyPool()": "a2885fba",
        "transferOwnership(address)": "f2fde38b",
        "viewBatch()": "42576492"
    },
    "gasEstimates": {
        "creation": {
            "codeDepositCost": "1796000",
            "executionCost": "infinite",
            "totalCost": "infinite"
        },
        "external": {
            "acceptAnswers(uint256)": "34252",
            "batchSize()": "1138",
            "commitAnswers(uint256,bytes32,bytes32)": "27524",
            "currentBountyPool()": "1119",
            "employer()": "1137",
            "finalizeSubmission(uint256,string)": "infinite",
            "getBatch(address)": "infinite",
            "getJobData()": "infinite",
            "getNumBatches(uint256,uint256)": "infinite",
            "getRandomNumber(uint256)": "infinite",
            "getTaskBounty()": "1993",
            "getTaskIndexesForAddress()": "infinite",
            "getTaskIndexesForBatch(uint256)": "infinite",
            "getTotalBountyPool()": "1074",
            "isBatch(address)": "4806",
            "jobDesc()": "infinite",
            "jobName()": "infinite",
            "jobType()": "infinite",
            "lastBatchSize()": "1097",
            "numBatches()": "1139",
            "numTasks()": "1139",
            "owner()": "1138",
            "proveAnswers(uint256,bytes32[],bytes32,bytes32)": "infinite",
            "randomResult()": "1074",
            "rawFulfillRandomness(bytes32,uint256)": "infinite",
            "rejectAnswers(uint256)": "55152",
            "renounceOwnership()": "24316",
            "reserveBatch()": "90570",
            "reviewPct()": "1136",
            "topLevelCid()": "infinite",
            "totalBountyPool()": "1073",
            "transferOwnership(address)": "24492",
            "viewBatch()": "infinite"
        },
        "internal": {
            "addBatch(address)": "infinite",
            "claimBounty(address payable,uint256)": "infinite",
            "randomSelectReview(uint256)": "infinite",
            "verifyProof(bytes32[] memory,bytes32,bytes32)": "infinite"
        }
    }
}