{
    "contractName": "JobFactory",
    "abi": [
        {
            "anonymous": false,
            "inputs": [
                {
                    "indexed": true,
                    "internalType": "address",
                    "name": "job",
                    "type": "address"
                }
            ],
            "name": "NewJob",
            "type": "event"
        },
        {
            "inputs": [
                {
                    "internalType": "string",
                    "name": "_jobDesc",
                    "type": "string"
                }
            ],
            "name": "createAndEndow",
            "outputs": [
                {
                    "internalType": "contract Job",
                    "name": "",
                    "type": "address"
                }
            ],
            "stateMutability": "payable",
            "type": "function"
        },
        {
            "inputs": [
                {
                    "internalType": "uint256",
                    "name": "",
                    "type": "uint256"
                }
            ],
            "name": "jobs",
            "outputs": [
                {
                    "internalType": "contract Job",
                    "name": "",
                    "type": "address"
                }
            ],
            "stateMutability": "view",
            "type": "function"
        }
    ],
    "bytecode": "608060405234801561001057600080fd5b50610498806100206000396000f3fe6080604052600436106100295760003560e01c8063180aedf31461002e5780633ef846b914610064575b600080fd5b34801561003a57600080fd5b5061004e6100493660046101f6565b610077565b60405161005b919061020e565b60405180910390f35b61004e610072366004610161565b6100a1565b6000818154811061008757600080fd5b6000918252602090912001546001600160a01b0316905081565b600080826040516100b190610154565b6100bb9190610222565b604051809103906000f0801580156100d7573d6000803e3d6000fd5b50600080546001810182558180527f290decd9548b62a8d60345a988386fc84ba6bc95484008f6362f93160ef3e5630180546001600160a01b0319166001600160a01b038416908117909155604051929350917f43de6115edfb07548ddf15e0282a2f1488ade4a05df1ff38d055076a6a71c5699190a292915050565b6101ed8061027683390190565b60006020808385031215610173578182fd5b823567ffffffffffffffff8082111561018a578384fd5b818501915085601f83011261019d578384fd5b8135818111156101a957fe5b604051601f8201601f19168101850183811182821017156101c657fe5b60405281815283820185018810156101dc578586fd5b818585018683013790810190930193909352509392505050565b600060208284031215610207578081fd5b5035919050565b6001600160a01b0391909116815260200190565b6000602080835283518082850152825b8181101561024e57858101830151858201604001528201610232565b8181111561025f5783604083870101525b50601f01601f191692909201604001939250505056fe608060405234801561001057600080fd5b506040516101ed3803806101ed83398101604081905261002f916100ea565b8051610042906000906020840190610049565b50506101a0565b828054600181600116156101000203166002900490600052602060002090601f01602090048101928261007f57600085556100c5565b82601f1061009857805160ff19168380011785556100c5565b828001600101855582156100c5579182015b828111156100c55782518255916020019190600101906100aa565b506100d19291506100d5565b5090565b5b808211156100d157600081556001016100d6565b600060208083850312156100fc578182fd5b82516001600160401b0380821115610112578384fd5b818501915085601f830112610125578384fd5b81518181111561013157fe5b604051601f8201601f191681018501838111828210171561014e57fe5b6040528181528382018501881015610164578586fd5b8592505b818310156101855783830185015181840186015291840191610168565b8183111561019557858583830101525b979650505050505050565b603f806101ae6000396000f3fe6080604052600080fdfea2646970667358221220fa3d8b6b553ff7362760af1d09917f16ba2ae86309b6c633ad883c0ef36703ab64736f6c63430007060033a2646970667358221220801e21d73eb2fbe03f30e44e038e9c71c94364f1b81b6fa219263082ffcc6f4f64736f6c63430007060033",
    "sourcePath": "e:/cryptodev/sozu/contracts/JobFactory.sol",
    "compiler": {
        "name": "solc",
        "version": "0.7.6+commit.7338295f"
    },
    "functionHashes": {
        "createAndEndow(string)": "3ef846b9",
        "jobs(uint256)": "180aedf3"
    },
    "gasEstimates": {
        "creation": {
            "codeDepositCost": "235200",
            "executionCost": "275",
            "totalCost": "235475"
        },
        "external": {
            "createAndEndow(string)": "infinite",
            "jobs(uint256)": "2016"
        }
    }
}