{
    "contractName": "Survey",
    "abi": [
        {
            "inputs": [
                {
                    "internalType": "string",
                    "name": "_topLevelCid",
                    "type": "string"
                },
                {
                    "internalType": "string[]",
                    "name": "_cids",
                    "type": "string[]"
                }
            ],
            "stateMutability": "payable",
            "type": "constructor"
        },
        {
            "anonymous": false,
            "inputs": [
                {
                    "indexed": true,
                    "internalType": "address",
                    "name": "previousOwner",
                    "type": "address"
                },
                {
                    "indexed": true,
                    "internalType": "address",
                    "name": "newOwner",
                    "type": "address"
                }
            ],
            "name": "OwnershipTransferred",
            "type": "event"
        },
        {
            "inputs": [],
            "name": "owner",
            "outputs": [
                {
                    "internalType": "address",
                    "name": "",
                    "type": "address"
                }
            ],
            "stateMutability": "view",
            "type": "function"
        },
        {
            "inputs": [],
            "name": "renounceOwnership",
            "outputs": [],
            "stateMutability": "nonpayable",
            "type": "function"
        },
        {
            "inputs": [
                {
                    "internalType": "address",
                    "name": "newOwner",
                    "type": "address"
                }
            ],
            "name": "transferOwnership",
            "outputs": [],
            "stateMutability": "nonpayable",
            "type": "function"
        },
        {
            "inputs": [],
            "name": "viewSurvey",
            "outputs": [
                {
                    "internalType": "string",
                    "name": "",
                    "type": "string"
                },
                {
                    "internalType": "string[]",
                    "name": "",
                    "type": "string[]"
                },
                {
                    "internalType": "uint256",
                    "name": "",
                    "type": "uint256"
                }
            ],
            "stateMutability": "view",
            "type": "function"
        }
    ],
    "bytecode": "608060405260405162000910380380620009108339810160408190526200002691620002b5565b600062000032620000b0565b600080546001600160a01b0319166001600160a01b0383169081178255604051929350917f8be0079c531659141344cd1fd0a4f28419497f9722a3daafe3b4186f6b6457e0908290a350815162000091906002906020850190620000b4565b508051620000a790600390602084019062000149565b5050506200039f565b3390565b828054600181600116156101000203166002900490600052602060002090601f016020900481019282620000ec576000855562000137565b82601f106200010757805160ff191683800117855562000137565b8280016001018555821562000137579182015b82811115620001375782518255916020019190600101906200011a565b5062000145929150620001a9565b5090565b8280548282559060005260206000209081019282156200019b579160200282015b828111156200019b57825180516200018a918491602090910190620000b4565b50916020019190600101906200016a565b5062000145929150620001c0565b5b80821115620001455760008155600101620001aa565b8082111562000145576000620001d78282620001e1565b50600101620001c0565b50805460018160011615610100020316600290046000825580601f1062000209575062000229565b601f016020900490600052602060002090810190620002299190620001a9565b50565b600082601f8301126200023d578081fd5b81516001600160401b038111156200025157fe5b602062000267601f8301601f191682016200037b565b82815285828487010111156200027b578384fd5b835b838110156200029a5785810183015182820184015282016200027d565b83811115620002ab57848385840101525b5095945050505050565b60008060408385031215620002c8578182fd5b82516001600160401b0380821115620002df578384fd5b620002ed868387016200022c565b935060209150818501518181111562000304578384fd5b8501601f8101871362000315578384fd5b8051828111156200032257fe5b6200033184858302016200037b565b8181528481019350828501865b838110156200036b57620003588b8884518801016200022c565b865294860194908601906001016200033e565b5096999098509650505050505050565b6040518181016001600160401b03811182821017156200039757fe5b604052919050565b61056180620003af6000396000f3fe608060405234801561001057600080fd5b506004361061004c5760003560e01c8063715018a6146100515780638da5cb5b1461005b578063c0e9d8e814610079578063f2fde38b14610090575b600080fd5b6100596100a3565b005b610063610161565b6040516100709190610478565b60405180910390f35b610081610170565b6040516100709392919061048c565b61005961009e3660046103ff565b6102e7565b6100ab6103fb565b6001600160a01b03166100bc610161565b6001600160a01b031614610117576040805162461bcd60e51b815260206004820181905260248201527f4f776e61626c653a2063616c6c6572206973206e6f7420746865206f776e6572604482015290519081900360640190fd5b600080546040516001600160a01b03909116907f8be0079c531659141344cd1fd0a4f28419497f9722a3daafe3b4186f6b6457e0908390a3600080546001600160a01b0319169055565b6000546001600160a01b031690565b60028054604080516020601f6000196101006001871615020190941685900493840181900481028201810190925282815260609384936000939192600392479285918301828280156102035780601f106101d857610100808354040283529160200191610203565b820191906000526020600020905b8154815290600101906020018083116101e657829003601f168201915b5050505050925081805480602002602001604051908101604052809291908181526020016000905b828210156102d65760008481526020908190208301805460408051601f60026000196101006001871615020190941693909304928301859004850281018501909152818152928301828280156102c25780601f10610297576101008083540402835291602001916102c2565b820191906000526020600020905b8154815290600101906020018083116102a557829003601f168201915b50505050508152602001906001019061022b565b505050509150925092509250909192565b6102ef6103fb565b6001600160a01b0316610300610161565b6001600160a01b03161461035b576040805162461bcd60e51b815260206004820181905260248201527f4f776e61626c653a2063616c6c6572206973206e6f7420746865206f776e6572604482015290519081900360640190fd5b6001600160a01b0381166103a05760405162461bcd60e51b81526004018080602001828103825260268152602001806105066026913960400191505060405180910390fd5b600080546040516001600160a01b03808516939216917f8be0079c531659141344cd1fd0a4f28419497f9722a3daafe3b4186f6b6457e091a3600080546001600160a01b0319166001600160a01b0392909216919091179055565b3390565b600060208284031215610410578081fd5b81356001600160a01b0381168114610426578182fd5b9392505050565b60008151808452815b8181101561045257602081850181015186830182015201610436565b818111156104635782602083870101525b50601f01601f19169290920160200192915050565b6001600160a01b0391909116815260200190565b60006060825261049f606083018661042d565b602083820381850152818651808452828401915082838202850101838901865b838110156104ed57601f198784030185526104db83835161042d565b948601949250908501906001016104bf565b5050809550505050505082604083015294935050505056fe4f776e61626c653a206e6577206f776e657220697320746865207a65726f2061646472657373a2646970667358221220e27575f897fac3c33dde0f15abd8a52c51bb6d88de8589cd6eddec18baee55ef64736f6c63430007060033",
    "sourcePath": "e:/cryptodev/sozu/contracts/Survey.sol",
    "compiler": {
        "name": "solc",
        "version": "0.7.6+commit.7338295f"
    },
    "functionHashes": {
        "owner()": "8da5cb5b",
        "renounceOwnership()": "715018a6",
        "transferOwnership(address)": "f2fde38b",
        "viewSurvey()": "c0e9d8e8"
    },
    "gasEstimates": {
        "creation": {
            "codeDepositCost": "275400",
            "executionCost": "infinite",
            "totalCost": "infinite"
        },
        "external": {
            "owner()": "1070",
            "renounceOwnership()": "24233",
            "transferOwnership(address)": "infinite",
            "viewSurvey()": "infinite"
        }
    }
}