{
    "contractName": "SurveyFactory",
    "abi": [
        {
            "anonymous": false,
            "inputs": [
                {
                    "indexed": true,
                    "internalType": "address",
                    "name": "survey",
                    "type": "address"
                }
            ],
            "name": "NewSurvey",
            "type": "event"
        },
        {
            "inputs": [
                {
                    "internalType": "string[]",
                    "name": "_cids",
                    "type": "string[]"
                },
                {
                    "internalType": "string",
                    "name": "_surveyType",
                    "type": "string"
                },
                {
                    "internalType": "string",
                    "name": "_surveyName",
                    "type": "string"
                },
                {
                    "internalType": "string",
                    "name": "_surveyDesc",
                    "type": "string"
                }
            ],
            "name": "createAndEndow",
            "outputs": [],
            "stateMutability": "payable",
            "type": "function"
        },
        {
            "inputs": [
                {
                    "internalType": "uint256",
                    "name": "",
                    "type": "uint256"
                }
            ],
            "name": "surveys",
            "outputs": [
                {
                    "internalType": "contract Survey",
                    "name": "",
                    "type": "address"
                }
            ],
            "stateMutability": "view",
            "type": "function"
        }
    ],
    "bytecode": "608060405234801561001057600080fd5b5061091f806100206000396000f3fe6080604052600436106100295760003560e01c806386e68b901461002e5780639436202614610064575b600080fd5b34801561003a57600080fd5b5061004e6100493660046102c1565b610079565b60405161005b91906102d9565b60405180910390f35b6100776100723660046101bf565b6100a3565b005b6000818154811061008957600080fd5b6000918252602090912001546001600160a01b0316905081565b6000346040516100b29061014d565b6040518091039082f09050801580156100cf573d6000803e3d6000fd5b50600080546001810182558180527f290decd9548b62a8d60345a988386fc84ba6bc95484008f6362f93160ef3e5630180546001600160a01b0319166001600160a01b038416908117909155604051929350917fe4a31ef77e86b8f2bb7fb6155fa7ed2b27d5bfff238069f816cd02b9d30212e19190a25050505050565b6105d88061031283390190565b600082601f83011261016a578081fd5b813567ffffffffffffffff81111561017e57fe5b610191601f8201601f19166020016102ed565b8181528460208386010111156101a5578283fd5b816020850160208301379081016020019190915292915050565b600080600080608085870312156101d4578384fd5b843567ffffffffffffffff808211156101eb578586fd5b818701915087601f8301126101fe578586fd5b813560208282111561020c57fe5b61021981828402016102ed565b828152818101908583018a5b8581101561024e5761023c8e8684358b010161015a565b84529284019290840190600101610225565b50909950505088013592505080821115610266578485fd5b6102728883890161015a565b94506040870135915080821115610287578384fd5b6102938883890161015a565b935060608701359150808211156102a8578283fd5b506102b58782880161015a565b91505092959194509250565b6000602082840312156102d2578081fd5b5035919050565b6001600160a01b0391909116815260200190565b60405181810167ffffffffffffffff8111828210171561030957fe5b60405291905056fe6080604052600061000e61005d565b600080546001600160a01b0319166001600160a01b0383169081178255604051929350917f8be0079c531659141344cd1fd0a4f28419497f9722a3daafe3b4186f6b6457e0908290a350610061565b3390565b610568806100706000396000f3fe608060405234801561001057600080fd5b50600436106100575760003560e01c8063715018a61461005c5780638da5cb5b14610066578063c0e9d8e814610084578063dace9f7f1461009a578063f2fde38b146100ad575b600080fd5b6100646100c0565b005b61006e61017e565b60405161007b9190610408565b60405180910390f35b61008c61018d565b60405161007b92919061041c565b6100646100a83660046103da565b61026e565b6100646100bb3660046103da565b6102c2565b6100c86103d6565b6001600160a01b03166100d961017e565b6001600160a01b031614610134576040805162461bcd60e51b815260206004820181905260248201527f4f776e61626c653a2063616c6c6572206973206e6f7420746865206f776e6572604482015290519081900360640190fd5b600080546040516001600160a01b03909116907f8be0079c531659141344cd1fd0a4f28419497f9722a3daafe3b4186f6b6457e0908390a3600080546001600160a01b0319169055565b6000546001600160a01b031690565b6060600060034781805480602002602001604051908101604052809291908181526020016000905b828210156102605760008481526020908190208301805460408051601f600260001961010060018716150201909416939093049283018590048502810185019091528181529283018282801561024c5780601f106102215761010080835404028352916020019161024c565b820191906000526020600020905b81548152906001019060200180831161022f57829003601f168201915b5050505050815260200190600101906101b5565b505050509150915091509091565b61708060015442031161029c5760405162461bcd60e51b8152600401610293906104ba565b60405180910390fd5b600280546001600160a01b0319166001600160a01b039290921691909117905542600155565b6102ca6103d6565b6001600160a01b03166102db61017e565b6001600160a01b031614610336576040805162461bcd60e51b815260206004820181905260248201527f4f776e61626c653a2063616c6c6572206973206e6f7420746865206f776e6572604482015290519081900360640190fd5b6001600160a01b03811661037b5760405162461bcd60e51b815260040180806020018281038252602681526020018061050d6026913960400191505060405180910390fd5b600080546040516001600160a01b03808516939216917f8be0079c531659141344cd1fd0a4f28419497f9722a3daafe3b4186f6b6457e091a3600080546001600160a01b0319166001600160a01b0392909216919091179055565b3390565b6000602082840312156103eb578081fd5b81356001600160a01b0381168114610401578182fd5b9392505050565b6001600160a01b0391909116815260200190565b60006040820160408352808551808352606085019150602092506060838202860101838801855b838110156104a857878303605f1901855281518051808552885b81811015610478578281018901518682018a0152880161045d565b8181111561048857898983880101525b5095870195601f01601f1916939093018601925090850190600101610443565b50509290940194909452949350505050565b60208082526032908201527f5468697320776f726b2069732063757272656e746c7920726573657276656420604082015271313c9030b737ba3432b9103bb7b935b2b91760711b60608201526080019056fe4f776e61626c653a206e6577206f776e657220697320746865207a65726f2061646472657373a2646970667358221220ae7f2cdb65fbefe9ee11e1a2cf87c23cc9e349f08474dca7f27eecfb9dc8498664736f6c63430007060033a264697066735822122064046fcc1b7156d010b2850a0d22de0c4acab399176ca421eac459ddcde9d72d64736f6c63430007060033",
    "sourcePath": "e:/cryptodev/sozu/contracts/SurveyFactory.sol",
    "compiler": {
        "name": "solc",
        "version": "0.7.6+commit.7338295f"
    },
    "functionHashes": {
        "createAndEndow(string[],string,string,string)": "94362026",
        "surveys(uint256)": "86e68b90"
    },
    "gasEstimates": {
        "creation": {
            "codeDepositCost": "467000",
            "executionCost": "499",
            "totalCost": "467499"
        },
        "external": {
            "createAndEndow(string[],string,string,string)": "infinite",
            "surveys(uint256)": "2016"
        }
    }
}