{
    "contractName": "VRFConsumer",
    "abi": [
        {
            "inputs": [],
            "stateMutability": "nonpayable",
            "type": "constructor"
        },
        {
            "anonymous": false,
            "inputs": [
                {
                    "indexed": false,
                    "internalType": "bytes32",
                    "name": "requestId",
                    "type": "bytes32"
                },
                {
                    "indexed": false,
                    "internalType": "uint256",
                    "name": "randomNumber",
                    "type": "uint256"
                }
            ],
            "name": "RandomNumber",
            "type": "event"
        },
        {
            "inputs": [
                {
                    "internalType": "uint256",
                    "name": "userProvidedSeed",
                    "type": "uint256"
                }
            ],
            "name": "getRandomNumber",
            "outputs": [
                {
                    "internalType": "bytes32",
                    "name": "requestId",
                    "type": "bytes32"
                }
            ],
            "stateMutability": "nonpayable",
            "type": "function"
        },
        {
            "inputs": [],
            "name": "randomResult",
            "outputs": [
                {
                    "internalType": "uint256",
                    "name": "",
                    "type": "uint256"
                }
            ],
            "stateMutability": "view",
            "type": "function"
        },
        {
            "inputs": [
                {
                    "internalType": "bytes32",
                    "name": "requestId",
                    "type": "bytes32"
                },
                {
                    "internalType": "uint256",
                    "name": "randomness",
                    "type": "uint256"
                }
            ],
            "name": "rawFulfillRandomness",
            "outputs": [],
            "stateMutability": "nonpayable",
            "type": "function"
        }
    ],
    "bytecode": "60c060405234801561001057600080fd5b507fdd3782915140c8f3b190b5d67eac6dc5760c46e900000000000000000000000060a0527fa36085f69e2889c224210f603d836748e7dc00880000000000000000000000006080527f6c3699283bda56ad74f6b855546325b68d482e983852a7a82979cc4807b641f460015567016345785d8a000060025573a36085f69e2889c224210f603d836748e7dc008873dd3782915140c8f3b190b5d67eac6dc5760c46e961051f6100d96000398060b3528061025b525080610136528061022c525061051f6000f3fe608060405234801561001057600080fd5b50600436106100415760003560e01c806342619f661461004657806394985ddd14610060578063b37217a414610085575b600080fd5b61004e6100a2565b60408051918252519081900360200190f35b6100836004803603604081101561007657600080fd5b50803590602001356100a8565b005b61004e6004803603602081101561009b57600080fd5b503561012f565b60035481565b336001600160a01b037f00000000000000000000000000000000000000000000000000000000000000001614610125576040805162461bcd60e51b815260206004820152601f60248201527f4f6e6c7920565246436f6f7264696e61746f722063616e2066756c66696c6c00604482015290519081900360640190fd5b61012b82825b5050565b60006002547f00000000000000000000000000000000000000000000000000000000000000006001600160a01b03166370a08231306040518263ffffffff1660e01b815260040180826001600160a01b03166001600160a01b0316815260200191505060206040518083038186803b1580156101aa57600080fd5b505afa1580156101be573d6000803e3d6000fd5b505050506040513d60208110156101d457600080fd5b505110156102135760405162461bcd60e51b815260040180806020018281038252602b8152602001806104bf602b913960400191505060405180910390fd5b61022260015460025484610228565b92915050565b60007f00000000000000000000000000000000000000000000000000000000000000006001600160a01b0316634000aea07f000000000000000000000000000000000000000000000000000000000000000085878660405160200180838152602001828152602001925050506040516020818303038152906040526040518463ffffffff1660e01b815260040180846001600160a01b03166001600160a01b0316815260200183815260200180602001828103825283818151815260200191508051906020019080838360005b8381101561030d5781810151838201526020016102f5565b50505050905090810190601f16801561033a5780820380516001836020036101000a031916815260200191505b50945050505050602060405180830381600087803b15801561035b57600080fd5b505af115801561036f573d6000803e3d6000fd5b505050506040513d602081101561038557600080fd5b50506000848152602081905260408120546103a5908690859030906103ea565b6000868152602081905260409020549091506103c890600163ffffffff61043116565b6000868152602081905260409020556103e18582610492565b95945050505050565b60408051602080820196909652808201949094526001600160a01b039290921660608401526080808401919091528151808403909101815260a09092019052805191012090565b60008282018381101561048b576040805162461bcd60e51b815260206004820152601b60248201527f536166654d6174683a206164646974696f6e206f766572666c6f770000000000604482015290519081900360640190fd5b9392505050565b60408051602080820194909452808201929092528051808303820181526060909201905280519101209056fe4e6f7420656e6f756768204c494e4b202d2066696c6c20636f6e7472616374207769746820666175636574a264697066735822122073db279ccabd74c6a357d30a5d4d303ef70c071f64a2382e6ec9ec3b4de7d74964736f6c63430006060033",
    "sourcePath": "e:/cryptodev/sozu/contracts/VRFConsumer.sol",
    "compiler": {
        "name": "solc",
        "version": "0.6.6+commit.6c089d02"
    },
    "functionHashes": {
        "getRandomNumber(uint256)": "b37217a4",
        "randomResult()": "42619f66",
        "rawFulfillRandomness(bytes32,uint256)": "94985ddd"
    },
    "gasEstimates": {
        "creation": {
            "codeDepositCost": "262200",
            "executionCost": "infinite",
            "totalCost": "infinite"
        },
        "external": {
            "getRandomNumber(uint256)": "infinite",
            "randomResult()": "976",
            "rawFulfillRandomness(bytes32,uint256)": "infinite"
        },
        "internal": {
            "fulfillRandomness(bytes32,uint256)": "infinite"
        }
    }
}