{
    "contractName": "VRFCoordinatorMock",
    "abi": [
        {
            "inputs": [
                {
                    "internalType": "address",
                    "name": "linkAddress",
                    "type": "address"
                }
            ],
            "stateMutability": "nonpayable",
            "type": "constructor"
        },
        {
            "anonymous": false,
            "inputs": [
                {
                    "indexed": true,
                    "internalType": "address",
                    "name": "sender",
                    "type": "address"
                },
                {
                    "indexed": true,
                    "internalType": "bytes32",
                    "name": "keyHash",
                    "type": "bytes32"
                },
                {
                    "indexed": true,
                    "internalType": "uint256",
                    "name": "seed",
                    "type": "uint256"
                }
            ],
            "name": "RandomnessRequest",
            "type": "event"
        },
        {
            "inputs": [],
            "name": "LINK",
            "outputs": [
                {
                    "internalType": "contract LinkTokenInterface",
                    "name": "",
                    "type": "address"
                }
            ],
            "stateMutability": "view",
            "type": "function"
        },
        {
            "inputs": [
                {
                    "internalType": "bytes32",
                    "name": "requestId",
                    "type": "bytes32"
                },
                {
                    "internalType": "uint256",
                    "name": "randomness",
                    "type": "uint256"
                },
                {
                    "internalType": "address",
                    "name": "consumerContract",
                    "type": "address"
                }
            ],
            "name": "callBackWithRandomness",
            "outputs": [],
            "stateMutability": "nonpayable",
            "type": "function"
        },
        {
            "inputs": [
                {
                    "internalType": "address",
                    "name": "sender",
                    "type": "address"
                },
                {
                    "internalType": "uint256",
                    "name": "fee",
                    "type": "uint256"
                },
                {
                    "internalType": "bytes",
                    "name": "_data",
                    "type": "bytes"
                }
            ],
            "name": "onTokenTransfer",
            "outputs": [],
            "stateMutability": "nonpayable",
            "type": "function"
        }
    ],
    "bytecode": "608060405234801561001057600080fd5b5060405161049938038061049983398101604081905261002f91610054565b600080546001600160a01b0319166001600160a01b0392909216919091179055610082565b600060208284031215610065578081fd5b81516001600160a01b038116811461007b578182fd5b9392505050565b610408806100916000396000f3fe608060405234801561001057600080fd5b50600436106100415760003560e01c80631b6b6d2314610046578063a4c0ed3614610075578063cf55fe971461008a575b600080fd5b600054610059906001600160a01b031681565b6040516001600160a01b03909116815260200160405180910390f35b610088610083366004610266565b61009d565b005b61008861009836600461034f565b61014c565b6000546001600160a01b031633146100f25760405162461bcd60e51b815260206004820152601360248201527226bab9ba103ab9b2902624a725903a37b5b2b760691b60448201526064015b60405180910390fd5b60008082806020019051810190610109919061032c565b915091508082866001600160a01b03167f7a9a0a6960d95b32cded93c30e63e7c2eb9e877230813c172110ea54dc1c915c60405160405180910390a45050505050565b604080516024810185905260448082018590528251808303909101815260649091019091526020810180516001600160e01b03166394985ddd60e01b179052600090620324b0805a10156101e25760405162461bcd60e51b815260206004820152601b60248201527f6e6f7420656e6f7567682067617320666f7220636f6e73756d6572000000000060448201526064016100e9565b6000846001600160a01b0316836040516101fc9190610383565b6000604051808303816000865af19150503d8060008114610239576040519150601f19603f3d011682016040523d82523d6000602084013e61023e565b606091505b50505050505050505050565b80356001600160a01b038116811461026157600080fd5b919050565b60008060006060848603121561027a578283fd5b6102838461024a565b925060208401359150604084013567ffffffffffffffff808211156102a6578283fd5b818601915086601f8301126102b9578283fd5b8135818111156102cb576102cb6103bc565b604051601f8201601f19908116603f011681019083821181831017156102f3576102f36103bc565b8160405282815289602084870101111561030b578586fd5b82602086016020830137856020848301015280955050505050509250925092565b6000806040838503121561033e578182fd5b505080516020909101519092909150565b600080600060608486031215610363578283fd5b833592506020840135915061037a6040850161024a565b90509250925092565b60008251815b818110156103a35760208186018101518583015201610389565b818111156103b15782828501525b509190910192915050565b634e487b7160e01b600052604160045260246000fdfea26469706673582212207ddd5c36c4b8a841eaae9a9480d9fa1ea7f9530916ea344909e3fd98e69bf4d164736f6c63430008030033",
    "sourcePath": "e:/cryptodev/sozu/contracts/test/VRFCoordinatorMock.sol",
    "compiler": {
        "name": "solc",
        "version": "0.8.3+commit.8d00100c"
    },
    "functionHashes": {
        "LINK()": "1b6b6d23",
        "callBackWithRandomness(bytes32,uint256,address)": "cf55fe97",
        "onTokenTransfer(address,uint256,bytes)": "a4c0ed36"
    },
    "gasEstimates": {
        "creation": {
            "codeDepositCost": "206400",
            "executionCost": "infinite",
            "totalCost": "infinite"
        },
        "external": {
            "LINK()": "1003",
            "callBackWithRandomness(bytes32,uint256,address)": "infinite",
            "onTokenTransfer(address,uint256,bytes)": "infinite"
        }
    }
}