{
  "contractName": "Job",
  "abi": [
    {
      "inputs": [
        {
          "internalType": "address",
          "name": "_factory",
          "type": "address"
        },
        {
          "internalType": "address",
          "name": "_employer",
          "type": "address"
        },
        {
          "internalType": "string",
          "name": "_topLevelCid",
          "type": "string"
        },
        {
          "internalType": "string",
          "name": "_jobType",
          "type": "string"
        },
        {
          "internalType": "string",
          "name": "_jobName",
          "type": "string"
        },
        {
          "internalType": "string",
          "name": "_jobDesc",
          "type": "string"
        },
        {
          "internalType": "uint256",
          "name": "_batchSize",
          "type": "uint256"
        },
        {
          "internalType": "uint256",
          "name": "_numTasks",
          "type": "uint256"
        },
        {
          "internalType": "uint8",
          "name": "_reviewPct",
          "type": "uint8"
        }
      ],
      "stateMutability": "payable",
      "type": "constructor"
    },
    {
      "anonymous": false,
      "inputs": [
        {
          "indexed": false,
          "internalType": "address",
          "name": "worker",
          "type": "address"
        },
        {
          "indexed": false,
          "internalType": "uint256",
          "name": "batchIndex",
          "type": "uint256"
        }
      ],
      "name": "BountyClaimed",
      "type": "event"
    },
    {
      "anonymous": false,
      "inputs": [
        {
          "indexed": true,
          "internalType": "bytes32",
          "name": "id",
          "type": "bytes32"
        }
      ],
      "name": "ChainlinkCancelled",
      "type": "event"
    },
    {
      "anonymous": false,
      "inputs": [
        {
          "indexed": true,
          "internalType": "bytes32",
          "name": "id",
          "type": "bytes32"
        }
      ],
      "name": "ChainlinkFulfilled",
      "type": "event"
    },
    {
      "anonymous": false,
      "inputs": [
        {
          "indexed": true,
          "internalType": "bytes32",
          "name": "id",
          "type": "bytes32"
        }
      ],
      "name": "ChainlinkRequested",
      "type": "event"
    },
    {
      "anonymous": false,
      "inputs": [
        {
          "indexed": true,
          "internalType": "address",
          "name": "previousOwner",
          "type": "address"
        },
        {
          "indexed": true,
          "internalType": "address",
          "name": "newOwner",
          "type": "address"
        }
      ],
      "name": "OwnershipTransferred",
      "type": "event"
    },
    {
      "anonymous": false,
      "inputs": [
        {
          "indexed": false,
          "internalType": "address",
          "name": "worker",
          "type": "address"
        },
        {
          "indexed": false,
          "internalType": "uint256",
          "name": "batchIndex",
          "type": "uint256"
        },
        {
          "indexed": false,
          "internalType": "bool",
          "name": "proofAccepted",
          "type": "bool"
        }
      ],
      "name": "ProvedAnswers",
      "type": "event"
    },
    {
      "anonymous": false,
      "inputs": [
        {
          "indexed": false,
          "internalType": "uint256",
          "name": "batchIndex",
          "type": "uint256"
        },
        {
          "indexed": false,
          "internalType": "uint256[]",
          "name": "reviewIndexes",
          "type": "uint256[]"
        },
        {
          "indexed": false,
          "internalType": "address",
          "name": "worker",
          "type": "address"
        }
      ],
      "name": "ReviewsSelected",
      "type": "event"
    },
    {
      "stateMutability": "payable",
      "type": "fallback"
    },
    {
      "inputs": [],
      "name": "batchSize",
      "outputs": [
        {
          "internalType": "uint256",
          "name": "",
          "type": "uint256"
        }
      ],
      "stateMutability": "view",
      "type": "function"
    },
    {
      "inputs": [],
      "name": "currentBountyPool",
      "outputs": [
        {
          "internalType": "uint256",
          "name": "",
          "type": "uint256"
        }
      ],
      "stateMutability": "view",
      "type": "function"
    },
    {
      "inputs": [],
      "name": "employer",
      "outputs": [
        {
          "internalType": "address",
          "name": "",
          "type": "address"
        }
      ],
      "stateMutability": "view",
      "type": "function"
    },
    {
      "inputs": [],
      "name": "factory",
      "outputs": [
        {
          "internalType": "contract factory_interface",
          "name": "",
          "type": "address"
        }
      ],
      "stateMutability": "view",
      "type": "function"
    },
    {
      "inputs": [],
      "name": "jobDesc",
      "outputs": [
        {
          "internalType": "string",
          "name": "",
          "type": "string"
        }
      ],
      "stateMutability": "view",
      "type": "function"
    },
    {
      "inputs": [],
      "name": "jobName",
      "outputs": [
        {
          "internalType": "string",
          "name": "",
          "type": "string"
        }
      ],
      "stateMutability": "view",
      "type": "function"
    },
    {
      "inputs": [],
      "name": "jobType",
      "outputs": [
        {
          "internalType": "string",
          "name": "",
          "type": "string"
        }
      ],
      "stateMutability": "view",
      "type": "function"
    },
    {
      "inputs": [],
      "name": "lastBatchSize",
      "outputs": [
        {
          "internalType": "uint256",
          "name": "",
          "type": "uint256"
        }
      ],
      "stateMutability": "view",
      "type": "function"
    },
    {
      "inputs": [],
      "name": "numBatches",
      "outputs": [
        {
          "internalType": "uint256",
          "name": "",
          "type": "uint256"
        }
      ],
      "stateMutability": "view",
      "type": "function"
    },
    {
      "inputs": [],
      "name": "numTasks",
      "outputs": [
        {
          "internalType": "uint256",
          "name": "",
          "type": "uint256"
        }
      ],
      "stateMutability": "view",
      "type": "function"
    },
    {
      "inputs": [],
      "name": "owner",
      "outputs": [
        {
          "internalType": "address",
          "name": "",
          "type": "address"
        }
      ],
      "stateMutability": "view",
      "type": "function"
    },
    {
      "inputs": [],
      "name": "renounceOwnership",
      "outputs": [],
      "stateMutability": "nonpayable",
      "type": "function"
    },
    {
      "inputs": [],
      "name": "reviewPct",
      "outputs": [
        {
          "internalType": "uint8",
          "name": "",
          "type": "uint8"
        }
      ],
      "stateMutability": "view",
      "type": "function"
    },
    {
      "inputs": [],
      "name": "topLevelCid",
      "outputs": [
        {
          "internalType": "string",
          "name": "",
          "type": "string"
        }
      ],
      "stateMutability": "view",
      "type": "function"
    },
    {
      "inputs": [],
      "name": "totalBountyPool",
      "outputs": [
        {
          "internalType": "uint256",
          "name": "",
          "type": "uint256"
        }
      ],
      "stateMutability": "view",
      "type": "function"
    },
    {
      "inputs": [
        {
          "internalType": "address",
          "name": "newOwner",
          "type": "address"
        }
      ],
      "name": "transferOwnership",
      "outputs": [],
      "stateMutability": "nonpayable",
      "type": "function"
    },
    {
      "inputs": [
        {
          "internalType": "uint256",
          "name": "_numTasks",
          "type": "uint256"
        },
        {
          "internalType": "uint256",
          "name": "_batchSize",
          "type": "uint256"
        }
      ],
      "name": "getNumBatches",
      "outputs": [
        {
          "internalType": "uint256",
          "name": "",
          "type": "uint256"
        }
      ],
      "stateMutability": "pure",
      "type": "function"
    },
    {
      "inputs": [
        {
          "internalType": "address",
          "name": "_userAddress",
          "type": "address"
        }
      ],
      "name": "isBatch",
      "outputs": [
        {
          "internalType": "bool",
          "name": "isIndeed",
          "type": "bool"
        }
      ],
      "stateMutability": "view",
      "type": "function"
    },
    {
      "inputs": [
        {
          "internalType": "address",
          "name": "_userAddress",
          "type": "address"
        }
      ],
      "name": "getBatch",
      "outputs": [
        {
          "components": [
            {
              "internalType": "bool",
              "name": "isBatch",
              "type": "bool"
            },
            {
              "internalType": "bool",
              "name": "answersSubmitted",
              "type": "bool"
            },
            {
              "internalType": "bool",
              "name": "answersAccepted",
              "type": "bool"
            },
            {
              "internalType": "bool",
              "name": "answersRejected",
              "type": "bool"
            },
            {
              "internalType": "bool",
              "name": "proofFailed",
              "type": "bool"
            },
            {
              "internalType": "bool",
              "name": "bountyClaimed",
              "type": "bool"
            },
            {
              "internalType": "bytes32",
              "name": "committedRoot",
              "type": "bytes32"
            },
            {
              "internalType": "bytes32",
              "name": "committedAnswersHash",
              "type": "bytes32"
            },
            {
              "internalType": "uint256[]",
              "name": "reviewIndexes",
              "type": "uint256[]"
            },
            {
              "internalType": "uint256",
              "name": "index",
              "type": "uint256"
            },
            {
              "internalType": "string",
              "name": "answersCID",
              "type": "string"
            },
            {
              "internalType": "uint256[]",
              "name": "reviewAnswers",
              "type": "uint256[]"
            }
          ],
          "internalType": "struct Job.Batch",
          "name": "",
          "type": "tuple"
        }
      ],
      "stateMutability": "view",
      "type": "function"
    },
    {
      "inputs": [],
      "name": "viewBatch",
      "outputs": [
        {
          "components": [
            {
              "internalType": "bool",
              "name": "isBatch",
              "type": "bool"
            },
            {
              "internalType": "bool",
              "name": "answersSubmitted",
              "type": "bool"
            },
            {
              "internalType": "bool",
              "name": "answersAccepted",
              "type": "bool"
            },
            {
              "internalType": "bool",
              "name": "answersRejected",
              "type": "bool"
            },
            {
              "internalType": "bool",
              "name": "proofFailed",
              "type": "bool"
            },
            {
              "internalType": "bool",
              "name": "bountyClaimed",
              "type": "bool"
            },
            {
              "internalType": "bytes32",
              "name": "committedRoot",
              "type": "bytes32"
            },
            {
              "internalType": "bytes32",
              "name": "committedAnswersHash",
              "type": "bytes32"
            },
            {
              "internalType": "uint256[]",
              "name": "reviewIndexes",
              "type": "uint256[]"
            },
            {
              "internalType": "uint256",
              "name": "index",
              "type": "uint256"
            },
            {
              "internalType": "string",
              "name": "answersCID",
              "type": "string"
            },
            {
              "internalType": "uint256[]",
              "name": "reviewAnswers",
              "type": "uint256[]"
            }
          ],
          "internalType": "struct Job.Batch",
          "name": "",
          "type": "tuple"
        }
      ],
      "stateMutability": "view",
      "type": "function"
    },
    {
      "inputs": [],
      "name": "reserveBatch",
      "outputs": [
        {
          "internalType": "uint256",
          "name": "",
          "type": "uint256"
        }
      ],
      "stateMutability": "nonpayable",
      "type": "function"
    },
    {
      "inputs": [
        {
          "internalType": "uint256",
          "name": "_batchIdx",
          "type": "uint256"
        }
      ],
      "name": "getTaskIndexesForBatch",
      "outputs": [
        {
          "internalType": "uint256",
          "name": "minIndex",
          "type": "uint256"
        },
        {
          "internalType": "uint256",
          "name": "maxIndex",
          "type": "uint256"
        }
      ],
      "stateMutability": "view",
      "type": "function"
    },
    {
      "inputs": [
        {
          "internalType": "address",
          "name": "_address",
          "type": "address"
        }
      ],
      "name": "getTaskIndexesForAddress",
      "outputs": [
        {
          "internalType": "uint256",
          "name": "minIndex",
          "type": "uint256"
        },
        {
          "internalType": "uint256",
          "name": "maxIndex",
          "type": "uint256"
        }
      ],
      "stateMutability": "view",
      "type": "function"
    },
    {
      "inputs": [
        {
          "internalType": "uint256",
          "name": "_batchIndex",
          "type": "uint256"
        },
        {
          "internalType": "bytes32",
          "name": "_root",
          "type": "bytes32"
        },
        {
          "internalType": "bytes32",
          "name": "_answersHash",
          "type": "bytes32"
        }
      ],
      "name": "commitAnswers",
      "outputs": [],
      "stateMutability": "nonpayable",
      "type": "function"
    },
    {
      "inputs": [
        {
          "internalType": "bytes32",
          "name": "_requestId",
          "type": "bytes32"
        },
        {
          "internalType": "uint256",
          "name": "_randomness",
          "type": "uint256"
        },
        {
          "internalType": "uint256",
          "name": "_batchIndex",
          "type": "uint256"
        }
      ],
      "name": "fulfill_random",
      "outputs": [
        {
          "internalType": "uint256",
          "name": "",
          "type": "uint256"
        }
      ],
      "stateMutability": "nonpayable",
      "type": "function"
    },
    {
      "inputs": [
        {
          "internalType": "uint256",
          "name": "_batchIndex",
          "type": "uint256"
        },
        {
          "internalType": "uint256[]",
          "name": "_answers",
          "type": "uint256[]"
        },
        {
          "internalType": "bytes32[][]",
          "name": "_proofs",
          "type": "bytes32[][]"
        }
      ],
      "name": "proveAnswers",
      "outputs": [],
      "stateMutability": "nonpayable",
      "type": "function"
    },
    {
      "inputs": [
        {
          "internalType": "uint256",
          "name": "_batchIndex",
          "type": "uint256"
        }
      ],
      "name": "acceptAnswers",
      "outputs": [],
      "stateMutability": "nonpayable",
      "type": "function"
    },
    {
      "inputs": [
        {
          "internalType": "uint256",
          "name": "_batchIndex",
          "type": "uint256"
        }
      ],
      "name": "rejectAnswers",
      "outputs": [],
      "stateMutability": "nonpayable",
      "type": "function"
    },
    {
      "inputs": [
        {
          "internalType": "uint256",
          "name": "_batchIndex",
          "type": "uint256"
        },
        {
          "internalType": "string",
          "name": "_cid",
          "type": "string"
        }
      ],
      "name": "finalizeSubmission",
      "outputs": [],
      "stateMutability": "nonpayable",
      "type": "function"
    },
    {
      "inputs": [],
      "name": "getTotalBountyPool",
      "outputs": [
        {
          "internalType": "uint256",
          "name": "totalPool",
          "type": "uint256"
        }
      ],
      "stateMutability": "view",
      "type": "function"
    },
    {
      "inputs": [],
      "name": "getTaskBounty",
      "outputs": [
        {
          "internalType": "uint256",
          "name": "taskBounty",
          "type": "uint256"
        }
      ],
      "stateMutability": "view",
      "type": "function"
    }
  ],
  "bytecode": "0x608060408190526001600555601f805460ff1916905562002cb638819003908190833981016040819052620000349162000620565b6000620000496001600160e01b036200020016565b600080546001600160a01b0319166001600160a01b0383169081178255604051929350917f8be0079c531659141344cd1fd0a4f28419497f9722a3daafe3b4186f6b6457e0908290a350620000a66001600160e01b036200020516565b60078054732f90a6d021db21e1b2a077c5a37b3c7e75d15b7e6001600160a01b0319918216179091557f323966613961613133626631343638373838623763633461353030613435623860085567016345785d8a0000600955600a805482166001600160a01b038c8116918217909255600b805484169091179055600c8054909216908a1617905586516200014390600d9060208a0190620004b5565b5085516200015990600e906020890190620004b5565b5084516200016f90600f906020880190620004b5565b50835162000185906010906020870190620004b5565b50601183905560128290556018805460ff191660ff8316179055620001ab8284620002a3565b601381905550620001e4601254620001d36011546013546200031460201b620016031760201c565b6200036460201b620015111760201c565b6014555050346015819055601655506200080495505050505050565b335b90565b620002a173c89bd4e1632d3a43cb03aaad5262cbe4038bc5716001600160a01b03166338cc48316040518163ffffffff1660e01b815260040160206040518083038186803b1580156200025757600080fd5b505afa1580156200026c573d6000803e3d6000fd5b505050506040513d601f19601f8201168201806040525081019062000292919062000602565b6001600160e01b03620003ae16565b565b6000620002bc83836200036460201b620015111760201c565b620002e057620002d88383620003d060201b6200155a1760201c565b90506200030e565b620002d86001620002fd8585620003d060201b6200155a1760201c565b6200041a60201b6200159c1760201c565b92915050565b60008262000325575060006200030e565b828202828482816200033357fe5b04146200035d5760405162461bcd60e51b8152600401620003549062000790565b60405180910390fd5b9392505050565b60006200035d83836040518060400160405280601881526020017f536166654d6174683a206d6f64756c6f206279207a65726f00000000000000008152506200044260201b60201c565b600380546001600160a01b0319166001600160a01b0392909216919091179055565b60006200035d83836040518060400160405280601a81526020017f536166654d6174683a206469766973696f6e206279207a65726f0000000000008152506200047a60201b60201c565b6000828201838110156200035d5760405162461bcd60e51b8152600401620003549062000759565b60008183620004665760405162461bcd60e51b815260040162000354919062000724565b508284816200047157fe5b06949350505050565b600081836200049e5760405162461bcd60e51b815260040162000354919062000724565b506000838581620004ab57fe5b0495945050505050565b828054600181600116156101000203166002900490600052602060002090601f016020900481019282601f10620004f857805160ff191683800117855562000528565b8280016001018555821562000528579182015b82811115620005285782518255916020019190600101906200050b565b50620005369291506200053a565b5090565b6200020291905b8082111562000536576000815560010162000541565b80516001600160a01b03811681146200030e57600080fd5b600082601f83011262000580578081fd5b81516001600160401b038082111562000597578283fd5b604051601f8301601f191681016020018281118282101715620005b8578485fd5b604052828152925082848301602001861015620005d457600080fd5b620005e7836020830160208801620007d1565b50505092915050565b805160ff811681146200030e57600080fd5b60006020828403121562000614578081fd5b6200035d838362000557565b60008060008060008060008060006101208a8c0312156200063f578485fd5b6200064b8b8b62000557565b98506200065c8b60208c0162000557565b60408b01519098506001600160401b038082111562000679578687fd5b620006878d838e016200056f565b985060608c01519150808211156200069d578687fd5b620006ab8d838e016200056f565b975060808c0151915080821115620006c1578687fd5b620006cf8d838e016200056f565b965060a08c0151915080821115620006e5578586fd5b50620006f48c828d016200056f565b94505060c08a0151925060e08a01519150620007158b6101008c01620005f0565b90509295985092959850929598565b600060208252825180602084015262000745816040850160208701620007d1565b601f01601f19169190910160400192915050565b6020808252601b908201527f536166654d6174683a206164646974696f6e206f766572666c6f770000000000604082015260600190565b60208082526021908201527f536166654d6174683a206d756c7469706c69636174696f6e206f766572666c6f6040820152607760f81b606082015260800190565b60005b83811015620007ee578181015183820152602001620007d4565b83811115620007fe576000848401525b50505050565b6124a280620008146000396000f3fe6080604052600436106101d85760003560e01c80639bd1471711610102578063bda09cd411610095578063ea4a6c5511610064578063ea4a6c55146104e4578063f2fde38b14610504578063f4daaba114610524578063f61e45b714610539576101d8565b8063bda09cd414610490578063c45a0155146104a5578063c86026ce146104ba578063d2bf5dc6146104cf576101d8565b8063ae96cf8a116100d1578063ae96cf8a14610419578063b6d8027114610446578063b8d80f9a1461045b578063ba26454214610470576101d8565b80639bd14717146103a15780639ec4d0c7146103c1578063a2885fba146103ef578063ae200e7914610404576101d8565b80633935d9b21161017a5780638080be77116101495780638080be77146103335780638a527ade146103555780638bceb34d1461036a5780638da5cb5b1461037f576101d8565b80633935d9b2146102c757806342576492146102e95780634f446347146102fe578063715018a61461031e576101d8565b806308a6a072116101b657806308a6a0721461023a5780630e8779871461025a578063240fe1f71461027a57806336242fec1461029a576101d8565b8063028ba983146101da578063042fb274146101fa5780630560610a14610225575b005b3480156101e657600080fd5b506101d86101f5366004611baf565b61054e565b34801561020657600080fd5b5061020f610619565b60405161021c9190611d81565b60405180910390f35b34801561023157600080fd5b5061020f61061f565b34801561024657600080fd5b5061020f610255366004611cc7565b610625565b34801561026657600080fd5b506101d8610275366004611baf565b610660565b34801561028657600080fd5b5061020f610295366004611b84565b6107b2565b3480156102a657600080fd5b506102ba6102b5366004611b5d565b610965565b60405161021c91906122b0565b3480156102d357600080fd5b506102dc610b7b565b60405161021c9190612413565b3480156102f557600080fd5b506102ba610b84565b34801561030a57600080fd5b506101d8610319366004611c3e565b610b9b565b34801561032a57600080fd5b506101d8610c7a565b34801561033f57600080fd5b50610348610cf9565b60405161021c9190611e04565b34801561036157600080fd5b5061020f610d87565b34801561037657600080fd5b5061020f610d8d565b34801561038b57600080fd5b50610394610d93565b60405161021c9190611d8a565b3480156103ad57600080fd5b506101d86103bc366004611c52565b610da2565b3480156103cd57600080fd5b506103e16103dc366004611b5d565b610f95565b60405161021c929190611d73565b3480156103fb57600080fd5b5061020f610fd8565b34801561041057600080fd5b50610394610fde565b34801561042557600080fd5b50610439610434366004611b5d565b610fed565b60405161021c9190611dda565b34801561045257600080fd5b5061034861106b565b34801561046757600080fd5b506103486110c6565b34801561047c57600080fd5b506103e161048b366004611baf565b611121565b34801561049c57600080fd5b5061020f611158565b3480156104b157600080fd5b5061039461115e565b3480156104c657600080fd5b5061020f61116d565b3480156104db57600080fd5b5061034861119c565b3480156104f057600080fd5b506101d86104ff366004611bc7565b6111f7565b34801561051057600080fd5b506101d861051f366004611b5d565b611445565b34801561053057600080fd5b5061020f6114fb565b34801561054557600080fd5b5061020f611501565b600c546001600160a01b031633146105815760405162461bcd60e51b815260040161057890611f28565b60405180910390fd5b6105ab601d828154811061059157fe5b6000918252602090912001546001600160a01b0316610fed565b6105c75760405162461bcd60e51b81526004016105789061217f565b6001601c6000601d84815481106105da57fe5b60009182526020808320909101546001600160a01b0316835282019290925260400190208054911515620100000262ff00001990921691909117905550565b60145481565b60165481565b60006106318383611511565b6106465761063f838361155a565b905061065a565b61063f6001610655858561155a565b61159c565b92915050565b600c546001600160a01b0316331461068a5760405162461bcd60e51b815260040161057890611f28565b61069a601d828154811061059157fe5b6106b65760405162461bcd60e51b81526004016105789061217f565b601c6000601d83815481106106c757fe5b60009182526020808320909101546001600160a01b0316835282019290925260400190205460ff6101009091041615156001146107165760405162461bcd60e51b815260040161057890612104565b6001601c6000601d848154811061072957fe5b60009182526020808320909101546001600160a01b031683528201929092526040018120805492151563010000000263ff0000001990931692909217909155601d8054601c9183918590811061077b57fe5b6000918252602080832091909101546001600160a01b031683528201929092526040019020805460ff191691151591909117905550565b6000806107c260135460016115c1565b8314156107d257506014546107d7565b506011545b6011546018546000916107ec9160ff1661155a565b905060608167ffffffffffffffff8111801561080757600080fd5b50604051908082528060200260200182016040528015610831578160200160208202803683370190505b50905060005b828110156108ae5761088561084e87601154611603565b61065589601754604051602001610866929190611d73565b6040516020818303038152906040528051906020012060001c87611511565b82828151811061089157fe5b602090810291909101015260178054600190810190915501610837565b5080601c6000601d88815481106108c157fe5b60009182526020808320909101546001600160a01b03168352828101939093526040909101902082516108fe9360039092019291909101906119a1565b507fcd1cbec69ff39ea226a3160ab17fb288478cdfadf046fb3ab5e1768c893072428582601d888154811061092f57fe5b6000918252602090912001546040516109539392916001600160a01b0316906123b1565b60405180910390a15050509392505050565b61096d6119ec565b61097682610fed565b6109925760405162461bcd60e51b815260040161057890612049565b6001600160a01b0382166000908152601c6020908152604091829020825161018081018452815460ff80821615158352610100808304821615158487015262010000830482161515848801526301000000830482161515606085015264010000000083048216151560808501526501000000000090920416151560a0830152600183015460c0830152600283015460e08301526003830180548651818702810187019097528087529295939491860193929091830182828015610a7457602002820191906000526020600020905b815481526020019060010190808311610a60575b5050509183525050600482015460208083019190915260058301805460408051601f60026000196101006001871615020190941693909304928301859004850281018501825282815294019392830182828015610b125780601f10610ae757610100808354040283529160200191610b12565b820191906000526020600020905b815481529060010190602001808311610af557829003601f168201915b5050505050815260200160068201805480602002602001604051908101604052809291908181526020018280548015610b6a57602002820191906000526020600020905b815481526020019060010190808311610b56575b50505050508152505090505b919050565b60185460ff1681565b610b8c6119ec565b610b9533610965565b90505b90565b610ba433610fed565b610bc05760405162461bcd60e51b8152600401610578906121e0565b336001600160a01b0316601d8481548110610bd757fe5b6000918252602090912001546001600160a01b031614610c095760405162461bcd60e51b815260040161057890612148565b336000908152601c6020526040902054610100900460ff1615610c3e5760405162461bcd60e51b815260040161057890611e9e565b336000908152601c602052604090206001810183905560028101829055805461ff00191661010017815560040154610c759061163d565b505050565b610c826116aa565b6000546001600160a01b03908116911614610caf5760405162461bcd60e51b8152600401610578906120cf565b600080546040516001600160a01b03909116907f8be0079c531659141344cd1fd0a4f28419497f9722a3daafe3b4186f6b6457e0908390a3600080546001600160a01b0319169055565b600e805460408051602060026001851615610100026000190190941693909304601f81018490048402820184019092528181529291830182828015610d7f5780601f10610d5457610100808354040283529160200191610d7f565b820191906000526020600020905b815481529060010190602001808311610d6257829003601f168201915b505050505081565b60135481565b60155490565b6000546001600160a01b031690565b610dab33610fed565b610dc75760405162461bcd60e51b81526004016105789061217f565b336001600160a01b0316601d8481548110610dde57fe5b6000918252602090912001546001600160a01b031614610e105760405162461bcd60e51b815260040161057890612148565b601c6000601d8581548110610e2157fe5b60009182526020808320909101546001600160a01b0316835282019290925260400190205460ff610100909104161515600114610e705760405162461bcd60e51b815260040161057890612104565b601c6000601d8581548110610e8157fe5b60009182526020808320909101546001600160a01b0316835282019290925260400190205460ff62010000909104161515600114610ed15760405162461bcd60e51b815260040161057890611e5b565b336000908152601c602052604090205465010000000000900460ff1615610f0a5760405162461bcd60e51b81526004016105789061222c565b336000908152601c60205260409020610f27906005018383611a52565b50336000818152601c60205260409020805465ff0000000000191665010000000000179055610f5681856116ae565b7fac56e31790f51d5ee1fd63f4e99bd0bb5363ff7e23dd9005bdfb0bb52da5a4a63385604051610f87929190611d9e565b60405180910390a150505050565b600080610fa133610fed565b610faa57600080fd5b6001600160a01b0383166000908152601c6020526040902060040154610fcf90611121565b91509150915091565b60155481565b600c546001600160a01b031681565b601d54600090610fff57506000610b76565b6001600160a01b0382166000818152601c6020526040902060040154601d8054909190811061102a57fe5b6000918252602090912001546001600160a01b031614801561065a5750506001600160a01b03166000908152601c602052604090205460ff16151560011490565b600d805460408051602060026001851615610100026000190190941693909304601f81018490048402820184019092528181529291830182828015610d7f5780601f10610d5457610100808354040283529160200191610d7f565b600f805460408051602060026001851615610100026000190190941693909304601f81018490048402820184019092528181529291830182828015610d7f5780601f10610d5457610100808354040283529160200191610d7f565b600080600061113284601154611603565b9050600061114c6111458360115461159c565b60016115c1565b91935090915050915091565b60125481565b600a546001600160a01b031681565b601354601d54600091116111935760405162461bcd60e51b815260040161057890612261565b610b95336117cc565b6010805460408051602060026001851615610100026000190190941693909304601f81018490048402820184019092528181529291830182828015610d7f5780601f10610d5457610100808354040283529160200191610d7f565b611207601d868154811061059157fe5b6112235760405162461bcd60e51b81526004016105789061217f565b336001600160a01b0316601d868154811061123a57fe5b6000918252602090912001546001600160a01b03161461126c5760405162461bcd60e51b815260040161057890612148565b6000805b8481101561136057600086868381811061128657fe5b9050602002013560405160200161129d9190611d81565b604051602081830303815290604052805190602001209050600061134a8686858181106112c657fe5b90506020028101906112d89190612421565b808060200260200160405190810160405280939291908181526020018383602002808284376000920182905250601d8054601c955091935091508e90811061131c57fe5b60009182526020808320909101546001600160a01b031683528201929092526040019020600101548461186d565b90508061135657600193505b5050600101611270565b5080156113c857336000818152601c6020526040808220805464ff000000001916640100000000179055517f518e5b95cca6836f5fc8341f505e8292646f2d4d6234f0eac51a7a4bb9994d6c926113bb9290918a9190611db7565b60405180910390a161143d565b336000908152601c602052604090206113e5906006018686611ac0565b50336000818152601c602052604090819020805464ff0000000019169055517f518e5b95cca6836f5fc8341f505e8292646f2d4d6234f0eac51a7a4bb9994d6c91611434918990600190611db7565b60405180910390a15b505050505050565b61144d6116aa565b6000546001600160a01b0390811691161461147a5760405162461bcd60e51b8152600401610578906120cf565b6001600160a01b0381166114a05760405162461bcd60e51b815260040161057890611fcc565b600080546040516001600160a01b03808516939216917f8be0079c531659141344cd1fd0a4f28419497f9722a3daafe3b4186f6b6457e091a3600080546001600160a01b0319166001600160a01b0392909216919091179055565b60115481565b6000610b9560155460125461155a565b600061155383836040518060400160405280601881526020017f536166654d6174683a206d6f64756c6f206279207a65726f000000000000000081525061190a565b9392505050565b600061155383836040518060400160405280601a81526020017f536166654d6174683a206469766973696f6e206279207a65726f00000000000081525061193e565b6000828201838110156115535760405162461bcd60e51b815260040161057890612012565b600061155383836040518060400160405280601e81526020017f536166654d6174683a207375627472616374696f6e206f766572666c6f770000815250611975565b6000826116125750600061065a565b8282028284828161161f57fe5b04146115535760405162461bcd60e51b81526004016105789061208e565b600b54604051631bc98f2b60e21b81526001600160a01b0390911690636f263cac906116759063033debf19030908690600401611de5565b600060405180830381600087803b15801561168f57600080fd5b505af11580156116a3573d6000803e3d6000fd5b5050505050565b3390565b601f5460ff16156116d15760405162461bcd60e51b815260040161057890611ef1565b601f805460ff191660019081179091556013546000916116f191906115c1565b8214156117015750601454611706565b506011545b6000611719611713611501565b83611603565b90508047101561173b5760405162461bcd60e51b815260040161057890611e17565b60006060856001600160a01b03168360405161175690610b98565b60006040518083038185875af1925050503d8060008114611793576040519150601f19603f3d011682016040523d82523d6000602084013e611798565b606091505b5091509150816117ba5760405162461bcd60e51b8152600401610578906121b6565b5050601f805460ff1916905550505050565b60006117d782610fed565b156117f45760405162461bcd60e51b815260040161057890611f7a565b50601d8054600180820183557f6d4407e7be21f808e6509aa9fa9143369579dd7d760fe20a2c09680fc146134f90910180546001600160a01b0319166001600160a01b0394909416938417905581546000938452601c60205260409093206000199384016004820155805460ff19169091179055540190565b600081815b85518110156118ff57600086828151811061188957fe5b602002602001015190508083116118ca5782816040516020016118ad929190611d73565b6040516020818303038152906040528051906020012092506118f6565b80836040516020016118dd929190611d73565b6040516020818303038152906040528051906020012092505b50600101611872565b509092149392505050565b6000818361192b5760405162461bcd60e51b81526004016105789190611e04565b5082848161193557fe5b06949350505050565b6000818361195f5760405162461bcd60e51b81526004016105789190611e04565b50600083858161196b57fe5b0495945050505050565b600081848411156119995760405162461bcd60e51b81526004016105789190611e04565b505050900390565b8280548282559060005260206000209081019282156119dc579160200282015b828111156119dc5782518255916020019190600101906119c1565b506119e8929150611afa565b5090565b604080516101808101825260008082526020820181905291810182905260608082018390526080820183905260a0820183905260c0820183905260e082018390526101008201819052610120820192909252610140810182905261016081019190915290565b828054600181600116156101000203166002900490600052602060002090601f016020900481019282601f10611a935782800160ff198235161785556119dc565b828001600101855582156119dc579182015b828111156119dc578235825591602001919060010190611aa5565b8280548282559060005260206000209081019282156119dc57916020028201828111156119dc578235825591602001919060010190611aa5565b610b9891905b808211156119e85760008155600101611b00565b60008083601f840112611b25578182fd5b50813567ffffffffffffffff811115611b3c578182fd5b6020830191508360208083028501011115611b5657600080fd5b9250929050565b600060208284031215611b6e578081fd5b81356001600160a01b0381168114611553578182fd5b600080600060608486031215611b98578182fd5b505081359360208301359350604090920135919050565b600060208284031215611bc0578081fd5b5035919050565b600080600080600060608688031215611bde578081fd5b85359450602086013567ffffffffffffffff80821115611bfc578283fd5b611c0889838a01611b14565b90965094506040880135915080821115611c20578283fd5b50611c2d88828901611b14565b969995985093965092949392505050565b600080600060608486031215611b98578283fd5b600080600060408486031215611c66578283fd5b83359250602084013567ffffffffffffffff80821115611c84578384fd5b81860187601f820112611c95578485fd5b8035925081831115611ca5578485fd5b876020848301011115611cb6578485fd5b949760209095019650909450505050565b60008060408385031215611cd9578182fd5b50508035926020909101359150565b6000815180845260208085019450808401835b83811015611d1757815187529582019590820190600101611cfb565b509495945050505050565b15159052565b60008151808452815b81811015611d4d57602081850181015186830182015201611d31565b81811115611d5e5782602083870101525b50601f01601f19169290920160200192915050565b918252602082015260400190565b90815260200190565b6001600160a01b0391909116815260200190565b6001600160a01b03929092168252602082015260400190565b6001600160a01b0393909316835260208301919091521515604082015260600190565b901515815260200190565b9283526001600160a01b03919091166020830152604082015260600190565b6000602082526115536020830184611d28565b60208082526024908201527f436f6e747261637420646f6573206e6f74206861766520656e6f7567682066756040820152633732399760e11b606082015260800190565b60208082526023908201527f426174636820686173206e6f742068616420616e73776572732061636365707460408201526232b21760e91b606082015260800190565b60208082526033908201527f416e7377657273206861766520616c7265616479206265656e207375626d69746040820152723a32b2103337b9103a3434b9903130ba31b41760691b606082015260800190565b60208082526018908201527f5265656e7472616e742063616c6c206465746563746564210000000000000000604082015260600190565b60208082526032908201527f4f6e6c7920746865206f776e6572206f662074686973206a6f622063616e206360408201527130b636103a3434b990333ab731ba34b7b71760711b606082015260800190565b60208082526032908201527f596f7572206164647265737320697320616c7265616479206c696e6b65642074604082015271379030b71030b1ba34bb32903130ba31b41760711b606082015260800190565b60208082526026908201527f4f776e61626c653a206e6577206f776e657220697320746865207a65726f206160408201526564647265737360d01b606082015260800190565b6020808252601b908201527f536166654d6174683a206164646974696f6e206f766572666c6f770000000000604082015260600190565b60208082526025908201527f4120626174636820646f6573206e6f7420657869737420666f722074686973206040820152643ab9b2b91760d91b606082015260800190565b60208082526021908201527f536166654d6174683a206d756c7469706c69636174696f6e206f766572666c6f6040820152607760f81b606082015260800190565b6020808252818101527f4f776e61626c653a2063616c6c6572206973206e6f7420746865206f776e6572604082015260600190565b60208082526024908201527f426174636820686173206e6f742068616420616e7377657273207375626d69746040820152633a32b21760e11b606082015260800190565b6020808252601f908201527f426174636820646f6573206e6f742062656c6f6e6720746f2073656e64657200604082015260600190565b6020808252601a908201527f426174636820696e64657820646f6573206e6f74206578697374000000000000604082015260600190565b60208082526010908201526f2a3930b739b332b9103330b4b632b21760811b604082015260600190565b6020808252602c908201527f54686973206163636f756e7420646f6573206e6f74206861766520612062617460408201526b31b4103932b9b2b93b32b21760a11b606082015260800190565b6020808252818101527f426f756e747920686173206265656e20616c726561647920636c61696d65642e604082015260600190565b6020808252602f908201527f416c6c20746865206261746368657320666f722074686973204a6f622068617660408201526e32903132b2b71031b630b4b6b2b21760891b606082015260800190565b6000602082526122c4602083018451611d22565b60208301516122d66040840182611d22565b5060408301516122e96060840182611d22565b5060608301516122fc6080840182611d22565b50608083015161230f60a0840182611d22565b5060a083015161232260c0840182611d22565b5060c083015160e083015260e0830151610100818185015280850151915050610180610120818186015261235a6101a0860184611ce8565b81870151935061014091508382870152818701519350601f19915061016082878303018188015261238b8286611d28565b8189015195508388820301858901526123a48187611ce8565b9998505050505050505050565b60006060820185835260206060818501528186518084526080860191508288019350845b818110156123f1578451835293830193918301916001016123d5565b50506001600160a01b0395909516604094909401939093525091949350505050565b60ff91909116815260200190565b6000808335601e19843603018112612437578283fd5b8084018035925067ffffffffffffffff831115612452578384fd5b6020810193505050602081023603821315611b5657600080fdfea2646970667358221220f5bd117c41e41a56209a04f6340149a055e440b26bb047b233b14cc840f1fbe064736f6c63430006060033",
  "immutableReferences": {},
  "source": "// SPDX-License-Identifier: MIT\r\npragma experimental ABIEncoderV2;\r\npragma solidity >=0.4.22 <0.9.0;\r\n\r\nimport \"../node_modules/@openzeppelin/contracts/access/Ownable.sol\";\r\nimport \"../node_modules/@chainlink/contracts/src/v0.6/VRFConsumerBase.sol\";\r\nimport \"../node_modules/@openzeppelin/contracts/math/SafeMath.sol\";\r\nimport \"../node_modules/@openzeppelin/contracts/cryptography/MerkleProof.sol\";\r\nimport \"../node_modules/@chainlink/contracts/src/v0.6/ChainlinkClient.sol\";\r\nimport {factory_interface} from \"./interfaces/factory_interface.sol\";\r\n\r\n\r\ncontract Job is Ownable, ChainlinkClient {\r\n    address private oracle;\r\n    bytes32 private jobId;\r\n    uint256 private fee;\r\n    factory_interface public factory;\r\n\r\n    address factory_address;\r\n\r\n    address public employer;\r\n    string public topLevelCid;\r\n    string public jobType;\r\n    string public jobName;\r\n    string public jobDesc;\r\n    uint256 public batchSize;\r\n    uint256 public numTasks;\r\n    uint256 public numBatches;\r\n    uint256 public lastBatchSize;\r\n    uint256 public totalBountyPool;\r\n    uint256 public currentBountyPool;\r\n    uint256 nonce;\r\n    uint8 public reviewPct;\r\n\r\n    uint256 randomNumber;\r\n\r\n    mapping(bytes32 => uint256) randomNumbers;\r\n    mapping(bytes32 => string) returnedCids;\r\n\r\n\r\n    struct Batch {\r\n        bool isBatch;\r\n        bool answersSubmitted;\r\n        bool answersAccepted;\r\n        bool answersRejected;\r\n        bool proofFailed;\r\n        bool bountyClaimed;\r\n        bytes32 committedRoot;\r\n        bytes32 committedAnswersHash;\r\n        uint256[] reviewIndexes;\r\n        uint256 index;\r\n        string answersCID;\r\n        uint256[] reviewAnswers;\r\n    }\r\n\r\n    mapping(address => Batch) batches;\r\n    address[] batchIndex;\r\n    uint256[] rejectedBatchIndexes;\r\n\r\n    event ReviewsSelected(uint batchIndex, uint256[] reviewIndexes, address worker);\r\n    event ProvedAnswers(address worker, uint256 batchIndex, bool proofAccepted);\r\n    event BountyClaimed(address worker, uint batchIndex);\r\n\r\n\r\n    /**\r\n     * Network: Kovan\r\n     * Oracle: 0x2f90A6D021db21e1B2A077c5a37B3C7E75D15b7e\r\n     * Job ID: 29fa9aa13bf1468788b7cc4a500a45b8\r\n     * Fee: 0.1 LINK\r\n     */\r\n\r\n    constructor(\r\n        address _factory,\r\n        address _employer,\r\n        string memory _topLevelCid,\r\n        string memory _jobType,\r\n        string memory _jobName,\r\n        string memory _jobDesc,\r\n        uint256 _batchSize,\r\n        uint256 _numTasks,\r\n        uint8 _reviewPct\r\n    ) public payable {\r\n        setPublicChainlinkToken();\r\n        oracle = 0x2f90A6D021db21e1B2A077c5a37B3C7E75D15b7e;\r\n        jobId = \"29fa9aa13bf1468788b7cc4a500a45b8\";\r\n        fee = 0.1 * 10**18; // 0.1 LINK\r\n        factory = factory_interface(_factory);\r\n\r\n        factory_address = _factory;\r\n\r\n        employer = _employer;\r\n        topLevelCid = _topLevelCid;\r\n        jobType = _jobType;\r\n        jobName = _jobName;\r\n        jobDesc = _jobDesc;\r\n        batchSize = _batchSize;\r\n        numTasks = _numTasks;\r\n        reviewPct = _reviewPct;\r\n        numBatches = getNumBatches(_numTasks, _batchSize);\r\n        lastBatchSize = SafeMath.mod(\r\n            numTasks,\r\n            SafeMath.mul(batchSize, numBatches)\r\n        );\r\n        totalBountyPool = msg.value;\r\n        currentBountyPool = msg.value;\r\n    }\r\n\r\n    modifier onlyEmployer {\r\n        require(\r\n            msg.sender == employer,\r\n            \"Only the owner of this job can call this function.\"\r\n        );\r\n        _;\r\n    }\r\n\r\n    function getNumBatches(uint256 _numTasks, uint256 _batchSize)\r\n        public\r\n        pure\r\n        returns (uint256)\r\n    {\r\n        if (SafeMath.mod(_numTasks, _batchSize) == 0) {\r\n            return SafeMath.div(_numTasks, _batchSize);\r\n        } else {\r\n            return SafeMath.add(1, SafeMath.div(_numTasks, _batchSize));\r\n        }\r\n    }\r\n\r\n    function isBatch(address _userAddress) public view returns (bool isIndeed) {\r\n        if (batchIndex.length == 0) return false;\r\n        return (batchIndex[batches[_userAddress].index] == _userAddress &&\r\n            batches[_userAddress].isBatch == true);\r\n    }\r\n\r\n    function addBatch(address _userAddress) private returns (uint256 index) {\r\n        require(\r\n            !isBatch(_userAddress),\r\n            \"Your address is already linked to an active batch.\"\r\n        );\r\n        batchIndex.push(_userAddress);\r\n        batches[_userAddress].index = batchIndex.length - 1;\r\n        batches[_userAddress].isBatch = true;\r\n        return batchIndex.length - 1;\r\n    }\r\n\r\n    function getBatch(address _userAddress) public view returns (Batch memory) {\r\n        require(isBatch(_userAddress), \"A batch does not exist for this user.\");\r\n        return (batches[_userAddress]);\r\n    }\r\n\r\n    function viewBatch() public view returns (Batch memory) {\r\n        return getBatch(msg.sender);\r\n    }\r\n\r\n    function reserveBatch() external returns (uint256) {\r\n        require(batchIndex.length < numBatches, \"All the batches for this Job have been claimed.\");\r\n        return addBatch(msg.sender);\r\n    }\r\n\r\n    function getTaskIndexesForBatch(uint256 _batchIdx)\r\n        public\r\n        view\r\n        returns (uint256 minIndex, uint256 maxIndex)\r\n    {\r\n        uint256 minIdx = SafeMath.mul(_batchIdx, batchSize);\r\n        uint256 maxIdx = SafeMath.sub(SafeMath.add(minIdx, batchSize), 1);\r\n        return (minIdx, maxIdx);\r\n    }\r\n\r\n    function getTaskIndexesForAddress(address _address)\r\n        public\r\n        view\r\n        returns (uint256 minIndex, uint256 maxIndex)\r\n    {\r\n        require(isBatch(msg.sender));\r\n        return getTaskIndexesForBatch(batches[_address].index);\r\n    }\r\n\r\n    function verifyProof(\r\n        bytes32[] memory _proof,\r\n        bytes32 _root,\r\n        bytes32 _leaf\r\n    ) private pure returns (bool) {\r\n        return MerkleProof.verify(_proof, _root, _leaf);\r\n    }\r\n\r\n    function commitAnswers(\r\n        uint256 _batchIndex,\r\n        bytes32 _root,\r\n        bytes32 _answersHash\r\n    ) external {\r\n        // Commit to a merkle root for batch of answers\r\n        require(\r\n            isBatch(msg.sender),\r\n            \"This account does not have a batch reserved.\"\r\n        );\r\n        require(\r\n            batchIndex[_batchIndex] == msg.sender,\r\n            \"Batch does not belong to sender\"\r\n        );\r\n        require(\r\n            batches[msg.sender].answersSubmitted == false,\r\n            \"Answers have already been submitted for this batch.\"\r\n        );\r\n\r\n        batches[msg.sender].committedRoot = _root;\r\n        batches[msg.sender].committedAnswersHash = _answersHash;\r\n        batches[msg.sender].answersSubmitted = true;\r\n\r\n\r\n        randomSelectReview(batches[msg.sender].index);\r\n    }\r\n\r\n\r\n    function fulfill_random(bytes32 _requestId, uint256 _randomness, uint256 _batchIndex) external returns(uint256) {\r\n        uint256 _thisBatchSize;\r\n\r\n        if (_batchIndex == SafeMath.sub(numBatches, 1)) {\r\n            _thisBatchSize = lastBatchSize;\r\n        } else {\r\n            _thisBatchSize = batchSize;\r\n        }\r\n\r\n\r\n        uint256 numReviews = SafeMath.div(batchSize, reviewPct);\r\n        uint256[] memory _reviewIndexes = new uint256[](numReviews);\r\n\r\n        for (uint256 i; i < numReviews; i++) {\r\n            _reviewIndexes[i] = SafeMath.add(\r\n                SafeMath.mul(_batchIndex, batchSize),\r\n                SafeMath.mod(\r\n                    uint256(\r\n                        keccak256(abi.encodePacked(_randomness, nonce))\r\n                    ),\r\n                    _thisBatchSize\r\n                )\r\n            );\r\n            nonce++;\r\n        }\r\n\r\n        batches[batchIndex[_batchIndex]].reviewIndexes = _reviewIndexes;\r\n        emit ReviewsSelected(_batchIndex, _reviewIndexes, batchIndex[_batchIndex]);\r\n    }\r\n\r\n    function randomSelectReview(uint256 _batchIndex)\r\n        private\r\n    {\r\n        factory_interface(factory_address).getRandomNumber(54389745, address(this), _batchIndex); // Some random Seed\r\n    }\r\n\r\n\r\n    function proveAnswers(\r\n        uint256 _batchIndex,\r\n        uint256[] calldata _answers,\r\n        bytes32[][] calldata _proofs\r\n    ) external {\r\n        // submit merkle proof of answers\r\n        // submit the future hash of hash of IPFS file\r\n        require(isBatch(batchIndex[_batchIndex]), \"Batch index does not exist\");\r\n        require(\r\n            batchIndex[_batchIndex] == msg.sender,\r\n            \"Batch does not belong to sender\"\r\n        );\r\n\r\n\r\n        bool proofFailed = false;\r\n        for (uint256 i; i < _answers.length; i++){\r\n            bytes32 leaf = keccak256(abi.encodePacked(_answers[i]));\r\n            bool proven = MerkleProof.verify(_proofs[i], batches[batchIndex[_batchIndex]].committedRoot, leaf);\r\n            if (proven == false){\r\n                proofFailed = true;\r\n            }\r\n        }\r\n\r\n        if (proofFailed){\r\n            batches[msg.sender].proofFailed = true;\r\n            emit ProvedAnswers(msg.sender, _batchIndex, false);\r\n        } else {\r\n            // We've proven the submitted answers for review match what the worker committed earlier.\r\n            batches[msg.sender].reviewAnswers = _answers;\r\n            batches[msg.sender].proofFailed = false;\r\n            emit ProvedAnswers(msg.sender, _batchIndex, true);\r\n        }\r\n\r\n    }\r\n\r\n    function acceptAnswers(uint256 _batchIndex) external onlyEmployer {\r\n        require(isBatch(batchIndex[_batchIndex]), \"Batch index does not exist\");\r\n        batches[batchIndex[_batchIndex]].answersAccepted = true;\r\n    }\r\n\r\n    function rejectAnswers(uint256 _batchIndex) external onlyEmployer {\r\n        require(isBatch(batchIndex[_batchIndex]), \"Batch index does not exist\");\r\n        require(\r\n            batches[batchIndex[_batchIndex]].answersSubmitted == true,\r\n            \"Batch has not had answers submitted.\"\r\n        );\r\n        batches[batchIndex[_batchIndex]].answersRejected = true;\r\n        batches[batchIndex[_batchIndex]].isBatch = false;\r\n    }\r\n\r\n    function finalizeSubmission(uint256 _batchIndex, string calldata _cid)\r\n        external\r\n    {\r\n        require(isBatch(msg.sender), \"Batch index does not exist\");\r\n        require(\r\n            batchIndex[_batchIndex] == msg.sender,\r\n            \"Batch does not belong to sender\"\r\n        );\r\n        require(\r\n            batches[batchIndex[_batchIndex]].answersSubmitted == true,\r\n            \"Batch has not had answers submitted.\"\r\n        );\r\n        require(\r\n            batches[batchIndex[_batchIndex]].answersAccepted == true,\r\n            \"Batch has not had answers accepted.\"\r\n        );\r\n        // require(\r\n        //     keccak256(abi.encodePacked(_cid)) ==\r\n        //         batches[batchIndex[_batchIndex]].committedAnswersHash,\r\n        //     \"Batch finalized answer hash does not match committed answers hash.\"\r\n        // );\r\n\r\n        require(batches[msg.sender].bountyClaimed == false, \"Bounty has been already claimed.\");\r\n\r\n        batches[msg.sender].answersCID = _cid;\r\n        batches[msg.sender].bountyClaimed = true;\r\n\r\n        address payable recipient = payable(msg.sender);\r\n        claimBounty(recipient, _batchIndex);\r\n        emit BountyClaimed(msg.sender, _batchIndex);\r\n    }\r\n\r\n    bool locked = false;\r\n    function claimBounty(address payable _recipient, uint256 _batchIndex)\r\n        private\r\n    {\r\n\r\n        require(!locked, \"Reentrant call detected!\");\r\n        locked = true;\r\n\r\n        uint256 _thisBatchSize;\r\n        if (_batchIndex == SafeMath.sub(numBatches, 1)) {\r\n            _thisBatchSize = lastBatchSize;\r\n        } else {\r\n            _thisBatchSize = batchSize;\r\n        }\r\n\r\n        uint256 bounty = SafeMath.mul(getTaskBounty(), _thisBatchSize);\r\n\r\n        require(\r\n            address(this).balance >= bounty,\r\n            \"Contract does not have enough funds.\"\r\n        );\r\n\r\n        (bool success, bytes memory transactionBytes) = _recipient.call{value:bounty}(\"\");\r\n        \r\n        require(success, \"Transfer failed.\");\r\n        locked = false;\r\n    }\r\n\r\n    function getTotalBountyPool() public view returns (uint256 totalPool) {\r\n        return totalBountyPool;\r\n    }\r\n\r\n    function getTaskBounty() public view returns (uint256 taskBounty) {\r\n        return SafeMath.div(totalBountyPool, numTasks);\r\n    }\r\n\r\n    fallback() payable external {}\r\n\r\n}",
  "sourcePath": "E:\\cryptodev\\sozu\\contracts\\Job.sol",
  "compiler": {
    "name": "solc",
    "version": "0.6.6+commit.6c089d02.Emscripten.clang"
  },
  "schemaVersion": "3.3.4",
  "updatedAt": "2021-04-11T11:58:07.297Z",
  "networkType": "ethereum",
  "devdoc": {
    "methods": {
      "owner()": {
        "details": "Returns the address of the current owner."
      },
      "renounceOwnership()": {
        "details": "Leaves the contract without owner. It will not be possible to call `onlyOwner` functions anymore. Can only be called by the current owner.     * NOTE: Renouncing ownership will leave the contract without an owner, thereby removing any functionality that is only available to the owner."
      },
      "transferOwnership(address)": {
        "details": "Transfers ownership of the contract to a new account (`newOwner`). Can only be called by the current owner."
      }
    }
  },
  "userdoc": {
    "methods": {
      "constructor": "Network: Kovan Oracle: 0x2f90A6D021db21e1B2A077c5a37B3C7E75D15b7e Job ID: 29fa9aa13bf1468788b7cc4a500a45b8 Fee: 0.1 LINK"
    }
  }
}