{
  "contractName": "JobFactory",
  "abi": [
    {
      "inputs": [],
      "stateMutability": "nonpayable",
      "type": "constructor"
    },
    {
      "inputs": [
        {
          "internalType": "uint256",
          "name": "",
          "type": "uint256"
        }
      ],
      "name": "jobsData",
      "outputs": [
        {
          "internalType": "address",
          "name": "job",
          "type": "address"
        },
        {
          "internalType": "address",
          "name": "employer",
          "type": "address"
        },
        {
          "internalType": "string",
          "name": "topLevelCid",
          "type": "string"
        },
        {
          "internalType": "string",
          "name": "jobType",
          "type": "string"
        },
        {
          "internalType": "string",
          "name": "jobName",
          "type": "string"
        },
        {
          "internalType": "string",
          "name": "jobDesc",
          "type": "string"
        },
        {
          "internalType": "uint256",
          "name": "maxBatchSize",
          "type": "uint256"
        },
        {
          "internalType": "uint256",
          "name": "numTasks",
          "type": "uint256"
        },
        {
          "internalType": "uint8",
          "name": "reviewPct",
          "type": "uint8"
        }
      ],
      "stateMutability": "view",
      "type": "function",
      "constant": true
    },
    {
      "inputs": [
        {
          "internalType": "bytes32",
          "name": "requestId",
          "type": "bytes32"
        },
        {
          "internalType": "uint256",
          "name": "randomness",
          "type": "uint256"
        }
      ],
      "name": "rawFulfillRandomness",
      "outputs": [],
      "stateMutability": "nonpayable",
      "type": "function"
    },
    {
      "inputs": [
        {
          "internalType": "string",
          "name": "_topLevelCid",
          "type": "string"
        },
        {
          "internalType": "string",
          "name": "_jobType",
          "type": "string"
        },
        {
          "internalType": "string",
          "name": "_jobName",
          "type": "string"
        },
        {
          "internalType": "string",
          "name": "_jobDesc",
          "type": "string"
        },
        {
          "internalType": "uint256",
          "name": "_maxBatchSize",
          "type": "uint256"
        },
        {
          "internalType": "uint256",
          "name": "_numTasks",
          "type": "uint256"
        },
        {
          "internalType": "uint8",
          "name": "_reviewPct",
          "type": "uint8"
        }
      ],
      "name": "createAndEndow",
      "outputs": [
        {
          "internalType": "contract Job",
          "name": "",
          "type": "address"
        }
      ],
      "stateMutability": "payable",
      "type": "function",
      "payable": true
    },
    {
      "inputs": [],
      "name": "viewJobsData",
      "outputs": [
        {
          "components": [
            {
              "internalType": "address",
              "name": "job",
              "type": "address"
            },
            {
              "internalType": "address",
              "name": "employer",
              "type": "address"
            },
            {
              "internalType": "string",
              "name": "topLevelCid",
              "type": "string"
            },
            {
              "internalType": "string",
              "name": "jobType",
              "type": "string"
            },
            {
              "internalType": "string",
              "name": "jobName",
              "type": "string"
            },
            {
              "internalType": "string",
              "name": "jobDesc",
              "type": "string"
            },
            {
              "internalType": "uint256",
              "name": "maxBatchSize",
              "type": "uint256"
            },
            {
              "internalType": "uint256",
              "name": "numTasks",
              "type": "uint256"
            },
            {
              "internalType": "uint8",
              "name": "reviewPct",
              "type": "uint8"
            }
          ],
          "internalType": "struct JobFactory.JobData[]",
          "name": "",
          "type": "tuple[]"
        }
      ],
      "stateMutability": "view",
      "type": "function",
      "constant": true
    },
    {
      "inputs": [
        {
          "internalType": "uint256",
          "name": "userProvidedSeed",
          "type": "uint256"
        },
        {
          "internalType": "address",
          "name": "_job",
          "type": "address"
        },
        {
          "internalType": "uint256",
          "name": "_batchIndex",
          "type": "uint256"
        }
      ],
      "name": "getRandomNumber",
      "outputs": [
        {
          "internalType": "bytes32",
          "name": "requestId",
          "type": "bytes32"
        }
      ],
      "stateMutability": "nonpayable",
      "type": "function"
    }
  ],
  "bytecode": "0x60c060405234801561001057600080fd5b507fdd3782915140c8f3b190b5d67eac6dc5760c46e900000000000000000000000060a0527fa36085f69e2889c224210f603d836748e7dc00880000000000000000000000006080527f6c3699283bda56ad74f6b855546325b68d482e983852a7a82979cc4807b641f460015567016345785d8a000060025573a36085f69e2889c224210f603d836748e7dc008873dd3782915140c8f3b190b5d67eac6dc5760c46e96142b76100da60003980610b395280610bbc5250806109fc5280610b8d52506142b76000f3fe608060405260043610620000505760003560e01c806332cf9c201462000055578063552b63d0146200008557806359c3257114620000ab5780636f263cac14620000e757806394985ddd146200011b575b600080fd5b3480156200006257600080fd5b506200006d62000142565b6040516200007c9190620012bb565b60405180910390f35b6200009c6200009636600462001027565b6200044b565b6040516200007c9190620011e9565b348015620000b857600080fd5b50620000d0620000ca36600462001103565b62000752565b6040516200007c99989796959493929190620011fd565b348015620000f457600080fd5b506200010c6200010636600462001135565b620009f5565b6040516200007c9190620013d8565b3480156200012857600080fd5b50620001406200013a36600462001005565b62000b2e565b005b60606003805480602002602001604051908101604052809291908181526020016000905b828210156200044157600084815260209081902060408051610120810182526009860290920180546001600160a01b039081168452600180830154909116848601526002808301805485516101009482161594909402600019011691909104601f8101879004870283018701855280835294959294938601939192909190830182828015620002395780601f106200020d5761010080835404028352916020019162000239565b820191906000526020600020905b8154815290600101906020018083116200021b57829003601f168201915b505050918352505060038201805460408051602060026001851615610100026000190190941693909304601f8101849004840282018401909252818152938201939291830182828015620002d15780601f10620002a557610100808354040283529160200191620002d1565b820191906000526020600020905b815481529060010190602001808311620002b357829003601f168201915b505050918352505060048201805460408051602060026001851615610100026000190190941693909304601f8101849004840282018401909252818152938201939291830182828015620003695780601f106200033d5761010080835404028352916020019162000369565b820191906000526020600020905b8154815290600101906020018083116200034b57829003601f168201915b505050918352505060058201805460408051602060026001851615610100026000190190941693909304601f8101849004840282018401909252818152938201939291830182828015620004015780601f10620003d55761010080835404028352916020019162000401565b820191906000526020600020905b815481529060010190602001808311620003e357829003601f168201915b505050918352505060068201546020808301919091526007830154604083015260089092015460ff16606090910152908252600192909201910162000166565b5050505090505b90565b600060648260ff161115801562000465575060008260ff16115b6200048d5760405162461bcd60e51b8152600401620004849062001497565b60405180910390fd5b82841115620004b05760405162461bcd60e51b8152600401620004849062001547565b6000885111620004bf57600080fd5b6000875111620004ce57600080fd5b6000865111620004dd57600080fd5b6000855111620004ec57600080fd5b600084118015620004fd5750828411155b6200051c5760405162461bcd60e51b815260040162000484906200141b565b6000831180156200052d5750838310155b6200054c5760405162461bcd60e51b81526004016200048490620014ce565b60003430338b8b8b8b8b8b8b604051620005669062000e27565b6200057a99989796959493929190620011fd565b6040518091039082f090508015801562000598573d6000803e3d6000fd5b509050620005a562000e35565b5060408051610120810182526001600160a01b0380841682523360208084019182529383018d8152606084018d9052608084018c905260a084018b905260c084018a905260e0840189905260ff881661010085015260038054600181018255600091909152845160099091027fc2575a0e9e593c00f959f8c92f12db2869c3395a3b0502d05e2516446f71f85b810180549286166001600160a01b031993841617815593517fc2575a0e9e593c00f959f8c92f12db2869c3395a3b0502d05e2516446f71f85c8201805491909616921691909117909355518051939485949293620006b9937fc2575a0e9e593c00f959f8c92f12db2869c3395a3b0502d05e2516446f71f85d909101929091019062000e96565b5060608201518051620006d791600384019160209091019062000e96565b5060808201518051620006f591600484019160209091019062000e96565b5060a082015180516200071391600584019160209091019062000e96565b5060c0820151600682015560e08201516007820155610100909101516008909101805460ff191660ff9092169190911790555098975050505050505050565b600381815481106200076057fe5b600091825260209182902060099091020180546001808301546002808501805460408051601f600019978416156101000297909701909216939093049485018890048802810188019092528382526001600160a01b0394851697509190931694909190830182828015620008185780601f10620007ec5761010080835404028352916020019162000818565b820191906000526020600020905b815481529060010190602001808311620007fa57829003601f168201915b5050505060038301805460408051602060026001851615610100026000190190941693909304601f8101849004840282018401909252818152949594935090830182828015620008ac5780601f106200088057610100808354040283529160200191620008ac565b820191906000526020600020905b8154815290600101906020018083116200088e57829003601f168201915b5050505060048301805460408051602060026001851615610100026000190190941693909304601f8101849004840282018401909252818152949594935090830182828015620009405780601f10620009145761010080835404028352916020019162000940565b820191906000526020600020905b8154815290600101906020018083116200092257829003601f168201915b5050505060058301805460408051602060026001851615610100026000190190941693909304601f8101849004840282018401909252818152949594935090830182828015620009d45780601f10620009a857610100808354040283529160200191620009d4565b820191906000526020600020905b815481529060010190602001808311620009b657829003601f168201915b50505050600683015460078401546008909401549293909290915060ff1689565b60006002547f00000000000000000000000000000000000000000000000000000000000000006001600160a01b03166370a08231306040518263ffffffff1660e01b815260040162000a489190620011e9565b60206040518083038186803b15801562000a6157600080fd5b505afa15801562000a76573d6000803e3d6000fd5b505050506040513d601f19601f8201168201806040525081019062000a9c91906200111c565b101562000abd5760405162461bcd60e51b815260040162000484906200151e565b600062000ad06001546002548762000b89565b905062000adc62000f1b565b506040805180820182526001600160a01b0380871682526020808301878152600086815260049092529390209151825491166001600160a01b0319909116178155905160019091015590509392505050565b336001600160a01b037f0000000000000000000000000000000000000000000000000000000000000000161462000b795760405162461bcd60e51b8152600401620004849062001594565b62000b85828262000ce2565b5050565b60007f00000000000000000000000000000000000000000000000000000000000000006001600160a01b0316634000aea07f000000000000000000000000000000000000000000000000000000000000000085878660405160200162000bf1929190620011db565b6040516020818303038152906040526040518463ffffffff1660e01b815260040162000c209392919062001292565b602060405180830381600087803b15801562000c3b57600080fd5b505af115801562000c50573d6000803e3d6000fd5b505050506040513d601f19601f8201168201806040525081019062000c76919062000fe3565b50600062000c998584306000808a81526020019081526020016000205462000d85565b60008681526020819052604090205490915062000cbe90600163ffffffff62000dc116565b60008681526020819052604090205562000cd9858262000df2565b95945050505050565b73dd3782915140c8f3b190b5d67eac6dc5760c46e9331462000d0357600080fd5b6000828152600460208190526040918290208054600190910154925163240fe1f760e01b81526001600160a01b039091169263240fe1f79262000d4d928792879290910162001405565b600060405180830381600087803b15801562000d6857600080fd5b505af115801562000d7d573d6000803e3d6000fd5b505050505050565b60008484848460405160200162000da09493929190620013e1565b60408051601f19818403018152919052805160209091012095945050505050565b60008282018381101562000de95760405162461bcd60e51b8152600401620004849062001460565b90505b92915050565b6000828260405160200162000e09929190620011db565b60405160208183030381529060405280519060200120905092915050565b612cb680620015cc83390190565b60405180610120016040528060006001600160a01b0316815260200160006001600160a01b03168152602001606081526020016060815260200160608152602001606081526020016000815260200160008152602001600060ff1681525090565b828054600181600116156101000203166002900490600052602060002090601f016020900481019282601f1062000ed957805160ff191683800117855562000f09565b8280016001018555821562000f09579182015b8281111562000f0957825182559160200191906001019062000eec565b5062000f1792915062000f32565b5090565b604080518082019091526000808252602082015290565b6200044891905b8082111562000f17576000815560010162000f39565b600082601f83011262000f60578081fd5b813567ffffffffffffffff8082111562000f78578283fd5b604051601f8301601f19168101602001828111828210171562000f99578485fd5b60405282815292508284830160200186101562000fb557600080fd5b8260208601602083013760006020848301015250505092915050565b803560ff8116811462000dec57600080fd5b60006020828403121562000ff5578081fd5b8151801515811462000de9578182fd5b6000806040838503121562001018578081fd5b50508035926020909101359150565b600080600080600080600060e0888a03121562001042578283fd5b873567ffffffffffffffff808211156200105a578485fd5b620010688b838c0162000f4f565b985060208a01359150808211156200107e578485fd5b6200108c8b838c0162000f4f565b975060408a0135915080821115620010a2578485fd5b620010b08b838c0162000f4f565b965060608a0135915080821115620010c6578485fd5b50620010d58a828b0162000f4f565b9450506080880135925060a08801359150620010f58960c08a0162000fd1565b905092959891949750929550565b60006020828403121562001115578081fd5b5035919050565b6000602082840312156200112e578081fd5b5051919050565b6000806000606084860312156200114a578283fd5b8335925060208401356001600160a01b038116811462001168578283fd5b929592945050506040919091013590565b6001600160a01b03169052565b60008151808452815b81811015620011ad576020818501810151868301820152016200118f565b81811115620011bf5782602083870101525b50601f01601f19169290920160200192915050565b60ff169052565b918252602082015260400190565b6001600160a01b0391909116815260200190565b6001600160a01b038a8116825289166020820152610120604082018190526000906200122c8382018b62001186565b838103606085015262001240818b62001186565b915050828103608084015262001257818962001186565b83810360a08501526200126b818962001186565b60c085019790975250505060e081019290925260ff16610100909101529695505050505050565b600060018060a01b03851682528360208301526060604083015262000cd9606083018462001186565b60208082528251828201819052600091906040908185019080840286018301878501865b83811015620013ca57603f1989840301855281516101206200130385835162001179565b88820151620013158a87018262001179565b508782015181898701526200132d8287018262001186565b60609250828401519150868103838801526200134a818362001186565b925050506080808301518683038288015262001367838262001186565b91505060a09150818301518682038388015262001385828262001186565b9250505060c080830151818701525060e080830151818701525061010080830151620013b482880182620011d4565b50509588019593505090860190600101620012df565b509098975050505050505050565b90815260200190565b93845260208401929092526001600160a01b03166040830152606082015260800190565b9283526020830191909152604082015260600190565b60208082526025908201527f4d61782062617463682073697a65206d7573742062652030203c3d206e756d5460408201526430b9b5b99760d91b606082015260800190565b6020808252601b908201527f536166654d6174683a206164646974696f6e206f766572666c6f770000000000604082015260600190565b6020808252601a908201527f52657669657720706374206d7573742062652030203e20313030000000000000604082015260600190565b60208082526030908201527f546f74616c206e756d626572206f66207461736b73206d75737420626520302060408201526f1e1e9036b0bc2130ba31b429b4bd329760811b606082015260800190565b6020808252600f908201526e4e6f7420656e6f756768204c494e4b60881b604082015260600190565b6020808252602d908201527f42617463682073697a652063616e6e6f7420626520677265617465722074686160408201526c3710121037b3103a30b9b5b99760991b606082015260800190565b6020808252601f908201527f4f6e6c7920565246436f6f7264696e61746f722063616e2066756c66696c6c0060408201526060019056fe608060408190526001600555601f805460ff1916905562002cb638819003908190833981016040819052620000349162000620565b6000620000496001600160e01b036200020016565b600080546001600160a01b0319166001600160a01b0383169081178255604051929350917f8be0079c531659141344cd1fd0a4f28419497f9722a3daafe3b4186f6b6457e0908290a350620000a66001600160e01b036200020516565b60078054732f90a6d021db21e1b2a077c5a37b3c7e75d15b7e6001600160a01b0319918216179091557f323966613961613133626631343638373838623763633461353030613435623860085567016345785d8a0000600955600a805482166001600160a01b038c8116918217909255600b805484169091179055600c8054909216908a1617905586516200014390600d9060208a0190620004b5565b5085516200015990600e906020890190620004b5565b5084516200016f90600f906020880190620004b5565b50835162000185906010906020870190620004b5565b50601183905560128290556018805460ff191660ff8316179055620001ab8284620002a3565b601381905550620001e4601254620001d36011546013546200031460201b620016031760201c565b6200036460201b620015111760201c565b6014555050346015819055601655506200080495505050505050565b335b90565b620002a173c89bd4e1632d3a43cb03aaad5262cbe4038bc5716001600160a01b03166338cc48316040518163ffffffff1660e01b815260040160206040518083038186803b1580156200025757600080fd5b505afa1580156200026c573d6000803e3d6000fd5b505050506040513d601f19601f8201168201806040525081019062000292919062000602565b6001600160e01b03620003ae16565b565b6000620002bc83836200036460201b620015111760201c565b620002e057620002d88383620003d060201b6200155a1760201c565b90506200030e565b620002d86001620002fd8585620003d060201b6200155a1760201c565b6200041a60201b6200159c1760201c565b92915050565b60008262000325575060006200030e565b828202828482816200033357fe5b04146200035d5760405162461bcd60e51b8152600401620003549062000790565b60405180910390fd5b9392505050565b60006200035d83836040518060400160405280601881526020017f536166654d6174683a206d6f64756c6f206279207a65726f00000000000000008152506200044260201b60201c565b600380546001600160a01b0319166001600160a01b0392909216919091179055565b60006200035d83836040518060400160405280601a81526020017f536166654d6174683a206469766973696f6e206279207a65726f0000000000008152506200047a60201b60201c565b6000828201838110156200035d5760405162461bcd60e51b8152600401620003549062000759565b60008183620004665760405162461bcd60e51b815260040162000354919062000724565b508284816200047157fe5b06949350505050565b600081836200049e5760405162461bcd60e51b815260040162000354919062000724565b506000838581620004ab57fe5b0495945050505050565b828054600181600116156101000203166002900490600052602060002090601f016020900481019282601f10620004f857805160ff191683800117855562000528565b8280016001018555821562000528579182015b82811115620005285782518255916020019190600101906200050b565b50620005369291506200053a565b5090565b6200020291905b8082111562000536576000815560010162000541565b80516001600160a01b03811681146200030e57600080fd5b600082601f83011262000580578081fd5b81516001600160401b038082111562000597578283fd5b604051601f8301601f191681016020018281118282101715620005b8578485fd5b604052828152925082848301602001861015620005d457600080fd5b620005e7836020830160208801620007d1565b50505092915050565b805160ff811681146200030e57600080fd5b60006020828403121562000614578081fd5b6200035d838362000557565b60008060008060008060008060006101208a8c0312156200063f578485fd5b6200064b8b8b62000557565b98506200065c8b60208c0162000557565b60408b01519098506001600160401b038082111562000679578687fd5b620006878d838e016200056f565b985060608c01519150808211156200069d578687fd5b620006ab8d838e016200056f565b975060808c0151915080821115620006c1578687fd5b620006cf8d838e016200056f565b965060a08c0151915080821115620006e5578586fd5b50620006f48c828d016200056f565b94505060c08a0151925060e08a01519150620007158b6101008c01620005f0565b90509295985092959850929598565b600060208252825180602084015262000745816040850160208701620007d1565b601f01601f19169190910160400192915050565b6020808252601b908201527f536166654d6174683a206164646974696f6e206f766572666c6f770000000000604082015260600190565b60208082526021908201527f536166654d6174683a206d756c7469706c69636174696f6e206f766572666c6f6040820152607760f81b606082015260800190565b60005b83811015620007ee578181015183820152602001620007d4565b83811115620007fe576000848401525b50505050565b6124a280620008146000396000f3fe6080604052600436106101d85760003560e01c80639bd1471711610102578063bda09cd411610095578063ea4a6c5511610064578063ea4a6c55146104e4578063f2fde38b14610504578063f4daaba114610524578063f61e45b714610539576101d8565b8063bda09cd414610490578063c45a0155146104a5578063c86026ce146104ba578063d2bf5dc6146104cf576101d8565b8063ae96cf8a116100d1578063ae96cf8a14610419578063b6d8027114610446578063b8d80f9a1461045b578063ba26454214610470576101d8565b80639bd14717146103a15780639ec4d0c7146103c1578063a2885fba146103ef578063ae200e7914610404576101d8565b80633935d9b21161017a5780638080be77116101495780638080be77146103335780638a527ade146103555780638bceb34d1461036a5780638da5cb5b1461037f576101d8565b80633935d9b2146102c757806342576492146102e95780634f446347146102fe578063715018a61461031e576101d8565b806308a6a072116101b657806308a6a0721461023a5780630e8779871461025a578063240fe1f71461027a57806336242fec1461029a576101d8565b8063028ba983146101da578063042fb274146101fa5780630560610a14610225575b005b3480156101e657600080fd5b506101d86101f5366004611baf565b61054e565b34801561020657600080fd5b5061020f610619565b60405161021c9190611d81565b60405180910390f35b34801561023157600080fd5b5061020f61061f565b34801561024657600080fd5b5061020f610255366004611cc7565b610625565b34801561026657600080fd5b506101d8610275366004611baf565b610660565b34801561028657600080fd5b5061020f610295366004611b84565b6107b2565b3480156102a657600080fd5b506102ba6102b5366004611b5d565b610965565b60405161021c91906122b0565b3480156102d357600080fd5b506102dc610b7b565b60405161021c9190612413565b3480156102f557600080fd5b506102ba610b84565b34801561030a57600080fd5b506101d8610319366004611c3e565b610b9b565b34801561032a57600080fd5b506101d8610c7a565b34801561033f57600080fd5b50610348610cf9565b60405161021c9190611e04565b34801561036157600080fd5b5061020f610d87565b34801561037657600080fd5b5061020f610d8d565b34801561038b57600080fd5b50610394610d93565b60405161021c9190611d8a565b3480156103ad57600080fd5b506101d86103bc366004611c52565b610da2565b3480156103cd57600080fd5b506103e16103dc366004611b5d565b610f95565b60405161021c929190611d73565b3480156103fb57600080fd5b5061020f610fd8565b34801561041057600080fd5b50610394610fde565b34801561042557600080fd5b50610439610434366004611b5d565b610fed565b60405161021c9190611dda565b34801561045257600080fd5b5061034861106b565b34801561046757600080fd5b506103486110c6565b34801561047c57600080fd5b506103e161048b366004611baf565b611121565b34801561049c57600080fd5b5061020f611158565b3480156104b157600080fd5b5061039461115e565b3480156104c657600080fd5b5061020f61116d565b3480156104db57600080fd5b5061034861119c565b3480156104f057600080fd5b506101d86104ff366004611bc7565b6111f7565b34801561051057600080fd5b506101d861051f366004611b5d565b611445565b34801561053057600080fd5b5061020f6114fb565b34801561054557600080fd5b5061020f611501565b600c546001600160a01b031633146105815760405162461bcd60e51b815260040161057890611f28565b60405180910390fd5b6105ab601d828154811061059157fe5b6000918252602090912001546001600160a01b0316610fed565b6105c75760405162461bcd60e51b81526004016105789061217f565b6001601c6000601d84815481106105da57fe5b60009182526020808320909101546001600160a01b0316835282019290925260400190208054911515620100000262ff00001990921691909117905550565b60145481565b60165481565b60006106318383611511565b6106465761063f838361155a565b905061065a565b61063f6001610655858561155a565b61159c565b92915050565b600c546001600160a01b0316331461068a5760405162461bcd60e51b815260040161057890611f28565b61069a601d828154811061059157fe5b6106b65760405162461bcd60e51b81526004016105789061217f565b601c6000601d83815481106106c757fe5b60009182526020808320909101546001600160a01b0316835282019290925260400190205460ff6101009091041615156001146107165760405162461bcd60e51b815260040161057890612104565b6001601c6000601d848154811061072957fe5b60009182526020808320909101546001600160a01b031683528201929092526040018120805492151563010000000263ff0000001990931692909217909155601d8054601c9183918590811061077b57fe5b6000918252602080832091909101546001600160a01b031683528201929092526040019020805460ff191691151591909117905550565b6000806107c260135460016115c1565b8314156107d257506014546107d7565b506011545b6011546018546000916107ec9160ff1661155a565b905060608167ffffffffffffffff8111801561080757600080fd5b50604051908082528060200260200182016040528015610831578160200160208202803683370190505b50905060005b828110156108ae5761088561084e87601154611603565b61065589601754604051602001610866929190611d73565b6040516020818303038152906040528051906020012060001c87611511565b82828151811061089157fe5b602090810291909101015260178054600190810190915501610837565b5080601c6000601d88815481106108c157fe5b60009182526020808320909101546001600160a01b03168352828101939093526040909101902082516108fe9360039092019291909101906119a1565b507fcd1cbec69ff39ea226a3160ab17fb288478cdfadf046fb3ab5e1768c893072428582601d888154811061092f57fe5b6000918252602090912001546040516109539392916001600160a01b0316906123b1565b60405180910390a15050509392505050565b61096d6119ec565b61097682610fed565b6109925760405162461bcd60e51b815260040161057890612049565b6001600160a01b0382166000908152601c6020908152604091829020825161018081018452815460ff80821615158352610100808304821615158487015262010000830482161515848801526301000000830482161515606085015264010000000083048216151560808501526501000000000090920416151560a0830152600183015460c0830152600283015460e08301526003830180548651818702810187019097528087529295939491860193929091830182828015610a7457602002820191906000526020600020905b815481526020019060010190808311610a60575b5050509183525050600482015460208083019190915260058301805460408051601f60026000196101006001871615020190941693909304928301859004850281018501825282815294019392830182828015610b125780601f10610ae757610100808354040283529160200191610b12565b820191906000526020600020905b815481529060010190602001808311610af557829003601f168201915b5050505050815260200160068201805480602002602001604051908101604052809291908181526020018280548015610b6a57602002820191906000526020600020905b815481526020019060010190808311610b56575b50505050508152505090505b919050565b60185460ff1681565b610b8c6119ec565b610b9533610965565b90505b90565b610ba433610fed565b610bc05760405162461bcd60e51b8152600401610578906121e0565b336001600160a01b0316601d8481548110610bd757fe5b6000918252602090912001546001600160a01b031614610c095760405162461bcd60e51b815260040161057890612148565b336000908152601c6020526040902054610100900460ff1615610c3e5760405162461bcd60e51b815260040161057890611e9e565b336000908152601c602052604090206001810183905560028101829055805461ff00191661010017815560040154610c759061163d565b505050565b610c826116aa565b6000546001600160a01b03908116911614610caf5760405162461bcd60e51b8152600401610578906120cf565b600080546040516001600160a01b03909116907f8be0079c531659141344cd1fd0a4f28419497f9722a3daafe3b4186f6b6457e0908390a3600080546001600160a01b0319169055565b600e805460408051602060026001851615610100026000190190941693909304601f81018490048402820184019092528181529291830182828015610d7f5780601f10610d5457610100808354040283529160200191610d7f565b820191906000526020600020905b815481529060010190602001808311610d6257829003601f168201915b505050505081565b60135481565b60155490565b6000546001600160a01b031690565b610dab33610fed565b610dc75760405162461bcd60e51b81526004016105789061217f565b336001600160a01b0316601d8481548110610dde57fe5b6000918252602090912001546001600160a01b031614610e105760405162461bcd60e51b815260040161057890612148565b601c6000601d8581548110610e2157fe5b60009182526020808320909101546001600160a01b0316835282019290925260400190205460ff610100909104161515600114610e705760405162461bcd60e51b815260040161057890612104565b601c6000601d8581548110610e8157fe5b60009182526020808320909101546001600160a01b0316835282019290925260400190205460ff62010000909104161515600114610ed15760405162461bcd60e51b815260040161057890611e5b565b336000908152601c602052604090205465010000000000900460ff1615610f0a5760405162461bcd60e51b81526004016105789061222c565b336000908152601c60205260409020610f27906005018383611a52565b50336000818152601c60205260409020805465ff0000000000191665010000000000179055610f5681856116ae565b7fac56e31790f51d5ee1fd63f4e99bd0bb5363ff7e23dd9005bdfb0bb52da5a4a63385604051610f87929190611d9e565b60405180910390a150505050565b600080610fa133610fed565b610faa57600080fd5b6001600160a01b0383166000908152601c6020526040902060040154610fcf90611121565b91509150915091565b60155481565b600c546001600160a01b031681565b601d54600090610fff57506000610b76565b6001600160a01b0382166000818152601c6020526040902060040154601d8054909190811061102a57fe5b6000918252602090912001546001600160a01b031614801561065a5750506001600160a01b03166000908152601c602052604090205460ff16151560011490565b600d805460408051602060026001851615610100026000190190941693909304601f81018490048402820184019092528181529291830182828015610d7f5780601f10610d5457610100808354040283529160200191610d7f565b600f805460408051602060026001851615610100026000190190941693909304601f81018490048402820184019092528181529291830182828015610d7f5780601f10610d5457610100808354040283529160200191610d7f565b600080600061113284601154611603565b9050600061114c6111458360115461159c565b60016115c1565b91935090915050915091565b60125481565b600a546001600160a01b031681565b601354601d54600091116111935760405162461bcd60e51b815260040161057890612261565b610b95336117cc565b6010805460408051602060026001851615610100026000190190941693909304601f81018490048402820184019092528181529291830182828015610d7f5780601f10610d5457610100808354040283529160200191610d7f565b611207601d868154811061059157fe5b6112235760405162461bcd60e51b81526004016105789061217f565b336001600160a01b0316601d868154811061123a57fe5b6000918252602090912001546001600160a01b03161461126c5760405162461bcd60e51b815260040161057890612148565b6000805b8481101561136057600086868381811061128657fe5b9050602002013560405160200161129d9190611d81565b604051602081830303815290604052805190602001209050600061134a8686858181106112c657fe5b90506020028101906112d89190612421565b808060200260200160405190810160405280939291908181526020018383602002808284376000920182905250601d8054601c955091935091508e90811061131c57fe5b60009182526020808320909101546001600160a01b031683528201929092526040019020600101548461186d565b90508061135657600193505b5050600101611270565b5080156113c857336000818152601c6020526040808220805464ff000000001916640100000000179055517f518e5b95cca6836f5fc8341f505e8292646f2d4d6234f0eac51a7a4bb9994d6c926113bb9290918a9190611db7565b60405180910390a161143d565b336000908152601c602052604090206113e5906006018686611ac0565b50336000818152601c602052604090819020805464ff0000000019169055517f518e5b95cca6836f5fc8341f505e8292646f2d4d6234f0eac51a7a4bb9994d6c91611434918990600190611db7565b60405180910390a15b505050505050565b61144d6116aa565b6000546001600160a01b0390811691161461147a5760405162461bcd60e51b8152600401610578906120cf565b6001600160a01b0381166114a05760405162461bcd60e51b815260040161057890611fcc565b600080546040516001600160a01b03808516939216917f8be0079c531659141344cd1fd0a4f28419497f9722a3daafe3b4186f6b6457e091a3600080546001600160a01b0319166001600160a01b0392909216919091179055565b60115481565b6000610b9560155460125461155a565b600061155383836040518060400160405280601881526020017f536166654d6174683a206d6f64756c6f206279207a65726f000000000000000081525061190a565b9392505050565b600061155383836040518060400160405280601a81526020017f536166654d6174683a206469766973696f6e206279207a65726f00000000000081525061193e565b6000828201838110156115535760405162461bcd60e51b815260040161057890612012565b600061155383836040518060400160405280601e81526020017f536166654d6174683a207375627472616374696f6e206f766572666c6f770000815250611975565b6000826116125750600061065a565b8282028284828161161f57fe5b04146115535760405162461bcd60e51b81526004016105789061208e565b600b54604051631bc98f2b60e21b81526001600160a01b0390911690636f263cac906116759063033debf19030908690600401611de5565b600060405180830381600087803b15801561168f57600080fd5b505af11580156116a3573d6000803e3d6000fd5b5050505050565b3390565b601f5460ff16156116d15760405162461bcd60e51b815260040161057890611ef1565b601f805460ff191660019081179091556013546000916116f191906115c1565b8214156117015750601454611706565b506011545b6000611719611713611501565b83611603565b90508047101561173b5760405162461bcd60e51b815260040161057890611e17565b60006060856001600160a01b03168360405161175690610b98565b60006040518083038185875af1925050503d8060008114611793576040519150601f19603f3d011682016040523d82523d6000602084013e611798565b606091505b5091509150816117ba5760405162461bcd60e51b8152600401610578906121b6565b5050601f805460ff1916905550505050565b60006117d782610fed565b156117f45760405162461bcd60e51b815260040161057890611f7a565b50601d8054600180820183557f6d4407e7be21f808e6509aa9fa9143369579dd7d760fe20a2c09680fc146134f90910180546001600160a01b0319166001600160a01b0394909416938417905581546000938452601c60205260409093206000199384016004820155805460ff19169091179055540190565b600081815b85518110156118ff57600086828151811061188957fe5b602002602001015190508083116118ca5782816040516020016118ad929190611d73565b6040516020818303038152906040528051906020012092506118f6565b80836040516020016118dd929190611d73565b6040516020818303038152906040528051906020012092505b50600101611872565b509092149392505050565b6000818361192b5760405162461bcd60e51b81526004016105789190611e04565b5082848161193557fe5b06949350505050565b6000818361195f5760405162461bcd60e51b81526004016105789190611e04565b50600083858161196b57fe5b0495945050505050565b600081848411156119995760405162461bcd60e51b81526004016105789190611e04565b505050900390565b8280548282559060005260206000209081019282156119dc579160200282015b828111156119dc5782518255916020019190600101906119c1565b506119e8929150611afa565b5090565b604080516101808101825260008082526020820181905291810182905260608082018390526080820183905260a0820183905260c0820183905260e082018390526101008201819052610120820192909252610140810182905261016081019190915290565b828054600181600116156101000203166002900490600052602060002090601f016020900481019282601f10611a935782800160ff198235161785556119dc565b828001600101855582156119dc579182015b828111156119dc578235825591602001919060010190611aa5565b8280548282559060005260206000209081019282156119dc57916020028201828111156119dc578235825591602001919060010190611aa5565b610b9891905b808211156119e85760008155600101611b00565b60008083601f840112611b25578182fd5b50813567ffffffffffffffff811115611b3c578182fd5b6020830191508360208083028501011115611b5657600080fd5b9250929050565b600060208284031215611b6e578081fd5b81356001600160a01b0381168114611553578182fd5b600080600060608486031215611b98578182fd5b505081359360208301359350604090920135919050565b600060208284031215611bc0578081fd5b5035919050565b600080600080600060608688031215611bde578081fd5b85359450602086013567ffffffffffffffff80821115611bfc578283fd5b611c0889838a01611b14565b90965094506040880135915080821115611c20578283fd5b50611c2d88828901611b14565b969995985093965092949392505050565b600080600060608486031215611b98578283fd5b600080600060408486031215611c66578283fd5b83359250602084013567ffffffffffffffff80821115611c84578384fd5b81860187601f820112611c95578485fd5b8035925081831115611ca5578485fd5b876020848301011115611cb6578485fd5b949760209095019650909450505050565b60008060408385031215611cd9578182fd5b50508035926020909101359150565b6000815180845260208085019450808401835b83811015611d1757815187529582019590820190600101611cfb565b509495945050505050565b15159052565b60008151808452815b81811015611d4d57602081850181015186830182015201611d31565b81811115611d5e5782602083870101525b50601f01601f19169290920160200192915050565b918252602082015260400190565b90815260200190565b6001600160a01b0391909116815260200190565b6001600160a01b03929092168252602082015260400190565b6001600160a01b0393909316835260208301919091521515604082015260600190565b901515815260200190565b9283526001600160a01b03919091166020830152604082015260600190565b6000602082526115536020830184611d28565b60208082526024908201527f436f6e747261637420646f6573206e6f74206861766520656e6f7567682066756040820152633732399760e11b606082015260800190565b60208082526023908201527f426174636820686173206e6f742068616420616e73776572732061636365707460408201526232b21760e91b606082015260800190565b60208082526033908201527f416e7377657273206861766520616c7265616479206265656e207375626d69746040820152723a32b2103337b9103a3434b9903130ba31b41760691b606082015260800190565b60208082526018908201527f5265656e7472616e742063616c6c206465746563746564210000000000000000604082015260600190565b60208082526032908201527f4f6e6c7920746865206f776e6572206f662074686973206a6f622063616e206360408201527130b636103a3434b990333ab731ba34b7b71760711b606082015260800190565b60208082526032908201527f596f7572206164647265737320697320616c7265616479206c696e6b65642074604082015271379030b71030b1ba34bb32903130ba31b41760711b606082015260800190565b60208082526026908201527f4f776e61626c653a206e6577206f776e657220697320746865207a65726f206160408201526564647265737360d01b606082015260800190565b6020808252601b908201527f536166654d6174683a206164646974696f6e206f766572666c6f770000000000604082015260600190565b60208082526025908201527f4120626174636820646f6573206e6f7420657869737420666f722074686973206040820152643ab9b2b91760d91b606082015260800190565b60208082526021908201527f536166654d6174683a206d756c7469706c69636174696f6e206f766572666c6f6040820152607760f81b606082015260800190565b6020808252818101527f4f776e61626c653a2063616c6c6572206973206e6f7420746865206f776e6572604082015260600190565b60208082526024908201527f426174636820686173206e6f742068616420616e7377657273207375626d69746040820152633a32b21760e11b606082015260800190565b6020808252601f908201527f426174636820646f6573206e6f742062656c6f6e6720746f2073656e64657200604082015260600190565b6020808252601a908201527f426174636820696e64657820646f6573206e6f74206578697374000000000000604082015260600190565b60208082526010908201526f2a3930b739b332b9103330b4b632b21760811b604082015260600190565b6020808252602c908201527f54686973206163636f756e7420646f6573206e6f74206861766520612062617460408201526b31b4103932b9b2b93b32b21760a11b606082015260800190565b6020808252818101527f426f756e747920686173206265656e20616c726561647920636c61696d65642e604082015260600190565b6020808252602f908201527f416c6c20746865206261746368657320666f722074686973204a6f622068617660408201526e32903132b2b71031b630b4b6b2b21760891b606082015260800190565b6000602082526122c4602083018451611d22565b60208301516122d66040840182611d22565b5060408301516122e96060840182611d22565b5060608301516122fc6080840182611d22565b50608083015161230f60a0840182611d22565b5060a083015161232260c0840182611d22565b5060c083015160e083015260e0830151610100818185015280850151915050610180610120818186015261235a6101a0860184611ce8565b81870151935061014091508382870152818701519350601f19915061016082878303018188015261238b8286611d28565b8189015195508388820301858901526123a48187611ce8565b9998505050505050505050565b60006060820185835260206060818501528186518084526080860191508288019350845b818110156123f1578451835293830193918301916001016123d5565b50506001600160a01b0395909516604094909401939093525091949350505050565b60ff91909116815260200190565b6000808335601e19843603018112612437578283fd5b8084018035925067ffffffffffffffff831115612452578384fd5b6020810193505050602081023603821315611b5657600080fdfea2646970667358221220f5bd117c41e41a56209a04f6340149a055e440b26bb047b233b14cc840f1fbe064736f6c63430006060033a264697066735822122044a020a10e42e22255e2a4a6bececb5b538ca8dea92df475e3eaec812a0143d864736f6c63430006060033",
  "immutableReferences": {
    "2516": [
      {
        "length": 32,
        "start": 2556
      },
      {
        "length": 32,
        "start": 2957
      }
    ],
    "2518": [
      {
        "length": 32,
        "start": 2873
      },
      {
        "length": 32,
        "start": 3004
      }
    ]
  },
  "source": "// SPDX-License-Identifier: MIT\r\npragma experimental ABIEncoderV2;\r\npragma solidity >=0.4.22 <0.9.0;\r\n\r\nimport \"./Job.sol\";\r\nimport {job_interface} from \"./interfaces/job_interface.sol\";\r\nimport \"../node_modules/@chainlink/contracts/src/v0.6/VRFConsumerBase.sol\";\r\n\r\n\r\ncontract JobFactory is VRFConsumerBase {\r\n    bytes32 internal keyHash;\r\n    uint256 internal fee;\r\n\r\n    struct JobData {\r\n        address job;\r\n        address employer;\r\n        string topLevelCid;\r\n        string jobType;\r\n        string jobName;\r\n        string jobDesc;\r\n        uint256 maxBatchSize;\r\n        uint256 numTasks;\r\n        uint8 reviewPct;\r\n    }\r\n\r\n    /**\r\n     * Constructor inherits VRFConsumerBase\r\n     * \r\n     * Network: Kovan\r\n     * Chainlink VRF Coordinator address: 0xdD3782915140c8f3b190B5D67eAc6dc5760C46E9\r\n     * LINK token address:                0xa36085F69e2889c224210F603D836748e7dC0088\r\n     * Key Hash: 0x6c3699283bda56ad74f6b855546325b68d482e983852a7a82979cc4807b641f4\r\n     */\r\n    constructor() \r\n        VRFConsumerBase(\r\n            0xdD3782915140c8f3b190B5D67eAc6dc5760C46E9, // VRF Coordinator\r\n            0xa36085F69e2889c224210F603D836748e7dC0088  // LINK Token\r\n        ) public\r\n    {\r\n        keyHash = 0x6c3699283bda56ad74f6b855546325b68d482e983852a7a82979cc4807b641f4;\r\n        fee = 0.1 * 10 ** 18; // 0.1 LINK (varies by network)\r\n    }\r\n\r\n    JobData[] public jobsData;\r\n\r\n    struct jobVRFRequest {\r\n        address job;\r\n        uint batchIndex;\r\n    }\r\n    mapping(bytes32 => jobVRFRequest) jobVRFRequests;\r\n\r\n\r\n    function createAndEndow(\r\n        string memory _topLevelCid,\r\n        string memory _jobType,\r\n        string memory _jobName,\r\n        string memory _jobDesc,\r\n        uint256 _maxBatchSize,\r\n        uint256 _numTasks,\r\n        uint8 _reviewPct\r\n    ) public payable returns (Job) {\r\n        require(\r\n            _reviewPct <= 100 && _reviewPct > 0,\r\n            \"Review pct must be 0 > 100\"\r\n        );\r\n        require(\r\n            _maxBatchSize <= _numTasks,\r\n            \"Batch size cannot be greater than $ of tasks.\"\r\n        );\r\n\r\n        require(bytes(_topLevelCid).length > 0);\r\n        require(bytes(_jobType).length > 0);\r\n        require(bytes(_jobName).length > 0);\r\n        require(bytes(_jobDesc).length > 0);\r\n        require(\r\n            _maxBatchSize > 0 && _maxBatchSize <= _numTasks,\r\n            \"Max batch size must be 0 <= numTasks.\"\r\n        );\r\n        require(\r\n            _numTasks > 0 && _numTasks >= _maxBatchSize,\r\n            \"Total number of tasks must be 0 <= maxBatchSize.\"\r\n        );\r\n\r\n        Job job =\r\n            (new Job){value: msg.value}(\r\n                address(this),\r\n                msg.sender,\r\n                _topLevelCid,\r\n                _jobType,\r\n                _jobName,\r\n                _jobDesc,\r\n                _maxBatchSize,\r\n                _numTasks,\r\n                _reviewPct\r\n            );\r\n\r\n        JobData memory jobData = JobData(address(job), msg.sender, _topLevelCid, _jobType, _jobName, _jobDesc, _maxBatchSize, _numTasks, _reviewPct);\r\n\r\n        jobsData.push(jobData);\r\n\r\n        return job;\r\n    }\r\n\r\n    function viewJobsData() external view returns (JobData[] memory) {\r\n        return jobsData;\r\n    }\r\n\r\n        /** \r\n     * Requests randomness from a user-provided seed\r\n     */\r\n    function getRandomNumber(uint256 userProvidedSeed, address _job, uint256 _batchIndex) public returns (bytes32 requestId) {\r\n        require(LINK.balanceOf(address(this)) >= fee, \"Not enough LINK\");\r\n        bytes32 _requestId = requestRandomness(keyHash, fee, userProvidedSeed);\r\n\r\n        jobVRFRequest memory vrfRequest = jobVRFRequest(_job, _batchIndex);\r\n        jobVRFRequests[_requestId] = vrfRequest;\r\n        return _requestId;\r\n    }\r\n\r\n    /**\r\n     * Callback function used by VRF Coordinator\r\n     */\r\n    function fulfillRandomness(bytes32 requestId, uint256 randomness) internal override {\r\n        require(msg.sender == 0xdD3782915140c8f3b190B5D67eAc6dc5760C46E9);\r\n        job_interface(jobVRFRequests[requestId].job).fulfill_random(requestId, randomness, jobVRFRequests[requestId].batchIndex);\r\n    }\r\n}\r\n",
  "sourcePath": "E:/cryptodev/sozu/contracts/JobFactory.sol",
  "compiler": {
    "name": "solc",
    "version": "0.6.6+commit.6c089d02.Emscripten.clang"
  },
  "schemaVersion": "3.3.4",
  "updatedAt": "2021-04-11T11:58:07.289Z",
  "networkType": "ethereum",
  "devdoc": {
    "methods": {}
  },
  "userdoc": {
    "methods": {
      "constructor": "Constructor inherits VRFConsumerBase \r Network: Kovan Chainlink VRF Coordinator address: 0xdD3782915140c8f3b190B5D67eAc6dc5760C46E9 LINK token address:                0xa36085F69e2889c224210F603D836748e7dC0088 Key Hash: 0x6c3699283bda56ad74f6b855546325b68d482e983852a7a82979cc4807b641f4",
      "getRandomNumber(uint256,address,uint256)": {
        "notice": "Requests randomness from a user-provided seed"
      }
    }
  }
}