{
  "contractName": "APIConsumerMock",
  "abi": [
    {
      "inputs": [],
      "stateMutability": "nonpayable",
      "type": "constructor"
    },
    {
      "anonymous": false,
      "inputs": [
        {
          "indexed": true,
          "internalType": "bytes32",
          "name": "id",
          "type": "bytes32"
        }
      ],
      "name": "ChainlinkCancelled",
      "type": "event"
    },
    {
      "anonymous": false,
      "inputs": [
        {
          "indexed": true,
          "internalType": "bytes32",
          "name": "id",
          "type": "bytes32"
        }
      ],
      "name": "ChainlinkFulfilled",
      "type": "event"
    },
    {
      "anonymous": false,
      "inputs": [
        {
          "indexed": true,
          "internalType": "bytes32",
          "name": "id",
          "type": "bytes32"
        }
      ],
      "name": "ChainlinkRequested",
      "type": "event"
    },
    {
      "inputs": [],
      "name": "cid",
      "outputs": [
        {
          "internalType": "string",
          "name": "",
          "type": "string"
        }
      ],
      "stateMutability": "view",
      "type": "function"
    },
    {
      "inputs": [
        {
          "internalType": "string",
          "name": "_cid",
          "type": "string"
        }
      ],
      "name": "requestData",
      "outputs": [
        {
          "internalType": "string",
          "name": "",
          "type": "string"
        }
      ],
      "stateMutability": "nonpayable",
      "type": "function"
    },
    {
      "inputs": [
        {
          "internalType": "string",
          "name": "_cid",
          "type": "string"
        }
      ],
      "name": "fulfill",
      "outputs": [
        {
          "internalType": "string",
          "name": "",
          "type": "string"
        }
      ],
      "stateMutability": "nonpayable",
      "type": "function"
    }
  ],
  "bytecode": "0x6080604052600160045534801561001557600080fd5b50610577806100256000396000f3fe608060405234801561001057600080fd5b50600436106100415760003560e01c80632215ec2c1461004657806382cbb8241461017a578063aa3ec0a9146102ae575b600080fd5b6100ff6004803603602081101561005c57600080fd5b810190808035906020019064010000000081111561007957600080fd5b82018360208201111561008b57600080fd5b803590602001918460018302840111640100000000831117156100ad57600080fd5b91908080601f016020809104026020016040519081016040528093929190818152602001838380828437600081840152601f19601f820116905080830192505050505050509192919290505050610331565b6040518080602001828103825283818151815260200191508051906020019080838360005b8381101561013f578082015181840152602081019050610124565b50505050905090810190601f16801561016c5780820380516001836020036101000a031916815260200191505b509250505060405180910390f35b6102336004803603602081101561019057600080fd5b81019080803590602001906401000000008111156101ad57600080fd5b8201836020820111156101bf57600080fd5b803590602001918460018302840111640100000000831117156101e157600080fd5b91908080601f016020809104026020016040519081016040528093929190818152602001838380828437600081840152601f19601f820116905080830192505050505050509192919290505050610343565b6040518080602001828103825283818151815260200191508051906020019080838360005b83811015610273578082015181840152602081019050610258565b50505050905090810190601f1680156102a05780820380516001836020036101000a031916815260200191505b509250505060405180910390f35b6102b66103fe565b6040518080602001828103825283818151815260200191508051906020019080838360005b838110156102f65780820151818401526020810190506102db565b50505050905090810190601f1680156103235780820380516001836020036101000a031916815260200191505b509250505060405180910390f35b606061033c82610343565b9050919050565b6060816006908051906020019061035b92919061049c565b5060068054600181600116156101000203166002900480601f0160208091040260200160405190810160405280929190818152602001828054600181600116156101000203166002900480156103f25780601f106103c7576101008083540402835291602001916103f2565b820191906000526020600020905b8154815290600101906020018083116103d557829003601f168201915b50505050509050919050565b60068054600181600116156101000203166002900480601f0160208091040260200160405190810160405280929190818152602001828054600181600116156101000203166002900480156104945780601f1061046957610100808354040283529160200191610494565b820191906000526020600020905b81548152906001019060200180831161047757829003601f168201915b505050505081565b828054600181600116156101000203166002900490600052602060002090601f016020900481019282601f106104dd57805160ff191683800117855561050b565b8280016001018555821561050b579182015b8281111561050a5782518255916020019190600101906104ef565b5b509050610518919061051c565b5090565b61053e91905b8082111561053a576000816000905550600101610522565b5090565b9056fea2646970667358221220acd15ca5486ffcd212a4eb6853a1526943734083ed2f3d557f51ba29618d231564736f6c63430006060033",
  "immutableReferences": {},
  "source": "pragma solidity >=0.4.22 <0.9.0;\r\n\r\nimport \"../../node_modules/@chainlink/contracts/src/v0.6/ChainlinkClient.sol\";\r\n\r\ncontract APIConsumerMock is ChainlinkClient {\r\n    string public cid;\r\n    address private oracle;\r\n    bytes32 private jobId;\r\n    uint256 private fee;\r\n\r\n    /**\r\n     * Network: Kovan\r\n     * Oracle: 0x2f90A6D021db21e1B2A077c5a37B3C7E75D15b7e\r\n     * Job ID: 29fa9aa13bf1468788b7cc4a500a45b8\r\n     * Fee: 0.1 LINK\r\n     */\r\n    constructor() public {}\r\n\r\n    /**\r\n     * Create a Chainlink request to retrieve API response, find the target\r\n     * data, then multiply by 1000000000000000000 (to remove decimal places from data).\r\n     */\r\n    function requestData(string memory _cid) public returns (string memory) {\r\n        return fulfill(_cid);\r\n    }\r\n\r\n    function fulfill(string memory _cid) public returns (string memory) {\r\n        cid = _cid;\r\n        return cid;\r\n    }\r\n}\r\n",
  "sourcePath": "E:/cryptodev/sozu/contracts/test/APIConsumerMock.sol",
  "compiler": {
    "name": "solc",
    "version": "0.6.6+commit.6c089d02.Emscripten.clang"
  },
  "schemaVersion": "3.3.4",
  "updatedAt": "2021-04-06T07:25:54.624Z",
  "devdoc": {
    "methods": {}
  },
  "userdoc": {
    "methods": {
      "constructor": "Network: Kovan Oracle: 0x2f90A6D021db21e1B2A077c5a37B3C7E75D15b7e Job ID: 29fa9aa13bf1468788b7cc4a500a45b8 Fee: 0.1 LINK",
      "requestData(string)": {
        "notice": "Create a Chainlink request to retrieve API response, find the target data, then multiply by 1000000000000000000 (to remove decimal places from data)."
      }
    }
  }
}