{
  "contractName": "APIConsumer",
  "abi": [
    {
      "inputs": [],
      "stateMutability": "nonpayable",
      "type": "constructor"
    },
    {
      "anonymous": false,
      "inputs": [
        {
          "indexed": true,
          "internalType": "bytes32",
          "name": "id",
          "type": "bytes32"
        }
      ],
      "name": "ChainlinkCancelled",
      "type": "event"
    },
    {
      "anonymous": false,
      "inputs": [
        {
          "indexed": true,
          "internalType": "bytes32",
          "name": "id",
          "type": "bytes32"
        }
      ],
      "name": "ChainlinkFulfilled",
      "type": "event"
    },
    {
      "anonymous": false,
      "inputs": [
        {
          "indexed": true,
          "internalType": "bytes32",
          "name": "id",
          "type": "bytes32"
        }
      ],
      "name": "ChainlinkRequested",
      "type": "event"
    },
    {
      "inputs": [
        {
          "internalType": "string",
          "name": "_cid",
          "type": "string"
        }
      ],
      "name": "requestData",
      "outputs": [
        {
          "internalType": "bytes32",
          "name": "requestId",
          "type": "bytes32"
        }
      ],
      "stateMutability": "nonpayable",
      "type": "function"
    },
    {
      "inputs": [
        {
          "internalType": "bytes32",
          "name": "_requestId",
          "type": "bytes32"
        },
        {
          "internalType": "string",
          "name": "_cid",
          "type": "string"
        }
      ],
      "name": "fulfill",
      "outputs": [],
      "stateMutability": "nonpayable",
      "type": "function"
    }
  ],
  "bytecode": "0x6080604052600160045534801561001557600080fd5b506100246100b460201b60201c565b732f90a6d021db21e1b2a077c5a37b3c7e75d15b7e600760006101000a81548173ffffffffffffffffffffffffffffffffffffffff021916908373ffffffffffffffffffffffffffffffffffffffff1602179055507f323966613961613133626631343638373838623763633461353030613435623860088190555067016345785d8a000060098190555061019d565b61015773c89bd4e1632d3a43cb03aaad5262cbe4038bc57173ffffffffffffffffffffffffffffffffffffffff166338cc48316040518163ffffffff1660e01b815260040160206040518083038186803b15801561011157600080fd5b505afa158015610125573d6000803e3d6000fd5b505050506040513d602081101561013b57600080fd5b810190808051906020019092919050505061015960201b60201c565b565b80600260006101000a81548173ffffffffffffffffffffffffffffffffffffffff021916908373ffffffffffffffffffffffffffffffffffffffff16021790555050565b611047806101ac6000396000f3fe608060405234801561001057600080fd5b50600436106100365760003560e01c80632215ec2c1461003b578063374419961461010a575b600080fd5b6100f46004803603602081101561005157600080fd5b810190808035906020019064010000000081111561006e57600080fd5b82018360208201111561008057600080fd5b803590602001918460018302840111640100000000831117156100a257600080fd5b91908080601f016020809104026020016040519081016040528093929190818152602001838380828437600081840152601f19601f8201169050808301925050505050505091929192905050506101cf565b6040518082815260200191505060405180910390f35b6101cd6004803603604081101561012057600080fd5b81019080803590602001909291908035906020019064010000000081111561014757600080fd5b82018360208201111561015957600080fd5b8035906020019184600183028401116401000000008311171561017b57600080fd5b91908080601f016020809104026020016040519081016040528093929190818152602001838380828437600081840152601f19601f8201169050808301925050505050505091929192905050506103ac565b005b60006101d9610e80565b6101ed60085430633744199660e01b6104e3565b90506102f66040518060400160405280600381526020017f6765740000000000000000000000000000000000000000000000000000000000815250846040516020018080602001806020018381038352601d8152602001807f687474703a2f2f697066732e696f2f6170692f76302f6c733f6172673d000000815250602001838103825284818151815260200191508051906020019080838360005b838110156102a4578082015181840152602081019050610289565b50505050905090810190601f1680156102d15780820380516001836020036101000a031916815260200191505b509350505050604051602081830303815290604052836105149092919063ffffffff16565b6103756040518060400160405280600481526020017f70617468000000000000000000000000000000000000000000000000000000008152506040518060400160405280600f81526020017f4f626a656374735b305d2e486173680000000000000000000000000000000000815250836105149092919063ffffffff16565b6103a4600760009054906101000a900473ffffffffffffffffffffffffffffffffffffffff1682600954610547565b915050919050565b816005600082815260200190815260200160002060009054906101000a900473ffffffffffffffffffffffffffffffffffffffff1673ffffffffffffffffffffffffffffffffffffffff163373ffffffffffffffffffffffffffffffffffffffff1614610464576040517f08c379a0000000000000000000000000000000000000000000000000000000008152600401808060200182810382526028815260200180610fea6028913960400191505060405180910390fd5b6005600082815260200190815260200160002060006101000a81549073ffffffffffffffffffffffffffffffffffffffff0219169055807f7cc135e0cebb02c3480ae5d74d377283180a2601f8f644edf7987b009316c63a60405160405180910390a281600690805190602001906104dd929190610eed565b50505050565b6104eb610e80565b6104f3610e80565b61050a858585846107ff909392919063ffffffff16565b9150509392505050565b61052b8284608001516108af90919063ffffffff16565b6105428184608001516108af90919063ffffffff16565b505050565b600030600454604051602001808373ffffffffffffffffffffffffffffffffffffffff1673ffffffffffffffffffffffffffffffffffffffff1660601b815260140182815260200192505050604051602081830303815290604052805190602001209050600454836060018181525050836005600083815260200190815260200160002060006101000a81548173ffffffffffffffffffffffffffffffffffffffff021916908373ffffffffffffffffffffffffffffffffffffffff160217905550807fb5e6e01e79f91267dc17b4e6314d5d4d03593d2ceee0fbb452b750bd70ea5af960405160405180910390a2600260009054906101000a900473ffffffffffffffffffffffffffffffffffffffff1673ffffffffffffffffffffffffffffffffffffffff16634000aea0858461067f876108d4565b6040518463ffffffff1660e01b8152600401808473ffffffffffffffffffffffffffffffffffffffff1673ffffffffffffffffffffffffffffffffffffffff16815260200183815260200180602001828103825283818151815260200191508051906020019080838360005b838110156107065780820151818401526020810190506106eb565b50505050905090810190601f1680156107335780820380516001836020036101000a031916815260200191505b50945050505050602060405180830381600087803b15801561075457600080fd5b505af1158015610768573d6000803e3d6000fd5b505050506040513d602081101561077e57600080fd5b81019080805190602001909291905050506107e4576040517f08c379a0000000000000000000000000000000000000000000000000000000008152600401808060200182810382526023815260200180610fc76023913960400191505060405180910390fd5b60016004600082825401925050819055508090509392505050565b610807610e80565b6108178560800151610100610adb565b508385600001818152505082856020019073ffffffffffffffffffffffffffffffffffffffff16908173ffffffffffffffffffffffffffffffffffffffff16815250508185604001907bffffffffffffffffffffffffffffffffffffffffffffffffffffffff191690817bffffffffffffffffffffffffffffffffffffffffffffffffffffffff191681525050849050949350505050565b6108bc8260038351610b2f565b6108cf8183610c7490919063ffffffff16565b505050565b6060600360009054906101000a900473ffffffffffffffffffffffffffffffffffffffff1673ffffffffffffffffffffffffffffffffffffffff166340429946905060e01b60008084600001518560200151866040015187606001516001896080015160000151604051602401808973ffffffffffffffffffffffffffffffffffffffff1673ffffffffffffffffffffffffffffffffffffffff1681526020018881526020018781526020018673ffffffffffffffffffffffffffffffffffffffff1673ffffffffffffffffffffffffffffffffffffffff168152602001857bffffffffffffffffffffffffffffffffffffffffffffffffffffffff19167bffffffffffffffffffffffffffffffffffffffffffffffffffffffff1916815260200184815260200183815260200180602001828103825283818151815260200191508051906020019080838360005b83811015610a3e578082015181840152602081019050610a23565b50505050905090810190601f168015610a6b5780820380516001836020036101000a031916815260200191505b509950505050505050505050604051602081830303815290604052907bffffffffffffffffffffffffffffffffffffffffffffffffffffffff19166020820180517bffffffffffffffffffffffffffffffffffffffffffffffffffffffff83818316178352505050509050919050565b610ae3610f6d565b600060208381610aef57fe5b0614610b085760208281610aff57fe5b06602003820191505b81836020018181525050604051808452600081528281016020016040525082905092915050565b60178111610b5c57610b568160058460ff16901b60ff161784610c9690919063ffffffff16565b50610c6f565b60ff8111610b9e57610b81601860058460ff16901b1784610c9690919063ffffffff16565b50610b9881600185610cb69092919063ffffffff16565b50610c6e565b61ffff8111610be157610bc4601960058460ff16901b1784610c9690919063ffffffff16565b50610bdb81600285610cb69092919063ffffffff16565b50610c6d565b63ffffffff8111610c2657610c09601a60058460ff16901b1784610c9690919063ffffffff16565b50610c2081600485610cb69092919063ffffffff16565b50610c6c565b67ffffffffffffffff8111610c6b57610c52601b60058460ff16901b1784610c9690919063ffffffff16565b50610c6981600885610cb69092919063ffffffff16565b505b5b5b5b5b505050565b610c7c610f6d565b610c8e83846000015151848551610cd8565b905092915050565b610c9e610f6d565b610cae8384600001515184610d91565b905092915050565b610cbe610f6d565b610ccf848560000151518585610ddf565b90509392505050565b610ce0610f6d565b8251821115610cee57600080fd5b84602001518285011115610d1957610d18856002610d128860200151888701610e40565b02610e5c565b5b600080865180518760208301019350808887011115610d385787860182525b60208701925050505b60208410610d645780518252602082019150602081019050602084039350610d41565b60006001856020036101000a03905080198251168184511681811785525050879350505050949350505050565b610d99610f6d565b83602001518310610db657610db5846002866020015102610e5c565b5b8351805160208583010184815381861415610dd2576001820183525b5050508390509392505050565b610de7610f6d565b84602001518483011115610e0557610e0485600286850102610e5c565b5b60006001836101000a0390508551838682010185831982511617815281518588011115610e325784870182525b505085915050949350505050565b600081831115610e5257829050610e56565b8190505b92915050565b606082600001519050610e6f8383610adb565b50610e7a8382610c74565b50505050565b6040518060a0016040528060008019168152602001600073ffffffffffffffffffffffffffffffffffffffff16815260200160007bffffffffffffffffffffffffffffffffffffffffffffffffffffffff1916815260200160008152602001610ee7610f87565b81525090565b828054600181600116156101000203166002900490600052602060002090601f016020900481019282601f10610f2e57805160ff1916838001178555610f5c565b82800160010185558215610f5c579182015b82811115610f5b578251825591602001919060010190610f40565b5b509050610f699190610fa1565b5090565b604051806040016040528060608152602001600081525090565b604051806040016040528060608152602001600081525090565b610fc391905b80821115610fbf576000816000905550600101610fa7565b5090565b9056fe756e61626c6520746f207472616e73666572416e6443616c6c20746f206f7261636c65536f75726365206d75737420626520746865206f7261636c65206f66207468652072657175657374a26469706673582212205092328d1f3fa41190fd4e178e954c34708d057704d6832f68e595612b6a2e7c64736f6c63430006000033",
  "source": "pragma solidity >=0.4.22 <0.9.0;\r\n\r\nimport \"../node_modules/@chainlink/contracts/src/v0.6/ChainlinkClient.sol\";\r\n\r\ncontract APIConsumer is ChainlinkClient {\r\n    string cid;\r\n\r\n    address private oracle;\r\n    bytes32 private jobId;\r\n    uint256 private fee;\r\n\r\n    /**\r\n     * Network: Kovan\r\n     * Oracle: 0x2f90A6D021db21e1B2A077c5a37B3C7E75D15b7e\r\n     * Job ID: 29fa9aa13bf1468788b7cc4a500a45b8\r\n     * Fee: 0.1 LINK\r\n     */\r\n    constructor() public {\r\n        setPublicChainlinkToken();\r\n        oracle = 0x2f90A6D021db21e1B2A077c5a37B3C7E75D15b7e;\r\n        jobId = \"29fa9aa13bf1468788b7cc4a500a45b8\";\r\n        fee = 0.1 * 10**18; // 0.1 LINK\r\n    }\r\n\r\n    /**\r\n     * Create a Chainlink request to retrieve API response, find the target\r\n     * data, then multiply by 1000000000000000000 (to remove decimal places from data).\r\n     */\r\n    function requestData(string memory _cid)\r\n        public\r\n        returns (bytes32 requestId)\r\n    {\r\n        Chainlink.Request memory request =\r\n            buildChainlinkRequest(jobId, address(this), this.fulfill.selector);\r\n\r\n        // Set the URL to perform the GET request on\r\n        request.add(\r\n            \"get\",\r\n            string(abi.encode(\"http://ipfs.io/api/v0/ls?arg=\", _cid))\r\n        );\r\n\r\n        request.add(\"path\", \"Objects[0].Hash\");\r\n\r\n        // Sends the request\r\n        return sendChainlinkRequestTo(oracle, request, fee);\r\n    }\r\n\r\n    function fulfill(bytes32 _requestId, string memory _cid)\r\n        public\r\n        recordChainlinkFulfillment(_requestId)\r\n    {\r\n        cid = _cid;\r\n    }\r\n}\r\n",
  "sourcePath": "E:/cryptodev/sozu/contracts/APIConsumer.sol",
  "compiler": {
    "name": "solc",
    "version": "0.6.0+commit.26b70077.Emscripten.clang"
  },
  "schemaVersion": "3.3.4",
  "updatedAt": "2021-04-05T08:57:48.252Z",
  "devdoc": {
    "methods": {}
  },
  "userdoc": {
    "methods": {
      "constructor": "Network: Kovan Oracle: 0x2f90A6D021db21e1B2A077c5a37B3C7E75D15b7e Job ID: 29fa9aa13bf1468788b7cc4a500a45b8 Fee: 0.1 LINK",
      "requestData(string)": {
        "notice": "Create a Chainlink request to retrieve API response, find the target data, then multiply by 1000000000000000000 (to remove decimal places from data)."
      }
    }
  }
}