{
  "contractName": "APIConsumerMock",
  "abi": [
    {
      "inputs": [],
      "stateMutability": "nonpayable",
      "type": "constructor"
    },
    {
      "anonymous": false,
      "inputs": [
        {
          "indexed": true,
          "internalType": "bytes32",
          "name": "id",
          "type": "bytes32"
        }
      ],
      "name": "ChainlinkCancelled",
      "type": "event"
    },
    {
      "anonymous": false,
      "inputs": [
        {
          "indexed": true,
          "internalType": "bytes32",
          "name": "id",
          "type": "bytes32"
        }
      ],
      "name": "ChainlinkFulfilled",
      "type": "event"
    },
    {
      "anonymous": false,
      "inputs": [
        {
          "indexed": true,
          "internalType": "bytes32",
          "name": "id",
          "type": "bytes32"
        }
      ],
      "name": "ChainlinkRequested",
      "type": "event"
    },
    {
      "inputs": [
        {
          "internalType": "string",
          "name": "_cid",
          "type": "string"
        }
      ],
      "name": "requestData",
      "outputs": [
        {
          "internalType": "string",
          "name": "",
          "type": "string"
        }
      ],
      "stateMutability": "nonpayable",
      "type": "function"
    },
    {
      "inputs": [
        {
          "internalType": "string",
          "name": "_cid",
          "type": "string"
        }
      ],
      "name": "fulfill",
      "outputs": [
        {
          "internalType": "string",
          "name": "cid",
          "type": "string"
        }
      ],
      "stateMutability": "nonpayable",
      "type": "function"
    }
  ],
  "bytecode": "0x6080604052600160045534801561001557600080fd5b506100246100b460201b60201c565b732f90a6d021db21e1b2a077c5a37b3c7e75d15b7e600760006101000a81548173ffffffffffffffffffffffffffffffffffffffff021916908373ffffffffffffffffffffffffffffffffffffffff1602179055507f323966613961613133626631343638373838623763633461353030613435623860088190555067016345785d8a0000600981905550610221565b61015473c89bd4e1632d3a43cb03aaad5262cbe4038bc57173ffffffffffffffffffffffffffffffffffffffff166338cc48316040518163ffffffff1660e01b815260040160206040518083038186803b15801561011157600080fd5b505afa158015610125573d6000803e3d6000fd5b505050506040513d601f19601f8201168201806040525081019061014991906101af565b61015660201b60201c565b565b80600260006101000a81548173ffffffffffffffffffffffffffffffffffffffff021916908373ffffffffffffffffffffffffffffffffffffffff16021790555050565b6000815190506101a98161020a565b92915050565b6000602082840312156101c157600080fd5b60006101cf8482850161019a565b91505092915050565b60006101e3826101ea565b9050919050565b600073ffffffffffffffffffffffffffffffffffffffff82169050919050565b610213816101d8565b811461021e57600080fd5b50565b6102f0806102306000396000f3fe608060405234801561001057600080fd5b50600436106100365760003560e01c80632215ec2c1461003b57806382cbb8241461006b575b600080fd5b6100556004803603810190610050919061011f565b61009b565b6040516100629190610199565b60405180910390f35b6100856004803603810190610080919061011f565b6100ad565b6040516100929190610199565b60405180910390f35b60606100a6826100ad565b9050919050565b6060819050919050565b60006100ca6100c5846101ec565b6101bb565b9050828152602081018484840111156100e257600080fd5b6100ed848285610238565b509392505050565b600082601f83011261010657600080fd5b81356101168482602086016100b7565b91505092915050565b60006020828403121561013157600080fd5b600082013567ffffffffffffffff81111561014b57600080fd5b610157848285016100f5565b91505092915050565b600061016b8261021c565b6101758185610227565b9350610185818560208601610247565b61018e816102a9565b840191505092915050565b600060208201905081810360008301526101b38184610160565b905092915050565b6000604051905081810181811067ffffffffffffffff821117156101e2576101e161027a565b5b8060405250919050565b600067ffffffffffffffff8211156102075761020661027a565b5b601f19601f8301169050602081019050919050565b600081519050919050565b600082825260208201905092915050565b82818337600083830152505050565b60005b8381101561026557808201518184015260208101905061024a565b83811115610274576000848401525b50505050565b7f4e487b7100000000000000000000000000000000000000000000000000000000600052604160045260246000fd5b6000601f19601f830116905091905056fea2646970667358221220b8518b1e899e4a05c146fa158c6a652888ddac6be33bcd0e2a129a6cf97b196c64736f6c63430008000033",
  "immutableReferences": {},
  "source": "pragma solidity >=0.4.22 <0.9.0;\r\n\r\nimport \"../../node_modules/@chainlink/contracts/src/v0.6/ChainlinkClient.sol\";\r\n\r\ncontract APIConsumerMock is ChainlinkClient {\r\n    string cid;\r\n    address private oracle;\r\n    bytes32 private jobId;\r\n    uint256 private fee;\r\n\r\n    /**\r\n     * Network: Kovan\r\n     * Oracle: 0x2f90A6D021db21e1B2A077c5a37B3C7E75D15b7e\r\n     * Job ID: 29fa9aa13bf1468788b7cc4a500a45b8\r\n     * Fee: 0.1 LINK\r\n     */\r\n    constructor() public {\r\n        setPublicChainlinkToken();\r\n        oracle = 0x2f90A6D021db21e1B2A077c5a37B3C7E75D15b7e;\r\n        jobId = \"29fa9aa13bf1468788b7cc4a500a45b8\";\r\n        fee = 0.1 * 10**18; // 0.1 LINK\r\n    }\r\n\r\n    /**\r\n     * Create a Chainlink request to retrieve API response, find the target\r\n     * data, then multiply by 1000000000000000000 (to remove decimal places from data).\r\n     */\r\n    function requestData(string memory _cid) public returns (string memory) {\r\n        return fulfill(_cid);\r\n    }\r\n\r\n    function fulfill(string memory _cid) public returns (string memory cid) {\r\n        cid = _cid;\r\n        return cid;\r\n    }\r\n}\r\n",
  "sourcePath": "E:/cryptodev/sozu/contracts/test/APIConsumerMock.sol",
  "compiler": {
    "name": "solc",
    "version": "0.8.0+commit.c7dfd78e.Emscripten.clang"
  },
  "schemaVersion": "3.3.4",
  "updatedAt": "2021-04-05T08:03:31.034Z",
  "devdoc": {
    "kind": "dev",
    "methods": {},
    "version": 1
  },
  "userdoc": {
    "kind": "user",
    "methods": {
      "constructor": {
        "notice": "Network: Kovan Oracle: 0x2f90A6D021db21e1B2A077c5a37B3C7E75D15b7e Job ID: 29fa9aa13bf1468788b7cc4a500a45b8 Fee: 0.1 LINK"
      },
      "requestData(string)": {
        "notice": "Create a Chainlink request to retrieve API response, find the target data, then multiply by 1000000000000000000 (to remove decimal places from data)."
      }
    },
    "version": 1
  }
}