{
  "contractName": "Job",
  "abi": [
    {
      "inputs": [
        {
          "internalType": "string",
          "name": "_jobType",
          "type": "string"
        },
        {
          "internalType": "string",
          "name": "_jobName",
          "type": "string"
        },
        {
          "internalType": "string",
          "name": "_jobDesc",
          "type": "string"
        },
        {
          "internalType": "uint256",
          "name": "_batchSize",
          "type": "uint256"
        },
        {
          "internalType": "uint256",
          "name": "_numTasks",
          "type": "uint256"
        },
        {
          "internalType": "uint8",
          "name": "_reviewPct",
          "type": "uint8"
        }
      ],
      "stateMutability": "payable",
      "type": "constructor"
    },
    {
      "anonymous": false,
      "inputs": [
        {
          "indexed": true,
          "internalType": "address",
          "name": "previousOwner",
          "type": "address"
        },
        {
          "indexed": true,
          "internalType": "address",
          "name": "newOwner",
          "type": "address"
        }
      ],
      "name": "OwnershipTransferred",
      "type": "event"
    },
    {
      "inputs": [],
      "name": "owner",
      "outputs": [
        {
          "internalType": "address",
          "name": "",
          "type": "address"
        }
      ],
      "stateMutability": "view",
      "type": "function"
    },
    {
      "inputs": [],
      "name": "renounceOwnership",
      "outputs": [],
      "stateMutability": "nonpayable",
      "type": "function"
    },
    {
      "inputs": [
        {
          "internalType": "address",
          "name": "newOwner",
          "type": "address"
        }
      ],
      "name": "transferOwnership",
      "outputs": [],
      "stateMutability": "nonpayable",
      "type": "function"
    },
    {
      "inputs": [
        {
          "internalType": "uint256",
          "name": "_numTasks",
          "type": "uint256"
        },
        {
          "internalType": "uint256",
          "name": "_batchSize",
          "type": "uint256"
        }
      ],
      "name": "getNumBatches",
      "outputs": [
        {
          "internalType": "uint256",
          "name": "",
          "type": "uint256"
        }
      ],
      "stateMutability": "pure",
      "type": "function"
    },
    {
      "inputs": [
        {
          "internalType": "address",
          "name": "_userAddress",
          "type": "address"
        }
      ],
      "name": "isBatch",
      "outputs": [
        {
          "internalType": "bool",
          "name": "isIndeed",
          "type": "bool"
        }
      ],
      "stateMutability": "view",
      "type": "function"
    },
    {
      "inputs": [
        {
          "internalType": "address",
          "name": "_userAddress",
          "type": "address"
        }
      ],
      "name": "getBatch",
      "outputs": [
        {
          "components": [
            {
              "internalType": "bool",
              "name": "isBatch",
              "type": "bool"
            },
            {
              "internalType": "bool",
              "name": "answersSubmitted",
              "type": "bool"
            },
            {
              "internalType": "bool",
              "name": "answersAccepted",
              "type": "bool"
            },
            {
              "internalType": "bool",
              "name": "answersRejected",
              "type": "bool"
            },
            {
              "internalType": "bytes32",
              "name": "committedRoot",
              "type": "bytes32"
            },
            {
              "internalType": "bytes32",
              "name": "committedAnswersHash",
              "type": "bytes32"
            },
            {
              "internalType": "uint256[]",
              "name": "reviewIndexes",
              "type": "uint256[]"
            },
            {
              "internalType": "uint256",
              "name": "index",
              "type": "uint256"
            },
            {
              "internalType": "string",
              "name": "answersCID",
              "type": "string"
            }
          ],
          "internalType": "struct Job.Batch",
          "name": "",
          "type": "tuple"
        }
      ],
      "stateMutability": "view",
      "type": "function"
    },
    {
      "inputs": [],
      "name": "viewBatch",
      "outputs": [
        {
          "components": [
            {
              "internalType": "bool",
              "name": "isBatch",
              "type": "bool"
            },
            {
              "internalType": "bool",
              "name": "answersSubmitted",
              "type": "bool"
            },
            {
              "internalType": "bool",
              "name": "answersAccepted",
              "type": "bool"
            },
            {
              "internalType": "bool",
              "name": "answersRejected",
              "type": "bool"
            },
            {
              "internalType": "bytes32",
              "name": "committedRoot",
              "type": "bytes32"
            },
            {
              "internalType": "bytes32",
              "name": "committedAnswersHash",
              "type": "bytes32"
            },
            {
              "internalType": "uint256[]",
              "name": "reviewIndexes",
              "type": "uint256[]"
            },
            {
              "internalType": "uint256",
              "name": "index",
              "type": "uint256"
            },
            {
              "internalType": "string",
              "name": "answersCID",
              "type": "string"
            }
          ],
          "internalType": "struct Job.Batch",
          "name": "",
          "type": "tuple"
        }
      ],
      "stateMutability": "view",
      "type": "function"
    },
    {
      "inputs": [],
      "name": "reserveBatch",
      "outputs": [
        {
          "internalType": "uint256",
          "name": "",
          "type": "uint256"
        }
      ],
      "stateMutability": "nonpayable",
      "type": "function"
    },
    {
      "inputs": [
        {
          "internalType": "uint256",
          "name": "_batchIdx",
          "type": "uint256"
        }
      ],
      "name": "getTaskIndexesForBatch",
      "outputs": [
        {
          "internalType": "uint256",
          "name": "minIndex",
          "type": "uint256"
        },
        {
          "internalType": "uint256",
          "name": "maxIndex",
          "type": "uint256"
        }
      ],
      "stateMutability": "view",
      "type": "function"
    },
    {
      "inputs": [],
      "name": "getTaskIndexesForAddress",
      "outputs": [
        {
          "internalType": "uint256",
          "name": "minIndex",
          "type": "uint256"
        },
        {
          "internalType": "uint256",
          "name": "maxIndex",
          "type": "uint256"
        }
      ],
      "stateMutability": "view",
      "type": "function"
    },
    {
      "inputs": [
        {
          "internalType": "bytes32",
          "name": "_root",
          "type": "bytes32"
        },
        {
          "internalType": "bytes32",
          "name": "_answersHash",
          "type": "bytes32"
        }
      ],
      "name": "commitAnswers",
      "outputs": [],
      "stateMutability": "nonpayable",
      "type": "function"
    },
    {
      "inputs": [
        {
          "internalType": "bytes32[]",
          "name": "_proof",
          "type": "bytes32[]"
        },
        {
          "internalType": "bytes32",
          "name": "_root",
          "type": "bytes32"
        },
        {
          "internalType": "bytes32",
          "name": "_leaf",
          "type": "bytes32"
        },
        {
          "internalType": "bytes32",
          "name": "_answersHash",
          "type": "bytes32"
        }
      ],
      "name": "proveAnswers",
      "outputs": [
        {
          "internalType": "uint256[]",
          "name": "_reviewIdxs",
          "type": "uint256[]"
        }
      ],
      "stateMutability": "nonpayable",
      "type": "function"
    },
    {
      "inputs": [
        {
          "internalType": "uint256",
          "name": "_batchIndex",
          "type": "uint256"
        }
      ],
      "name": "acceptAnswers",
      "outputs": [],
      "stateMutability": "nonpayable",
      "type": "function"
    },
    {
      "inputs": [
        {
          "internalType": "uint256",
          "name": "_batchIndex",
          "type": "uint256"
        }
      ],
      "name": "rejectAnswers",
      "outputs": [],
      "stateMutability": "nonpayable",
      "type": "function"
    },
    {
      "inputs": [
        {
          "internalType": "uint256",
          "name": "_batchIndex",
          "type": "uint256"
        },
        {
          "internalType": "string",
          "name": "_cid",
          "type": "string"
        }
      ],
      "name": "finalizeSubmission",
      "outputs": [],
      "stateMutability": "nonpayable",
      "type": "function"
    }
  ],
  "bytecode": "0x6080604052604051620031f8380380620031f88339818101604052810190620000299190620003e0565b60006200003b620001b160201b60201c565b9050806000806101000a81548173ffffffffffffffffffffffffffffffffffffffff021916908373ffffffffffffffffffffffffffffffffffffffff1602179055508073ffffffffffffffffffffffffffffffffffffffff16600073ffffffffffffffffffffffffffffffffffffffff167f8be0079c531659141344cd1fd0a4f28419497f9722a3daafe3b4186f6b6457e060405160405180910390a3508560019080519060200190620000f192919062000290565b5084600290805190602001906200010a92919062000290565b5083600390805190602001906200012392919062000290565b50826004819055508160058190555080600a60006101000a81548160ff021916908360ff1602179055506200015f8284620001b960201b60201c565b60068190555062000198600554620001876004546006546200023060201b620015cc1760201c565b6200024860201b620015e21760201c565b60078190555034600881905550505050505050620007c9565b600033905090565b600080620001d384846200024860201b620015e21760201c565b1415620001f957620001f183836200026060201b620015f81760201c565b90506200022a565b6200022760016200021685856200026060201b620015f81760201c565b6200027860201b6200160e1760201c565b90505b92915050565b60008183620002409190620005bd565b905092915050565b60008183620002589190620006a1565b905092915050565b6000818362000270919062000585565b905092915050565b6000818362000288919062000528565b905092915050565b8280546200029e906200066b565b90600052602060002090601f016020900481019282620002c257600085556200030e565b82601f10620002dd57805160ff19168380011785556200030e565b828001600101855582156200030e579182015b828111156200030d578251825591602001919060010190620002f0565b5b5090506200031d919062000321565b5090565b5b808211156200033c57600081600090555060010162000322565b5090565b6000620003576200035184620004f5565b620004c1565b9050828152602081018484840111156200037057600080fd5b6200037d84828562000635565b509392505050565b600082601f8301126200039757600080fd5b8151620003a984826020860162000340565b91505092915050565b600081519050620003c38162000795565b92915050565b600081519050620003da81620007af565b92915050565b60008060008060008060c08789031215620003fa57600080fd5b600087015167ffffffffffffffff8111156200041557600080fd5b6200042389828a0162000385565b965050602087015167ffffffffffffffff8111156200044157600080fd5b6200044f89828a0162000385565b955050604087015167ffffffffffffffff8111156200046d57600080fd5b6200047b89828a0162000385565b94505060606200048e89828a01620003b2565b9350506080620004a189828a01620003b2565b92505060a0620004b489828a01620003c9565b9150509295509295509295565b6000604051905081810181811067ffffffffffffffff82111715620004eb57620004ea62000766565b5b8060405250919050565b600067ffffffffffffffff82111562000513576200051262000766565b5b601f19601f8301169050602081019050919050565b600062000535826200061e565b915062000542836200061e565b9250827fffffffffffffffffffffffffffffffffffffffffffffffffffffffffffffffff038211156200057a5762000579620006d9565b5b828201905092915050565b600062000592826200061e565b91506200059f836200061e565b925082620005b257620005b162000708565b5b828204905092915050565b6000620005ca826200061e565b9150620005d7836200061e565b9250817fffffffffffffffffffffffffffffffffffffffffffffffffffffffffffffffff0483118215151615620006135762000612620006d9565b5b828202905092915050565b6000819050919050565b600060ff82169050919050565b60005b838110156200065557808201518184015260208101905062000638565b8381111562000665576000848401525b50505050565b600060028204905060018216806200068457607f821691505b602082108114156200069b576200069a62000737565b5b50919050565b6000620006ae826200061e565b9150620006bb836200061e565b925082620006ce57620006cd62000708565b5b828206905092915050565b7f4e487b7100000000000000000000000000000000000000000000000000000000600052601160045260246000fd5b7f4e487b7100000000000000000000000000000000000000000000000000000000600052601260045260246000fd5b7f4e487b7100000000000000000000000000000000000000000000000000000000600052602260045260246000fd5b7f4e487b7100000000000000000000000000000000000000000000000000000000600052604160045260246000fd5b620007a0816200061e565b8114620007ac57600080fd5b50565b620007ba8162000628565b8114620007c657600080fd5b50565b612a1f80620007d96000396000f3fe608060405234801561001057600080fd5b50600436106100f55760003560e01c8063715018a611610097578063ae96cf8a11610066578063ae96cf8a1461025f578063ba2645421461028f578063c86026ce146102c0578063f2fde38b146102de576100f5565b8063715018a6146101fc5780637d4981b2146102065780638da5cb5b146102255780639bd1471714610243576100f5565b806336242fec116100d357806336242fec1461016257806342576492146101925780634efe152a146101b05780636eec3348146101cc576100f5565b8063028ba983146100fa57806308a6a072146101165780630e87798714610146575b600080fd5b610114600480360381019061010f9190611c16565b6102fa565b005b610130600480360381019061012b9190611c93565b610562565b60405161013d9190612530565b60405180910390f35b610160600480360381019061015b9190611c16565b6105a3565b005b61017c60048036038101906101779190611b36565b6108ca565b604051610189919061250e565b60405180910390f35b61019a610ae0565b6040516101a7919061250e565b60405180910390f35b6101ca60048036038101906101c59190611bda565b610af6565b005b6101e660048036038101906101e19190611b5f565b610d10565b6040516101f3919061236f565b60405180910390f35b610204610d1a565b005b61020e610e54565b60405161021c92919061254b565b60405180910390f35b61022d610eaa565b60405161023a9190612354565b60405180910390f35b61025d60048036038101906102589190611c3f565b610ed3565b005b61027960048036038101906102749190611b36565b611285565b6040516102869190612391565b60405180910390f35b6102a960048036038101906102a49190611c16565b6113d9565b6040516102b792919061254b565b60405180910390f35b6102c8611413565b6040516102d59190612530565b60405180910390f35b6102f860048036038101906102f39190611b36565b611423565b005b610367600c8281548110610337577f4e487b7100000000000000000000000000000000000000000000000000000000600052603260045260246000fd5b9060005260206000200160009054906101000a900473ffffffffffffffffffffffffffffffffffffffff16611285565b6103a6576040517f08c379a000000000000000000000000000000000000000000000000000000000815260040161039d906124ce565b60405180910390fd5b60011515600b6000600c84815481106103e8577f4e487b7100000000000000000000000000000000000000000000000000000000600052603260045260246000fd5b9060005260206000200160009054906101000a900473ffffffffffffffffffffffffffffffffffffffff1673ffffffffffffffffffffffffffffffffffffffff1673ffffffffffffffffffffffffffffffffffffffff16815260200190815260200160002060000160019054906101000a900460ff161515146104a0576040517f08c379a0000000000000000000000000000000000000000000000000000000008152600401610497906124ae565b60405180910390fd5b6001600b6000600c84815481106104e0577f4e487b7100000000000000000000000000000000000000000000000000000000600052603260045260246000fd5b9060005260206000200160009054906101000a900473ffffffffffffffffffffffffffffffffffffffff1673ffffffffffffffffffffffffffffffffffffffff1673ffffffffffffffffffffffffffffffffffffffff16815260200190815260200160002060000160026101000a81548160ff02191690831515021790555050565b60008061056f84846115e2565b14156105865761057f83836115f8565b905061059d565b61059a600161059585856115f8565b61160e565b90505b92915050565b610610600c82815481106105e0577f4e487b7100000000000000000000000000000000000000000000000000000000600052603260045260246000fd5b9060005260206000200160009054906101000a900473ffffffffffffffffffffffffffffffffffffffff16611285565b61064f576040517f08c379a0000000000000000000000000000000000000000000000000000000008152600401610646906124ce565b60405180910390fd5b60011515600b6000600c8481548110610691577f4e487b7100000000000000000000000000000000000000000000000000000000600052603260045260246000fd5b9060005260206000200160009054906101000a900473ffffffffffffffffffffffffffffffffffffffff1673ffffffffffffffffffffffffffffffffffffffff1673ffffffffffffffffffffffffffffffffffffffff16815260200190815260200160002060000160019054906101000a900460ff16151514610749576040517f08c379a0000000000000000000000000000000000000000000000000000000008152600401610740906124ae565b60405180910390fd5b6001600b6000600c8481548110610789577f4e487b7100000000000000000000000000000000000000000000000000000000600052603260045260246000fd5b9060005260206000200160009054906101000a900473ffffffffffffffffffffffffffffffffffffffff1673ffffffffffffffffffffffffffffffffffffffff1673ffffffffffffffffffffffffffffffffffffffff16815260200190815260200160002060000160036101000a81548160ff0219169083151502179055506000600b6000600c8481548110610848577f4e487b7100000000000000000000000000000000000000000000000000000000600052603260045260246000fd5b9060005260206000200160009054906101000a900473ffffffffffffffffffffffffffffffffffffffff1673ffffffffffffffffffffffffffffffffffffffff1673ffffffffffffffffffffffffffffffffffffffff16815260200190815260200160002060000160006101000a81548160ff02191690831515021790555050565b6108d2611935565b6108db82611285565b61091a576040517f08c379a00000000000000000000000000000000000000000000000000000000081526004016109119061244e565b60405180910390fd5b600b60008373ffffffffffffffffffffffffffffffffffffffff1673ffffffffffffffffffffffffffffffffffffffff168152602001908152602001600020604051806101200160405290816000820160009054906101000a900460ff161515151581526020016000820160019054906101000a900460ff161515151581526020016000820160029054906101000a900460ff161515151581526020016000820160039054906101000a900460ff16151515158152602001600182015481526020016002820154815260200160038201805480602002602001604051908101604052809291908181526020018280548015610a3457602002820191906000526020600020905b815481526020019060010190808311610a20575b5050505050815260200160048201548152602001600582018054610a5790612821565b80601f0160208091040260200160405190810160405280929190818152602001828054610a8390612821565b8015610ad05780601f10610aa557610100808354040283529160200191610ad0565b820191906000526020600020905b815481529060010190602001808311610ab357829003601f168201915b5050505050815250509050919050565b610ae8611935565b610af1336108ca565b905090565b610aff33611285565b610b3e576040517f08c379a0000000000000000000000000000000000000000000000000000000008152600401610b35906124ee565b60405180910390fd5b6000600b60003373ffffffffffffffffffffffffffffffffffffffff1673ffffffffffffffffffffffffffffffffffffffff16815260200190815260200160002060000160016101000a81548160ff0219169083151502179055610bd7576040517f08c379a0000000000000000000000000000000000000000000000000000000008152600401610bce906123ee565b60405180910390fd5b81600b60003373ffffffffffffffffffffffffffffffffffffffff1673ffffffffffffffffffffffffffffffffffffffff1681526020019081526020016000206001018190555080600b60003373ffffffffffffffffffffffffffffffffffffffff1673ffffffffffffffffffffffffffffffffffffffff168152602001908152602001600020600201819055506000610cb2600b60003373ffffffffffffffffffffffffffffffffffffffff1673ffffffffffffffffffffffffffffffffffffffff16815260200190815260200160002060040154611624565b905080600b60003373ffffffffffffffffffffffffffffffffffffffff1673ffffffffffffffffffffffffffffffffffffffff1681526020019081526020016000206003019080519060200190610d0a92919061198f565b50505050565b6060949350505050565b610d2261179d565b73ffffffffffffffffffffffffffffffffffffffff16610d40610eaa565b73ffffffffffffffffffffffffffffffffffffffff1614610d96576040517f08c379a0000000000000000000000000000000000000000000000000000000008152600401610d8d9061248e565b60405180910390fd5b600073ffffffffffffffffffffffffffffffffffffffff1660008054906101000a900473ffffffffffffffffffffffffffffffffffffffff1673ffffffffffffffffffffffffffffffffffffffff167f8be0079c531659141344cd1fd0a4f28419497f9722a3daafe3b4186f6b6457e060405160405180910390a360008060006101000a81548173ffffffffffffffffffffffffffffffffffffffff021916908373ffffffffffffffffffffffffffffffffffffffff160217905550565b600080610ea2600b60003373ffffffffffffffffffffffffffffffffffffffff1673ffffffffffffffffffffffffffffffffffffffff168152602001908152602001600020600401546113d9565b915091509091565b60008060009054906101000a900473ffffffffffffffffffffffffffffffffffffffff16905090565b610f40600c8381548110610f10577f4e487b7100000000000000000000000000000000000000000000000000000000600052603260045260246000fd5b9060005260206000200160009054906101000a900473ffffffffffffffffffffffffffffffffffffffff16611285565b610f7f576040517f08c379a0000000000000000000000000000000000000000000000000000000008152600401610f76906124ce565b60405180910390fd5b60011515600b6000600c8581548110610fc1577f4e487b7100000000000000000000000000000000000000000000000000000000600052603260045260246000fd5b9060005260206000200160009054906101000a900473ffffffffffffffffffffffffffffffffffffffff1673ffffffffffffffffffffffffffffffffffffffff1673ffffffffffffffffffffffffffffffffffffffff16815260200190815260200160002060000160019054906101000a900460ff16151514611079576040517f08c379a0000000000000000000000000000000000000000000000000000000008152600401611070906124ae565b60405180910390fd5b60011515600b6000600c85815481106110bb577f4e487b7100000000000000000000000000000000000000000000000000000000600052603260045260246000fd5b9060005260206000200160009054906101000a900473ffffffffffffffffffffffffffffffffffffffff1673ffffffffffffffffffffffffffffffffffffffff1673ffffffffffffffffffffffffffffffffffffffff16815260200190815260200160002060000160029054906101000a900460ff16151514611173576040517f08c379a000000000000000000000000000000000000000000000000000000000815260040161116a906123ce565b60405180910390fd5b600b6000600c84815481106111b1577f4e487b7100000000000000000000000000000000000000000000000000000000600052603260045260246000fd5b9060005260206000200160009054906101000a900473ffffffffffffffffffffffffffffffffffffffff1673ffffffffffffffffffffffffffffffffffffffff1673ffffffffffffffffffffffffffffffffffffffff168152602001908152602001600020600201548160405160200161122b91906123ac565b6040516020818303038152906040528051906020012014611281576040517f08c379a00000000000000000000000000000000000000000000000000000000081526004016112789061246e565b60405180910390fd5b5050565b600080600c80549050141561129d57600090506113d4565b8173ffffffffffffffffffffffffffffffffffffffff16600c600b60008573ffffffffffffffffffffffffffffffffffffffff1673ffffffffffffffffffffffffffffffffffffffff1681526020019081526020016000206004015481548110611330577f4e487b7100000000000000000000000000000000000000000000000000000000600052603260045260246000fd5b9060005260206000200160009054906101000a900473ffffffffffffffffffffffffffffffffffffffff1673ffffffffffffffffffffffffffffffffffffffff161480156113d1575060011515600b60008473ffffffffffffffffffffffffffffffffffffffff1673ffffffffffffffffffffffffffffffffffffffff16815260200190815260200160002060000160009054906101000a900460ff161515145b90505b919050565b60008060006113ea846004546115cc565b905060006114046113fd8360045461160e565b60016117a5565b90508181935093505050915091565b600061141e336117bb565b905090565b61142b61179d565b73ffffffffffffffffffffffffffffffffffffffff16611449610eaa565b73ffffffffffffffffffffffffffffffffffffffff161461149f576040517f08c379a00000000000000000000000000000000000000000000000000000000081526004016114969061248e565b60405180910390fd5b600073ffffffffffffffffffffffffffffffffffffffff168173ffffffffffffffffffffffffffffffffffffffff16141561150f576040517f08c379a00000000000000000000000000000000000000000000000000000000081526004016115069061242e565b60405180910390fd5b8073ffffffffffffffffffffffffffffffffffffffff1660008054906101000a900473ffffffffffffffffffffffffffffffffffffffff1673ffffffffffffffffffffffffffffffffffffffff167f8be0079c531659141344cd1fd0a4f28419497f9722a3daafe3b4186f6b6457e060405160405180910390a3806000806101000a81548173ffffffffffffffffffffffffffffffffffffffff021916908373ffffffffffffffffffffffffffffffffffffffff16021790555050565b600081836115da91906126ff565b905092915050565b600081836115f091906128a6565b905092915050565b6000818361160691906126ce565b905092915050565b6000818361161c9190612678565b905092915050565b6060600061163560065460016117a5565b83141561164657600754905061164c565b60045490505b600061166c600a60009054906101000a900460ff1660ff166004546115cc565b905060008167ffffffffffffffff8111156116b0577f4e487b7100000000000000000000000000000000000000000000000000000000600052604160045260246000fd5b6040519080825280602002602001820160405280156116de5781602001602082028036833780820191505090505b50905060005b82811015611791576117396116f987866115cc565b6117346304945edc600954604051602001611715929190612328565b6040516020818303038152906040528051906020012060001c876115e2565b61160e565b828281518110611772577f4e487b7100000000000000000000000000000000000000000000000000000000600052603260045260246000fd5b602002602001018181525050808061178990612853565b9150506116e4565b50809350505050919050565b600033905090565b600081836117b39190612759565b905092915050565b60006117c682611285565b15611806576040517f08c379a00000000000000000000000000000000000000000000000000000000081526004016117fd9061240e565b60405180910390fd5b600c829080600181540180825580915050600190039060005260206000200160009091909190916101000a81548173ffffffffffffffffffffffffffffffffffffffff021916908373ffffffffffffffffffffffffffffffffffffffff1602179055506001600c8054905061187b9190612759565b600b60008473ffffffffffffffffffffffffffffffffffffffff1673ffffffffffffffffffffffffffffffffffffffff168152602001908152602001600020600401819055506001600b60008473ffffffffffffffffffffffffffffffffffffffff1673ffffffffffffffffffffffffffffffffffffffff16815260200190815260200160002060000160006101000a81548160ff0219169083151502179055506001600c8054905061192e9190612759565b9050919050565b60405180610120016040528060001515815260200160001515815260200160001515815260200160001515815260200160008019168152602001600080191681526020016060815260200160008152602001606081525090565b8280548282559060005260206000209081019282156119cb579160200282015b828111156119ca5782518255916020019190600101906119af565b5b5090506119d891906119dc565b5090565b5b808211156119f55760008160009055506001016119dd565b5090565b6000611a0c611a07846125a5565b612574565b90508083825260208201905082856020860282011115611a2b57600080fd5b60005b85811015611a5b5781611a418882611ae2565b845260208401935060208301925050600181019050611a2e565b5050509392505050565b6000611a78611a73846125d1565b612574565b905082815260208101848484011115611a9057600080fd5b611a9b8482856127df565b509392505050565b600081359050611ab2816129a4565b92915050565b600082601f830112611ac957600080fd5b8135611ad98482602086016119f9565b91505092915050565b600081359050611af1816129bb565b92915050565b600082601f830112611b0857600080fd5b8135611b18848260208601611a65565b91505092915050565b600081359050611b30816129d2565b92915050565b600060208284031215611b4857600080fd5b6000611b5684828501611aa3565b91505092915050565b60008060008060808587031215611b7557600080fd5b600085013567ffffffffffffffff811115611b8f57600080fd5b611b9b87828801611ab8565b9450506020611bac87828801611ae2565b9350506040611bbd87828801611ae2565b9250506060611bce87828801611ae2565b91505092959194509250565b60008060408385031215611bed57600080fd5b6000611bfb85828601611ae2565b9250506020611c0c85828601611ae2565b9150509250929050565b600060208284031215611c2857600080fd5b6000611c3684828501611b21565b91505092915050565b60008060408385031215611c5257600080fd5b6000611c6085828601611b21565b925050602083013567ffffffffffffffff811115611c7d57600080fd5b611c8985828601611af7565b9150509250929050565b60008060408385031215611ca657600080fd5b6000611cb485828601611b21565b9250506020611cc585828601611b21565b9150509250929050565b6000611cdb83836122f3565b60208301905092915050565b611cf08161278d565b82525050565b6000611d0182612611565b611d0b8185612634565b9350611d1683612601565b8060005b83811015611d47578151611d2e8882611ccf565b9750611d3983612627565b925050600181019050611d1a565b5085935050505092915050565b6000611d5f82612611565b611d698185612645565b9350611d7483612601565b8060005b83811015611da5578151611d8c8882611ccf565b9750611d9783612627565b925050600181019050611d78565b5085935050505092915050565b611dbb8161279f565b82525050565b611dca8161279f565b82525050565b611dd9816127ab565b82525050565b6000611dea8261261c565b611df48185612656565b9350611e048185602086016127ee565b611e0d81612993565b840191505092915050565b6000611e238261261c565b611e2d8185612667565b9350611e3d8185602086016127ee565b611e4681612993565b840191505092915050565b6000611e5e602383612667565b91507f426174636820686173206e6f742068616420616e73776572732061636365707460008301527f65642e00000000000000000000000000000000000000000000000000000000006020830152604082019050919050565b6000611ec4603383612667565b91507f416e7377657273206861766520616c7265616479206265656e207375626d697460008301527f74656420666f7220746869732062617463682e000000000000000000000000006020830152604082019050919050565b6000611f2a603283612667565b91507f596f7572206164647265737320697320616c7265616479206c696e6b6564207460008301527f6f20616e206163746976652062617463682e00000000000000000000000000006020830152604082019050919050565b6000611f90602683612667565b91507f4f776e61626c653a206e6577206f776e657220697320746865207a65726f206160008301527f64647265737300000000000000000000000000000000000000000000000000006020830152604082019050919050565b6000611ff6602583612667565b91507f4120626174636820646f6573206e6f7420657869737420666f7220746869732060008301527f757365722e0000000000000000000000000000000000000000000000000000006020830152604082019050919050565b600061205c604283612667565b91507f42617463682066696e616c697a656420616e73776572206861736820646f657360008301527f206e6f74206d6174636820636f6d6d697474656420616e73776572732068617360208301527f682e0000000000000000000000000000000000000000000000000000000000006040830152606082019050919050565b60006120e8602083612667565b91507f4f776e61626c653a2063616c6c6572206973206e6f7420746865206f776e65726000830152602082019050919050565b6000612128602483612667565b91507f426174636820686173206e6f742068616420616e7377657273207375626d697460008301527f7465642e000000000000000000000000000000000000000000000000000000006020830152604082019050919050565b600061218e601a83612667565b91507f426174636820696e64657820646f6573206e6f742065786973740000000000006000830152602082019050919050565b60006121ce602c83612667565b91507f54686973206163636f756e7420646f6573206e6f74206861766520612062617460008301527f63682072657365727665642e00000000000000000000000000000000000000006020830152604082019050919050565b6000610120830160008301516122406000860182611db2565b5060208301516122536020860182611db2565b5060408301516122666040860182611db2565b5060608301516122796060860182611db2565b50608083015161228c6080860182611dd0565b5060a083015161229f60a0860182611dd0565b5060c083015184820360c08601526122b78282611cf6565b91505060e08301516122cc60e08601826122f3565b506101008301518482036101008601526122e68282611ddf565b9150508091505092915050565b6122fc816127d5565b82525050565b61230b816127d5565b82525050565b61232261231d826127d5565b61289c565b82525050565b60006123348285612311565b6020820191506123448284612311565b6020820191508190509392505050565b60006020820190506123696000830184611ce7565b92915050565b600060208201905081810360008301526123898184611d54565b905092915050565b60006020820190506123a66000830184611dc1565b92915050565b600060208201905081810360008301526123c68184611e18565b905092915050565b600060208201905081810360008301526123e781611e51565b9050919050565b6000602082019050818103600083015261240781611eb7565b9050919050565b6000602082019050818103600083015261242781611f1d565b9050919050565b6000602082019050818103600083015261244781611f83565b9050919050565b6000602082019050818103600083015261246781611fe9565b9050919050565b600060208201905081810360008301526124878161204f565b9050919050565b600060208201905081810360008301526124a7816120db565b9050919050565b600060208201905081810360008301526124c78161211b565b9050919050565b600060208201905081810360008301526124e781612181565b9050919050565b60006020820190508181036000830152612507816121c1565b9050919050565b600060208201905081810360008301526125288184612227565b905092915050565b60006020820190506125456000830184612302565b92915050565b60006040820190506125606000830185612302565b61256d6020830184612302565b9392505050565b6000604051905081810181811067ffffffffffffffff8211171561259b5761259a612964565b5b8060405250919050565b600067ffffffffffffffff8211156125c0576125bf612964565b5b602082029050602081019050919050565b600067ffffffffffffffff8211156125ec576125eb612964565b5b601f19601f8301169050602081019050919050565b6000819050602082019050919050565b600081519050919050565b600081519050919050565b6000602082019050919050565b600082825260208201905092915050565b600082825260208201905092915050565b600082825260208201905092915050565b600082825260208201905092915050565b6000612683826127d5565b915061268e836127d5565b9250827fffffffffffffffffffffffffffffffffffffffffffffffffffffffffffffffff038211156126c3576126c26128d7565b5b828201905092915050565b60006126d9826127d5565b91506126e4836127d5565b9250826126f4576126f3612906565b5b828204905092915050565b600061270a826127d5565b9150612715836127d5565b9250817fffffffffffffffffffffffffffffffffffffffffffffffffffffffffffffffff048311821515161561274e5761274d6128d7565b5b828202905092915050565b6000612764826127d5565b915061276f836127d5565b925082821015612782576127816128d7565b5b828203905092915050565b6000612798826127b5565b9050919050565b60008115159050919050565b6000819050919050565b600073ffffffffffffffffffffffffffffffffffffffff82169050919050565b6000819050919050565b82818337600083830152505050565b60005b8381101561280c5780820151818401526020810190506127f1565b8381111561281b576000848401525b50505050565b6000600282049050600182168061283957607f821691505b6020821081141561284d5761284c612935565b5b50919050565b600061285e826127d5565b91507fffffffffffffffffffffffffffffffffffffffffffffffffffffffffffffffff821415612891576128906128d7565b5b600182019050919050565b6000819050919050565b60006128b1826127d5565b91506128bc836127d5565b9250826128cc576128cb612906565b5b828206905092915050565b7f4e487b7100000000000000000000000000000000000000000000000000000000600052601160045260246000fd5b7f4e487b7100000000000000000000000000000000000000000000000000000000600052601260045260246000fd5b7f4e487b7100000000000000000000000000000000000000000000000000000000600052602260045260246000fd5b7f4e487b7100000000000000000000000000000000000000000000000000000000600052604160045260246000fd5b6000601f19601f8301169050919050565b6129ad8161278d565b81146129b857600080fd5b50565b6129c4816127ab565b81146129cf57600080fd5b50565b6129db816127d5565b81146129e657600080fd5b5056fea2646970667358221220d3a5dac2e8429b9be46ac9576b18a2297dbdf88ca5a954fe06e48c75763d510a64736f6c63430008000033",
  "immutableReferences": {},
  "source": "// SPDX-License-Identifier: MIT\r\npragma abicoder v2;\r\npragma solidity >=0.4.22 <0.9.0;\r\n\r\nimport \"../node_modules/@openzeppelin/contracts/access/Ownable.sol\";\r\nimport \"../node_modules/@chainlink/contracts/src/v0.6/VRFConsumerBase.sol\";\r\nimport \"../node_modules/@openzeppelin/contracts/utils/math/SafeMath.sol\";\r\nimport \"../node_modules/@openzeppelin/contracts/utils/cryptography/MerkleProof.sol\";\r\n\r\ncontract Job is Ownable {\r\n    string jobType;\r\n    string jobName;\r\n    string jobDesc;\r\n    uint256 batchSize;\r\n    uint256 numTasks;\r\n    uint256 numBatches;\r\n    uint256 lastBatchSize;\r\n    uint256 bountyPool;\r\n    uint256 nonce;\r\n    uint8 reviewPct;\r\n\r\n    struct Batch {\r\n        bool isBatch;\r\n        bool answersSubmitted;\r\n        bool answersAccepted;\r\n        bool answersRejected;\r\n        bytes32 committedRoot;\r\n        bytes32 committedAnswersHash;\r\n        uint256[] reviewIndexes;\r\n        uint256 index;\r\n        string answersCID;\r\n    }\r\n\r\n    mapping(address => Batch) batches;\r\n    address[] batchIndex;\r\n    uint256[] rejectedBatchIndexes;\r\n\r\n    constructor(\r\n        string memory _jobType,\r\n        string memory _jobName,\r\n        string memory _jobDesc,\r\n        uint256 _batchSize,\r\n        uint256 _numTasks,\r\n        uint8 _reviewPct\r\n    ) payable {\r\n        jobType = _jobType;\r\n        jobName = _jobName;\r\n        jobDesc = _jobDesc;\r\n        batchSize = _batchSize;\r\n        numTasks = _numTasks;\r\n        reviewPct = _reviewPct;\r\n        numBatches = getNumBatches(_numTasks, _batchSize);\r\n        lastBatchSize = SafeMath.mod(\r\n            numTasks,\r\n            SafeMath.mul(batchSize, numBatches)\r\n        );\r\n        bountyPool = msg.value;\r\n    }\r\n\r\n    function getNumBatches(uint256 _numTasks, uint256 _batchSize)\r\n        public\r\n        pure\r\n        returns (uint256)\r\n    {\r\n        if (SafeMath.mod(_numTasks, _batchSize) == 0) {\r\n            return SafeMath.div(_numTasks, _batchSize);\r\n        } else {\r\n            return SafeMath.add(1, SafeMath.div(_numTasks, _batchSize));\r\n        }\r\n    }\r\n\r\n    function isBatch(address _userAddress) public view returns (bool isIndeed) {\r\n        if (batchIndex.length == 0) return false;\r\n        return (batchIndex[batches[_userAddress].index] == _userAddress &&\r\n            batches[_userAddress].isBatch == true);\r\n    }\r\n\r\n    function addBatch(address _userAddress) private returns (uint256 index) {\r\n        require(\r\n            !isBatch(_userAddress),\r\n            \"Your address is already linked to an active batch.\"\r\n        );\r\n        batchIndex.push(_userAddress);\r\n        batches[_userAddress].index = batchIndex.length - 1;\r\n        batches[_userAddress].isBatch = true;\r\n        return batchIndex.length - 1;\r\n    }\r\n\r\n    function getBatch(address _userAddress) public view returns (Batch memory) {\r\n        require(isBatch(_userAddress), \"A batch does not exist for this user.\");\r\n        return (batches[_userAddress]);\r\n    }\r\n\r\n    function viewBatch() external view returns (Batch memory) {\r\n        return getBatch(msg.sender);\r\n    }\r\n\r\n    function reserveBatch() external returns (uint256) {\r\n        // Add check for rejected batches\r\n        return addBatch(msg.sender);\r\n    }\r\n\r\n    function getTaskIndexesForBatch(uint256 _batchIdx)\r\n        public\r\n        view\r\n        returns (uint256 minIndex, uint256 maxIndex)\r\n    {\r\n        uint256 minIdx = SafeMath.mul(_batchIdx, batchSize);\r\n        uint256 maxIdx = SafeMath.sub(SafeMath.add(minIdx, batchSize), 1);\r\n        return (minIdx, maxIdx);\r\n    }\r\n\r\n    function getTaskIndexesForAddress()\r\n        public\r\n        view\r\n        returns (uint256 minIndex, uint256 maxIndex)\r\n    {\r\n        return getTaskIndexesForBatch(batches[msg.sender].index);\r\n    }\r\n\r\n    function verifyProof(\r\n        bytes32[] memory _proof,\r\n        bytes32 _root,\r\n        bytes32 _leaf\r\n    ) internal pure returns (bool) {\r\n        return MerkleProof.verify(_proof, _root, _leaf);\r\n    }\r\n\r\n    function commitAnswers(bytes32 _root, bytes32 _answersHash) external {\r\n        // Commit to a merkle root for batch of answers\r\n        require(\r\n            isBatch(msg.sender),\r\n            \"This account does not have a batch reserved.\"\r\n        );\r\n        require(\r\n            batches[msg.sender].answersSubmitted = false,\r\n            \"Answers have already been submitted for this batch.\"\r\n        );\r\n\r\n        batches[msg.sender].committedRoot = _root;\r\n        batches[msg.sender].committedAnswersHash = _answersHash;\r\n        uint256[] memory reviewIndexes =\r\n            randomSelectReview(batches[msg.sender].index);\r\n        batches[msg.sender].reviewIndexes = reviewIndexes;\r\n    }\r\n\r\n    function randomSelectReview(uint256 _batchIndex)\r\n        private\r\n        view\r\n        returns (uint256[] memory reviewIndexes)\r\n    {\r\n        // Chainlink VRF randomly select index for proof\r\n        // STUBBED\r\n        uint256 _thisBatchSize;\r\n        if (_batchIndex == SafeMath.sub(numBatches, 1)) {\r\n            _thisBatchSize = lastBatchSize;\r\n        } else {\r\n            _thisBatchSize = batchSize;\r\n        }\r\n        uint256 numReviews = SafeMath.mul(reviewPct, batchSize);\r\n\r\n        uint256[] memory _reviewIndexes = new uint256[](numReviews);\r\n\r\n        for (uint256 i; i < numReviews; i++) {\r\n            _reviewIndexes[i] = SafeMath.add(\r\n                SafeMath.mul(_batchIndex, _thisBatchSize),\r\n                SafeMath.mod(\r\n                    uint256(\r\n                        keccak256(abi.encodePacked(uint256(76832476), nonce)) // Get this random number from chainlink VFR\r\n                    ),\r\n                    _thisBatchSize\r\n                )\r\n            );\r\n        }\r\n\r\n        return _reviewIndexes;\r\n    }\r\n\r\n    function proveAnswers(\r\n        bytes32[] memory _proof,\r\n        bytes32 _root,\r\n        bytes32 _leaf,\r\n        bytes32 _answersHash\r\n    ) external returns (uint256[] memory _reviewIdxs) {\r\n        // submit merkle proof of answers\r\n        // submit the future hash of hash of IPFS file\r\n    }\r\n\r\n    function acceptAnswers(uint256 _batchIndex) external {\r\n        require(isBatch(batchIndex[_batchIndex]), \"Batch index does not exist\");\r\n        require(\r\n            batches[batchIndex[_batchIndex]].answersSubmitted == true,\r\n            \"Batch has not had answers submitted.\"\r\n        );\r\n        batches[batchIndex[_batchIndex]].answersAccepted = true;\r\n    }\r\n\r\n    function rejectAnswers(uint256 _batchIndex) public {\r\n        require(isBatch(batchIndex[_batchIndex]), \"Batch index does not exist\");\r\n        require(\r\n            batches[batchIndex[_batchIndex]].answersSubmitted == true,\r\n            \"Batch has not had answers submitted.\"\r\n        );\r\n        batches[batchIndex[_batchIndex]].answersRejected = true;\r\n        batches[batchIndex[_batchIndex]].isBatch = false;\r\n    }\r\n\r\n    function finalizeSubmission(uint256 _batchIndex, string memory _cid)\r\n        external\r\n    {\r\n        // submit IPFS file with the answers that matches pre-submitted hash\r\n        // Get payment\r\n        require(isBatch(batchIndex[_batchIndex]), \"Batch index does not exist\");\r\n        require(\r\n            batches[batchIndex[_batchIndex]].answersSubmitted == true,\r\n            \"Batch has not had answers submitted.\"\r\n        );\r\n        require(\r\n            batches[batchIndex[_batchIndex]].answersAccepted == true,\r\n            \"Batch has not had answers accepted.\"\r\n        );\r\n        require(\r\n            keccak256(abi.encode(_cid)) ==\r\n                batches[batchIndex[_batchIndex]].committedAnswersHash,\r\n            \"Batch finalized answer hash does not match committed answers hash.\"\r\n        );\r\n    }\r\n\r\n    // function getBountyPool() public view returns (uint256 totalPool) {\r\n    //     return bountyPool;\r\n    // }\r\n\r\n    // function getTaskBounty() public view returns (uint256 taskBounty) {\r\n    //     return bountyPool / numTasks;\r\n    // }\r\n\r\n    // function getRandomNumbers() private view returns (uint256[] memory) {}\r\n}\r\n",
  "sourcePath": "E:/cryptodev/sozu/contracts/Job.sol",
  "compiler": {
    "name": "solc",
    "version": "0.8.0+commit.c7dfd78e.Emscripten.clang"
  },
  "schemaVersion": "3.3.4",
  "updatedAt": "2021-04-05T08:03:31.021Z",
  "devdoc": {
    "kind": "dev",
    "methods": {
      "owner()": {
        "details": "Returns the address of the current owner."
      },
      "renounceOwnership()": {
        "details": "Leaves the contract without owner. It will not be possible to call `onlyOwner` functions anymore. Can only be called by the current owner. NOTE: Renouncing ownership will leave the contract without an owner, thereby removing any functionality that is only available to the owner."
      },
      "transferOwnership(address)": {
        "details": "Transfers ownership of the contract to a new account (`newOwner`). Can only be called by the current owner."
      }
    },
    "version": 1
  },
  "userdoc": {
    "kind": "user",
    "methods": {},
    "version": 1
  }
}