{
  "contractName": "Job",
  "abi": [
    {
      "inputs": [
        {
          "internalType": "string",
          "name": "_jobType",
          "type": "string"
        },
        {
          "internalType": "string",
          "name": "_jobName",
          "type": "string"
        },
        {
          "internalType": "string",
          "name": "_jobDesc",
          "type": "string"
        }
      ],
      "stateMutability": "payable",
      "type": "constructor"
    },
    {
      "inputs": [
        {
          "internalType": "bytes32",
          "name": "_digest",
          "type": "bytes32"
        }
      ],
      "name": "isTask",
      "outputs": [
        {
          "internalType": "bool",
          "name": "isIndeed",
          "type": "bool"
        }
      ],
      "stateMutability": "view",
      "type": "function"
    }
  ],
  "bytecode": "0x608060405260405161046d38038061046d8339818101604052810190610025919061017d565b826002908051906020019061003b929190610072565b508160039080519060200190610052929190610072565b508060049080519060200190610069929190610072565b50505050610338565b82805461007e906102a8565b90600052602060002090601f0160209004810192826100a057600085556100e7565b82601f106100b957805160ff19168380011785556100e7565b828001600101855582156100e7579182015b828111156100e65782518255916020019190600101906100cb565b5b5090506100f491906100f8565b5090565b5b808211156101115760008160009055506001016100f9565b5090565b600061012861012384610245565b610214565b90508281526020810184848401111561014057600080fd5b61014b848285610275565b509392505050565b600082601f83011261016457600080fd5b8151610174848260208601610115565b91505092915050565b60008060006060848603121561019257600080fd5b600084015167ffffffffffffffff8111156101ac57600080fd5b6101b886828701610153565b935050602084015167ffffffffffffffff8111156101d557600080fd5b6101e186828701610153565b925050604084015167ffffffffffffffff8111156101fe57600080fd5b61020a86828701610153565b9150509250925092565b6000604051905081810181811067ffffffffffffffff8211171561023b5761023a610309565b5b8060405250919050565b600067ffffffffffffffff8211156102605761025f610309565b5b601f19601f8301169050602081019050919050565b60005b83811015610293578082015181840152602081019050610278565b838111156102a2576000848401525b50505050565b600060028204905060018216806102c057607f821691505b602082108114156102d4576102d36102da565b5b50919050565b7f4e487b7100000000000000000000000000000000000000000000000000000000600052602260045260246000fd5b7f4e487b7100000000000000000000000000000000000000000000000000000000600052604160045260246000fd5b610126806103476000396000f3fe6080604052348015600f57600080fd5b506004361060285760003560e01c80630d04218f14602d575b600080fd5b60436004803603810190603f9190607a565b6057565b604051604e919060ad565b60405180910390f35b6000806001905080915050919050565b60008135905060748160dc565b92915050565b600060208284031215608b57600080fd5b60006097848285016067565b91505092915050565b60a78160c6565b82525050565b600060208201905060c0600083018460a0565b92915050565b60008115159050919050565b6000819050919050565b60e38160d2565b811460ed57600080fd5b5056fea26469706673582212201302b10bd69af63d76c398b5624aa78458388dbb7483a39a4bac5f390fdc77f964736f6c63430008000033",
  "immutableReferences": {},
  "source": "// SPDX-License-Identifier: MIT\r\npragma abicoder v2;\r\npragma solidity >=0.4.22 <0.9.0;\r\n\r\nimport \"../node_modules/@openzeppelin/contracts/access/Ownable.sol\";\r\n\r\ncontract Job {\r\n    struct Task {\r\n        bytes32 digest;\r\n        uint8 hashFunction;\r\n        uint8 size;\r\n        bool isTask;\r\n    }\r\n\r\n    mapping(bytes32 => Task) tasks;\r\n    bytes32[] taskList;\r\n    string jobType;\r\n    string jobName;\r\n    string jobDesc;\r\n\r\n    constructor(\r\n        string memory _jobType,\r\n        string memory _jobName,\r\n        string memory _jobDesc\r\n    ) payable {\r\n        jobType = _jobType;\r\n        jobName = _jobName;\r\n        jobDesc = _jobDesc;\r\n    }\r\n\r\n    function isTask(bytes32 _digest) public view returns (bool isIndeed) {\r\n        // return tasks[_digest].isTask;\r\n        bool answer = true;\r\n        return answer;\r\n    }\r\n\r\n    // function getTaskCount() public view returns (uint256 taskCount) {\r\n    //     return taskList.length;\r\n    // }\r\n\r\n    // function newTask(\r\n    //     bytes32 _digest,\r\n    //     uint8 _hashFunction,\r\n    //     uint8 _size\r\n    // ) public returns (uint256 rowNumber) {\r\n    //     if (isTask(_digest)) revert();\r\n    //     tasks[_digest].digest = _digest;\r\n    //     tasks[_digest].hashFunction = _hashFunction;\r\n    //     tasks[_digest].size = _size;\r\n    //     tasks[_digest].isTask = true;\r\n    //     taskList.push(_digest);\r\n    //     return getTaskCount();\r\n    // }\r\n}\r\n",
  "sourcePath": "E:\\cryptodev\\sozu\\contracts\\Job.sol",
  "compiler": {
    "name": "solc",
    "version": "0.8.0+commit.c7dfd78e.Emscripten.clang"
  },
  "schemaVersion": "3.3.4",
  "updatedAt": "2021-03-29T04:04:50.912Z",
  "devdoc": {
    "kind": "dev",
    "methods": {},
    "version": 1
  },
  "userdoc": {
    "kind": "user",
    "methods": {},
    "version": 1
  }
}