{
  "contractName": "JobFactory",
  "abi": [
    {
      "inputs": [],
      "stateMutability": "nonpayable",
      "type": "constructor"
    },
    {
      "inputs": [
        {
          "internalType": "uint256",
          "name": "",
          "type": "uint256"
        }
      ],
      "name": "jobsData",
      "outputs": [
        {
          "internalType": "address",
          "name": "job",
          "type": "address"
        },
        {
          "internalType": "address",
          "name": "employer",
          "type": "address"
        },
        {
          "internalType": "string",
          "name": "topLevelCid",
          "type": "string"
        },
        {
          "internalType": "string",
          "name": "jobType",
          "type": "string"
        },
        {
          "internalType": "string",
          "name": "jobName",
          "type": "string"
        },
        {
          "internalType": "string",
          "name": "jobDesc",
          "type": "string"
        },
        {
          "internalType": "uint256",
          "name": "maxBatchSize",
          "type": "uint256"
        },
        {
          "internalType": "uint256",
          "name": "numTasks",
          "type": "uint256"
        },
        {
          "internalType": "uint8",
          "name": "reviewPct",
          "type": "uint8"
        }
      ],
      "stateMutability": "view",
      "type": "function",
      "constant": true
    },
    {
      "inputs": [
        {
          "internalType": "bytes32",
          "name": "requestId",
          "type": "bytes32"
        },
        {
          "internalType": "uint256",
          "name": "randomness",
          "type": "uint256"
        }
      ],
      "name": "rawFulfillRandomness",
      "outputs": [],
      "stateMutability": "nonpayable",
      "type": "function"
    },
    {
      "inputs": [
        {
          "internalType": "string",
          "name": "_topLevelCid",
          "type": "string"
        },
        {
          "internalType": "string",
          "name": "_jobType",
          "type": "string"
        },
        {
          "internalType": "string",
          "name": "_jobName",
          "type": "string"
        },
        {
          "internalType": "string",
          "name": "_jobDesc",
          "type": "string"
        },
        {
          "internalType": "uint256",
          "name": "_maxBatchSize",
          "type": "uint256"
        },
        {
          "internalType": "uint256",
          "name": "_numTasks",
          "type": "uint256"
        },
        {
          "internalType": "uint8",
          "name": "_reviewPct",
          "type": "uint8"
        }
      ],
      "name": "createAndEndow",
      "outputs": [
        {
          "internalType": "contract Job",
          "name": "",
          "type": "address"
        }
      ],
      "stateMutability": "payable",
      "type": "function",
      "payable": true
    },
    {
      "inputs": [],
      "name": "viewJobsData",
      "outputs": [
        {
          "components": [
            {
              "internalType": "address",
              "name": "job",
              "type": "address"
            },
            {
              "internalType": "address",
              "name": "employer",
              "type": "address"
            },
            {
              "internalType": "string",
              "name": "topLevelCid",
              "type": "string"
            },
            {
              "internalType": "string",
              "name": "jobType",
              "type": "string"
            },
            {
              "internalType": "string",
              "name": "jobName",
              "type": "string"
            },
            {
              "internalType": "string",
              "name": "jobDesc",
              "type": "string"
            },
            {
              "internalType": "uint256",
              "name": "maxBatchSize",
              "type": "uint256"
            },
            {
              "internalType": "uint256",
              "name": "numTasks",
              "type": "uint256"
            },
            {
              "internalType": "uint8",
              "name": "reviewPct",
              "type": "uint8"
            }
          ],
          "internalType": "struct JobFactory.JobData[]",
          "name": "",
          "type": "tuple[]"
        }
      ],
      "stateMutability": "view",
      "type": "function",
      "constant": true
    },
    {
      "inputs": [
        {
          "internalType": "uint256",
          "name": "userProvidedSeed",
          "type": "uint256"
        },
        {
          "internalType": "address",
          "name": "_job",
          "type": "address"
        }
      ],
      "name": "getRandomNumber",
      "outputs": [
        {
          "internalType": "bytes32",
          "name": "requestId",
          "type": "bytes32"
        }
      ],
      "stateMutability": "nonpayable",
      "type": "function"
    }
  ],
  "bytecode": "0x60c060405234801561001057600080fd5b507fdd3782915140c8f3b190b5d67eac6dc5760c46e900000000000000000000000060a0527fa36085f69e2889c224210f603d836748e7dc00880000000000000000000000006080527f6c3699283bda56ad74f6b855546325b68d482e983852a7a82979cc4807b641f460015567016345785d8a000060025573a36085f69e2889c224210f603d836748e7dc008873dd3782915140c8f3b190b5d67eac6dc5760c46e9614d666100da60003980610a005280610c29525080610a575280610bfa5250614d666000f3fe608060405260043610620000505760003560e01c806332cf9c201462000055578063552b63d0146200008557806359c3257114620000ab57806394985ddd14620000e7578063aeadd223146200010e575b600080fd5b3480156200006257600080fd5b506200006d62000142565b6040516200007c919062001264565b60405180910390f35b6200009c6200009636600462000fd8565b6200044b565b6040516200007c919062001192565b348015620000b857600080fd5b50620000d0620000ca366004620010b4565b62000752565b6040516200007c99989796959493929190620011a6565b348015620000f457600080fd5b506200010c6200010636600462000fb6565b620009f5565b005b3480156200011b57600080fd5b50620001336200012d366004620010e6565b62000a50565b6040516200007c919062001381565b60606003805480602002602001604051908101604052809291908181526020016000905b828210156200044157600084815260209081902060408051610120810182526009860290920180546001600160a01b039081168452600180830154909116848601526002808301805485516101009482161594909402600019011691909104601f8101879004870283018701855280835294959294938601939192909190830182828015620002395780601f106200020d5761010080835404028352916020019162000239565b820191906000526020600020905b8154815290600101906020018083116200021b57829003601f168201915b505050918352505060038201805460408051602060026001851615610100026000190190941693909304601f8101849004840282018401909252818152938201939291830182828015620002d15780601f10620002a557610100808354040283529160200191620002d1565b820191906000526020600020905b815481529060010190602001808311620002b357829003601f168201915b505050918352505060048201805460408051602060026001851615610100026000190190941693909304601f8101849004840282018401909252818152938201939291830182828015620003695780601f106200033d5761010080835404028352916020019162000369565b820191906000526020600020905b8154815290600101906020018083116200034b57829003601f168201915b505050918352505060058201805460408051602060026001851615610100026000190190941693909304601f8101849004840282018401909252818152938201939291830182828015620004015780601f10620003d55761010080835404028352916020019162000401565b820191906000526020600020905b815481529060010190602001808311620003e357829003601f168201915b505050918352505060068201546020808301919091526007830154604083015260089092015460ff16606090910152908252600192909201910162000166565b5050505090505b90565b600060648260ff161115801562000465575060008260ff16115b6200048d5760405162461bcd60e51b815260040162000484906200142a565b60405180910390fd5b82841115620004b05760405162461bcd60e51b81526004016200048490620014da565b6000885111620004bf57600080fd5b6000875111620004ce57600080fd5b6000865111620004dd57600080fd5b6000855111620004ec57600080fd5b600084118015620004fd5750828411155b6200051c5760405162461bcd60e51b81526004016200048490620013ae565b6000831180156200052d5750838310155b6200054c5760405162461bcd60e51b8152600401620004849062001461565b60003430338b8b8b8b8b8b8b604051620005669062000def565b6200057a99989796959493929190620011a6565b6040518091039082f090508015801562000598573d6000803e3d6000fd5b509050620005a562000dfd565b5060408051610120810182526001600160a01b0380841682523360208084019182529383018d8152606084018d9052608084018c905260a084018b905260c084018a905260e0840189905260ff881661010085015260038054600181018255600091909152845160099091027fc2575a0e9e593c00f959f8c92f12db2869c3395a3b0502d05e2516446f71f85b810180549286166001600160a01b031993841617815593517fc2575a0e9e593c00f959f8c92f12db2869c3395a3b0502d05e2516446f71f85c8201805491909616921691909117909355518051939485949293620006b9937fc2575a0e9e593c00f959f8c92f12db2869c3395a3b0502d05e2516446f71f85d909101929091019062000e5e565b5060608201518051620006d791600384019160209091019062000e5e565b5060808201518051620006f591600484019160209091019062000e5e565b5060a082015180516200071391600584019160209091019062000e5e565b5060c0820151600682015560e08201516007820155610100909101516008909101805460ff191660ff9092169190911790555098975050505050505050565b600381815481106200076057fe5b600091825260209182902060099091020180546001808301546002808501805460408051601f600019978416156101000297909701909216939093049485018890048802810188019092528382526001600160a01b0394851697509190931694909190830182828015620008185780601f10620007ec5761010080835404028352916020019162000818565b820191906000526020600020905b815481529060010190602001808311620007fa57829003601f168201915b5050505060038301805460408051602060026001851615610100026000190190941693909304601f8101849004840282018401909252818152949594935090830182828015620008ac5780601f106200088057610100808354040283529160200191620008ac565b820191906000526020600020905b8154815290600101906020018083116200088e57829003601f168201915b5050505060048301805460408051602060026001851615610100026000190190941693909304601f8101849004840282018401909252818152949594935090830182828015620009405780601f10620009145761010080835404028352916020019162000940565b820191906000526020600020905b8154815290600101906020018083116200092257829003601f168201915b5050505060058301805460408051602060026001851615610100026000190190941693909304601f8101849004840282018401909252818152949594935090830182828015620009d45780601f10620009a857610100808354040283529160200191620009d4565b820191906000526020600020905b815481529060010190602001808311620009b657829003601f168201915b50505050600683015460078401546008909401549293909290915060ff1689565b336001600160a01b037f0000000000000000000000000000000000000000000000000000000000000000161462000a405760405162461bcd60e51b8152600401620004849062001527565b62000a4c828262000b5c565b5050565b60006002547f00000000000000000000000000000000000000000000000000000000000000006001600160a01b03166370a08231306040518263ffffffff1660e01b815260040162000aa3919062001192565b60206040518083038186803b15801562000abc57600080fd5b505afa15801562000ad1573d6000803e3d6000fd5b505050506040513d601f19601f8201168201806040525081019062000af79190620010cd565b101562000b185760405162461bcd60e51b81526004016200048490620014b1565b600062000b2b6001546002548662000bf6565b600081815260046020526040902080546001600160a01b0319166001600160a01b0386161790559150505b92915050565b73dd3782915140c8f3b190b5d67eac6dc5760c46e9331462000b7d57600080fd5b60008281526004602081905260409182902054915163e490ca4f60e01b81526001600160a01b039092169163e490ca4f9162000bbe91869186910162001184565b600060405180830381600087803b15801562000bd957600080fd5b505af115801562000bee573d6000803e3d6000fd5b505050505050565b60007f00000000000000000000000000000000000000000000000000000000000000006001600160a01b0316634000aea07f000000000000000000000000000000000000000000000000000000000000000085878660405160200162000c5e92919062001184565b6040516020818303038152906040526040518463ffffffff1660e01b815260040162000c8d939291906200123b565b602060405180830381600087803b15801562000ca857600080fd5b505af115801562000cbd573d6000803e3d6000fd5b505050506040513d601f19601f8201168201806040525081019062000ce3919062000f94565b50600062000d068584306000808a81526020019081526020016000205462000d4f565b60008681526020819052604090205490915062000d2b90600163ffffffff62000d8b16565b60008681526020819052604090205562000d46858262000dba565b95945050505050565b60008484848460405160200162000d6a94939291906200138a565b60408051601f19818403018152919052805160209091012095945050505050565b60008282018381101562000db35760405162461bcd60e51b81526004016200048490620013f3565b9392505050565b6000828260405160200162000dd192919062001184565b60405160208183030381529060405280519060200120905092915050565b6137d2806200155f83390190565b60405180610120016040528060006001600160a01b0316815260200160006001600160a01b03168152602001606081526020016060815260200160608152602001606081526020016000815260200160008152602001600060ff1681525090565b828054600181600116156101000203166002900490600052602060002090601f016020900481019282601f1062000ea157805160ff191683800117855562000ed1565b8280016001018555821562000ed1579182015b8281111562000ed157825182559160200191906001019062000eb4565b5062000edf92915062000ee3565b5090565b6200044891905b8082111562000edf576000815560010162000eea565b600082601f83011262000f11578081fd5b813567ffffffffffffffff8082111562000f29578283fd5b604051601f8301601f19168101602001828111828210171562000f4a578485fd5b60405282815292508284830160200186101562000f6657600080fd5b8260208601602083013760006020848301015250505092915050565b803560ff8116811462000b5657600080fd5b60006020828403121562000fa6578081fd5b8151801515811462000db3578182fd5b6000806040838503121562000fc9578081fd5b50508035926020909101359150565b600080600080600080600060e0888a03121562000ff3578283fd5b873567ffffffffffffffff808211156200100b578485fd5b620010198b838c0162000f00565b985060208a01359150808211156200102f578485fd5b6200103d8b838c0162000f00565b975060408a013591508082111562001053578485fd5b620010618b838c0162000f00565b965060608a013591508082111562001077578485fd5b50620010868a828b0162000f00565b9450506080880135925060a08801359150620010a68960c08a0162000f82565b905092959891949750929550565b600060208284031215620010c6578081fd5b5035919050565b600060208284031215620010df578081fd5b5051919050565b60008060408385031215620010f9578182fd5b8235915060208301356001600160a01b038116811462001117578182fd5b809150509250929050565b6001600160a01b03169052565b60008151808452815b81811015620011565760208185018101518683018201520162001138565b81811115620011685782602083870101525b50601f01601f19169290920160200192915050565b60ff169052565b918252602082015260400190565b6001600160a01b0391909116815260200190565b6001600160a01b038a811682528916602082015261012060408201819052600090620011d58382018b6200112f565b8381036060850152620011e9818b6200112f565b91505082810360808401526200120081896200112f565b83810360a08501526200121481896200112f565b60c085019790975250505060e081019290925260ff16610100909101529695505050505050565b600060018060a01b03851682528360208301526060604083015262000d4660608301846200112f565b60208082528251828201819052600091906040908185019080840286018301878501865b838110156200137357603f198984030185528151610120620012ac85835162001122565b88820151620012be8a87018262001122565b50878201518189870152620012d6828701826200112f565b6060925082840151915086810383880152620012f381836200112f565b92505050608080830151868303828801526200131083826200112f565b91505060a0915081830151868203838801526200132e82826200112f565b9250505060c080830151818701525060e0808301518187015250610100808301516200135d828801826200117d565b5050958801959350509086019060010162001288565b509098975050505050505050565b90815260200190565b93845260208401929092526001600160a01b03166040830152606082015260800190565b60208082526025908201527f4d61782062617463682073697a65206d7573742062652030203c3d206e756d5460408201526430b9b5b99760d91b606082015260800190565b6020808252601b908201527f536166654d6174683a206164646974696f6e206f766572666c6f770000000000604082015260600190565b6020808252601a908201527f52657669657720706374206d7573742062652030203e20313030000000000000604082015260600190565b60208082526030908201527f546f74616c206e756d626572206f66207461736b73206d75737420626520302060408201526f1e1e9036b0bc2130ba31b429b4bd329760811b606082015260800190565b6020808252600f908201526e4e6f7420656e6f756768204c494e4b60881b604082015260600190565b6020808252602d908201527f42617463682073697a652063616e6e6f7420626520677265617465722074686160408201526c3710121037b3103a30b9b5b99760991b606082015260800190565b6020808252601f908201527f4f6e6c7920565246436f6f7264696e61746f722063616e2066756c66696c6c0060408201526060019056fe60806040526001600555604051620037d2380380620037d28339810160408190526200002b916200060d565b6000620000406001600160e01b03620001ed16565b600080546001600160a01b0319166001600160a01b0383169081178255604051929350917f8be0079c531659141344cd1fd0a4f28419497f9722a3daafe3b4186f6b6457e0908290a3506200009d6001600160e01b03620001f216565b60078054732f90a6d021db21e1b2a077c5a37b3c7e75d15b7e6001600160a01b0319918216179091557f323966613961613133626631343638373838623763633461353030613435623860085567016345785d8a0000600955600a805482166001600160a01b038c811691909117909155600b8054909216908a1617905586516200013090600c9060208a0190620004a2565b5085516200014690600d906020890190620004a2565b5084516200015c90600e906020880190620004a2565b5083516200017290600f906020870190620004a2565b50601083905560118290556017805460ff191660ff831617905562000198828462000290565b601281905550620001d1601154620001c06010546012546200030160201b62001aec1760201c565b6200035160201b620016fd1760201c565b601355505034601481905560155550620007f195505050505050565b335b90565b6200028e73c89bd4e1632d3a43cb03aaad5262cbe4038bc5716001600160a01b03166338cc48316040518163ffffffff1660e01b815260040160206040518083038186803b1580156200024457600080fd5b505afa15801562000259573d6000803e3d6000fd5b505050506040513d601f19601f820116820180604052508101906200027f9190620005ef565b6001600160e01b036200039b16565b565b6000620002a983836200035160201b620016fd1760201c565b620002cd57620002c58383620003bd60201b620017461760201c565b9050620002fb565b620002c56001620002ea8585620003bd60201b620017461760201c565b6200040760201b620017881760201c565b92915050565b6000826200031257506000620002fb565b828202828482816200032057fe5b04146200034a5760405162461bcd60e51b815260040162000341906200077d565b60405180910390fd5b9392505050565b60006200034a83836040518060400160405280601881526020017f536166654d6174683a206d6f64756c6f206279207a65726f00000000000000008152506200042f60201b60201c565b600380546001600160a01b0319166001600160a01b0392909216919091179055565b60006200034a83836040518060400160405280601a81526020017f536166654d6174683a206469766973696f6e206279207a65726f0000000000008152506200046760201b60201c565b6000828201838110156200034a5760405162461bcd60e51b8152600401620003419062000746565b60008183620004535760405162461bcd60e51b815260040162000341919062000711565b508284816200045e57fe5b06949350505050565b600081836200048b5760405162461bcd60e51b815260040162000341919062000711565b5060008385816200049857fe5b0495945050505050565b828054600181600116156101000203166002900490600052602060002090601f016020900481019282601f10620004e557805160ff191683800117855562000515565b8280016001018555821562000515579182015b8281111562000515578251825591602001919060010190620004f8565b506200052392915062000527565b5090565b620001ef91905b808211156200052357600081556001016200052e565b80516001600160a01b0381168114620002fb57600080fd5b600082601f8301126200056d578081fd5b81516001600160401b038082111562000584578283fd5b604051601f8301601f191681016020018281118282101715620005a5578485fd5b604052828152925082848301602001861015620005c157600080fd5b620005d4836020830160208801620007be565b50505092915050565b805160ff81168114620002fb57600080fd5b60006020828403121562000601578081fd5b6200034a838362000544565b60008060008060008060008060006101208a8c0312156200062c578485fd5b620006388b8b62000544565b9850620006498b60208c0162000544565b60408b01519098506001600160401b038082111562000666578687fd5b620006748d838e016200055c565b985060608c01519150808211156200068a578687fd5b620006988d838e016200055c565b975060808c0151915080821115620006ae578687fd5b620006bc8d838e016200055c565b965060a08c0151915080821115620006d2578586fd5b50620006e18c828d016200055c565b94505060c08a0151925060e08a01519150620007028b6101008c01620005dd565b90509295985092959850929598565b600060208252825180602084015262000732816040850160208701620007be565b601f01601f19169190910160400192915050565b6020808252601b908201527f536166654d6174683a206164646974696f6e206f766572666c6f770000000000604082015260600190565b60208082526021908201527f536166654d6174683a206d756c7469706c69636174696f6e206f766572666c6f6040820152607760f81b606082015260800190565b60005b83811015620007db578181015183820152602001620007c1565b83811115620007eb576000848401525b50505050565b612fd180620008016000396000f3fe608060405234801561001057600080fd5b50600436106102115760003560e01c80638da5cb5b11610125578063ba264542116100ad578063d2bf5dc61161007c578063d2bf5dc614610414578063e490ca4f1461041c578063f2fde38b1461042f578063f4daaba114610442578063f61e45b71461044a57610211565b8063ba264542146103e9578063bda09cd4146103fc578063c45a015514610404578063c86026ce1461040c57610211565b8063a2885fba116100f4578063a2885fba146103a9578063ae200e79146103b1578063ae96cf8a146103b9578063b6d80271146103d9578063b8d80f9a146103e157610211565b80638da5cb5b1461034d57806392092f1d146103625780639bd14717146103755780639ec4d0c71461038857610211565b806337441996116101a857806355cdd9e11161017757806355cdd9e114610300578063715018a6146103205780638080be77146103285780638a527ade1461033d5780638bceb34d1461034557610211565b806337441996146102bd5780633935d9b2146102d057806342576492146102e55780634f446347146102ed57610211565b80630bab9f48116101e45780630bab9f48146102645780630e877987146102775780631984f8ec1461028a57806336242fec1461029d57610211565b8063028ba98314610216578063042fb2741461022b5780630560610a1461024957806308a6a07214610251575b600080fd5b61022961022436600461244c565b610452565b005b6102336105c6565b6040516102409190612782565b60405180910390f35b6102336105cc565b61023361025f3660046123b5565b6105d2565b6102336102723660046123d6565b61060d565b61022961028536600461244c565b6106f7565b610229610298366004612464565b610849565b6102b06102ab366004612334565b610be7565b6040516102409190612e6e565b6102296102cb366004612370565b610dd8565b6102d8610e78565b6040516102409190612f69565b6102b0610e81565b6102296102fb3660046124e3565b610e98565b610308610f3d565b6040516102409c9b9a99989796959493929190612647565b610229610f59565b610330610fd8565b60405161024091906127ba565b610233611066565b61023361106c565b610355611072565b6040516102409190612633565b610233610370366004612409565b611081565b61022961038336600461250e565b611126565b61039b610396366004612334565b6113c0565b604051610240929190612603565b610233611403565b610355611409565b6103cc6103c7366004612334565b611418565b6040516102409190612777565b610330611496565b6103306114f1565b61039b6103f736600461244c565b61154c565b610233611583565b610355611589565b610233611598565b6103306115c7565b61023361042a3660046123b5565b611622565b61022961043d366004612334565b61162c565b6102336116e2565b6102336116e8565b600b546001600160a01b031633146104855760405162461bcd60e51b815260040161047c90612931565b60405180910390fd5b6104af601c828154811061049557fe5b6000918252602090912001546001600160a01b0316611418565b6104cb5760405162461bcd60e51b815260040161047c90612ca8565b336001600160a01b0316601c82815481106104e257fe5b6000918252602090912001546001600160a01b0316146105145760405162461bcd60e51b815260040161047c90612c71565b601b6000601c838154811061052557fe5b60009182526020808320909101546001600160a01b0316835282019290925260400190205460ff6101009091041615156001146105745760405162461bcd60e51b815260040161047c90612c2d565b6001601b6000601c848154811061058757fe5b60009182526020808320909101546001600160a01b0316835282019290925260400190208054911515620100000262ff00001990921691909117905550565b60135481565b60155481565b60006105de83836116fd565b6105f3576105ec8383611746565b9050610607565b6105ec60016106028585611746565b611788565b92915050565b6000610617612088565b60085461062c9030631ba20ccb60e11b6117ad565b905061067c6040518060400160405280600381526020016219d95d60ea1b8152508460405160200161065e9190612bb1565b60408051601f1981840301815291905283919063ffffffff6117d816565b6106d3604051806040016040528060048152602001630e0c2e8d60e31b8152506040518060400160405280600e81526020016d09ec4d4cac6e8e65c605c90c2e6d60931b815250836117d89092919063ffffffff16565b6007546009546106ee916001600160a01b0316908390611807565b9150505b919050565b600b546001600160a01b031633146107215760405162461bcd60e51b815260040161047c90612931565b610731601c828154811061049557fe5b61074d5760405162461bcd60e51b815260040161047c90612ca8565b601b6000601c838154811061075e57fe5b60009182526020808320909101546001600160a01b0316835282019290925260400190205460ff6101009091041615156001146107ad5760405162461bcd60e51b815260040161047c90612c2d565b6001601b6000601c84815481106107c057fe5b60009182526020808320909101546001600160a01b031683528201929092526040018120805492151563010000000263ff0000001990931692909217909155601c8054601b9183918590811061081257fe5b6000918252602080832091909101546001600160a01b031683528201929092526040019020805460ff191691151591909117905550565b610859601c878154811061049557fe5b6108755760405162461bcd60e51b815260040161047c90612ca8565b336001600160a01b0316601c878154811061088c57fe5b6000918252602090912001546001600160a01b0316146108be5760405162461bcd60e51b815260040161047c90612c71565b601b6000601c88815481106108cf57fe5b60009182526020808320909101546001600160a01b0316835282019290925260400190205460ff61010090910416151560011461091e5760405162461bcd60e51b815260040161047c90612c2d565b60008061092a336113c0565b909250905060608667ffffffffffffffff8111801561094857600080fd5b50604051908082528060200260200182016040528015610972578160200160208202803683370190505b5090506000835b838111610b2257600c805460408051602060026001851615610100026000190190941693909304601f8101849004840282018401909252818152600093610a1a9391929091830182828015610a0f5780601f106109e457610100808354040283529160200191610a0f565b820191906000526020600020905b8154815290600101906020018083116109f257829003601f168201915b505050505083611081565b6000818152601a602090815260409182902080548351601f600260001961010060018616150201909316929092049182018490048402810184019094528084529394506060939091830182828015610ab35780601f10610a8857610100808354040283529160200191610ab3565b820191906000526020600020905b815481529060010190602001808311610a9657829003601f168201915b50505050509050600083828e8e88818110610aca57fe5b90506020020135604051602001610ae393929190612f40565b60405160208183030381529060405280519060200120905080868681518110610b0857fe5b602090810291909101015250505060019182019101610979565b5060005b8251811015610bb557610b918888808060200260200160405190810160405280939291908181526020018383602002808284376000920182905250338152601b602052604090206001015488519093508892508691508110610b8457fe5b6020026020010151611946565b610bad5760405162461bcd60e51b815260040161047c90612b42565b600101610b26565b50336000908152601b6020526040902060028101869055610bda906006018a8a6120bd565b5050505050505050505050565b610bef612108565b610bf882611418565b610c145760405162461bcd60e51b815260040161047c90612a52565b6001600160a01b0382166000908152601b6020908152604091829020825161014081018452815460ff808216151583526101008204811615158386015262010000820481161515838701526301000000909104161515606082015260018201546080820152600282015460a08201526003820180548551818602810186019096528086529194929360c08601939290830182828015610cd257602002820191906000526020600020905b815481526020019060010190808311610cbe575b5050509183525050600482015460208083019190915260058301805460408051601f60026000196101006001871615020190941693909304928301859004850281018501825282815294019392830182828015610d705780601f10610d4557610100808354040283529160200191610d70565b820191906000526020600020905b815481529060010190602001808311610d5357829003601f168201915b5050505050815260200160068201805480602002602001604051908101604052809291908181526020018280548015610dc857602002820191906000526020600020905b815481526020019060010190808311610db4575b5050505050815250509050919050565b60008281526006602052604090205482906001600160a01b03163314610e105760405162461bcd60e51b815260040161047c90612cdf565b60008181526006602052604080822080546001600160a01b03191690555182917f7cc135e0cebb02c3480ae5d74d377283180a2601f8f644edf7987b009316c63a91a26000838152601a602090815260409091208351610e729285019061215e565b50505050565b60175460ff1681565b610e89612108565b610e9233610be7565b90505b90565b610ea133611418565b610ebd5760405162461bcd60e51b815260040161047c90612d27565b336001600160a01b0316601c8481548110610ed457fe5b6000918252602090912001546001600160a01b031614610f065760405162461bcd60e51b815260040161047c90612c71565b336000908152601b60205260409020805461ff001916905560405162461bcd60e51b815260040161047c906128de565b5050505050565b6000606080808084808080808080909192939495969798999a9b565b610f61611a59565b6000546001600160a01b03908116911614610f8e5760405162461bcd60e51b815260040161047c90612bf8565b600080546040516001600160a01b03909116907f8be0079c531659141344cd1fd0a4f28419497f9722a3daafe3b4186f6b6457e0908390a3600080546001600160a01b0319169055565b600d805460408051602060026001851615610100026000190190941693909304601f8101849004840282018401909252818152929183018282801561105e5780601f106110335761010080835404028352916020019161105e565b820191906000526020600020905b81548152906001019060200180831161104157829003601f168201915b505050505081565b60125481565b60145490565b6000546001600160a01b031690565b600061108b612088565b6008546110a09030631ba20ccb60e11b6117ad565b90506110d26040518060400160405280600381526020016219d95d60ea1b8152508560405160200161065e9190612bb1565b611103604051806040016040528060048152602001630e0c2e8d60e31b8152508460405160200161065e9190612dd0565b60075460095461111e916001600160a01b0316908390611807565b949350505050565b611136601c848154811061049557fe5b6111525760405162461bcd60e51b815260040161047c90612ca8565b336001600160a01b0316601c848154811061116957fe5b6000918252602090912001546001600160a01b03161461119b5760405162461bcd60e51b815260040161047c90612c71565b601b6000601c85815481106111ac57fe5b60009182526020808320909101546001600160a01b0316835282019290925260400190205460ff6101009091041615156001146111fb5760405162461bcd60e51b815260040161047c90612c2d565b601b6000601c858154811061120c57fe5b60009182526020808320909101546001600160a01b0316835282019290925260400190205460ff6201000090910416151560011461125c5760405162461bcd60e51b815260040161047c9061289b565b601b6000601c858154811061126d57fe5b60009182526020808320909101546001600160a01b03168352828101939093526040918201902060020154905190916112aa91859185910161278b565b60405160208183030381529060405280519060200120146112dd5760405162461bcd60e51b815260040161047c90612ada565b600061131e83838080601f01602080910402602001604051908101604052809392919081815260200183838082843760009201919091525061060d92505050565b9050828260405160200161133392919061278b565b60408051601f1981840301815282825280516020918201206000858152601a83529290922091926113659291016127cd565b60405160208183030381529060405280519060200120146113985760405162461bcd60e51b815260040161047c90612d73565b336000908152601b602052604090206113b59060050184846121cc565b50610e723385611a5d565b6000806113cc33611418565b6113d557600080fd5b6001600160a01b0383166000908152601b60205260409020600401546113fa9061154c565b91509150915091565b60145481565b600b546001600160a01b031681565b601c5460009061142a575060006106f2565b6001600160a01b0382166000818152601b6020526040902060040154601c8054909190811061145557fe5b6000918252602090912001546001600160a01b03161480156106075750506001600160a01b03166000908152601b602052604090205460ff16151560011490565b600c805460408051602060026001851615610100026000190190941693909304601f8101849004840282018401909252818152929183018282801561105e5780601f106110335761010080835404028352916020019161105e565b600e805460408051602060026001851615610100026000190190941693909304601f8101849004840282018401909252818152929183018282801561105e5780601f106110335761010080835404028352916020019161105e565b600080600061155d84601054611aec565b9050600061157761157083601054611788565b6001611b26565b91935090915050915091565b60115481565b600a546001600160a01b031681565b601254601c54600091116115be5760405162461bcd60e51b815260040161047c90612e1f565b610e9233611b68565b600f805460408051602060026001851615610100026000190190941693909304601f8101849004840282018401909252818152929183018282801561105e5780601f106110335761010080835404028352916020019161105e565b6018819055919050565b611634611a59565b6000546001600160a01b039081169116146116615760405162461bcd60e51b815260040161047c90612bf8565b6001600160a01b0381166116875760405162461bcd60e51b815260040161047c906129d5565b600080546040516001600160a01b03808516939216917f8be0079c531659141344cd1fd0a4f28419497f9722a3daafe3b4186f6b6457e091a3600080546001600160a01b0319166001600160a01b0392909216919091179055565b60105481565b6000601154601454816116f757fe5b04905090565b600061173f83836040518060400160405280601881526020017f536166654d6174683a206d6f64756c6f206279207a65726f0000000000000000815250611c09565b9392505050565b600061173f83836040518060400160405280601a81526020017f536166654d6174683a206469766973696f6e206279207a65726f000000000000815250611c3d565b60008282018381101561173f5760405162461bcd60e51b815260040161047c90612a1b565b6117b5612088565b6117bd612088565b6117cf8186868663ffffffff611c7416565b95945050505050565b60808301516117ed908363ffffffff611cb116565b6080830151611802908263ffffffff611cb116565b505050565b60003060055460405160200161181e929190612611565b60408051808303601f19018152918152815160209283012060055460608701526000818152600690935281832080546001600160a01b0319166001600160a01b038916179055905190925082917fb5e6e01e79f91267dc17b4e6314d5d4d03593d2ceee0fbb452b750bd70ea5af991a26003546001600160a01b0316634000aea085846118aa87611cce565b6040518463ffffffff1660e01b81526004016118c893929190612750565b602060405180830381600087803b1580156118e257600080fd5b505af11580156118f6573d6000803e3d6000fd5b505050506040513d601f19601f8201168201806040525081019061191a9190612350565b6119365760405162461bcd60e51b815260040161047c90612a97565b6005805460010190559392505050565b600081815b85518110156119d857600086828151811061196257fe5b602002602001015190508083116119a3578281604051602001611986929190612603565b6040516020818303038152906040528051906020012092506119cf565b80836040516020016119b6929190612603565b6040516020818303038152906040528051906020012092505b5060010161194b565b509092149392505050565b82811015611a5057611a316119f88786611aec565b610602601854601654604051602001611a12929190612603565b6040516020818303038152906040528051906020012060001c876116fd565b828281518110611a3d57fe5b60209081029190910101526001016119e3565b50949350505050565b3390565b6000611a6c6012546001611b26565b821415611a7c5750601354611a81565b506010545b6000611a94611a8e6116e8565b83611aec565b905080471015611ab65760405162461bcd60e51b815260040161047c90612857565b6040516001600160a01b0385169082156108fc029083906000818181858888f19350505050158015610f36573d6000803e3d6000fd5b600082611afb57506000610607565b82820282848281611b0857fe5b041461173f5760405162461bcd60e51b815260040161047c90612b70565b600061173f83836040518060400160405280601e81526020017f536166654d6174683a207375627472616374696f6e206f766572666c6f770000815250611d4a565b6000611b7382611418565b15611b905760405162461bcd60e51b815260040161047c90612983565b50601c8054600180820183557f0e4562a10381dec21b205ed72637e6b1b523bdd0e4d4d50af5cd23dd4500a21190910180546001600160a01b0319166001600160a01b0394909416938417905581546000938452601b60205260409093206000199384016004820155805460ff19169091179055540190565b60008183611c2a5760405162461bcd60e51b815260040161047c91906127ba565b50828481611c3457fe5b06949350505050565b60008183611c5e5760405162461bcd60e51b815260040161047c91906127ba565b506000838581611c6a57fe5b0495945050505050565b611c7c612088565b611c8c8560800151610100611d76565b50509183526001600160a01b031660208301526001600160e01b031916604082015290565b611cbe8260038351611db0565b611802828263ffffffff611eba16565b6060634042994660e01b60008084600001518560200151866040015187606001516001896080015160000151604051602401611d119897969594939291906126e8565b60408051601f198184030181529190526020810180516001600160e01b03166001600160e01b0319909316929092179091529050919050565b60008184841115611d6e5760405162461bcd60e51b815260040161047c91906127ba565b505050900390565b611d7e612239565b6020820615611d935760208206602003820191505b506020828101829052604080518085526000815290920101905290565b60178111611dd757611dd18360e0600585901b16831763ffffffff611ed416565b50611802565b60ff8111611e0d57611dfa836018611fe0600586901b161763ffffffff611ed416565b50611dd18382600163ffffffff611eec16565b61ffff8111611e4457611e31836019611fe0600586901b161763ffffffff611ed416565b50611dd18382600263ffffffff611eec16565b63ffffffff8111611e7d57611e6a83601a611fe0600586901b161763ffffffff611ed416565b50611dd18382600463ffffffff611eec16565b67ffffffffffffffff811161180257611ea783601b611fe0600586901b161763ffffffff611ed416565b50610e728382600863ffffffff611eec16565b611ec2612239565b61173f83846000015151848551611f05565b611edc612239565b61173f8384600001515184611fb1565b611ef4612239565b61111e848560000151518585611ffc565b611f0d612239565b8251821115611f1b57600080fd5b84602001518285011115611f4557611f4585611f3d876020015187860161205a565b600202612071565b600080865180518760208301019350808887011115611f645787860182525b505050602084015b60208410611f8b5780518252601f199093019260209182019101611f6c565b51815160001960208690036101000a019081169019919091161790525083949350505050565b611fb9612239565b83602001518310611fd557611fd5848560200151600202612071565b835180516020858301018481535080851415611ff2576001810182525b5093949350505050565b612004612239565b846020015184830111156120215761202185858401600202612071565b60006001836101000a03905085518386820101858319825116178152508051848701111561204f5783860181525b509495945050505050565b60008183111561206b575081610607565b50919050565b815161207d8383611d76565b50610e728382611eba565b6040805160a0810182526000808252602082018190529181018290526060810191909152608081016120b8612239565b905290565b8280548282559060005260206000209081019282156120f8579160200282015b828111156120f85782358255916020019190600101906120dd565b50612104929150612253565b5090565b604080516101408101825260008082526020820181905291810182905260608082018390526080820183905260a0820183905260c0820181905260e0820192909252610100810182905261012081019190915290565b828054600181600116156101000203166002900490600052602060002090601f016020900481019282601f1061219f57805160ff19168380011785556120f8565b828001600101855582156120f8579182015b828111156120f85782518255916020019190600101906121b1565b828054600181600116156101000203166002900490600052602060002090601f016020900481019282601f1061220d5782800160ff198235161785556120f8565b828001600101855582156120f857918201828111156120f85782358255916020019190600101906120dd565b604051806040016040528060608152602001600081525090565b610e9591905b808211156121045760008155600101612259565b60008083601f84011261227e578182fd5b50813567ffffffffffffffff811115612295578182fd5b60208301915083602080830285010111156122af57600080fd5b9250929050565b600082601f8301126122c6578081fd5b813567ffffffffffffffff808211156122dd578283fd5b604051601f8301601f1916810160200182811182821017156122fd578485fd5b60405282815292508284830160200186101561231857600080fd5b8260208601602083013760006020848301015250505092915050565b600060208284031215612345578081fd5b813561173f81612f83565b600060208284031215612361578081fd5b8151801515811461173f578182fd5b60008060408385031215612382578081fd5b82359150602083013567ffffffffffffffff81111561239f578182fd5b6123ab858286016122b6565b9150509250929050565b600080604083850312156123c7578182fd5b50508035926020909101359150565b6000602082840312156123e7578081fd5b813567ffffffffffffffff8111156123fd578182fd5b61111e848285016122b6565b6000806040838503121561241b578182fd5b823567ffffffffffffffff811115612431578283fd5b61243d858286016122b6565b95602094909401359450505050565b60006020828403121561245d578081fd5b5035919050565b6000806000806000806080878903121561247c578182fd5b86359550602087013567ffffffffffffffff8082111561249a578384fd5b6124a68a838b0161226d565b909750955060408901359150808211156124be578384fd5b506124cb89828a0161226d565b979a9699509497949695606090950135949350505050565b6000806000606084860312156124f7578283fd5b505081359360208301359350604090920135919050565b600080600060408486031215612522578283fd5b83359250602084013567ffffffffffffffff80821115612540578384fd5b81860187601f820112612551578485fd5b8035925081831115612561578485fd5b876020848301011115612572578485fd5b949760209095019650909450505050565b6000815180845260208085019450808401835b8381101561204f57815187529582019590820190600101612596565b15159052565b60008151808452815b818110156125dd576020818501810151868301820152016125c1565b818111156125ee5782602083870101525b50601f01601f19169290920160200192915050565b918252602082015260400190565b60609290921b6bffffffffffffffffffffffff19168252601482015260340190565b6001600160a01b0391909116815260200190565b6001600160a01b038d1681526101806020820181905260009061266c8382018f6125b8565b838103604085015261267e818f6125b8565b9150508281036060840152612693818d6125b8565b83810360808501526126a5818d6125b8565b60a085019b909b5250505060c081019690965260e086019490945261010085019290925261012084015261014083015260ff166101609091015295945050505050565b6001600160a01b0389811682526020820189905260408201889052861660608201526001600160e01b03198516608082015260a0810184905260c0810183905261010060e08201819052600090612741838201856125b8565b9b9a5050505050505050505050565b600060018060a01b0385168252836020830152606060408301526117cf60608301846125b8565b901515815260200190565b90815260200190565b60006020825282602083015282846040840137818301604090810191909152601f909201601f19160101919050565b60006020825261173f60208301846125b8565b600060208083018184528285546001808216600081146127f457600181146128125761284a565b60028304607f16855260ff198316604089015260608801935061284a565b600283048086526128228a612f77565b885b828110156128405781548b820160400152908401908801612824565b8a01604001955050505b5091979650505050505050565b60208082526024908201527f436f6e747261637420646f6573206e6f74206861766520656e6f7567682066756040820152633732399760e11b606082015260800190565b60208082526023908201527f426174636820686173206e6f742068616420616e73776572732061636365707460408201526232b21760e91b606082015260800190565b60208082526033908201527f416e7377657273206861766520616c7265616479206265656e207375626d69746040820152723a32b2103337b9103a3434b9903130ba31b41760691b606082015260800190565b60208082526032908201527f4f6e6c7920746865206f776e6572206f662074686973206a6f622063616e206360408201527130b636103a3434b990333ab731ba34b7b71760711b606082015260800190565b60208082526032908201527f596f7572206164647265737320697320616c7265616479206c696e6b65642074604082015271379030b71030b1ba34bb32903130ba31b41760711b606082015260800190565b60208082526026908201527f4f776e61626c653a206e6577206f776e657220697320746865207a65726f206160408201526564647265737360d01b606082015260800190565b6020808252601b908201527f536166654d6174683a206164646974696f6e206f766572666c6f770000000000604082015260600190565b60208082526025908201527f4120626174636820646f6573206e6f7420657869737420666f722074686973206040820152643ab9b2b91760d91b606082015260800190565b60208082526023908201527f756e61626c6520746f207472616e73666572416e6443616c6c20746f206f7261604082015262636c6560e81b606082015260800190565b60208082526042908201527f42617463682066696e616c697a656420616e73776572206861736820646f657360408201527f206e6f74206d6174636820636f6d6d697474656420616e737765727320686173606082015261341760f11b608082015260a00190565b60208082526014908201527326b2b935b63290383937b7b3103330b4b632b21760611b604082015260600190565b60208082526021908201527f536166654d6174683a206d756c7469706c69636174696f6e206f766572666c6f6040820152607760f81b606082015260800190565b600060408252601d60408301527f687474703a2f2f697066732e696f2f6170692f76302f6c733f6172673d00000060608301526080602083015261173f60808301846125b8565b6020808252818101527f4f776e61626c653a2063616c6c6572206973206e6f7420746865206f776e6572604082015260600190565b60208082526024908201527f426174636820686173206e6f742068616420616e7377657273207375626d69746040820152633a32b21760e11b606082015260800190565b6020808252601f908201527f426174636820646f6573206e6f742062656c6f6e6720746f2073656e64657200604082015260600190565b6020808252601a908201527f426174636820696e64657820646f6573206e6f74206578697374000000000000604082015260600190565b60208082526028908201527f536f75726365206d75737420626520746865206f7261636c65206f6620746865604082015267081c995c5d595cdd60c21b606082015260800190565b6020808252602c908201527f54686973206163636f756e7420646f6573206e6f74206861766520612062617460408201526b31b4103932b9b2b93b32b21760a11b606082015260800190565b6020808252603c908201527f48617368206f66207375626d69747465642063696420646f6573206e6f74206d60408201527f6174636820636f6d6d697474656420616e737765727320686173682e00000000606082015260800190565b60608082526010908201526f27b13532b1ba399718172634b735b99760811b6080820152602081019190915260a0604082018190526005908201526405c90c2e6d60db1b60c082015260e00190565b6020808252602f908201527f416c6c20746865206261746368657320666f722074686973204a6f622068617660408201526e32903132b2b71031b630b4b6b2b21760891b606082015260800190565b600060208252612e826020830184516125b2565b6020830151612e9460408401826125b2565b506040830151612ea760608401826125b2565b506060830151612eba60808401826125b2565b50608083015160a083015260a083015160c083015260c08301516101408060e0850152612eeb610160850183612583565b60e08601519250610100838187015280870151935050601f19610120818784030181880152612f1a83866125b8565b818901519550828882030185890152612f338187612583565b9998505050505050505050565b600084825260606020830152612f5960608301856125b8565b9050826040830152949350505050565b60ff91909116815260200190565b60009081526020902090565b6001600160a01b0381168114612f9857600080fd5b5056fea2646970667358221220da65c0078d46e8c06e7a1f3dc7b8e8cb54907dbb51b070f64654dabf2b826bf064736f6c63430006060033a264697066735822122066a67346c456c1aff15138920613ba5fc2136b2586f61b2072545093dcb34ebd64736f6c63430006060033",
  "immutableReferences": {
    "2677": [
      {
        "length": 32,
        "start": 2647
      },
      {
        "length": 32,
        "start": 3066
      }
    ],
    "2679": [
      {
        "length": 32,
        "start": 2560
      },
      {
        "length": 32,
        "start": 3113
      }
    ]
  },
  "source": "// SPDX-License-Identifier: MIT\r\npragma experimental ABIEncoderV2;\r\npragma solidity >=0.4.22 <0.9.0;\r\n\r\nimport \"./Job.sol\";\r\nimport {job_interface} from \"./interfaces/job_interface.sol\";\r\nimport \"../node_modules/@chainlink/contracts/src/v0.6/VRFConsumerBase.sol\";\r\n\r\n\r\ncontract JobFactory is VRFConsumerBase {\r\n    bytes32 internal keyHash;\r\n    uint256 internal fee;\r\n\r\n    struct JobData {\r\n        address job;\r\n        address employer;\r\n        string topLevelCid;\r\n        string jobType;\r\n        string jobName;\r\n        string jobDesc;\r\n        uint256 maxBatchSize;\r\n        uint256 numTasks;\r\n        uint8 reviewPct;\r\n    }\r\n\r\n    /**\r\n     * Constructor inherits VRFConsumerBase\r\n     * \r\n     * Network: Kovan\r\n     * Chainlink VRF Coordinator address: 0xdD3782915140c8f3b190B5D67eAc6dc5760C46E9\r\n     * LINK token address:                0xa36085F69e2889c224210F603D836748e7dC0088\r\n     * Key Hash: 0x6c3699283bda56ad74f6b855546325b68d482e983852a7a82979cc4807b641f4\r\n     */\r\n    constructor() \r\n        VRFConsumerBase(\r\n            0xdD3782915140c8f3b190B5D67eAc6dc5760C46E9, // VRF Coordinator\r\n            0xa36085F69e2889c224210F603D836748e7dC0088  // LINK Token\r\n        ) public\r\n    {\r\n        keyHash = 0x6c3699283bda56ad74f6b855546325b68d482e983852a7a82979cc4807b641f4;\r\n        fee = 0.1 * 10 ** 18; // 0.1 LINK (varies by network)\r\n    }\r\n\r\n    JobData[] public jobsData;\r\n\r\n    mapping(bytes32 => address) jobVRFRequests;\r\n\r\n    function createAndEndow(\r\n        string memory _topLevelCid,\r\n        string memory _jobType,\r\n        string memory _jobName,\r\n        string memory _jobDesc,\r\n        uint256 _maxBatchSize,\r\n        uint256 _numTasks,\r\n        uint8 _reviewPct\r\n    ) public payable returns (Job) {\r\n        require(\r\n            _reviewPct <= 100 && _reviewPct > 0,\r\n            \"Review pct must be 0 > 100\"\r\n        );\r\n        require(\r\n            _maxBatchSize <= _numTasks,\r\n            \"Batch size cannot be greater than $ of tasks.\"\r\n        );\r\n\r\n        require(bytes(_topLevelCid).length > 0);\r\n        require(bytes(_jobType).length > 0);\r\n        require(bytes(_jobName).length > 0);\r\n        require(bytes(_jobDesc).length > 0);\r\n        require(\r\n            _maxBatchSize > 0 && _maxBatchSize <= _numTasks,\r\n            \"Max batch size must be 0 <= numTasks.\"\r\n        );\r\n        require(\r\n            _numTasks > 0 && _numTasks >= _maxBatchSize,\r\n            \"Total number of tasks must be 0 <= maxBatchSize.\"\r\n        );\r\n\r\n        Job job =\r\n            (new Job){value: msg.value}(\r\n                address(this),\r\n                msg.sender,\r\n                _topLevelCid,\r\n                _jobType,\r\n                _jobName,\r\n                _jobDesc,\r\n                _maxBatchSize,\r\n                _numTasks,\r\n                _reviewPct\r\n            );\r\n\r\n        JobData memory jobData = JobData(address(job), msg.sender, _topLevelCid, _jobType, _jobName, _jobDesc, _maxBatchSize, _numTasks, _reviewPct);\r\n\r\n        jobsData.push(jobData);\r\n\r\n        return job;\r\n    }\r\n\r\n    function viewJobsData() external view returns (JobData[] memory) {\r\n        return jobsData;\r\n    }\r\n\r\n        /** \r\n     * Requests randomness from a user-provided seed\r\n     */\r\n    function getRandomNumber(uint256 userProvidedSeed, address _job) public returns (bytes32 requestId) {\r\n        require(LINK.balanceOf(address(this)) >= fee, \"Not enough LINK\");\r\n        bytes32 _requestId = requestRandomness(keyHash, fee, userProvidedSeed);\r\n        jobVRFRequests[_requestId] = _job;\r\n        return _requestId;\r\n    }\r\n\r\n    /**\r\n     * Callback function used by VRF Coordinator\r\n     */\r\n    function fulfillRandomness(bytes32 requestId, uint256 randomness) internal override {\r\n        require(msg.sender == 0xdD3782915140c8f3b190B5D67eAc6dc5760C46E9);\r\n        factory_interface(jobVRFRequests[requestId]).fulfill_random(requestId, randomness);\r\n    }\r\n}\r\n",
  "sourcePath": "E:/cryptodev/sozu/contracts/JobFactory.sol",
  "compiler": {
    "name": "solc",
    "version": "0.6.6+commit.6c089d02.Emscripten.clang"
  },
  "schemaVersion": "3.3.4",
  "updatedAt": "2021-04-10T03:33:04.602Z",
  "networkType": "ethereum",
  "devdoc": {
    "methods": {}
  },
  "userdoc": {
    "methods": {
      "constructor": "Constructor inherits VRFConsumerBase \r Network: Kovan Chainlink VRF Coordinator address: 0xdD3782915140c8f3b190B5D67eAc6dc5760C46E9 LINK token address:                0xa36085F69e2889c224210F603D836748e7dC0088 Key Hash: 0x6c3699283bda56ad74f6b855546325b68d482e983852a7a82979cc4807b641f4",
      "getRandomNumber(uint256,address)": {
        "notice": "Requests randomness from a user-provided seed"
      }
    }
  }
}