{
  "contractName": "JobFactory",
  "abi": [
    {
      "inputs": [
        {
          "internalType": "uint256",
          "name": "",
          "type": "uint256"
        }
      ],
      "name": "jobs",
      "outputs": [
        {
          "internalType": "contract Job",
          "name": "",
          "type": "address"
        }
      ],
      "stateMutability": "view",
      "type": "function",
      "constant": true
    },
    {
      "inputs": [
        {
          "internalType": "string",
          "name": "_jobType",
          "type": "string"
        },
        {
          "internalType": "string",
          "name": "_jobName",
          "type": "string"
        },
        {
          "internalType": "string",
          "name": "_jobDesc",
          "type": "string"
        },
        {
          "internalType": "uint256",
          "name": "_maxBatchSize",
          "type": "uint256"
        },
        {
          "internalType": "uint256",
          "name": "_numTasks",
          "type": "uint256"
        },
        {
          "internalType": "uint8",
          "name": "_reviewPct",
          "type": "uint8"
        }
      ],
      "name": "createAndEndow",
      "outputs": [
        {
          "internalType": "contract Job",
          "name": "",
          "type": "address"
        }
      ],
      "stateMutability": "payable",
      "type": "function",
      "payable": true
    },
    {
      "inputs": [],
      "name": "viewJobs",
      "outputs": [
        {
          "internalType": "contract Job[]",
          "name": "",
          "type": "address[]"
        }
      ],
      "stateMutability": "view",
      "type": "function",
      "constant": true
    }
  ],
  "bytecode": "0x608060405234801561001057600080fd5b5061353f806100206000396000f3fe608060405260043610620000385760003560e01c8063180aedf3146200003d5780637264aed21462000081578063e6dcaca814620000b7575b600080fd5b3480156200004a57600080fd5b5062000069600480360381019062000063919062000492565b620000e7565b604051620000789190620006bb565b60405180910390f35b6200009f6004803603810190620000999190620003b1565b62000127565b604051620000ae9190620006bb565b60405180910390f35b348015620000c457600080fd5b50620000cf62000273565b604051620000de919062000697565b60405180910390f35b60008181548110620000f857600080fd5b906000526020600020016000915054906101000a900473ffffffffffffffffffffffffffffffffffffffff1681565b600060648260ff16111562000173576040517f08c379a00000000000000000000000000000000000000000000000000000000081526004016200016a906200075a565b60405180910390fd5b82841115620001b9576040517f08c379a0000000000000000000000000000000000000000000000000000000008152600401620001b0906200077c565b60405180910390fd5b600034888888888888604051620001d09062000303565b620001e196959493929190620006d8565b6040518091039082f0905080158015620001ff573d6000803e3d6000fd5b5090506000819080600181540180825580915050600190039060005260206000200160009091909190916101000a81548173ffffffffffffffffffffffffffffffffffffffff021916908373ffffffffffffffffffffffffffffffffffffffff160217905550809150509695505050505050565b60606000805480602002602001604051908101604052809291908181526020018280548015620002f957602002820191906000526020600020905b8160009054906101000a900473ffffffffffffffffffffffffffffffffffffffff1673ffffffffffffffffffffffffffffffffffffffff1681526020019060010190808311620002ae575b5050505050905090565b612b97806200097383390190565b6000620003286200032284620007d2565b6200079e565b9050828152602081018484840111156200034157600080fd5b6200034e848285620008b9565b509392505050565b600082601f8301126200036857600080fd5b81356200037a84826020860162000311565b91505092915050565b60008135905062000394816200093e565b92915050565b600081359050620003ab8162000958565b92915050565b60008060008060008060c08789031215620003cb57600080fd5b600087013567ffffffffffffffff811115620003e657600080fd5b620003f489828a0162000356565b965050602087013567ffffffffffffffff8111156200041257600080fd5b6200042089828a0162000356565b955050604087013567ffffffffffffffff8111156200043e57600080fd5b6200044c89828a0162000356565b94505060606200045f89828a0162000383565b93505060806200047289828a0162000383565b92505060a06200048589828a016200039a565b9150509295509295509295565b600060208284031215620004a557600080fd5b6000620004b58482850162000383565b91505092915050565b6000620004cc838362000542565b60208301905092915050565b6000620004e58262000815565b620004f1818562000838565b9350620004fe8362000805565b8060005b8381101562000535578151620005198882620004be565b975062000526836200082b565b92505060018101905062000502565b5085935050505092915050565b6200054d8162000891565b82525050565b6200055e8162000891565b82525050565b6000620005718262000820565b6200057d818562000849565b93506200058f818560208601620008c8565b6200059a816200092d565b840191505092915050565b6000620005b460338362000849565b91507f5265766965772070657263656e74616765206d757374206265206c657373207460008301527f68616e206f7220657175616c20746f20313030000000000000000000000000006020830152604082019050919050565b60006200061c60368362000849565b91507f42617463682073697a652063616e6e6f7420626520677265617465722074686160008301527f6e20746865206e756d626572206f66207461736b732e000000000000000000006020830152604082019050919050565b62000680816200087a565b82525050565b620006918162000884565b82525050565b60006020820190508181036000830152620006b38184620004d8565b905092915050565b6000602082019050620006d2600083018462000553565b92915050565b600060c0820190508181036000830152620006f4818962000564565b905081810360208301526200070a818862000564565b9050818103604083015262000720818762000564565b905062000731606083018662000675565b62000740608083018562000675565b6200074f60a083018462000686565b979650505050505050565b600060208201905081810360008301526200077581620005a5565b9050919050565b6000602082019050818103600083015262000797816200060d565b9050919050565b6000604051905081810181811067ffffffffffffffff82111715620007c857620007c7620008fe565b5b8060405250919050565b600067ffffffffffffffff821115620007f057620007ef620008fe565b5b601f19601f8301169050602081019050919050565b6000819050602082019050919050565b600081519050919050565b600081519050919050565b6000602082019050919050565b600082825260208201905092915050565b600082825260208201905092915050565b600073ffffffffffffffffffffffffffffffffffffffff82169050919050565b6000819050919050565b600060ff82169050919050565b60006200089e82620008a5565b9050919050565b6000620008b2826200085a565b9050919050565b82818337600083830152505050565b60005b83811015620008e8578082015181840152602081019050620008cb565b83811115620008f8576000848401525b50505050565b7f4e487b7100000000000000000000000000000000000000000000000000000000600052604160045260246000fd5b6000601f19601f8301169050919050565b62000949816200087a565b81146200095557600080fd5b50565b620009638162000884565b81146200096f57600080fd5b5056fe608060405260405162002b9738038062002b978339818101604052810190620000299190620003e0565b60006200003b620001b160201b60201c565b9050806000806101000a81548173ffffffffffffffffffffffffffffffffffffffff021916908373ffffffffffffffffffffffffffffffffffffffff1602179055508073ffffffffffffffffffffffffffffffffffffffff16600073ffffffffffffffffffffffffffffffffffffffff167f8be0079c531659141344cd1fd0a4f28419497f9722a3daafe3b4186f6b6457e060405160405180910390a3508560019080519060200190620000f192919062000290565b5084600290805190602001906200010a92919062000290565b5083600390805190602001906200012392919062000290565b50826004819055508160058190555080600a60006101000a81548160ff021916908360ff1602179055506200015f8284620001b960201b60201c565b60068190555062000198600554620001876004546006546200023060201b620011f31760201c565b6200024860201b620012091760201c565b60078190555034600881905550505050505050620007c9565b600033905090565b600080620001d384846200024860201b620012091760201c565b1415620001f957620001f183836200026060201b6200121f1760201c565b90506200022a565b6200022760016200021685856200026060201b6200121f1760201c565b6200027860201b620012351760201c565b90505b92915050565b60008183620002409190620005bd565b905092915050565b60008183620002589190620006a1565b905092915050565b6000818362000270919062000585565b905092915050565b6000818362000288919062000528565b905092915050565b8280546200029e906200066b565b90600052602060002090601f016020900481019282620002c257600085556200030e565b82601f10620002dd57805160ff19168380011785556200030e565b828001600101855582156200030e579182015b828111156200030d578251825591602001919060010190620002f0565b5b5090506200031d919062000321565b5090565b5b808211156200033c57600081600090555060010162000322565b5090565b6000620003576200035184620004f5565b620004c1565b9050828152602081018484840111156200037057600080fd5b6200037d84828562000635565b509392505050565b600082601f8301126200039757600080fd5b8151620003a984826020860162000340565b91505092915050565b600081519050620003c38162000795565b92915050565b600081519050620003da81620007af565b92915050565b60008060008060008060c08789031215620003fa57600080fd5b600087015167ffffffffffffffff8111156200041557600080fd5b6200042389828a0162000385565b965050602087015167ffffffffffffffff8111156200044157600080fd5b6200044f89828a0162000385565b955050604087015167ffffffffffffffff8111156200046d57600080fd5b6200047b89828a0162000385565b94505060606200048e89828a01620003b2565b9350506080620004a189828a01620003b2565b92505060a0620004b489828a01620003c9565b9150509295509295509295565b6000604051905081810181811067ffffffffffffffff82111715620004eb57620004ea62000766565b5b8060405250919050565b600067ffffffffffffffff82111562000513576200051262000766565b5b601f19601f8301169050602081019050919050565b600062000535826200061e565b915062000542836200061e565b9250827fffffffffffffffffffffffffffffffffffffffffffffffffffffffffffffffff038211156200057a5762000579620006d9565b5b828201905092915050565b600062000592826200061e565b91506200059f836200061e565b925082620005b257620005b162000708565b5b828204905092915050565b6000620005ca826200061e565b9150620005d7836200061e565b9250817fffffffffffffffffffffffffffffffffffffffffffffffffffffffffffffffff0483118215151615620006135762000612620006d9565b5b828202905092915050565b6000819050919050565b600060ff82169050919050565b60005b838110156200065557808201518184015260208101905062000638565b8381111562000665576000848401525b50505050565b600060028204905060018216806200068457607f821691505b602082108114156200069b576200069a62000737565b5b50919050565b6000620006ae826200061e565b9150620006bb836200061e565b925082620006ce57620006cd62000708565b5b828206905092915050565b7f4e487b7100000000000000000000000000000000000000000000000000000000600052601160045260246000fd5b7f4e487b7100000000000000000000000000000000000000000000000000000000600052601260045260246000fd5b7f4e487b7100000000000000000000000000000000000000000000000000000000600052602260045260246000fd5b7f4e487b7100000000000000000000000000000000000000000000000000000000600052604160045260246000fd5b620007a0816200061e565b8114620007ac57600080fd5b50565b620007ba8162000628565b8114620007c657600080fd5b50565b6123be80620007d96000396000f3fe608060405234801561001057600080fd5b50600436106100ea5760003560e01c8063715018a61161008c578063ae96cf8a11610066578063ae96cf8a14610238578063ba26454214610268578063c86026ce14610299578063f2fde38b146102b7576100ea565b8063715018a6146101f15780637d4981b2146101fb5780638da5cb5b1461021a576100ea565b806336242fec116100c857806336242fec1461015757806342576492146101875780634efe152a146101a55780636eec3348146101c1576100ea565b8063028ba983146100ef57806308a6a0721461010b5780630e8779871461013b575b600080fd5b610109600480360381019061010491906117d5565b6102d3565b005b610125600480360381019061012091906117fe565b61053b565b6040516101329190611f0e565b60405180910390f35b610155600480360381019061015091906117d5565b61057c565b005b610171600480360381019061016c91906116f5565b6108a3565b60405161017e9190611eec565b60405180910390f35b61018f610ab9565b60405161019c9190611eec565b60405180910390f35b6101bf60048036038101906101ba9190611799565b610acf565b005b6101db60048036038101906101d6919061171e565b610ce9565b6040516101e89190611daf565b60405180910390f35b6101f9610cf3565b005b610203610e2d565b604051610211929190611f29565b60405180910390f35b610222610e83565b60405161022f9190611d94565b60405180910390f35b610252600480360381019061024d91906116f5565b610eac565b60405161025f9190611dd1565b60405180910390f35b610282600480360381019061027d91906117d5565b611000565b604051610290929190611f29565b60405180910390f35b6102a161103a565b6040516102ae9190611f0e565b60405180910390f35b6102d160048036038101906102cc91906116f5565b61104a565b005b610340600c8281548110610310577f4e487b7100000000000000000000000000000000000000000000000000000000600052603260045260246000fd5b9060005260206000200160009054906101000a900473ffffffffffffffffffffffffffffffffffffffff16610eac565b61037f576040517f08c379a000000000000000000000000000000000000000000000000000000000815260040161037690611eac565b60405180910390fd5b60011515600b6000600c84815481106103c1577f4e487b7100000000000000000000000000000000000000000000000000000000600052603260045260246000fd5b9060005260206000200160009054906101000a900473ffffffffffffffffffffffffffffffffffffffff1673ffffffffffffffffffffffffffffffffffffffff1673ffffffffffffffffffffffffffffffffffffffff16815260200190815260200160002060000160019054906101000a900460ff16151514610479576040517f08c379a000000000000000000000000000000000000000000000000000000000815260040161047090611e8c565b60405180910390fd5b6001600b6000600c84815481106104b9577f4e487b7100000000000000000000000000000000000000000000000000000000600052603260045260246000fd5b9060005260206000200160009054906101000a900473ffffffffffffffffffffffffffffffffffffffff1673ffffffffffffffffffffffffffffffffffffffff1673ffffffffffffffffffffffffffffffffffffffff16815260200190815260200160002060000160026101000a81548160ff02191690831515021790555050565b6000806105488484611209565b141561055f57610558838361121f565b9050610576565b610573600161056e858561121f565b611235565b90505b92915050565b6105e9600c82815481106105b9577f4e487b7100000000000000000000000000000000000000000000000000000000600052603260045260246000fd5b9060005260206000200160009054906101000a900473ffffffffffffffffffffffffffffffffffffffff16610eac565b610628576040517f08c379a000000000000000000000000000000000000000000000000000000000815260040161061f90611eac565b60405180910390fd5b60011515600b6000600c848154811061066a577f4e487b7100000000000000000000000000000000000000000000000000000000600052603260045260246000fd5b9060005260206000200160009054906101000a900473ffffffffffffffffffffffffffffffffffffffff1673ffffffffffffffffffffffffffffffffffffffff1673ffffffffffffffffffffffffffffffffffffffff16815260200190815260200160002060000160019054906101000a900460ff16151514610722576040517f08c379a000000000000000000000000000000000000000000000000000000000815260040161071990611e8c565b60405180910390fd5b6001600b6000600c8481548110610762577f4e487b7100000000000000000000000000000000000000000000000000000000600052603260045260246000fd5b9060005260206000200160009054906101000a900473ffffffffffffffffffffffffffffffffffffffff1673ffffffffffffffffffffffffffffffffffffffff1673ffffffffffffffffffffffffffffffffffffffff16815260200190815260200160002060000160036101000a81548160ff0219169083151502179055506000600b6000600c8481548110610821577f4e487b7100000000000000000000000000000000000000000000000000000000600052603260045260246000fd5b9060005260206000200160009054906101000a900473ffffffffffffffffffffffffffffffffffffffff1673ffffffffffffffffffffffffffffffffffffffff1673ffffffffffffffffffffffffffffffffffffffff16815260200190815260200160002060000160006101000a81548160ff02191690831515021790555050565b6108ab61155c565b6108b482610eac565b6108f3576040517f08c379a00000000000000000000000000000000000000000000000000000000081526004016108ea90611e4c565b60405180910390fd5b600b60008373ffffffffffffffffffffffffffffffffffffffff1673ffffffffffffffffffffffffffffffffffffffff168152602001908152602001600020604051806101200160405290816000820160009054906101000a900460ff161515151581526020016000820160019054906101000a900460ff161515151581526020016000820160029054906101000a900460ff161515151581526020016000820160039054906101000a900460ff16151515158152602001600182015481526020016002820154815260200160038201805480602002602001604051908101604052809291908181526020018280548015610a0d57602002820191906000526020600020905b8154815260200190600101908083116109f9575b5050505050815260200160048201548152602001600582018054610a30906121c0565b80601f0160208091040260200160405190810160405280929190818152602001828054610a5c906121c0565b8015610aa95780601f10610a7e57610100808354040283529160200191610aa9565b820191906000526020600020905b815481529060010190602001808311610a8c57829003601f168201915b5050505050815250509050919050565b610ac161155c565b610aca336108a3565b905090565b610ad833610eac565b610b17576040517f08c379a0000000000000000000000000000000000000000000000000000000008152600401610b0e90611ecc565b60405180910390fd5b6000600b60003373ffffffffffffffffffffffffffffffffffffffff1673ffffffffffffffffffffffffffffffffffffffff16815260200190815260200160002060000160016101000a81548160ff0219169083151502179055610bb0576040517f08c379a0000000000000000000000000000000000000000000000000000000008152600401610ba790611dec565b60405180910390fd5b81600b60003373ffffffffffffffffffffffffffffffffffffffff1673ffffffffffffffffffffffffffffffffffffffff1681526020019081526020016000206001018190555080600b60003373ffffffffffffffffffffffffffffffffffffffff1673ffffffffffffffffffffffffffffffffffffffff168152602001908152602001600020600201819055506000610c8b600b60003373ffffffffffffffffffffffffffffffffffffffff1673ffffffffffffffffffffffffffffffffffffffff1681526020019081526020016000206004015461124b565b905080600b60003373ffffffffffffffffffffffffffffffffffffffff1673ffffffffffffffffffffffffffffffffffffffff1681526020019081526020016000206003019080519060200190610ce39291906115b6565b50505050565b6060949350505050565b610cfb6113c4565b73ffffffffffffffffffffffffffffffffffffffff16610d19610e83565b73ffffffffffffffffffffffffffffffffffffffff1614610d6f576040517f08c379a0000000000000000000000000000000000000000000000000000000008152600401610d6690611e6c565b60405180910390fd5b600073ffffffffffffffffffffffffffffffffffffffff1660008054906101000a900473ffffffffffffffffffffffffffffffffffffffff1673ffffffffffffffffffffffffffffffffffffffff167f8be0079c531659141344cd1fd0a4f28419497f9722a3daafe3b4186f6b6457e060405160405180910390a360008060006101000a81548173ffffffffffffffffffffffffffffffffffffffff021916908373ffffffffffffffffffffffffffffffffffffffff160217905550565b600080610e7b600b60003373ffffffffffffffffffffffffffffffffffffffff1673ffffffffffffffffffffffffffffffffffffffff16815260200190815260200160002060040154611000565b915091509091565b60008060009054906101000a900473ffffffffffffffffffffffffffffffffffffffff16905090565b600080600c805490501415610ec45760009050610ffb565b8173ffffffffffffffffffffffffffffffffffffffff16600c600b60008573ffffffffffffffffffffffffffffffffffffffff1673ffffffffffffffffffffffffffffffffffffffff1681526020019081526020016000206004015481548110610f57577f4e487b7100000000000000000000000000000000000000000000000000000000600052603260045260246000fd5b9060005260206000200160009054906101000a900473ffffffffffffffffffffffffffffffffffffffff1673ffffffffffffffffffffffffffffffffffffffff16148015610ff8575060011515600b60008473ffffffffffffffffffffffffffffffffffffffff1673ffffffffffffffffffffffffffffffffffffffff16815260200190815260200160002060000160009054906101000a900460ff161515145b90505b919050565b6000806000611011846004546111f3565b9050600061102b61102483600454611235565b60016113cc565b90508181935093505050915091565b6000611045336113e2565b905090565b6110526113c4565b73ffffffffffffffffffffffffffffffffffffffff16611070610e83565b73ffffffffffffffffffffffffffffffffffffffff16146110c6576040517f08c379a00000000000000000000000000000000000000000000000000000000081526004016110bd90611e6c565b60405180910390fd5b600073ffffffffffffffffffffffffffffffffffffffff168173ffffffffffffffffffffffffffffffffffffffff161415611136576040517f08c379a000000000000000000000000000000000000000000000000000000000815260040161112d90611e2c565b60405180910390fd5b8073ffffffffffffffffffffffffffffffffffffffff1660008054906101000a900473ffffffffffffffffffffffffffffffffffffffff1673ffffffffffffffffffffffffffffffffffffffff167f8be0079c531659141344cd1fd0a4f28419497f9722a3daafe3b4186f6b6457e060405160405180910390a3806000806101000a81548173ffffffffffffffffffffffffffffffffffffffff021916908373ffffffffffffffffffffffffffffffffffffffff16021790555050565b6000818361120191906120ad565b905092915050565b600081836112179190612245565b905092915050565b6000818361122d919061207c565b905092915050565b600081836112439190612026565b905092915050565b6060600061125c60065460016113cc565b83141561126d576007549050611273565b60045490505b6000611293600a60009054906101000a900460ff1660ff166004546111f3565b905060008167ffffffffffffffff8111156112d7577f4e487b7100000000000000000000000000000000000000000000000000000000600052604160045260246000fd5b6040519080825280602002602001820160405280156113055781602001602082028036833780820191505090505b50905060005b828110156113b85761136061132087866111f3565b61135b6304945edc60095460405160200161133c929190611d68565b6040516020818303038152906040528051906020012060001c87611209565b611235565b828281518110611399577f4e487b7100000000000000000000000000000000000000000000000000000000600052603260045260246000fd5b60200260200101818152505080806113b0906121f2565b91505061130b565b50809350505050919050565b600033905090565b600081836113da9190612107565b905092915050565b60006113ed82610eac565b1561142d576040517f08c379a000000000000000000000000000000000000000000000000000000000815260040161142490611e0c565b60405180910390fd5b600c829080600181540180825580915050600190039060005260206000200160009091909190916101000a81548173ffffffffffffffffffffffffffffffffffffffff021916908373ffffffffffffffffffffffffffffffffffffffff1602179055506001600c805490506114a29190612107565b600b60008473ffffffffffffffffffffffffffffffffffffffff1673ffffffffffffffffffffffffffffffffffffffff168152602001908152602001600020600401819055506001600b60008473ffffffffffffffffffffffffffffffffffffffff1673ffffffffffffffffffffffffffffffffffffffff16815260200190815260200160002060000160006101000a81548160ff0219169083151502179055506001600c805490506115559190612107565b9050919050565b60405180610120016040528060001515815260200160001515815260200160001515815260200160001515815260200160008019168152602001600080191681526020016060815260200160008152602001606081525090565b8280548282559060005260206000209081019282156115f2579160200282015b828111156115f15782518255916020019190600101906115d6565b5b5090506115ff9190611603565b5090565b5b8082111561161c576000816000905550600101611604565b5090565b600061163361162e84611f83565b611f52565b9050808382526020820190508285602086028201111561165257600080fd5b60005b85811015611682578161166888826116cb565b845260208401935060208301925050600181019050611655565b5050509392505050565b60008135905061169b81612343565b92915050565b600082601f8301126116b257600080fd5b81356116c2848260208601611620565b91505092915050565b6000813590506116da8161235a565b92915050565b6000813590506116ef81612371565b92915050565b60006020828403121561170757600080fd5b60006117158482850161168c565b91505092915050565b6000806000806080858703121561173457600080fd5b600085013567ffffffffffffffff81111561174e57600080fd5b61175a878288016116a1565b945050602061176b878288016116cb565b935050604061177c878288016116cb565b925050606061178d878288016116cb565b91505092959194509250565b600080604083850312156117ac57600080fd5b60006117ba858286016116cb565b92505060206117cb858286016116cb565b9150509250929050565b6000602082840312156117e757600080fd5b60006117f5848285016116e0565b91505092915050565b6000806040838503121561181157600080fd5b600061181f858286016116e0565b9250506020611830858286016116e0565b9150509250929050565b60006118468383611d33565b60208301905092915050565b61185b8161213b565b82525050565b600061186c82611fbf565b6118768185611fe2565b935061188183611faf565b8060005b838110156118b2578151611899888261183a565b97506118a483611fd5565b925050600181019050611885565b5085935050505092915050565b60006118ca82611fbf565b6118d48185611ff3565b93506118df83611faf565b8060005b838110156119105781516118f7888261183a565b975061190283611fd5565b9250506001810190506118e3565b5085935050505092915050565b6119268161214d565b82525050565b6119358161214d565b82525050565b61194481612159565b82525050565b600061195582611fca565b61195f8185612004565b935061196f81856020860161218d565b61197881612332565b840191505092915050565b6000611990603383612015565b91507f416e7377657273206861766520616c7265616479206265656e207375626d697460008301527f74656420666f7220746869732062617463682e000000000000000000000000006020830152604082019050919050565b60006119f6603283612015565b91507f596f7572206164647265737320697320616c7265616479206c696e6b6564207460008301527f6f20616e206163746976652062617463682e00000000000000000000000000006020830152604082019050919050565b6000611a5c602683612015565b91507f4f776e61626c653a206e6577206f776e657220697320746865207a65726f206160008301527f64647265737300000000000000000000000000000000000000000000000000006020830152604082019050919050565b6000611ac2602583612015565b91507f4120626174636820646f6573206e6f7420657869737420666f7220746869732060008301527f757365722e0000000000000000000000000000000000000000000000000000006020830152604082019050919050565b6000611b28602083612015565b91507f4f776e61626c653a2063616c6c6572206973206e6f7420746865206f776e65726000830152602082019050919050565b6000611b68602483612015565b91507f426174636820686173206e6f742068616420616e7377657273207375626d697460008301527f7465642e000000000000000000000000000000000000000000000000000000006020830152604082019050919050565b6000611bce601a83612015565b91507f426174636820696e64657820646f6573206e6f742065786973740000000000006000830152602082019050919050565b6000611c0e602c83612015565b91507f54686973206163636f756e7420646f6573206e6f74206861766520612062617460008301527f63682072657365727665642e00000000000000000000000000000000000000006020830152604082019050919050565b600061012083016000830151611c80600086018261191d565b506020830151611c93602086018261191d565b506040830151611ca6604086018261191d565b506060830151611cb9606086018261191d565b506080830151611ccc608086018261193b565b5060a0830151611cdf60a086018261193b565b5060c083015184820360c0860152611cf78282611861565b91505060e0830151611d0c60e0860182611d33565b50610100830151848203610100860152611d26828261194a565b9150508091505092915050565b611d3c81612183565b82525050565b611d4b81612183565b82525050565b611d62611d5d82612183565b61223b565b82525050565b6000611d748285611d51565b602082019150611d848284611d51565b6020820191508190509392505050565b6000602082019050611da96000830184611852565b92915050565b60006020820190508181036000830152611dc981846118bf565b905092915050565b6000602082019050611de6600083018461192c565b92915050565b60006020820190508181036000830152611e0581611983565b9050919050565b60006020820190508181036000830152611e25816119e9565b9050919050565b60006020820190508181036000830152611e4581611a4f565b9050919050565b60006020820190508181036000830152611e6581611ab5565b9050919050565b60006020820190508181036000830152611e8581611b1b565b9050919050565b60006020820190508181036000830152611ea581611b5b565b9050919050565b60006020820190508181036000830152611ec581611bc1565b9050919050565b60006020820190508181036000830152611ee581611c01565b9050919050565b60006020820190508181036000830152611f068184611c67565b905092915050565b6000602082019050611f236000830184611d42565b92915050565b6000604082019050611f3e6000830185611d42565b611f4b6020830184611d42565b9392505050565b6000604051905081810181811067ffffffffffffffff82111715611f7957611f78612303565b5b8060405250919050565b600067ffffffffffffffff821115611f9e57611f9d612303565b5b602082029050602081019050919050565b6000819050602082019050919050565b600081519050919050565b600081519050919050565b6000602082019050919050565b600082825260208201905092915050565b600082825260208201905092915050565b600082825260208201905092915050565b600082825260208201905092915050565b600061203182612183565b915061203c83612183565b9250827fffffffffffffffffffffffffffffffffffffffffffffffffffffffffffffffff0382111561207157612070612276565b5b828201905092915050565b600061208782612183565b915061209283612183565b9250826120a2576120a16122a5565b5b828204905092915050565b60006120b882612183565b91506120c383612183565b9250817fffffffffffffffffffffffffffffffffffffffffffffffffffffffffffffffff04831182151516156120fc576120fb612276565b5b828202905092915050565b600061211282612183565b915061211d83612183565b9250828210156121305761212f612276565b5b828203905092915050565b600061214682612163565b9050919050565b60008115159050919050565b6000819050919050565b600073ffffffffffffffffffffffffffffffffffffffff82169050919050565b6000819050919050565b60005b838110156121ab578082015181840152602081019050612190565b838111156121ba576000848401525b50505050565b600060028204905060018216806121d857607f821691505b602082108114156121ec576121eb6122d4565b5b50919050565b60006121fd82612183565b91507fffffffffffffffffffffffffffffffffffffffffffffffffffffffffffffffff8214156122305761222f612276565b5b600182019050919050565b6000819050919050565b600061225082612183565b915061225b83612183565b92508261226b5761226a6122a5565b5b828206905092915050565b7f4e487b7100000000000000000000000000000000000000000000000000000000600052601160045260246000fd5b7f4e487b7100000000000000000000000000000000000000000000000000000000600052601260045260246000fd5b7f4e487b7100000000000000000000000000000000000000000000000000000000600052602260045260246000fd5b7f4e487b7100000000000000000000000000000000000000000000000000000000600052604160045260246000fd5b6000601f19601f8301169050919050565b61234c8161213b565b811461235757600080fd5b50565b61236381612159565b811461236e57600080fd5b50565b61237a81612183565b811461238557600080fd5b5056fea2646970667358221220d6076b875e64d71dc3539f64dcbe8f269843272cd64f3c3255c9295937df759264736f6c63430008000033a26469706673582212208ccc6bcfd0cf05b4bda95180d03fb8633fa1cc3be767d958b6389b353e2d671564736f6c63430008000033",
  "immutableReferences": {},
  "source": "// SPDX-License-Identifier: MIT\r\npragma abicoder v2;\r\npragma solidity >=0.4.22 <0.9.0;\r\n\r\nimport \"./Job.sol\";\r\n\r\ncontract JobFactory {\r\n    Job[] public jobs;\r\n\r\n    function createAndEndow(\r\n        string memory _jobType,\r\n        string memory _jobName,\r\n        string memory _jobDesc,\r\n        uint256 _maxBatchSize,\r\n        uint256 _numTasks,\r\n        uint8 _reviewPct\r\n    ) public payable returns (Job) {\r\n        require(\r\n            _reviewPct <= 100,\r\n            \"Review percentage must be less than or equal to 100\"\r\n        );\r\n        require(\r\n            _maxBatchSize <= _numTasks,\r\n            \"Batch size cannot be greater than the number of tasks.\"\r\n        );\r\n\r\n        Job job =\r\n            (new Job){value: msg.value}(\r\n                _jobType,\r\n                _jobName,\r\n                _jobDesc,\r\n                _maxBatchSize,\r\n                _numTasks,\r\n                _reviewPct\r\n            );\r\n        jobs.push(job);\r\n        return job;\r\n    }\r\n\r\n    function viewJobs() external view returns (Job[] memory) {\r\n        return jobs;\r\n    }\r\n}\r\n",
  "sourcePath": "E:/cryptodev/sozu/contracts/JobFactory.sol",
  "compiler": {
    "name": "solc",
    "version": "0.8.0+commit.c7dfd78e.Emscripten.clang"
  },
  "schemaVersion": "3.3.4",
  "updatedAt": "2021-04-05T01:52:52.613Z",
  "networkType": "ethereum",
  "devdoc": {
    "kind": "dev",
    "methods": {},
    "version": 1
  },
  "userdoc": {
    "kind": "user",
    "methods": {},
    "version": 1
  }
}