{
  "contractName": "JobFactory",
  "abi": [
    {
      "inputs": [
        {
          "internalType": "uint256",
          "name": "",
          "type": "uint256"
        }
      ],
      "name": "jobs",
      "outputs": [
        {
          "internalType": "contract Job",
          "name": "",
          "type": "address"
        }
      ],
      "stateMutability": "view",
      "type": "function",
      "constant": true
    },
    {
      "inputs": [
        {
          "components": [
            {
              "internalType": "bytes32",
              "name": "digest",
              "type": "bytes32"
            },
            {
              "internalType": "uint8",
              "name": "hashFunction",
              "type": "uint8"
            },
            {
              "internalType": "uint8",
              "name": "size",
              "type": "uint8"
            }
          ],
          "internalType": "struct JobFactory.Task[]",
          "name": "_taskCids",
          "type": "tuple[]"
        },
        {
          "internalType": "string",
          "name": "_jobType",
          "type": "string"
        },
        {
          "internalType": "string",
          "name": "_jobName",
          "type": "string"
        },
        {
          "internalType": "string",
          "name": "_jobDesc",
          "type": "string"
        }
      ],
      "name": "createAndEndow",
      "outputs": [
        {
          "internalType": "contract Job",
          "name": "",
          "type": "address"
        }
      ],
      "stateMutability": "payable",
      "type": "function",
      "payable": true
    },
    {
      "inputs": [],
      "name": "viewJobs",
      "outputs": [
        {
          "internalType": "contract Job[]",
          "name": "",
          "type": "address[]"
        }
      ],
      "stateMutability": "view",
      "type": "function",
      "constant": true
    }
  ],
  "bytecode": "0x608060405234801561001057600080fd5b50610d7a806100206000396000f3fe608060405260043610620000385760003560e01c8063180aedf3146200003d5780631f59ecbc1462000081578063e6dcaca814620000b7575b600080fd5b3480156200004a57600080fd5b506200006960048036038101906200006391906200050a565b620000e7565b60405162000078919062000641565b60405180910390f35b6200009f60048036038101906200009991906200043a565b62000127565b604051620000ae919062000641565b60405180910390f35b348015620000c457600080fd5b50620000cf620001da565b604051620000de91906200061d565b60405180910390f35b60008181548110620000f857600080fd5b906000526020600020016000915054906101000a900473ffffffffffffffffffffffffffffffffffffffff1681565b600080348585856040516200013c906200026a565b6200014a939291906200065e565b6040518091039082f090508015801562000168573d6000803e3d6000fd5b5090506000819080600181540180825580915050600190039060005260206000200160009091909190916101000a81548173ffffffffffffffffffffffffffffffffffffffff021916908373ffffffffffffffffffffffffffffffffffffffff16021790555080915050949350505050565b606060008054806020026020016040519081016040528092919081815260200182805480156200026057602002820191906000526020600020905b8160009054906101000a900473ffffffffffffffffffffffffffffffffffffffff1673ffffffffffffffffffffffffffffffffffffffff168152602001906001019080831162000215575b5050505050905090565b61046d80620008d883390190565b60006200028f6200028984620006e4565b620006b0565b90508083825260208201905082856060860282011115620002af57600080fd5b60005b85811015620002e35781620002c88882620003a3565b845260208401935060608301925050600181019050620002b2565b5050509392505050565b600062000304620002fe8462000713565b620006b0565b9050828152602081018484840111156200031d57600080fd5b6200032a84828562000804565b509392505050565b600082601f8301126200034457600080fd5b81356200035684826020860162000278565b91505092915050565b600081359050620003708162000889565b92915050565b600082601f8301126200038857600080fd5b81356200039a848260208601620002ed565b91505092915050565b600060608284031215620003b657600080fd5b620003c26060620006b0565b90506000620003d4848285016200035f565b6000830152506020620003ea8482850162000423565b6020830152506040620004008482850162000423565b60408301525092915050565b6000813590506200041d81620008a3565b92915050565b6000813590506200043481620008bd565b92915050565b600080600080608085870312156200045157600080fd5b600085013567ffffffffffffffff8111156200046c57600080fd5b6200047a8782880162000332565b945050602085013567ffffffffffffffff8111156200049857600080fd5b620004a68782880162000376565b935050604085013567ffffffffffffffff811115620004c457600080fd5b620004d28782880162000376565b925050606085013567ffffffffffffffff811115620004f057600080fd5b620004fe8782880162000376565b91505092959194509250565b6000602082840312156200051d57600080fd5b60006200052d848285016200040c565b91505092915050565b6000620005448383620005ba565b60208301905092915050565b60006200055d8262000756565b62000569818562000779565b9350620005768362000746565b8060005b83811015620005ad57815162000591888262000536565b97506200059e836200076c565b9250506001810190506200057a565b5085935050505092915050565b620005c581620007dc565b82525050565b620005d681620007dc565b82525050565b6000620005e98262000761565b620005f581856200078a565b93506200060781856020860162000813565b620006128162000878565b840191505092915050565b6000602082019050818103600083015262000639818462000550565b905092915050565b6000602082019050620006586000830184620005cb565b92915050565b600060608201905081810360008301526200067a8186620005dc565b90508181036020830152620006908185620005dc565b90508181036040830152620006a68184620005dc565b9050949350505050565b6000604051905081810181811067ffffffffffffffff82111715620006da57620006d962000849565b5b8060405250919050565b600067ffffffffffffffff82111562000702576200070162000849565b5b602082029050602081019050919050565b600067ffffffffffffffff82111562000731576200073062000849565b5b601f19601f8301169050602081019050919050565b6000819050602082019050919050565b600081519050919050565b600081519050919050565b6000602082019050919050565b600082825260208201905092915050565b600082825260208201905092915050565b6000819050919050565b600073ffffffffffffffffffffffffffffffffffffffff82169050919050565b6000819050919050565b600060ff82169050919050565b6000620007e982620007f0565b9050919050565b6000620007fd82620007a5565b9050919050565b82818337600083830152505050565b60005b838110156200083357808201518184015260208101905062000816565b8381111562000843576000848401525b50505050565b7f4e487b7100000000000000000000000000000000000000000000000000000000600052604160045260246000fd5b6000601f19601f8301169050919050565b62000894816200079b565b8114620008a057600080fd5b50565b620008ae81620007c5565b8114620008ba57600080fd5b50565b620008c881620007cf565b8114620008d457600080fd5b5056fe608060405260405161046d38038061046d8339818101604052810190610025919061017d565b826002908051906020019061003b929190610072565b508160039080519060200190610052929190610072565b508060049080519060200190610069929190610072565b50505050610338565b82805461007e906102a8565b90600052602060002090601f0160209004810192826100a057600085556100e7565b82601f106100b957805160ff19168380011785556100e7565b828001600101855582156100e7579182015b828111156100e65782518255916020019190600101906100cb565b5b5090506100f491906100f8565b5090565b5b808211156101115760008160009055506001016100f9565b5090565b600061012861012384610245565b610214565b90508281526020810184848401111561014057600080fd5b61014b848285610275565b509392505050565b600082601f83011261016457600080fd5b8151610174848260208601610115565b91505092915050565b60008060006060848603121561019257600080fd5b600084015167ffffffffffffffff8111156101ac57600080fd5b6101b886828701610153565b935050602084015167ffffffffffffffff8111156101d557600080fd5b6101e186828701610153565b925050604084015167ffffffffffffffff8111156101fe57600080fd5b61020a86828701610153565b9150509250925092565b6000604051905081810181811067ffffffffffffffff8211171561023b5761023a610309565b5b8060405250919050565b600067ffffffffffffffff8211156102605761025f610309565b5b601f19601f8301169050602081019050919050565b60005b83811015610293578082015181840152602081019050610278565b838111156102a2576000848401525b50505050565b600060028204905060018216806102c057607f821691505b602082108114156102d4576102d36102da565b5b50919050565b7f4e487b7100000000000000000000000000000000000000000000000000000000600052602260045260246000fd5b7f4e487b7100000000000000000000000000000000000000000000000000000000600052604160045260246000fd5b610126806103476000396000f3fe6080604052348015600f57600080fd5b506004361060285760003560e01c80630d04218f14602d575b600080fd5b60436004803603810190603f9190607a565b6057565b604051604e919060ad565b60405180910390f35b6000806001905080915050919050565b60008135905060748160dc565b92915050565b600060208284031215608b57600080fd5b60006097848285016067565b91505092915050565b60a78160c6565b82525050565b600060208201905060c0600083018460a0565b92915050565b60008115159050919050565b6000819050919050565b60e38160d2565b811460ed57600080fd5b5056fea26469706673582212201302b10bd69af63d76c398b5624aa78458388dbb7483a39a4bac5f390fdc77f964736f6c63430008000033a26469706673582212202f44a324befdc7fa6d5abd51fafecfbf96d73f3c633c3eae464925f341c1ac0064736f6c63430008000033",
  "immutableReferences": {},
  "source": "// SPDX-License-Identifier: MIT\r\npragma abicoder v2;\r\npragma solidity >=0.4.22 <0.9.0;\r\n\r\nimport \"./Job.sol\";\r\n\r\ncontract JobFactory {\r\n    Job[] public jobs;\r\n\r\n    struct Task {\r\n        bytes32 digest;\r\n        uint8 hashFunction;\r\n        uint8 size;\r\n    }\r\n\r\n    function createAndEndow(\r\n        Task[] memory _taskCids,\r\n        string memory _jobType,\r\n        string memory _jobName,\r\n        string memory _jobDesc\r\n    ) public payable returns (Job) {\r\n        Job job = (new Job){value: msg.value}(_jobType, _jobName, _jobDesc);\r\n\r\n        // for (uint256 i; i < _taskCids.length; i++) {\r\n        //     bytes32 _digest = _taskCids[i].digest;\r\n        //     uint8 _hashFunction = _taskCids[i].hashFunction;\r\n        //     uint8 _size = _taskCids[i].size;\r\n        //     job.newTask(_digest, _hashFunction, _size);\r\n        // }\r\n\r\n        jobs.push(job);\r\n        return job;\r\n    }\r\n\r\n    function viewJobs() external view returns (Job[] memory) {\r\n        return jobs;\r\n    }\r\n}\r\n",
  "sourcePath": "E:/cryptodev/sozu/contracts/JobFactory.sol",
  "compiler": {
    "name": "solc",
    "version": "0.8.0+commit.c7dfd78e.Emscripten.clang"
  },
  "schemaVersion": "3.3.4",
  "updatedAt": "2021-03-29T04:04:52.186Z",
  "networkType": "ethereum",
  "devdoc": {
    "kind": "dev",
    "methods": {},
    "version": 1
  },
  "userdoc": {
    "kind": "user",
    "methods": {},
    "version": 1
  }
}