{
  "contractName": "JobFactory",
  "abi": [
    {
      "anonymous": false,
      "inputs": [
        {
          "indexed": false,
          "internalType": "address",
          "name": "publisher",
          "type": "address"
        },
        {
          "indexed": false,
          "internalType": "address",
          "name": "job",
          "type": "address"
        }
      ],
      "name": "JobPublished",
      "type": "event"
    },
    {
      "inputs": [
        {
          "internalType": "uint256",
          "name": "",
          "type": "uint256"
        }
      ],
      "name": "jobs",
      "outputs": [
        {
          "internalType": "contract Job",
          "name": "",
          "type": "address"
        }
      ],
      "stateMutability": "view",
      "type": "function",
      "constant": true
    },
    {
      "inputs": [
        {
          "internalType": "string",
          "name": "_topLevelCid",
          "type": "string"
        },
        {
          "internalType": "string",
          "name": "_jobType",
          "type": "string"
        },
        {
          "internalType": "string",
          "name": "_jobName",
          "type": "string"
        },
        {
          "internalType": "string",
          "name": "_jobDesc",
          "type": "string"
        },
        {
          "internalType": "uint256",
          "name": "_maxBatchSize",
          "type": "uint256"
        },
        {
          "internalType": "uint256",
          "name": "_numTasks",
          "type": "uint256"
        },
        {
          "internalType": "uint8",
          "name": "_reviewPct",
          "type": "uint8"
        }
      ],
      "name": "createAndEndow",
      "outputs": [
        {
          "internalType": "contract Job",
          "name": "",
          "type": "address"
        }
      ],
      "stateMutability": "payable",
      "type": "function",
      "payable": true
    },
    {
      "inputs": [],
      "name": "viewJobs",
      "outputs": [
        {
          "internalType": "contract Job[]",
          "name": "",
          "type": "address[]"
        }
      ],
      "stateMutability": "view",
      "type": "function",
      "constant": true
    }
  ],
  "bytecode": "0x608060405234801561001057600080fd5b5061499d806100206000396000f3fe608060405260043610620000385760003560e01c8063180aedf3146200003d578063552b63d014620000bc578063e6dcaca814620003ac575b600080fd5b3480156200004a57600080fd5b506200007a600480360360208110156200006357600080fd5b81019080803590602001909291905050506200041d565b604051808273ffffffffffffffffffffffffffffffffffffffff1673ffffffffffffffffffffffffffffffffffffffff16815260200191505060405180910390f35b6200036a600480360360e0811015620000d457600080fd5b8101908080359060200190640100000000811115620000f257600080fd5b8201836020820111156200010557600080fd5b803590602001918460018302840111640100000000831117156200012857600080fd5b91908080601f016020809104026020016040519081016040528093929190818152602001838380828437600081840152601f19601f820116905080830192505050505050509192919290803590602001906401000000008111156200018c57600080fd5b8201836020820111156200019f57600080fd5b80359060200191846001830284011164010000000083111715620001c257600080fd5b91908080601f016020809104026020016040519081016040528093929190818152602001838380828437600081840152601f19601f820116905080830192505050505050509192919290803590602001906401000000008111156200022657600080fd5b8201836020820111156200023957600080fd5b803590602001918460018302840111640100000000831117156200025c57600080fd5b91908080601f016020809104026020016040519081016040528093929190818152602001838380828437600081840152601f19601f82011690508083019250505050505050919291929080359060200190640100000000811115620002c057600080fd5b820183602082011115620002d357600080fd5b80359060200191846001830284011164010000000083111715620002f657600080fd5b91908080601f016020809104026020016040519081016040528093929190818152602001838380828437600081840152601f19601f8201169050808301925050505050505091929192908035906020019092919080359060200190929190803560ff1690602001909291905050506200045a565b604051808273ffffffffffffffffffffffffffffffffffffffff1673ffffffffffffffffffffffffffffffffffffffff16815260200191505060405180910390f35b348015620003b957600080fd5b50620003c462000b26565b6040518080602001828103825283818151815260200191508051906020019060200280838360005b8381101562000409578082015181840152602081019050620003ec565b505050509050019250505060405180910390f35b600081815481106200042b57fe5b906000526020600020016000915054906101000a900473ffffffffffffffffffffffffffffffffffffffff1681565b600060648260ff161115801562000474575060008260ff16115b620004cb576040517f08c379a00000000000000000000000000000000000000000000000000000000081526004018080602001828103825260468152602001806200488f6046913960600191505060405180910390fd5b8284111562000526576040517f08c379a0000000000000000000000000000000000000000000000000000000008152600401808060200182810382526036815260200180620049326036913960400191505060405180910390fd5b60008851116200059e576040517f08c379a000000000000000000000000000000000000000000000000000000000815260040180806020018281038252601a8152602001807f506c656173652070726f7669646520616c6c206669656c64732e00000000000081525060200191505060405180910390fd5b600087511162000616576040517f08c379a000000000000000000000000000000000000000000000000000000000815260040180806020018281038252601a8152602001807f506c656173652070726f7669646520616c6c206669656c64732e00000000000081525060200191505060405180910390fd5b60008651116200068e576040517f08c379a000000000000000000000000000000000000000000000000000000000815260040180806020018281038252601a8152602001807f506c656173652070726f7669646520616c6c206669656c64732e00000000000081525060200191505060405180910390fd5b600085511162000706576040517f08c379a000000000000000000000000000000000000000000000000000000000815260040180806020018281038252601a8152602001807f506c656173652070726f7669646520616c6c206669656c64732e00000000000081525060200191505060405180910390fd5b600084118015620007175750828411155b6200076e576040517f08c379a000000000000000000000000000000000000000000000000000000000815260040180806020018281038252605d815260200180620048d5605d913960600191505060405180910390fd5b6000831180156200077f5750838310155b620007d6576040517f08c379a00000000000000000000000000000000000000000000000000000000081526004018080602001828103825260608152602001806200482f6060913960600191505060405180910390fd5b600034338a8a8a8a8a8a8a604051620007ef9062000bb6565b808973ffffffffffffffffffffffffffffffffffffffff1673ffffffffffffffffffffffffffffffffffffffff168152602001806020018060200180602001806020018881526020018781526020018660ff1660ff16815260200185810385528c818151815260200191508051906020019080838360005b838110156200088457808201518184015260208101905062000867565b50505050905090810190601f168015620008b25780820380516001836020036101000a031916815260200191505b5085810384528b818151815260200191508051906020019080838360005b83811015620008ed578082015181840152602081019050620008d0565b50505050905090810190601f1680156200091b5780820380516001836020036101000a031916815260200191505b5085810383528a818151815260200191508051906020019080838360005b838110156200095657808201518184015260208101905062000939565b50505050905090810190601f168015620009845780820380516001836020036101000a031916815260200191505b50858103825289818151815260200191508051906020019080838360005b83811015620009bf578082015181840152602081019050620009a2565b50505050905090810190601f168015620009ed5780820380516001836020036101000a031916815260200191505b509c505050505050505050505050506040518091039082f090508015801562000a1a573d6000803e3d6000fd5b5090506000819080600181540180825580915050600190039060005260206000200160009091909190916101000a81548173ffffffffffffffffffffffffffffffffffffffff021916908373ffffffffffffffffffffffffffffffffffffffff1602179055507f3e2378388eabf6dbc0d15ad9de33be1c94c7b0261c03604fcf2076f54b7bd4133382604051808373ffffffffffffffffffffffffffffffffffffffff1673ffffffffffffffffffffffffffffffffffffffff1681526020018273ffffffffffffffffffffffffffffffffffffffff1673ffffffffffffffffffffffffffffffffffffffff1681526020019250505060405180910390a180915050979650505050505050565b6060600080548060200260200160405190810160405280929190818152602001828054801562000bac57602002820191906000526020600020905b8160009054906101000a900473ffffffffffffffffffffffffffffffffffffffff1673ffffffffffffffffffffffffffffffffffffffff168152602001906001019080831162000b61575b5050505050905090565b613c6a8062000bc58339019056fe608060405260405162003c6a38038062003c6a83398181016040528101906200002991906200061a565b60006200003b6200021460201b60201c565b9050806000806101000a81548173ffffffffffffffffffffffffffffffffffffffff021916908373ffffffffffffffffffffffffffffffffffffffff1602179055508073ffffffffffffffffffffffffffffffffffffffff16600073ffffffffffffffffffffffffffffffffffffffff167f8be0079c531659141344cd1fd0a4f28419497f9722a3daafe3b4186f6b6457e060405160405180910390a35087600160006101000a81548173ffffffffffffffffffffffffffffffffffffffff021916908373ffffffffffffffffffffffffffffffffffffffff160217905550866002908051906020019062000132929190620004ca565b5085600390805190602001906200014b929190620004ca565b50846004908051906020019062000164929190620004ca565b5083600590805190602001906200017d929190620004ca565b50826006819055508160078190555080600d60006101000a81548160ff021916908360ff160217905550620001b982846200021c60201b60201c565b600881905550620001f2600754620001e16006546008546200029360201b62001e5c1760201c565b6200030960201b62001ad61760201c565b60098190555034600a8190555034600b819055505050505050505050620009eb565b600033905090565b6000806200023684846200030960201b62001ad61760201c565b14156200025c576200025483836200035b60201b62001b201760201c565b90506200028d565b6200028a60016200027985856200035b60201b62001b201760201c565b620003ad60201b62001b6a1760201c565b90505b92915050565b600080831415620002a8576000905062000303565b6000828402905082848281620002ba57fe5b0414620002fe576040517f08c379a0000000000000000000000000000000000000000000000000000000008152600401620002f59062000872565b60405180910390fd5b809150505b92915050565b60006200035383836040518060400160405280601881526020017f536166654d6174683a206d6f64756c6f206279207a65726f00000000000000008152506200040560201b60201c565b905092915050565b6000620003a583836040518060400160405280601a81526020017f536166654d6174683a206469766973696f6e206279207a65726f0000000000008152506200046560201b60201c565b905092915050565b600080828401905083811015620003fb576040517f08c379a0000000000000000000000000000000000000000000000000000000008152600401620003f29062000850565b60405180910390fd5b8091505092915050565b600080831415829062000450576040517f08c379a00000000000000000000000000000000000000000000000000000000081526004016200044791906200082c565b60405180910390fd5b508284816200045b57fe5b0690509392505050565b60008083118290620004af576040517f08c379a0000000000000000000000000000000000000000000000000000000008152600401620004a691906200082c565b60405180910390fd5b506000838581620004bc57fe5b049050809150509392505050565b828054600181600116156101000203166002900490600052602060002090601f016020900481019282601f106200050d57805160ff19168380011785556200053e565b828001600101855582156200053e579182015b828111156200053d57825182559160200191906001019062000520565b5b5090506200054d919062000551565b5090565b6200057691905b808211156200057257600081600090555060010162000558565b5090565b90565b6000815190506200058a816200099d565b92915050565b600082601f830112620005a257600080fd5b8151620005b9620005b382620008c2565b62000894565b91508082526020830160208301858383011115620005d657600080fd5b620005e383828462000956565b50505092915050565b600081519050620005fd81620009b7565b92915050565b6000815190506200061481620009d1565b92915050565b600080600080600080600080610100898b0312156200063857600080fd5b6000620006488b828c0162000579565b985050602089015167ffffffffffffffff8111156200066657600080fd5b620006748b828c0162000590565b975050604089015167ffffffffffffffff8111156200069257600080fd5b620006a08b828c0162000590565b965050606089015167ffffffffffffffff811115620006be57600080fd5b620006cc8b828c0162000590565b955050608089015167ffffffffffffffff811115620006ea57600080fd5b620006f88b828c0162000590565b94505060a06200070b8b828c01620005ec565b93505060c06200071e8b828c01620005ec565b92505060e0620007318b828c0162000603565b9150509295985092959890939650565b60006200074e82620008ef565b6200075a8185620008fa565b93506200076c81856020860162000956565b62000777816200098c565b840191505092915050565b600062000791601b83620008fa565b91507f536166654d6174683a206164646974696f6e206f766572666c6f7700000000006000830152602082019050919050565b6000620007d3602183620008fa565b91507f536166654d6174683a206d756c7469706c69636174696f6e206f766572666c6f60008301527f77000000000000000000000000000000000000000000000000000000000000006020830152604082019050919050565b6000602082019050818103600083015262000848818462000741565b905092915050565b600060208201905081810360008301526200086b8162000782565b9050919050565b600060208201905081810360008301526200088d81620007c4565b9050919050565b6000604051905081810181811067ffffffffffffffff82111715620008b857600080fd5b8060405250919050565b600067ffffffffffffffff821115620008da57600080fd5b601f19601f8301169050602081019050919050565b600081519050919050565b600082825260208201905092915050565b600062000918826200091f565b9050919050565b600073ffffffffffffffffffffffffffffffffffffffff82169050919050565b6000819050919050565b600060ff82169050919050565b60005b838110156200097657808201518184015260208101905062000959565b8381111562000986576000848401525b50505050565b6000601f19601f8301169050919050565b620009a8816200090b565b8114620009b457600080fd5b50565b620009c2816200093f565b8114620009ce57600080fd5b50565b620009dc8162000949565b8114620009e857600080fd5b50565b61326f80620009fb6000396000f3fe608060405234801561001057600080fd5b506004361061010b5760003560e01c80637d4981b2116100a2578063ae96cf8a11610071578063ae96cf8a1461027f578063ba264542146102af578063c86026ce146102e0578063f2fde38b146102fe578063f61e45b71461031a5761010b565b80637d4981b2146102085780638bceb34d146102275780638da5cb5b146102455780639bd14717146102635761010b565b806342576492116100de57806342576492146101a85780634f446347146101c6578063715018a6146101e257806377e0f450146101ec5761010b565b8063028ba9831461011057806308a6a0721461012c5780630e8779871461015c57806336242fec14610178575b600080fd5b61012a600480360381019061012591906123de565b610338565b005b6101466004803603810190610141919061252e565b61064e565b6040516101539190613091565b60405180910390f35b610176600480360381019061017191906123de565b61068f565b005b610192600480360381019061018d91906123b5565b610992565b60405161019f919061306f565b60405180910390f35b6101b0610bb8565b6040516101bd919061306f565b60405180910390f35b6101e060048036038101906101db9190612487565b610bce565b005b6101ea610e8e565b005b61020660048036038101906102019190612407565b610fe3565b005b6102106112ef565b60405161021e9291906130ac565b60405180910390f35b61022f611357565b60405161023c9190613091565b60405180910390f35b61024d611361565b60405161025a9190612df3565b60405180910390f35b61027d600480360381019061027891906124d6565b61138a565b005b610299600480360381019061029491906123b5565b61178c565b6040516102a69190612e0e565b60405180910390f35b6102c960048036038101906102c491906123de565b6118b3565b6040516102d79291906130ac565b60405180910390f35b6102e86118ed565b6040516102f59190613091565b60405180910390f35b610318600480360381019061031391906123b5565b6118fd565b005b610322611ac1565b60405161032f9190613091565b60405180910390f35b600160009054906101000a900473ffffffffffffffffffffffffffffffffffffffff1673ffffffffffffffffffffffffffffffffffffffff163373ffffffffffffffffffffffffffffffffffffffff16146103c8576040517f08c379a00000000000000000000000000000000000000000000000000000000081526004016103bf90612ecf565b60405180910390fd5b610408600f82815481106103d857fe5b9060005260206000200160009054906101000a900473ffffffffffffffffffffffffffffffffffffffff1661178c565b610447576040517f08c379a000000000000000000000000000000000000000000000000000000000815260040161043e9061302f565b60405180910390fd5b3373ffffffffffffffffffffffffffffffffffffffff16600f828154811061046b57fe5b9060005260206000200160009054906101000a900473ffffffffffffffffffffffffffffffffffffffff1673ffffffffffffffffffffffffffffffffffffffff16146104ec576040517f08c379a00000000000000000000000000000000000000000000000000000000081526004016104e39061300f565b60405180910390fd5b60011515600e6000600f848154811061050157fe5b9060005260206000200160009054906101000a900473ffffffffffffffffffffffffffffffffffffffff1673ffffffffffffffffffffffffffffffffffffffff1673ffffffffffffffffffffffffffffffffffffffff16815260200190815260200160002060000160019054906101000a900460ff161515146105b9576040517f08c379a00000000000000000000000000000000000000000000000000000000081526004016105b090612fef565b60405180910390fd5b6001600e6000600f84815481106105cc57fe5b9060005260206000200160009054906101000a900473ffffffffffffffffffffffffffffffffffffffff1673ffffffffffffffffffffffffffffffffffffffff1673ffffffffffffffffffffffffffffffffffffffff16815260200190815260200160002060000160026101000a81548160ff02191690831515021790555050565b60008061065b8484611ad6565b14156106725761066b8383611b20565b9050610689565b61068660016106818585611b20565b611b6a565b90505b92915050565b600160009054906101000a900473ffffffffffffffffffffffffffffffffffffffff1673ffffffffffffffffffffffffffffffffffffffff163373ffffffffffffffffffffffffffffffffffffffff161461071f576040517f08c379a000000000000000000000000000000000000000000000000000000000815260040161071690612ecf565b60405180910390fd5b61075f600f828154811061072f57fe5b9060005260206000200160009054906101000a900473ffffffffffffffffffffffffffffffffffffffff1661178c565b61079e576040517f08c379a00000000000000000000000000000000000000000000000000000000081526004016107959061302f565b60405180910390fd5b60011515600e6000600f84815481106107b357fe5b9060005260206000200160009054906101000a900473ffffffffffffffffffffffffffffffffffffffff1673ffffffffffffffffffffffffffffffffffffffff1673ffffffffffffffffffffffffffffffffffffffff16815260200190815260200160002060000160019054906101000a900460ff1615151461086b576040517f08c379a000000000000000000000000000000000000000000000000000000000815260040161086290612fef565b60405180910390fd5b6001600e6000600f848154811061087e57fe5b9060005260206000200160009054906101000a900473ffffffffffffffffffffffffffffffffffffffff1673ffffffffffffffffffffffffffffffffffffffff1673ffffffffffffffffffffffffffffffffffffffff16815260200190815260200160002060000160036101000a81548160ff0219169083151502179055506000600e6000600f848154811061091057fe5b9060005260206000200160009054906101000a900473ffffffffffffffffffffffffffffffffffffffff1673ffffffffffffffffffffffffffffffffffffffff1673ffffffffffffffffffffffffffffffffffffffff16815260200190815260200160002060000160006101000a81548160ff02191690831515021790555050565b61099a612196565b6109a38261178c565b6109e2576040517f08c379a00000000000000000000000000000000000000000000000000000000081526004016109d990612f4f565b60405180910390fd5b600e60008373ffffffffffffffffffffffffffffffffffffffff1673ffffffffffffffffffffffffffffffffffffffff168152602001908152602001600020604051806101200160405290816000820160009054906101000a900460ff161515151581526020016000820160019054906101000a900460ff161515151581526020016000820160029054906101000a900460ff161515151581526020016000820160039054906101000a900460ff16151515158152602001600182015481526020016002820154815260200160038201805480602002602001604051908101604052809291908181526020018280548015610afc57602002820191906000526020600020905b815481526020019060010190808311610ae8575b5050505050815260200160048201548152602001600582018054600181600116156101000203166002900480601f016020809104026020016040519081016040528092919081815260200182805460018160011615610100020316600290048015610ba85780601f10610b7d57610100808354040283529160200191610ba8565b820191906000526020600020905b815481529060010190602001808311610b8b57829003601f168201915b5050505050815250509050919050565b610bc0612196565b610bc933610992565b905090565b610bd73361178c565b610c16576040517f08c379a0000000000000000000000000000000000000000000000000000000008152600401610c0d9061304f565b60405180910390fd5b3373ffffffffffffffffffffffffffffffffffffffff16600f8481548110610c3a57fe5b9060005260206000200160009054906101000a900473ffffffffffffffffffffffffffffffffffffffff1673ffffffffffffffffffffffffffffffffffffffff1614610cbb576040517f08c379a0000000000000000000000000000000000000000000000000000000008152600401610cb29061300f565b60405180910390fd5b6000600e60003373ffffffffffffffffffffffffffffffffffffffff1673ffffffffffffffffffffffffffffffffffffffff16815260200190815260200160002060000160016101000a81548160ff0219169083151502179055610d54576040517f08c379a0000000000000000000000000000000000000000000000000000000008152600401610d4b90612eaf565b60405180910390fd5b81600e60003373ffffffffffffffffffffffffffffffffffffffff1673ffffffffffffffffffffffffffffffffffffffff1681526020019081526020016000206001018190555080600e60003373ffffffffffffffffffffffffffffffffffffffff1673ffffffffffffffffffffffffffffffffffffffff168152602001908152602001600020600201819055506060610e2f600e60003373ffffffffffffffffffffffffffffffffffffffff1673ffffffffffffffffffffffffffffffffffffffff16815260200190815260200160002060040154611bbf565b905080600e60003373ffffffffffffffffffffffffffffffffffffffff1673ffffffffffffffffffffffffffffffffffffffff1681526020019081526020016000206003019080519060200190610e879291906121f0565b5050505050565b610e96611cdd565b73ffffffffffffffffffffffffffffffffffffffff166000809054906101000a900473ffffffffffffffffffffffffffffffffffffffff1673ffffffffffffffffffffffffffffffffffffffff1614610f24576040517f08c379a0000000000000000000000000000000000000000000000000000000008152600401610f1b90612fcf565b60405180910390fd5b600073ffffffffffffffffffffffffffffffffffffffff166000809054906101000a900473ffffffffffffffffffffffffffffffffffffffff1673ffffffffffffffffffffffffffffffffffffffff167f8be0079c531659141344cd1fd0a4f28419497f9722a3daafe3b4186f6b6457e060405160405180910390a360008060006101000a81548173ffffffffffffffffffffffffffffffffffffffff021916908373ffffffffffffffffffffffffffffffffffffffff160217905550565b611023600f8681548110610ff357fe5b9060005260206000200160009054906101000a900473ffffffffffffffffffffffffffffffffffffffff1661178c565b611062576040517f08c379a00000000000000000000000000000000000000000000000000000000081526004016110599061302f565b60405180910390fd5b3373ffffffffffffffffffffffffffffffffffffffff16600f868154811061108657fe5b9060005260206000200160009054906101000a900473ffffffffffffffffffffffffffffffffffffffff1673ffffffffffffffffffffffffffffffffffffffff1614611107576040517f08c379a00000000000000000000000000000000000000000000000000000000081526004016110fe9061300f565b60405180910390fd5b60011515600e6000600f888154811061111c57fe5b9060005260206000200160009054906101000a900473ffffffffffffffffffffffffffffffffffffffff1673ffffffffffffffffffffffffffffffffffffffff1673ffffffffffffffffffffffffffffffffffffffff16815260200190815260200160002060000160019054906101000a900460ff161515146111d4576040517f08c379a00000000000000000000000000000000000000000000000000000000081526004016111cb90612fef565b60405180910390fd5b611262848480806020026020016040519081016040528093929190818152602001838360200280828437600081840152601f19601f82011690508083019250505050505050600e60003373ffffffffffffffffffffffffffffffffffffffff1673ffffffffffffffffffffffffffffffffffffffff1681526020019081526020016000206001015484611ce5565b6112a1576040517f08c379a000000000000000000000000000000000000000000000000000000000815260040161129890612f8f565b60405180910390fd5b80600e60003373ffffffffffffffffffffffffffffffffffffffff1673ffffffffffffffffffffffffffffffffffffffff168152602001908152602001600020600201819055505050505050565b6000806112fb3361178c565b61130457600080fd5b61134f600e60003373ffffffffffffffffffffffffffffffffffffffff1673ffffffffffffffffffffffffffffffffffffffff168152602001908152602001600020600401546118b3565b915091509091565b6000600a54905090565b60008060009054906101000a900473ffffffffffffffffffffffffffffffffffffffff16905090565b6113ca600f848154811061139a57fe5b9060005260206000200160009054906101000a900473ffffffffffffffffffffffffffffffffffffffff1661178c565b611409576040517f08c379a00000000000000000000000000000000000000000000000000000000081526004016114009061302f565b60405180910390fd5b3373ffffffffffffffffffffffffffffffffffffffff16600f848154811061142d57fe5b9060005260206000200160009054906101000a900473ffffffffffffffffffffffffffffffffffffffff1673ffffffffffffffffffffffffffffffffffffffff16146114ae576040517f08c379a00000000000000000000000000000000000000000000000000000000081526004016114a59061300f565b60405180910390fd5b60011515600e6000600f86815481106114c357fe5b9060005260206000200160009054906101000a900473ffffffffffffffffffffffffffffffffffffffff1673ffffffffffffffffffffffffffffffffffffffff1673ffffffffffffffffffffffffffffffffffffffff16815260200190815260200160002060000160019054906101000a900460ff1615151461157b576040517f08c379a000000000000000000000000000000000000000000000000000000000815260040161157290612fef565b60405180910390fd5b60011515600e6000600f868154811061159057fe5b9060005260206000200160009054906101000a900473ffffffffffffffffffffffffffffffffffffffff1673ffffffffffffffffffffffffffffffffffffffff1673ffffffffffffffffffffffffffffffffffffffff16815260200190815260200160002060000160029054906101000a900460ff16151514611648576040517f08c379a000000000000000000000000000000000000000000000000000000000815260040161163f90612e8f565b60405180910390fd5b600e6000600f858154811061165957fe5b9060005260206000200160009054906101000a900473ffffffffffffffffffffffffffffffffffffffff1673ffffffffffffffffffffffffffffffffffffffff1673ffffffffffffffffffffffffffffffffffffffff1681526020019081526020016000206002015482826040516020016116d5929190612e29565b604051602081830303815290604052805190602001201461172b576040517f08c379a000000000000000000000000000000000000000000000000000000000815260040161172290612f6f565b60405180910390fd5b8181600e60003373ffffffffffffffffffffffffffffffffffffffff1673ffffffffffffffffffffffffffffffffffffffff168152602001908152602001600020600501919061177c92919061223d565b506117873384611d91565b505050565b600080600f8054905014156117a457600090506118ae565b8173ffffffffffffffffffffffffffffffffffffffff16600f600e60008573ffffffffffffffffffffffffffffffffffffffff1673ffffffffffffffffffffffffffffffffffffffff168152602001908152602001600020600401548154811061180a57fe5b9060005260206000200160009054906101000a900473ffffffffffffffffffffffffffffffffffffffff1673ffffffffffffffffffffffffffffffffffffffff161480156118ab575060011515600e60008473ffffffffffffffffffffffffffffffffffffffff1673ffffffffffffffffffffffffffffffffffffffff16815260200190815260200160002060000160009054906101000a900460ff161515145b90505b919050565b60008060006118c484600654611e5c565b905060006118de6118d783600654611b6a565b6001611ecc565b90508181935093505050915091565b60006118f833611f16565b905090565b611905611cdd565b73ffffffffffffffffffffffffffffffffffffffff166000809054906101000a900473ffffffffffffffffffffffffffffffffffffffff1673ffffffffffffffffffffffffffffffffffffffff1614611993576040517f08c379a000000000000000000000000000000000000000000000000000000000815260040161198a90612fcf565b60405180910390fd5b600073ffffffffffffffffffffffffffffffffffffffff168173ffffffffffffffffffffffffffffffffffffffff161415611a03576040517f08c379a00000000000000000000000000000000000000000000000000000000081526004016119fa90612f0f565b60405180910390fd5b8073ffffffffffffffffffffffffffffffffffffffff166000809054906101000a900473ffffffffffffffffffffffffffffffffffffffff1673ffffffffffffffffffffffffffffffffffffffff167f8be0079c531659141344cd1fd0a4f28419497f9722a3daafe3b4186f6b6457e060405160405180910390a3806000806101000a81548173ffffffffffffffffffffffffffffffffffffffff021916908373ffffffffffffffffffffffffffffffffffffffff16021790555050565b6000600754600a5481611ad057fe5b04905090565b6000611b1883836040518060400160405280601881526020017f536166654d6174683a206d6f64756c6f206279207a65726f000000000000000081525061207e565b905092915050565b6000611b6283836040518060400160405280601a81526020017f536166654d6174683a206469766973696f6e206279207a65726f0000000000008152506120da565b905092915050565b600080828401905083811015611bb5576040517f08c379a0000000000000000000000000000000000000000000000000000000008152600401611bac90612f2f565b60405180910390fd5b8091505092915050565b60606000611bd06008546001611ecc565b831415611be1576009549050611be7565b60065490505b6000611c07600d60009054906101000a900460ff1660ff16600654611e5c565b905060608167ffffffffffffffff81118015611c2257600080fd5b50604051908082528060200260200182016040528015611c515781602001602082028036833780820191505090505b50905060005b82811015611cd157611cac611c6c8786611e5c565b611ca76304945edc600c54604051602001611c88929190612dc7565b6040516020818303038152906040528051906020012060001c87611ad6565b611b6a565b828281518110611cb857fe5b6020026020010181815250508080600101915050611c57565b50809350505050919050565b600033905090565b60008082905060008090505b8551811015611d83576000868281518110611d0857fe5b60200260200101519050808311611d49578281604051602001611d2c929190612d9b565b604051602081830303815290604052805190602001209250611d75565b8083604051602001611d5c929190612d9b565b6040516020818303038152906040528051906020012092505b508080600101915050611cf1565b508381149150509392505050565b6000611da06008546001611ecc565b821415611db1576009549050611db7565b60065490505b6000611dca611dc4611ac1565b83611e5c565b905080471015611e0f576040517f08c379a0000000000000000000000000000000000000000000000000000000008152600401611e0690612e6f565b60405180910390fd5b8373ffffffffffffffffffffffffffffffffffffffff166108fc829081150290604051600060405180830381858888f19350505050158015611e55573d6000803e3d6000fd5b5050505050565b600080831415611e6f5760009050611ec6565b6000828402905082848281611e8057fe5b0414611ec1576040517f08c379a0000000000000000000000000000000000000000000000000000000008152600401611eb890612faf565b60405180910390fd5b809150505b92915050565b6000611f0e83836040518060400160405280601e81526020017f536166654d6174683a207375627472616374696f6e206f766572666c6f77000081525061213b565b905092915050565b6000611f218261178c565b15611f61576040517f08c379a0000000000000000000000000000000000000000000000000000000008152600401611f5890612eef565b60405180910390fd5b600f829080600181540180825580915050600190039060005260206000200160009091909190916101000a81548173ffffffffffffffffffffffffffffffffffffffff021916908373ffffffffffffffffffffffffffffffffffffffff1602179055506001600f8054905003600e60008473ffffffffffffffffffffffffffffffffffffffff1673ffffffffffffffffffffffffffffffffffffffff168152602001908152602001600020600401819055506001600e60008473ffffffffffffffffffffffffffffffffffffffff1673ffffffffffffffffffffffffffffffffffffffff16815260200190815260200160002060000160006101000a81548160ff0219169083151502179055506001600f80549050039050919050565b60008083141582906120c6576040517f08c379a00000000000000000000000000000000000000000000000000000000081526004016120bd9190612e4d565b60405180910390fd5b508284816120d057fe5b0690509392505050565b60008083118290612121576040517f08c379a00000000000000000000000000000000000000000000000000000000081526004016121189190612e4d565b60405180910390fd5b50600083858161212d57fe5b049050809150509392505050565b6000838311158290612183576040517f08c379a000000000000000000000000000000000000000000000000000000000815260040161217a9190612e4d565b60405180910390fd5b5060008385039050809150509392505050565b60405180610120016040528060001515815260200160001515815260200160001515815260200160001515815260200160008019168152602001600080191681526020016060815260200160008152602001606081525090565b82805482825590600052602060002090810192821561222c579160200282015b8281111561222b578251825591602001919060010190612210565b5b50905061223991906122bd565b5090565b828054600181600116156101000203166002900490600052602060002090601f016020900481019282601f1061227e57803560ff19168380011785556122ac565b828001600101855582156122ac579182015b828111156122ab578235825591602001919060010190612290565b5b5090506122b991906122bd565b5090565b6122df91905b808211156122db5760008160009055506001016122c3565b5090565b90565b6000813590506122f1816131f4565b92915050565b60008083601f84011261230957600080fd5b8235905067ffffffffffffffff81111561232257600080fd5b60208301915083602082028301111561233a57600080fd5b9250929050565b6000813590506123508161320b565b92915050565b60008083601f84011261236857600080fd5b8235905067ffffffffffffffff81111561238157600080fd5b60208301915083600182028301111561239957600080fd5b9250929050565b6000813590506123af81613222565b92915050565b6000602082840312156123c757600080fd5b60006123d5848285016122e2565b91505092915050565b6000602082840312156123f057600080fd5b60006123fe848285016123a0565b91505092915050565b60008060008060006080868803121561241f57600080fd5b600061242d888289016123a0565b955050602086013567ffffffffffffffff81111561244a57600080fd5b612456888289016122f7565b9450945050604061246988828901612341565b925050606061247a88828901612341565b9150509295509295909350565b60008060006060848603121561249c57600080fd5b60006124aa868287016123a0565b93505060206124bb86828701612341565b92505060406124cc86828701612341565b9150509250925092565b6000806000604084860312156124eb57600080fd5b60006124f9868287016123a0565b935050602084013567ffffffffffffffff81111561251657600080fd5b61252286828701612356565b92509250509250925092565b6000806040838503121561254157600080fd5b600061254f858286016123a0565b9250506020612560858286016123a0565b9150509250929050565b60006125768383612d66565b60208301905092915050565b61258b8161313b565b82525050565b600061259c826130e5565b6125a68185613108565b93506125b1836130d5565b8060005b838110156125e25781516125c9888261256a565b97506125d4836130fb565b9250506001810190506125b5565b5085935050505092915050565b6125f88161314d565b82525050565b6126078161314d565b82525050565b61261681613159565b82525050565b61262d61262882613159565b6131cf565b82525050565b600061263f838561312a565b935061264c83858461318d565b612655836131e3565b840190509392505050565b600061266b826130f0565b6126758185613119565b935061268581856020860161319c565b61268e816131e3565b840191505092915050565b60006126a4826130f0565b6126ae818561312a565b93506126be81856020860161319c565b6126c7816131e3565b840191505092915050565b60006126df60248361312a565b91507f436f6e747261637420646f6573206e6f74206861766520656e6f75676820667560008301527f6e64732e000000000000000000000000000000000000000000000000000000006020830152604082019050919050565b600061274560238361312a565b91507f426174636820686173206e6f742068616420616e73776572732061636365707460008301527f65642e00000000000000000000000000000000000000000000000000000000006020830152604082019050919050565b60006127ab60338361312a565b91507f416e7377657273206861766520616c7265616479206265656e207375626d697460008301527f74656420666f7220746869732062617463682e000000000000000000000000006020830152604082019050919050565b600061281160328361312a565b91507f4f6e6c7920746865206f776e6572206f662074686973206a6f622063616e206360008301527f616c6c20746869732066756e6374696f6e2e00000000000000000000000000006020830152604082019050919050565b600061287760328361312a565b91507f596f7572206164647265737320697320616c7265616479206c696e6b6564207460008301527f6f20616e206163746976652062617463682e00000000000000000000000000006020830152604082019050919050565b60006128dd60268361312a565b91507f4f776e61626c653a206e6577206f776e657220697320746865207a65726f206160008301527f64647265737300000000000000000000000000000000000000000000000000006020830152604082019050919050565b6000612943601b8361312a565b91507f536166654d6174683a206164646974696f6e206f766572666c6f7700000000006000830152602082019050919050565b600061298360258361312a565b91507f4120626174636820646f6573206e6f7420657869737420666f7220746869732060008301527f757365722e0000000000000000000000000000000000000000000000000000006020830152604082019050919050565b60006129e960428361312a565b91507f42617463682066696e616c697a656420616e73776572206861736820646f657360008301527f206e6f74206d6174636820636f6d6d697474656420616e73776572732068617360208301527f682e0000000000000000000000000000000000000000000000000000000000006040830152606082019050919050565b6000612a7560148361312a565b91507f4d65726b6c652070726f6f66206661696c65642e0000000000000000000000006000830152602082019050919050565b6000612ab560218361312a565b91507f536166654d6174683a206d756c7469706c69636174696f6e206f766572666c6f60008301527f77000000000000000000000000000000000000000000000000000000000000006020830152604082019050919050565b6000612b1b60208361312a565b91507f4f776e61626c653a2063616c6c6572206973206e6f7420746865206f776e65726000830152602082019050919050565b6000612b5b60248361312a565b91507f426174636820686173206e6f742068616420616e7377657273207375626d697460008301527f7465642e000000000000000000000000000000000000000000000000000000006020830152604082019050919050565b6000612bc1601f8361312a565b91507f426174636820646f6573206e6f742062656c6f6e6720746f2073656e646572006000830152602082019050919050565b6000612c01601a8361312a565b91507f426174636820696e64657820646f6573206e6f742065786973740000000000006000830152602082019050919050565b6000612c41602c8361312a565b91507f54686973206163636f756e7420646f6573206e6f74206861766520612062617460008301527f63682072657365727665642e00000000000000000000000000000000000000006020830152604082019050919050565b600061012083016000830151612cb360008601826125ef565b506020830151612cc660208601826125ef565b506040830151612cd960408601826125ef565b506060830151612cec60608601826125ef565b506080830151612cff608086018261260d565b5060a0830151612d1260a086018261260d565b5060c083015184820360c0860152612d2a8282612591565b91505060e0830151612d3f60e0860182612d66565b50610100830151848203610100860152612d598282612660565b9150508091505092915050565b612d6f81613183565b82525050565b612d7e81613183565b82525050565b612d95612d9082613183565b6131d9565b82525050565b6000612da7828561261c565b602082019150612db7828461261c565b6020820191508190509392505050565b6000612dd38285612d84565b602082019150612de38284612d84565b6020820191508190509392505050565b6000602082019050612e086000830184612582565b92915050565b6000602082019050612e2360008301846125fe565b92915050565b60006020820190508181036000830152612e44818486612633565b90509392505050565b60006020820190508181036000830152612e678184612699565b905092915050565b60006020820190508181036000830152612e88816126d2565b9050919050565b60006020820190508181036000830152612ea881612738565b9050919050565b60006020820190508181036000830152612ec88161279e565b9050919050565b60006020820190508181036000830152612ee881612804565b9050919050565b60006020820190508181036000830152612f088161286a565b9050919050565b60006020820190508181036000830152612f28816128d0565b9050919050565b60006020820190508181036000830152612f4881612936565b9050919050565b60006020820190508181036000830152612f6881612976565b9050919050565b60006020820190508181036000830152612f88816129dc565b9050919050565b60006020820190508181036000830152612fa881612a68565b9050919050565b60006020820190508181036000830152612fc881612aa8565b9050919050565b60006020820190508181036000830152612fe881612b0e565b9050919050565b6000602082019050818103600083015261300881612b4e565b9050919050565b6000602082019050818103600083015261302881612bb4565b9050919050565b6000602082019050818103600083015261304881612bf4565b9050919050565b6000602082019050818103600083015261306881612c34565b9050919050565b600060208201905081810360008301526130898184612c9a565b905092915050565b60006020820190506130a66000830184612d75565b92915050565b60006040820190506130c16000830185612d75565b6130ce6020830184612d75565b9392505050565b6000819050602082019050919050565b600081519050919050565b600081519050919050565b6000602082019050919050565b600082825260208201905092915050565b600082825260208201905092915050565b600082825260208201905092915050565b600061314682613163565b9050919050565b60008115159050919050565b6000819050919050565b600073ffffffffffffffffffffffffffffffffffffffff82169050919050565b6000819050919050565b82818337600083830152505050565b60005b838110156131ba57808201518184015260208101905061319f565b838111156131c9576000848401525b50505050565b6000819050919050565b6000819050919050565b6000601f19601f8301169050919050565b6131fd8161313b565b811461320857600080fd5b50565b61321481613159565b811461321f57600080fd5b50565b61322b81613183565b811461323657600080fd5b5056fea26469706673582212204c545b0034ab52f58e048a0dcdc11cd5a8aa8473b8ff22ca000b86857f689f8b64736f6c63430006060033546f74616c206e756d626572206f66207461736b73206d7573742062652067726561746572207468616e207a65726f20616e642067726561746572207468616e206f7220657175616c20746f20746865206d61782062617463682073697a652e5265766965772070657263656e74616765206d7573742062652067726561746572207468616e203020616e64206c657373207468616e206f7220657175616c20746f203130304d61782062617463682073697a65206d7573742062652067726561746572207468616e207a65726f20616e64206c657373207468616e206f7220657175616c20746f2074686520746f74616c206e756d626572206f66207461736b732e42617463682073697a652063616e6e6f742062652067726561746572207468616e20746865206e756d626572206f66207461736b732ea2646970667358221220ab4626d330c7ed873d03a10fa9be4eeda2f82f73fe34a1b152785a7f7972a1bb64736f6c63430006060033",
  "immutableReferences": {},
  "source": "// SPDX-License-Identifier: MIT\r\npragma solidity >=0.4.22 <0.9.0;\r\n\r\nimport \"./Job.sol\";\r\n\r\ncontract JobFactory {\r\n    Job[] public jobs;\r\n\r\n    event JobPublished(address publisher, address job);\r\n\r\n    function createAndEndow(\r\n        string memory _topLevelCid,\r\n        string memory _jobType,\r\n        string memory _jobName,\r\n        string memory _jobDesc,\r\n        uint256 _maxBatchSize,\r\n        uint256 _numTasks,\r\n        uint8 _reviewPct\r\n    ) public payable returns (Job) {\r\n        require(\r\n            _reviewPct <= 100 && _reviewPct > 0,\r\n            \"Review percentage must be greater than 0 and less than or equal to 100\"\r\n        );\r\n        require(\r\n            _maxBatchSize <= _numTasks,\r\n            \"Batch size cannot be greater than the number of tasks.\"\r\n        );\r\n\r\n        require(bytes(_topLevelCid).length > 0, \"Please provide all fields.\");\r\n        require(bytes(_jobType).length > 0, \"Please provide all fields.\");\r\n        require(bytes(_jobName).length > 0, \"Please provide all fields.\");\r\n        require(bytes(_jobDesc).length > 0, \"Please provide all fields.\");\r\n        require(\r\n            _maxBatchSize > 0 && _maxBatchSize <= _numTasks,\r\n            \"Max batch size must be greater than zero and less than or equal to the total number of tasks.\"\r\n        );\r\n        require(\r\n            _numTasks > 0 && _numTasks >= _maxBatchSize,\r\n            \"Total number of tasks must be greater than zero and greater than or equal to the max batch size.\"\r\n        );\r\n\r\n        Job job =\r\n            (new Job){value: msg.value}(\r\n                msg.sender,\r\n                _topLevelCid,\r\n                _jobType,\r\n                _jobName,\r\n                _jobDesc,\r\n                _maxBatchSize,\r\n                _numTasks,\r\n                _reviewPct\r\n            );\r\n        jobs.push(job);\r\n\r\n        emit JobPublished(msg.sender, address(job));\r\n        return job;\r\n    }\r\n\r\n    function viewJobs() external view returns (Job[] memory) {\r\n        return jobs;\r\n    }\r\n}\r\n",
  "sourcePath": "E:/cryptodev/sozu/contracts/JobFactory.sol",
  "compiler": {
    "name": "solc",
    "version": "0.6.6+commit.6c089d02.Emscripten.clang"
  },
  "schemaVersion": "3.3.4",
  "updatedAt": "2021-04-06T07:25:56.359Z",
  "networkType": "ethereum",
  "devdoc": {
    "methods": {}
  },
  "userdoc": {
    "methods": {}
  }
}