{
  "contractName": "RandomNumberConsumer",
  "abi": [
    {
      "inputs": [
        {
          "internalType": "address",
          "name": "_linkTokenAddress",
          "type": "address"
        },
        {
          "internalType": "bytes32",
          "name": "_keyHash",
          "type": "bytes32"
        },
        {
          "internalType": "address",
          "name": "_vrfCoordinatorAddress",
          "type": "address"
        },
        {
          "internalType": "uint256",
          "name": "_fee",
          "type": "uint256"
        }
      ],
      "stateMutability": "nonpayable",
      "type": "constructor"
    },
    {
      "anonymous": false,
      "inputs": [
        {
          "indexed": false,
          "internalType": "uint256",
          "name": "randomness",
          "type": "uint256"
        }
      ],
      "name": "randomNumberEmitted",
      "type": "event"
    },
    {
      "inputs": [],
      "name": "lastRequestId",
      "outputs": [
        {
          "internalType": "bytes32",
          "name": "",
          "type": "bytes32"
        }
      ],
      "stateMutability": "view",
      "type": "function"
    },
    {
      "inputs": [],
      "name": "randomResult",
      "outputs": [
        {
          "internalType": "uint256",
          "name": "",
          "type": "uint256"
        }
      ],
      "stateMutability": "view",
      "type": "function"
    },
    {
      "inputs": [
        {
          "internalType": "bytes32",
          "name": "requestId",
          "type": "bytes32"
        },
        {
          "internalType": "uint256",
          "name": "randomness",
          "type": "uint256"
        }
      ],
      "name": "rawFulfillRandomness",
      "outputs": [],
      "stateMutability": "nonpayable",
      "type": "function"
    },
    {
      "inputs": [
        {
          "internalType": "uint256",
          "name": "userProvidedSeed",
          "type": "uint256"
        }
      ],
      "name": "getRandomNumber",
      "outputs": [
        {
          "internalType": "bytes32",
          "name": "requestId",
          "type": "bytes32"
        }
      ],
      "stateMutability": "nonpayable",
      "type": "function"
    }
  ],
  "bytecode": "0x60c060405234801561001057600080fd5b506040516108433803806108438339818101604052608081101561003357600080fd5b810190808051906020019092919080519060200190929190805190602001909291908051906020019092919050505081848173ffffffffffffffffffffffffffffffffffffffff1660a08173ffffffffffffffffffffffffffffffffffffffff1660601b815250508073ffffffffffffffffffffffffffffffffffffffff1660808173ffffffffffffffffffffffffffffffffffffffff1660601b81525050505082600181905550806002819055505050505060805160601c60a05160601c61072a6101196000398061010f52806103c35250806101e35280610387525061072a6000f3fe608060405234801561001057600080fd5b506004361061004c5760003560e01c806342619f661461005157806394985ddd1461006f578063b37217a4146100a7578063fc2a88c3146100e9575b600080fd5b610059610107565b6040518082815260200191505060405180910390f35b6100a56004803603604081101561008557600080fd5b81019080803590602001909291908035906020019092919050505061010d565b005b6100d3600480360360208110156100bd57600080fd5b81019080803590602001909291905050506101dc565b6040518082815260200191505060405180910390f35b6100f161033b565b6040518082815260200191505060405180910390f35b60035481565b7f000000000000000000000000000000000000000000000000000000000000000073ffffffffffffffffffffffffffffffffffffffff163373ffffffffffffffffffffffffffffffffffffffff16146101ce576040517f08c379a000000000000000000000000000000000000000000000000000000000815260040180806020018281038252601f8152602001807f4f6e6c7920565246436f6f7264696e61746f722063616e2066756c66696c6c0081525060200191505060405180910390fd5b6101d88282610341565b5050565b60006002547f000000000000000000000000000000000000000000000000000000000000000073ffffffffffffffffffffffffffffffffffffffff166370a08231306040518263ffffffff1660e01b8152600401808273ffffffffffffffffffffffffffffffffffffffff1673ffffffffffffffffffffffffffffffffffffffff16815260200191505060206040518083038186803b15801561027e57600080fd5b505afa158015610292573d6000803e3d6000fd5b505050506040513d60208110156102a857600080fd5b81019080805190602001909291905050501015610310576040517f08c379a000000000000000000000000000000000000000000000000000000000815260040180806020018281038252602b8152602001806106ca602b913960400191505060405180910390fd5b61031f60015460025484610383565b60048190555061033460015460025484610383565b9050919050565b60045481565b806003819055507f95dc174d3527ab8d16ae8eaa3b5f7aebcce8887dc11dcbf3696594fd3588cdc4816040518082815260200191505060405180910390a15050565b60007f000000000000000000000000000000000000000000000000000000000000000073ffffffffffffffffffffffffffffffffffffffff16634000aea07f000000000000000000000000000000000000000000000000000000000000000085878660405160200180838152602001828152602001925050506040516020818303038152906040526040518463ffffffff1660e01b8152600401808473ffffffffffffffffffffffffffffffffffffffff1673ffffffffffffffffffffffffffffffffffffffff16815260200183815260200180602001828103825283818151815260200191508051906020019080838360005b83811015610492578082015181840152602081019050610477565b50505050905090810190601f1680156104bf5780820380516001836020036101000a031916815260200191505b50945050505050602060405180830381600087803b1580156104e057600080fd5b505af11580156104f4573d6000803e3d6000fd5b505050506040513d602081101561050a57600080fd5b810190808051906020019092919050505050600061053c8584306000808a81526020019081526020016000205461058e565b905061056460016000808881526020019081526020016000205461060890919063ffffffff16565b600080878152602001908152602001600020819055506105848582610690565b9150509392505050565b600084848484604051602001808581526020018481526020018373ffffffffffffffffffffffffffffffffffffffff1673ffffffffffffffffffffffffffffffffffffffff1681526020018281526020019450505050506040516020818303038152906040528051906020012060001c9050949350505050565b600080828401905083811015610686576040517f08c379a000000000000000000000000000000000000000000000000000000000815260040180806020018281038252601b8152602001807f536166654d6174683a206164646974696f6e206f766572666c6f77000000000081525060200191505060405180910390fd5b8091505092915050565b6000828260405160200180838152602001828152602001925050506040516020818303038152906040528051906020012090509291505056fe4e6f7420656e6f756768204c494e4b202d2066696c6c20636f6e7472616374207769746820666175636574a2646970667358221220b2d05c35d917d2489d8d8b40ae048d961f7e69c02bc63a8e2973af7d30d184b864736f6c63430006060033",
  "immutableReferences": {
    "1970": [
      {
        "length": 32,
        "start": 483
      },
      {
        "length": 32,
        "start": 903
      }
    ],
    "1972": [
      {
        "length": 32,
        "start": 271
      },
      {
        "length": 32,
        "start": 963
      }
    ]
  },
  "source": "pragma solidity >=0.4.22 <0.9.0;\r\n\r\nimport \"../node_modules/@chainlink/contracts/src/v0.6/VRFConsumerBase.sol\";\r\n\r\ncontract RandomNumberConsumer is VRFConsumerBase {\r\n    bytes32 internal keyHash;\r\n    uint256 internal fee;\r\n    uint256 public randomResult;\r\n    bytes32 public lastRequestId;\r\n\r\n    /**\r\n     * Constructor inherits VRFConsumerBase\r\n     *\r\n     * Network: Kovan\r\n     * Chainlink VRF Coordinator address: 0xdD3782915140c8f3b190B5D67eAc6dc5760C46E9\r\n     * LINK token address:                0xa36085F69e2889c224210F603D836748e7dC0088\r\n     * Key Hash: 0x6c3699283bda56ad74f6b855546325b68d482e983852a7a82979cc4807b641f4\r\n     */\r\n    constructor(\r\n        address _linkTokenAddress,\r\n        bytes32 _keyHash,\r\n        address _vrfCoordinatorAddress,\r\n        uint256 _fee\r\n    )\r\n        public\r\n        VRFConsumerBase(\r\n            _vrfCoordinatorAddress, // VRF Coordinator\r\n            _linkTokenAddress // LINK Token\r\n        )\r\n    {\r\n        keyHash = _keyHash;\r\n        fee = _fee;\r\n        //  0.1 * 10**18 // 0.1 LINK (varies by network)\r\n    }\r\n\r\n    event randomNumberEmitted(uint256 randomness);\r\n\r\n    /**\r\n     * Requests randomness from a user-provided seed\r\n     */\r\n    function getRandomNumber(uint256 userProvidedSeed)\r\n        public\r\n        returns (bytes32 requestId)\r\n    {\r\n        require(\r\n            LINK.balanceOf(address(this)) >= fee,\r\n            \"Not enough LINK - fill contract with faucet\"\r\n        ); // Disabled for testing\r\n        lastRequestId = requestRandomness(keyHash, fee, userProvidedSeed);\r\n        return requestRandomness(keyHash, fee, userProvidedSeed);\r\n    }\r\n\r\n    /**\r\n     * Callback function used by VRF Coordinator\r\n     */\r\n    function fulfillRandomness(bytes32 requestId, uint256 randomness)\r\n        internal\r\n        override\r\n    {\r\n        randomResult = randomness;\r\n        emit randomNumberEmitted(randomness);\r\n    }\r\n}\r\n",
  "sourcePath": "E:/cryptodev/sozu/contracts/RandomNumberConsumer.sol",
  "compiler": {
    "name": "solc",
    "version": "0.6.6+commit.6c089d02.Emscripten.clang"
  },
  "schemaVersion": "3.3.4",
  "updatedAt": "2021-04-06T07:25:54.621Z",
  "devdoc": {
    "methods": {}
  },
  "userdoc": {
    "methods": {
      "constructor": "Constructor inherits VRFConsumerBase      * Network: Kovan Chainlink VRF Coordinator address: 0xdD3782915140c8f3b190B5D67eAc6dc5760C46E9 LINK token address:                0xa36085F69e2889c224210F603D836748e7dC0088 Key Hash: 0x6c3699283bda56ad74f6b855546325b68d482e983852a7a82979cc4807b641f4",
      "getRandomNumber(uint256)": {
        "notice": "Requests randomness from a user-provided seed"
      }
    }
  }
}